{
  "contractName": "Dex",
  "abi": [
    {
      "inputs": [],
      "stateMutability": "nonpayable",
      "type": "constructor"
    },
    {
      "anonymous": false,
      "inputs": [
        {
          "indexed": false,
          "internalType": "address",
          "name": "tokenAddress",
          "type": "address"
        },
        {
          "indexed": false,
          "internalType": "string",
          "name": "tokenName",
          "type": "string"
        },
        {
          "indexed": false,
          "internalType": "string",
          "name": "tokenSymbol",
          "type": "string"
        }
      ],
      "name": "LogTokenCreated",
      "type": "event"
    },
    {
      "anonymous": false,
      "inputs": [
        {
          "indexed": false,
          "internalType": "address",
          "name": "token",
          "type": "address"
        },
        {
          "indexed": false,
          "internalType": "address",
          "name": "receipient",
          "type": "address"
        },
        {
          "indexed": false,
          "internalType": "uint256",
          "name": "amount",
          "type": "uint256"
        }
      ],
      "name": "LogTokenSent",
      "type": "event"
    },
    {
      "inputs": [],
      "name": "owner",
      "outputs": [
        {
          "internalType": "address",
          "name": "",
          "type": "address"
        }
      ],
      "stateMutability": "view",
      "type": "function"
    },
    {
      "inputs": [
        {
          "internalType": "string",
          "name": "_name",
          "type": "string"
        },
        {
          "internalType": "string",
          "name": "_symbol",
          "type": "string"
        }
      ],
      "name": "createToken",
      "outputs": [],
      "stateMutability": "nonpayable",
      "type": "function"
    },
    {
      "inputs": [
        {
          "internalType": "address",
          "name": "_token",
          "type": "address"
        },
        {
          "internalType": "address",
          "name": "_receipient",
          "type": "address"
        },
        {
          "internalType": "uint256",
          "name": "_amount",
          "type": "uint256"
        }
      ],
      "name": "sendToken",
      "outputs": [],
      "stateMutability": "nonpayable",
      "type": "function"
    },
    {
      "inputs": [],
      "name": "getAvailableTokens",
      "outputs": [
        {
          "internalType": "address[]",
          "name": "",
          "type": "address[]"
        }
      ],
      "stateMutability": "view",
      "type": "function"
    },
    {
      "inputs": [
        {
          "internalType": "address",
          "name": "_token",
          "type": "address"
        }
      ],
      "name": "getTokenName",
      "outputs": [
        {
          "internalType": "string",
          "name": "",
          "type": "string"
        }
      ],
      "stateMutability": "view",
      "type": "function"
    },
    {
      "inputs": [
        {
          "internalType": "address",
          "name": "_token",
          "type": "address"
        }
      ],
      "name": "getTokenBalance",
      "outputs": [
        {
          "internalType": "uint256",
          "name": "",
          "type": "uint256"
        }
      ],
      "stateMutability": "view",
      "type": "function"
    }
  ],
  "bytecode": "0x608060405234801561001057600080fd5b5033600360006101000a81548173ffffffffffffffffffffffffffffffffffffffff021916908373ffffffffffffffffffffffffffffffffffffffff1602179055506000600281905550612ec1806100696000396000f3fe60806040523480156200001157600080fd5b50600436106200006a5760003560e01c80632f2f2d56146200006f5780632fdcfbd2146200008f5780633aecd0e314620000af5780636f0fccab14620000e55780638da5cb5b146200011b578063e35568cb146200013d575b600080fd5b6200008d60048036038101906200008791906200091d565b6200015f565b005b620000ad6004803603810190620000a7919062000a42565b620002da565b005b620000cd6004803603810190620000c7919062000a9e565b62000404565b604051620000dc919062000ae1565b60405180910390f35b620001036004803603810190620000fd919062000a9e565b620004ef565b60405162000112919062000b87565b60405180910390f35b62000125620005d3565b60405162000134919062000bbc565b60405180910390f35b62000147620005f9565b60405162000156919062000ca7565b60405180910390f35b60008282604051620001719062000799565b6200017e92919062000ccb565b604051809103906000f0801580156200019b573d6000803e3d6000fd5b509050806000808373ffffffffffffffffffffffffffffffffffffffff1673ffffffffffffffffffffffffffffffffffffffff16815260200190815260200160002060006101000a81548173ffffffffffffffffffffffffffffffffffffffff021916908373ffffffffffffffffffffffffffffffffffffffff1602179055506001819080600181540180825580915050600190039060005260206000200160009091909190916101000a81548173ffffffffffffffffffffffffffffffffffffffff021916908373ffffffffffffffffffffffffffffffffffffffff16021790555060026000815480929190620002939062000d35565b91905055507f28258920a6a347f90c2201ff8bd92b5b7a00bbf5c88c5fce1a1fb42c6546e710818484604051620002cd9392919062000d82565b60405180910390a1505050565b60008060008573ffffffffffffffffffffffffffffffffffffffff1673ffffffffffffffffffffffffffffffffffffffff16815260200190815260200160002060009054906101000a900473ffffffffffffffffffffffffffffffffffffffff1690508073ffffffffffffffffffffffffffffffffffffffff1663a9059cbb84846040518363ffffffff1660e01b81526004016200037a92919062000dcd565b6020604051808303816000875af11580156200039a573d6000803e3d6000fd5b505050506040513d601f19601f82011682018060405250810190620003c0919062000e37565b507faa8d76b5ad42bc1fee99a7520271a35d2442ee3ff95215fbc2b4856af9616888848484604051620003f69392919062000e69565b60405180910390a150505050565b6000806000808473ffffffffffffffffffffffffffffffffffffffff1673ffffffffffffffffffffffffffffffffffffffff16815260200190815260200160002060009054906101000a900473ffffffffffffffffffffffffffffffffffffffff1690508073ffffffffffffffffffffffffffffffffffffffff166370a08231336040518263ffffffff1660e01b8152600401620004a3919062000bbc565b602060405180830381865afa158015620004c1573d6000803e3d6000fd5b505050506040513d601f19601f82011682018060405250810190620004e7919062000ebd565b915050919050565b606060008060008473ffffffffffffffffffffffffffffffffffffffff1673ffffffffffffffffffffffffffffffffffffffff16815260200190815260200160002060009054906101000a900473ffffffffffffffffffffffffffffffffffffffff1690508073ffffffffffffffffffffffffffffffffffffffff166306fdde036040518163ffffffff1660e01b8152600401600060405180830381865afa158015620005a0573d6000803e3d6000fd5b505050506040513d6000823e3d601f19601f82011682018060405250810190620005cb919062000f6d565b915050919050565b600360009054906101000a900473ffffffffffffffffffffffffffffffffffffffff1681565b6060600060025467ffffffffffffffff8111156200061c576200061b620007d6565b5b6040519080825280602002602001820160405280156200064b5781602001602082028036833780820191505090505b50905060005b6002548110156200079157600073ffffffffffffffffffffffffffffffffffffffff16600182815481106200068b576200068a62000fbe565b5b9060005260206000200160009054906101000a900473ffffffffffffffffffffffffffffffffffffffff1673ffffffffffffffffffffffffffffffffffffffff1603620006e8578080620006df9062000fed565b9150506200077b565b60018181548110620006ff57620006fe62000fbe565b5b9060005260206000200160009054906101000a900473ffffffffffffffffffffffffffffffffffffffff1682828151811062000740576200073f62000fbe565b5b602002602001019073ffffffffffffffffffffffffffffffffffffffff16908173ffffffffffffffffffffffffffffffffffffffff16815250505b8080620007889062000d35565b91505062000651565b508091505090565b611e70806200101c83390190565b6000604051905090565b600080fd5b600080fd5b600080fd5b600080fd5b6000601f19601f8301169050919050565b7f4e487b7100000000000000000000000000000000000000000000000000000000600052604160045260246000fd5b6200081082620007c5565b810181811067ffffffffffffffff82111715620008325762000831620007d6565b5b80604052505050565b600062000847620007a7565b905062000855828262000805565b919050565b600067ffffffffffffffff821115620008785762000877620007d6565b5b6200088382620007c5565b9050602081019050919050565b82818337600083830152505050565b6000620008b6620008b0846200085a565b6200083b565b905082815260208101848484011115620008d557620008d4620007c0565b5b620008e284828562000890565b509392505050565b600082601f830112620009025762000901620007bb565b5b8135620009148482602086016200089f565b91505092915050565b60008060408385031215620009375762000936620007b1565b5b600083013567ffffffffffffffff811115620009585762000957620007b6565b5b6200096685828601620008ea565b925050602083013567ffffffffffffffff8111156200098a5762000989620007b6565b5b6200099885828601620008ea565b9150509250929050565b600073ffffffffffffffffffffffffffffffffffffffff82169050919050565b6000620009cf82620009a2565b9050919050565b620009e181620009c2565b8114620009ed57600080fd5b50565b60008135905062000a0181620009d6565b92915050565b6000819050919050565b62000a1c8162000a07565b811462000a2857600080fd5b50565b60008135905062000a3c8162000a11565b92915050565b60008060006060848603121562000a5e5762000a5d620007b1565b5b600062000a6e86828701620009f0565b935050602062000a8186828701620009f0565b925050604062000a948682870162000a2b565b9150509250925092565b60006020828403121562000ab75762000ab6620007b1565b5b600062000ac784828501620009f0565b91505092915050565b62000adb8162000a07565b82525050565b600060208201905062000af8600083018462000ad0565b92915050565b600081519050919050565b600082825260208201905092915050565b60005b8381101562000b3a57808201518184015260208101905062000b1d565b60008484015250505050565b600062000b538262000afe565b62000b5f818562000b09565b935062000b7181856020860162000b1a565b62000b7c81620007c5565b840191505092915050565b6000602082019050818103600083015262000ba3818462000b46565b905092915050565b62000bb681620009c2565b82525050565b600060208201905062000bd3600083018462000bab565b92915050565b600081519050919050565b600082825260208201905092915050565b6000819050602082019050919050565b62000c1081620009c2565b82525050565b600062000c24838362000c05565b60208301905092915050565b6000602082019050919050565b600062000c4a8262000bd9565b62000c56818562000be4565b935062000c638362000bf5565b8060005b8381101562000c9a57815162000c7e888262000c16565b975062000c8b8362000c30565b92505060018101905062000c67565b5085935050505092915050565b6000602082019050818103600083015262000cc3818462000c3d565b905092915050565b6000604082019050818103600083015262000ce7818562000b46565b9050818103602083015262000cfd818462000b46565b90509392505050565b7f4e487b7100000000000000000000000000000000000000000000000000000000600052601160045260246000fd5b600062000d428262000a07565b91507fffffffffffffffffffffffffffffffffffffffffffffffffffffffffffffffff820362000d775762000d7662000d06565b5b600182019050919050565b600060608201905062000d99600083018662000bab565b818103602083015262000dad818562000b46565b9050818103604083015262000dc3818462000b46565b9050949350505050565b600060408201905062000de4600083018562000bab565b62000df3602083018462000ad0565b9392505050565b60008115159050919050565b62000e118162000dfa565b811462000e1d57600080fd5b50565b60008151905062000e318162000e06565b92915050565b60006020828403121562000e505762000e4f620007b1565b5b600062000e608482850162000e20565b91505092915050565b600060608201905062000e80600083018662000bab565b62000e8f602083018562000bab565b62000e9e604083018462000ad0565b949350505050565b60008151905062000eb78162000a11565b92915050565b60006020828403121562000ed65762000ed5620007b1565b5b600062000ee68482850162000ea6565b91505092915050565b600062000f0662000f00846200085a565b6200083b565b90508281526020810184848401111562000f255762000f24620007c0565b5b62000f3284828562000b1a565b509392505050565b600082601f83011262000f525762000f51620007bb565b5b815162000f6484826020860162000eef565b91505092915050565b60006020828403121562000f865762000f85620007b1565b5b600082015167ffffffffffffffff81111562000fa75762000fa6620007b6565b5b62000fb58482850162000f3a565b91505092915050565b7f4e487b7100000000000000000000000000000000000000000000000000000000600052603260045260246000fd5b600062000ffa8262000a07565b91506000820362001010576200100f62000d06565b5b60018203905091905056fe60806040523480156200001157600080fd5b5060405162001e7038038062001e708339818101604052810190620000379190620003d1565b818181600390816200004a9190620006a1565b5080600490816200005c9190620006a1565b50505033600560006101000a81548173ffffffffffffffffffffffffffffffffffffffff021916908373ffffffffffffffffffffffffffffffffffffffff160217905550620000b4336103e8620000bc60201b60201c565b5050620008a3565b600073ffffffffffffffffffffffffffffffffffffffff168273ffffffffffffffffffffffffffffffffffffffff16036200012e576040517f08c379a00000000000000000000000000000000000000000000000000000000081526004016200012590620007e9565b60405180910390fd5b62000142600083836200023460201b60201c565b80600260008282546200015691906200083a565b92505081905550806000808473ffffffffffffffffffffffffffffffffffffffff1673ffffffffffffffffffffffffffffffffffffffff1681526020019081526020016000206000828254620001ad91906200083a565b925050819055508173ffffffffffffffffffffffffffffffffffffffff16600073ffffffffffffffffffffffffffffffffffffffff167fddf252ad1be2c89b69c2b068fc378daa952ba7f163c4a11628f55a4df523b3ef8360405162000214919062000886565b60405180910390a362000230600083836200023960201b60201c565b5050565b505050565b505050565b6000604051905090565b600080fd5b600080fd5b600080fd5b600080fd5b6000601f19601f8301169050919050565b7f4e487b7100000000000000000000000000000000000000000000000000000000600052604160045260246000fd5b620002a7826200025c565b810181811067ffffffffffffffff82111715620002c957620002c86200026d565b5b80604052505050565b6000620002de6200023e565b9050620002ec82826200029c565b919050565b600067ffffffffffffffff8211156200030f576200030e6200026d565b5b6200031a826200025c565b9050602081019050919050565b60005b83811015620003475780820151818401526020810190506200032a565b60008484015250505050565b60006200036a6200036484620002f1565b620002d2565b90508281526020810184848401111562000389576200038862000257565b5b6200039684828562000327565b509392505050565b600082601f830112620003b657620003b562000252565b5b8151620003c884826020860162000353565b91505092915050565b60008060408385031215620003eb57620003ea62000248565b5b600083015167ffffffffffffffff8111156200040c576200040b6200024d565b5b6200041a858286016200039e565b925050602083015167ffffffffffffffff8111156200043e576200043d6200024d565b5b6200044c858286016200039e565b9150509250929050565b600081519050919050565b7f4e487b7100000000000000000000000000000000000000000000000000000000600052602260045260246000fd5b60006002820490506001821680620004a957607f821691505b602082108103620004bf57620004be62000461565b5b50919050565b60008190508160005260206000209050919050565b60006020601f8301049050919050565b600082821b905092915050565b600060088302620005297fffffffffffffffffffffffffffffffffffffffffffffffffffffffffffffffff82620004ea565b620005358683620004ea565b95508019841693508086168417925050509392505050565b6000819050919050565b6000819050919050565b6000620005826200057c62000576846200054d565b62000557565b6200054d565b9050919050565b6000819050919050565b6200059e8362000561565b620005b6620005ad8262000589565b848454620004f7565b825550505050565b600090565b620005cd620005be565b620005da81848462000593565b505050565b5b818110156200060257620005f6600082620005c3565b600181019050620005e0565b5050565b601f82111562000651576200061b81620004c5565b6200062684620004da565b8101602085101562000636578190505b6200064e6200064585620004da565b830182620005df565b50505b505050565b600082821c905092915050565b6000620006766000198460080262000656565b1980831691505092915050565b600062000691838362000663565b9150826002028217905092915050565b620006ac8262000456565b67ffffffffffffffff811115620006c857620006c76200026d565b5b620006d4825462000490565b620006e182828562000606565b600060209050601f83116001811462000719576000841562000704578287015190505b62000710858262000683565b86555062000780565b601f1984166200072986620004c5565b60005b8281101562000753578489015182556001820191506020850194506020810190506200072c565b868310156200077357848901516200076f601f89168262000663565b8355505b6001600288020188555050505b505050505050565b600082825260208201905092915050565b7f45524332303a206d696e7420746f20746865207a65726f206164647265737300600082015250565b6000620007d1601f8362000788565b9150620007de8262000799565b602082019050919050565b600060208201905081810360008301526200080481620007c2565b9050919050565b7f4e487b7100000000000000000000000000000000000000000000000000000000600052601160045260246000fd5b600062000847826200054d565b915062000854836200054d565b92508282019050808211156200086f576200086e6200080b565b5b92915050565b62000880816200054d565b82525050565b60006020820190506200089d600083018462000875565b92915050565b6115bd80620008b36000396000f3fe608060405234801561001057600080fd5b50600436106100cf5760003560e01c806340c10f191161008c578063a457c2d711610066578063a457c2d714610228578063a9059cbb14610258578063dd62ed3e14610288578063f851a440146102b8576100cf565b806340c10f19146101be57806370a08231146101da57806395d89b411461020a576100cf565b806306fdde03146100d4578063095ea7b3146100f257806318160ddd1461012257806323b872dd14610140578063313ce56714610170578063395093511461018e575b600080fd5b6100dc6102d6565b6040516100e99190610d98565b60405180910390f35b61010c60048036038101906101079190610e53565b610368565b6040516101199190610eae565b60405180910390f35b61012a61038b565b6040516101379190610ed8565b60405180910390f35b61015a60048036038101906101559190610ef3565b610395565b6040516101679190610eae565b60405180910390f35b6101786103c4565b6040516101859190610f62565b60405180910390f35b6101a860048036038101906101a39190610e53565b6103cd565b6040516101b59190610eae565b60405180910390f35b6101d860048036038101906101d39190610e53565b610404565b005b6101f460048036038101906101ef9190610f7d565b6104a2565b6040516102019190610ed8565b60405180910390f35b6102126104ea565b60405161021f9190610d98565b60405180910390f35b610242600480360381019061023d9190610e53565b61057c565b60405161024f9190610eae565b60405180910390f35b610272600480360381019061026d9190610e53565b6105f3565b60405161027f9190610eae565b60405180910390f35b6102a2600480360381019061029d9190610faa565b610616565b6040516102af9190610ed8565b60405180910390f35b6102c061069d565b6040516102cd9190610ff9565b60405180910390f35b6060600380546102e590611043565b80601f016020809104026020016040519081016040528092919081815260200182805461031190611043565b801561035e5780601f106103335761010080835404028352916020019161035e565b820191906000526020600020905b81548152906001019060200180831161034157829003601f168201915b5050505050905090565b6000806103736106c3565b90506103808185856106cb565b600191505092915050565b6000600254905090565b6000806103a06106c3565b90506103ad858285610894565b6103b8858585610920565b60019150509392505050565b60006012905090565b6000806103d86106c3565b90506103f98185856103ea8589610616565b6103f491906110a3565b6106cb565b600191505092915050565b600560009054906101000a900473ffffffffffffffffffffffffffffffffffffffff1673ffffffffffffffffffffffffffffffffffffffff163373ffffffffffffffffffffffffffffffffffffffff1614610494576040517f08c379a000000000000000000000000000000000000000000000000000000000815260040161048b90611123565b60405180910390fd5b61049e8282610b9f565b5050565b60008060008373ffffffffffffffffffffffffffffffffffffffff1673ffffffffffffffffffffffffffffffffffffffff168152602001908152602001600020549050919050565b6060600480546104f990611043565b80601f016020809104026020016040519081016040528092919081815260200182805461052590611043565b80156105725780601f1061054757610100808354040283529160200191610572565b820191906000526020600020905b81548152906001019060200180831161055557829003601f168201915b5050505050905090565b6000806105876106c3565b905060006105958286610616565b9050838110156105da576040517f08c379a00000000000000000000000000000000000000000000000000000000081526004016105d1906111b5565b60405180910390fd5b6105e782868684036106cb565b60019250505092915050565b6000806105fe6106c3565b905061060b818585610920565b600191505092915050565b6000600160008473ffffffffffffffffffffffffffffffffffffffff1673ffffffffffffffffffffffffffffffffffffffff16815260200190815260200160002060008373ffffffffffffffffffffffffffffffffffffffff1673ffffffffffffffffffffffffffffffffffffffff16815260200190815260200160002054905092915050565b600560009054906101000a900473ffffffffffffffffffffffffffffffffffffffff1681565b600033905090565b600073ffffffffffffffffffffffffffffffffffffffff168373ffffffffffffffffffffffffffffffffffffffff160361073a576040517f08c379a000000000000000000000000000000000000000000000000000000000815260040161073190611247565b60405180910390fd5b600073ffffffffffffffffffffffffffffffffffffffff168273ffffffffffffffffffffffffffffffffffffffff16036107a9576040517f08c379a00000000000000000000000000000000000000000000000000000000081526004016107a0906112d9565b60405180910390fd5b80600160008573ffffffffffffffffffffffffffffffffffffffff1673ffffffffffffffffffffffffffffffffffffffff16815260200190815260200160002060008473ffffffffffffffffffffffffffffffffffffffff1673ffffffffffffffffffffffffffffffffffffffff168152602001908152602001600020819055508173ffffffffffffffffffffffffffffffffffffffff168373ffffffffffffffffffffffffffffffffffffffff167f8c5be1e5ebec7d5bd14f71427d1e84f3dd0314c0f7b2291e5b200ac8c7c3b925836040516108879190610ed8565b60405180910390a3505050565b60006108a08484610616565b90507fffffffffffffffffffffffffffffffffffffffffffffffffffffffffffffffff811461091a578181101561090c576040517f08c379a000000000000000000000000000000000000000000000000000000000815260040161090390611345565b60405180910390fd5b61091984848484036106cb565b5b50505050565b600073ffffffffffffffffffffffffffffffffffffffff168373ffffffffffffffffffffffffffffffffffffffff160361098f576040517f08c379a0000000000000000000000000000000000000000000000000000000008152600401610986906113d7565b60405180910390fd5b600073ffffffffffffffffffffffffffffffffffffffff168273ffffffffffffffffffffffffffffffffffffffff16036109fe576040517f08c379a00000000000000000000000000000000000000000000000000000000081526004016109f590611469565b60405180910390fd5b610a09838383610cfe565b60008060008573ffffffffffffffffffffffffffffffffffffffff1673ffffffffffffffffffffffffffffffffffffffff16815260200190815260200160002054905081811015610a8f576040517f08c379a0000000000000000000000000000000000000000000000000000000008152600401610a86906114fb565b60405180910390fd5b8181036000808673ffffffffffffffffffffffffffffffffffffffff1673ffffffffffffffffffffffffffffffffffffffff16815260200190815260200160002081905550816000808573ffffffffffffffffffffffffffffffffffffffff1673ffffffffffffffffffffffffffffffffffffffff1681526020019081526020016000206000828254610b2291906110a3565b925050819055508273ffffffffffffffffffffffffffffffffffffffff168473ffffffffffffffffffffffffffffffffffffffff167fddf252ad1be2c89b69c2b068fc378daa952ba7f163c4a11628f55a4df523b3ef84604051610b869190610ed8565b60405180910390a3610b99848484610d03565b50505050565b600073ffffffffffffffffffffffffffffffffffffffff168273ffffffffffffffffffffffffffffffffffffffff1603610c0e576040517f08c379a0000000000000000000000000000000000000000000000000000000008152600401610c0590611567565b60405180910390fd5b610c1a60008383610cfe565b8060026000828254610c2c91906110a3565b92505081905550806000808473ffffffffffffffffffffffffffffffffffffffff1673ffffffffffffffffffffffffffffffffffffffff1681526020019081526020016000206000828254610c8191906110a3565b925050819055508173ffffffffffffffffffffffffffffffffffffffff16600073ffffffffffffffffffffffffffffffffffffffff167fddf252ad1be2c89b69c2b068fc378daa952ba7f163c4a11628f55a4df523b3ef83604051610ce69190610ed8565b60405180910390a3610cfa60008383610d03565b5050565b505050565b505050565b600081519050919050565b600082825260208201905092915050565b60005b83811015610d42578082015181840152602081019050610d27565b60008484015250505050565b6000601f19601f8301169050919050565b6000610d6a82610d08565b610d748185610d13565b9350610d84818560208601610d24565b610d8d81610d4e565b840191505092915050565b60006020820190508181036000830152610db28184610d5f565b905092915050565b600080fd5b600073ffffffffffffffffffffffffffffffffffffffff82169050919050565b6000610dea82610dbf565b9050919050565b610dfa81610ddf565b8114610e0557600080fd5b50565b600081359050610e1781610df1565b92915050565b6000819050919050565b610e3081610e1d565b8114610e3b57600080fd5b50565b600081359050610e4d81610e27565b92915050565b60008060408385031215610e6a57610e69610dba565b5b6000610e7885828601610e08565b9250506020610e8985828601610e3e565b9150509250929050565b60008115159050919050565b610ea881610e93565b82525050565b6000602082019050610ec36000830184610e9f565b92915050565b610ed281610e1d565b82525050565b6000602082019050610eed6000830184610ec9565b92915050565b600080600060608486031215610f0c57610f0b610dba565b5b6000610f1a86828701610e08565b9350506020610f2b86828701610e08565b9250506040610f3c86828701610e3e565b9150509250925092565b600060ff82169050919050565b610f5c81610f46565b82525050565b6000602082019050610f776000830184610f53565b92915050565b600060208284031215610f9357610f92610dba565b5b6000610fa184828501610e08565b91505092915050565b60008060408385031215610fc157610fc0610dba565b5b6000610fcf85828601610e08565b9250506020610fe085828601610e08565b9150509250929050565b610ff381610ddf565b82525050565b600060208201905061100e6000830184610fea565b92915050565b7f4e487b7100000000000000000000000000000000000000000000000000000000600052602260045260246000fd5b6000600282049050600182168061105b57607f821691505b60208210810361106e5761106d611014565b5b50919050565b7f4e487b7100000000000000000000000000000000000000000000000000000000600052601160045260246000fd5b60006110ae82610e1d565b91506110b983610e1d565b92508282019050808211156110d1576110d0611074565b5b92915050565b7f4f6e6c792061646d696e2063616e206d696e7400000000000000000000000000600082015250565b600061110d601383610d13565b9150611118826110d7565b602082019050919050565b6000602082019050818103600083015261113c81611100565b9050919050565b7f45524332303a2064656372656173656420616c6c6f77616e63652062656c6f7760008201527f207a65726f000000000000000000000000000000000000000000000000000000602082015250565b600061119f602583610d13565b91506111aa82611143565b604082019050919050565b600060208201905081810360008301526111ce81611192565b9050919050565b7f45524332303a20617070726f76652066726f6d20746865207a65726f2061646460008201527f7265737300000000000000000000000000000000000000000000000000000000602082015250565b6000611231602483610d13565b915061123c826111d5565b604082019050919050565b6000602082019050818103600083015261126081611224565b9050919050565b7f45524332303a20617070726f766520746f20746865207a65726f20616464726560008201527f7373000000000000000000000000000000000000000000000000000000000000602082015250565b60006112c3602283610d13565b91506112ce82611267565b604082019050919050565b600060208201905081810360008301526112f2816112b6565b9050919050565b7f45524332303a20696e73756666696369656e7420616c6c6f77616e6365000000600082015250565b600061132f601d83610d13565b915061133a826112f9565b602082019050919050565b6000602082019050818103600083015261135e81611322565b9050919050565b7f45524332303a207472616e736665722066726f6d20746865207a65726f20616460008201527f6472657373000000000000000000000000000000000000000000000000000000602082015250565b60006113c1602583610d13565b91506113cc82611365565b604082019050919050565b600060208201905081810360008301526113f0816113b4565b9050919050565b7f45524332303a207472616e7366657220746f20746865207a65726f206164647260008201527f6573730000000000000000000000000000000000000000000000000000000000602082015250565b6000611453602383610d13565b915061145e826113f7565b604082019050919050565b6000602082019050818103600083015261148281611446565b9050919050565b7f45524332303a207472616e7366657220616d6f756e742065786365656473206260008201527f616c616e63650000000000000000000000000000000000000000000000000000602082015250565b60006114e5602683610d13565b91506114f082611489565b604082019050919050565b60006020820190508181036000830152611514816114d8565b9050919050565b7f45524332303a206d696e7420746f20746865207a65726f206164647265737300600082015250565b6000611551601f83610d13565b915061155c8261151b565b602082019050919050565b6000602082019050818103600083015261158081611544565b905091905056fea2646970667358221220cc574a6e7bf55480afb84e7e74a69e55f293207ee61582576672f9b8e560bc3f64736f6c63430008110033a264697066735822122066dbf3e31394fcf491ccf9fe053b08a60580f55a06eddb756d56a96313b7241564736f6c63430008110033",
  "immutableReferences": {},
  "source": "pragma solidity ^0.8.17;\r\n\r\nimport \"../node_modules/@openzeppelin/contracts/token/ERC20/ERC20.sol\";\r\n\r\ncontract Token is ERC20 {\r\n    address public admin;\r\n\r\n    constructor(string memory _name, string memory _symbol) ERC20(_name, _symbol) {\r\n        admin = msg.sender;\r\n        _mint(msg.sender, 1000);\r\n    }\r\n\r\n    function mint(address _to, uint256 _amount) external {\r\n        require(msg.sender == admin, \"Only admin can mint\");\r\n        _mint(_to, _amount);\r\n    }\r\n}\r\n\r\ncontract Dex {\r\n    mapping (address => ERC20) private availableTokens;\r\n    address[] private tokenAddresses;\r\n    uint256 private numTokens;\r\n\r\n    address public owner;\r\n    event LogTokenSent(address token, address receipient, uint256 amount);\r\n    event LogTokenCreated(address tokenAddress, string tokenName, string tokenSymbol);\r\n\r\n    constructor () {\r\n        owner = msg.sender;\r\n        numTokens = 0;\r\n    }\r\n\r\n\r\n    // Allows admin to create new token, and new token will be added into availableTokens dict.\r\n    function createToken(string memory _name, string memory _symbol) public {\r\n        // only allow owner to create tokens\r\n        // require(owner == msg.sender, \"Only the owner can create tokens!\");\r\n\r\n        //mapping address of new Token created\r\n        address newTokenAddress = address(new Token(_name, _symbol));\r\n        availableTokens[newTokenAddress] = ERC20(newTokenAddress);\r\n        tokenAddresses.push(newTokenAddress);\r\n        numTokens++;\r\n\r\n        // log token creation event\r\n        emit LogTokenCreated(newTokenAddress, _name, _symbol);\r\n    }\r\n\r\n    // Allows admin to send token\r\n    function sendToken(address _token, address _receipient, uint256 _amount) public {\r\n        ERC20 ERC20TOKEN = availableTokens[_token];\r\n        ERC20TOKEN.transfer(_receipient, _amount);\r\n\r\n        // log token sent event\r\n        emit LogTokenSent(_token, _receipient, _amount);\r\n    }\r\n\r\n    // Returns an array of available tokens\r\n    function getAvailableTokens() public view returns(address[] memory) {\r\n        address[] memory addressTemp = new address[](numTokens);\r\n\r\n        //loop through the available tokens\r\n        for (uint256 i=0; i < numTokens; i++) {\r\n            if(tokenAddresses[i] == address(0)){\r\n                i--; //so that i does not increase\r\n                continue;\r\n            }\r\n            addressTemp[i] = tokenAddresses[i];\r\n        }\r\n        return addressTemp;\r\n    }\r\n\r\n    function getTokenName(address _token) public view returns(string memory) {\r\n        ERC20 ERC20TOKEN = availableTokens[_token];\r\n        return ERC20TOKEN.name();\r\n    }\r\n\r\n    function getTokenBalance(address _token) public view returns(uint256) {\r\n        ERC20 ERC20TOKEN = availableTokens[_token];\r\n        return ERC20TOKEN.balanceOf(msg.sender);\r\n    }\r\n}\r\n\r\n",
  "sourcePath": "C:\\Users\\Yu_Hao\\Desktop\\Y3S1\\CZ4153\\Project\\CZ4153-DEX\\frontend\\contracts\\Dex.sol",
  "compiler": {
    "name": "solc",
    "version": "0.8.17+commit.8df45f5f.Emscripten.clang"
  },
  "schemaVersion": "3.4.10",
  "updatedAt": "2022-10-27T15:14:04.695Z",
  "devdoc": {
    "kind": "dev",
    "methods": {},
    "version": 1
  },
  "userdoc": {
    "kind": "user",
    "methods": {},
    "version": 1
  }
}