{
  "contractName": "Dex",
  "abi": [
    {
      "inputs": [],
      "stateMutability": "nonpayable",
      "type": "constructor"
    },
    {
      "anonymous": false,
      "inputs": [
        {
          "indexed": false,
          "internalType": "address",
          "name": "buyer",
          "type": "address"
        },
        {
          "indexed": false,
          "internalType": "address",
          "name": "buyToken",
          "type": "address"
        },
        {
          "indexed": false,
          "internalType": "uint256",
          "name": "buyAmt",
          "type": "uint256"
        },
        {
          "indexed": false,
          "internalType": "address",
          "name": "payToken",
          "type": "address"
        },
        {
          "indexed": false,
          "internalType": "uint256",
          "name": "payAmt",
          "type": "uint256"
        }
      ],
      "name": "LogBuyOrderPlaced",
      "type": "event"
    },
    {
      "anonymous": false,
      "inputs": [
        {
          "indexed": false,
          "internalType": "address",
          "name": "tokenAddress",
          "type": "address"
        },
        {
          "indexed": false,
          "internalType": "string",
          "name": "tokenName",
          "type": "string"
        },
        {
          "indexed": false,
          "internalType": "string",
          "name": "tokenSymbol",
          "type": "string"
        }
      ],
      "name": "LogTokenCreated",
      "type": "event"
    },
    {
      "anonymous": false,
      "inputs": [
        {
          "indexed": false,
          "internalType": "address",
          "name": "token",
          "type": "address"
        },
        {
          "indexed": false,
          "internalType": "address",
          "name": "receipient",
          "type": "address"
        },
        {
          "indexed": false,
          "internalType": "uint256",
          "name": "amount",
          "type": "uint256"
        }
      ],
      "name": "LogTokenSent",
      "type": "event"
    },
    {
      "inputs": [],
      "name": "owner",
      "outputs": [
        {
          "internalType": "address",
          "name": "",
          "type": "address"
        }
      ],
      "stateMutability": "view",
      "type": "function",
      "constant": true
    },
    {
      "inputs": [
        {
          "internalType": "string",
          "name": "_name",
          "type": "string"
        },
        {
          "internalType": "string",
          "name": "_symbol",
          "type": "string"
        }
      ],
      "name": "createToken",
      "outputs": [],
      "stateMutability": "nonpayable",
      "type": "function"
    },
    {
      "inputs": [
        {
          "internalType": "address",
          "name": "_token",
          "type": "address"
        },
        {
          "internalType": "address",
          "name": "_receipient",
          "type": "address"
        },
        {
          "internalType": "uint256",
          "name": "_amount",
          "type": "uint256"
        }
      ],
      "name": "sendToken",
      "outputs": [],
      "stateMutability": "nonpayable",
      "type": "function"
    },
    {
      "inputs": [],
      "name": "getAvailableTokens",
      "outputs": [
        {
          "internalType": "address[]",
          "name": "",
          "type": "address[]"
        }
      ],
      "stateMutability": "view",
      "type": "function",
      "constant": true
    },
    {
      "inputs": [
        {
          "internalType": "address",
          "name": "_token",
          "type": "address"
        }
      ],
      "name": "getTokenName",
      "outputs": [
        {
          "internalType": "string",
          "name": "",
          "type": "string"
        }
      ],
      "stateMutability": "view",
      "type": "function",
      "constant": true
    },
    {
      "inputs": [
        {
          "internalType": "address",
          "name": "_token",
          "type": "address"
        }
      ],
      "name": "getTokenBalance",
      "outputs": [
        {
          "internalType": "uint256",
          "name": "",
          "type": "uint256"
        }
      ],
      "stateMutability": "view",
      "type": "function",
      "constant": true
    },
    {
      "inputs": [
        {
          "internalType": "address",
          "name": "_buyToken",
          "type": "address"
        },
        {
          "internalType": "uint256",
          "name": "_buyAmt",
          "type": "uint256"
        },
        {
          "internalType": "address",
          "name": "_payToken",
          "type": "address"
        },
        {
          "internalType": "uint256",
          "name": "_payAmt",
          "type": "uint256"
        }
      ],
      "name": "buy",
      "outputs": [],
      "stateMutability": "nonpayable",
      "type": "function"
    },
    {
      "inputs": [
        {
          "internalType": "address",
          "name": "_token1",
          "type": "address"
        },
        {
          "internalType": "address",
          "name": "_token2",
          "type": "address"
        }
      ],
      "name": "getOrderbookAddress",
      "outputs": [
        {
          "internalType": "address",
          "name": "",
          "type": "address"
        },
        {
          "internalType": "address",
          "name": "",
          "type": "address"
        },
        {
          "internalType": "address",
          "name": "",
          "type": "address"
        }
      ],
      "stateMutability": "view",
      "type": "function",
      "constant": true
    },
    {
      "inputs": [
        {
          "internalType": "address",
          "name": "_token1",
          "type": "address"
        },
        {
          "internalType": "address",
          "name": "_token2",
          "type": "address"
        }
      ],
      "name": "addTokenPair",
      "outputs": [
        {
          "internalType": "address",
          "name": "",
          "type": "address"
        },
        {
          "internalType": "address",
          "name": "",
          "type": "address"
        },
        {
          "internalType": "address",
          "name": "",
          "type": "address"
        }
      ],
      "stateMutability": "nonpayable",
      "type": "function"
    },
    {
      "inputs": [],
      "name": "getBuyOrders",
      "outputs": [
        {
          "components": [
            {
              "internalType": "address",
              "name": "orderedBy",
              "type": "address"
            },
            {
              "internalType": "uint256",
              "name": "price",
              "type": "uint256"
            },
            {
              "internalType": "uint256",
              "name": "quantity",
              "type": "uint256"
            },
            {
              "internalType": "string",
              "name": "token1",
              "type": "string"
            },
            {
              "internalType": "string",
              "name": "token2",
              "type": "string"
            },
            {
              "internalType": "string",
              "name": "orderType",
              "type": "string"
            },
            {
              "internalType": "address",
              "name": "token1Addr",
              "type": "address"
            },
            {
              "internalType": "address",
              "name": "token2Addr",
              "type": "address"
            }
          ],
          "internalType": "struct Dex.Order[]",
          "name": "",
          "type": "tuple[]"
        }
      ],
      "stateMutability": "view",
      "type": "function",
      "constant": true
    }
  ],
  "bytecode": "0x60806040526040516200001290620000d5565b604051809103906000f0801580156200002f573d6000803e3d6000fd5b50600460006101000a81548173ffffffffffffffffffffffffffffffffffffffff021916908373ffffffffffffffffffffffffffffffffffffffff1602179055503480156200007d57600080fd5b5033600660006101000a81548173ffffffffffffffffffffffffffffffffffffffff021916908373ffffffffffffffffffffffffffffffffffffffff16021790555060006002819055506000600381905550620000e3565b61302a8062004a9683390190565b6149a380620000f36000396000f3fe60806040523480156200001157600080fd5b5060043610620000ac5760003560e01c80638da5cb5b116200006f5780638da5cb5b1462000195578063a7c87ec214620001b7578063b3ffb76014620001ef578063e0c5a277146200020f578063e35568cb146200023157620000ac565b80630633fe0114620000b15780632f2f2d5614620000e95780632fdcfbd214620001095780633aecd0e314620001295780636f0fccab146200015f575b600080fd5b620000cf6004803603810190620000c9919062001a34565b62000253565b604051620000e09392919062001a8c565b60405180910390f35b62000107600480360381019062000101919062001c2b565b62000385565b005b62000127600480360381019062000121919062001ceb565b62000593565b005b62000147600480360381019062000141919062001d47565b62000750565b60405162000156919062001d8a565b60405180910390f35b6200017d600480360381019062000177919062001d47565b6200083b565b6040516200018c919062001e30565b60405180910390f35b6200019f6200091f565b604051620001ae919062001e54565b60405180910390f35b620001d56004803603810190620001cf919062001a34565b62000945565b604051620001e69392919062001a8c565b60405180910390f35b6200020d600480360381019062000207919062001e71565b62000b33565b005b6200021962000f9f565b604051620002289190620020f5565b60405180910390f35b6200023b62001786565b6040516200024a9190620021d6565b60405180910390f35b60008060008060008573ffffffffffffffffffffffffffffffffffffffff168773ffffffffffffffffffffffffffffffffffffffff1611156200029c57869150859050620002a3565b8591508690505b60008282604051602001620002ba9291906200224a565b604051602081830303815290604052805190602001209050600460009054906101000a900473ffffffffffffffffffffffffffffffffffffffff1673ffffffffffffffffffffffffffffffffffffffff1663ac572315826040518263ffffffff1660e01b81526004016200032f919062002295565b602060405180830381865afa1580156200034d573d6000803e3d6000fd5b505050506040513d601f19601f82011682018060405250810190620003739190620022c9565b83839550955095505050509250925092565b3373ffffffffffffffffffffffffffffffffffffffff16600660009054906101000a900473ffffffffffffffffffffffffffffffffffffffff1673ffffffffffffffffffffffffffffffffffffffff161462000418576040517f08c379a00000000000000000000000000000000000000000000000000000000081526004016200040f9062002371565b60405180910390fd5b600082826040516200042a9062001926565b6200043792919062002393565b604051809103906000f08015801562000454573d6000803e3d6000fd5b509050806000808373ffffffffffffffffffffffffffffffffffffffff1673ffffffffffffffffffffffffffffffffffffffff16815260200190815260200160002060006101000a81548173ffffffffffffffffffffffffffffffffffffffff021916908373ffffffffffffffffffffffffffffffffffffffff1602179055506001819080600181540180825580915050600190039060005260206000200160009091909190916101000a81548173ffffffffffffffffffffffffffffffffffffffff021916908373ffffffffffffffffffffffffffffffffffffffff160217905550600260008154809291906200054c90620023fd565b91905055507f28258920a6a347f90c2201ff8bd92b5b7a00bbf5c88c5fce1a1fb42c6546e71081848460405162000586939291906200244a565b60405180910390a1505050565b3373ffffffffffffffffffffffffffffffffffffffff16600660009054906101000a900473ffffffffffffffffffffffffffffffffffffffff1673ffffffffffffffffffffffffffffffffffffffff161462000626576040517f08c379a00000000000000000000000000000000000000000000000000000000081526004016200061d90620024e5565b60405180910390fd5b60008060008573ffffffffffffffffffffffffffffffffffffffff1673ffffffffffffffffffffffffffffffffffffffff16815260200190815260200160002060009054906101000a900473ffffffffffffffffffffffffffffffffffffffff1690508073ffffffffffffffffffffffffffffffffffffffff1663a9059cbb84846040518363ffffffff1660e01b8152600401620006c692919062002507565b6020604051808303816000875af1158015620006e6573d6000803e3d6000fd5b505050506040513d601f19601f820116820180604052508101906200070c919062002571565b507faa8d76b5ad42bc1fee99a7520271a35d2442ee3ff95215fbc2b4856af96168888484846040516200074293929190620025a3565b60405180910390a150505050565b6000806000808473ffffffffffffffffffffffffffffffffffffffff1673ffffffffffffffffffffffffffffffffffffffff16815260200190815260200160002060009054906101000a900473ffffffffffffffffffffffffffffffffffffffff1690508073ffffffffffffffffffffffffffffffffffffffff166370a08231336040518263ffffffff1660e01b8152600401620007ef919062001e54565b602060405180830381865afa1580156200080d573d6000803e3d6000fd5b505050506040513d601f19601f82011682018060405250810190620008339190620025f7565b915050919050565b606060008060008473ffffffffffffffffffffffffffffffffffffffff1673ffffffffffffffffffffffffffffffffffffffff16815260200190815260200160002060009054906101000a900473ffffffffffffffffffffffffffffffffffffffff1690508073ffffffffffffffffffffffffffffffffffffffff166306fdde036040518163ffffffff1660e01b8152600401600060405180830381865afa158015620008ec573d6000803e3d6000fd5b505050506040513d6000823e3d601f19601f82011682018060405250810190620009179190620026a7565b915050919050565b600660009054906101000a900473ffffffffffffffffffffffffffffffffffffffff1681565b6000806000600460009054906101000a900473ffffffffffffffffffffffffffffffffffffffff1673ffffffffffffffffffffffffffffffffffffffff1663b6f3e08786866040518363ffffffff1660e01b8152600401620009a9929190620026f8565b600060405180830381600087803b158015620009c457600080fd5b505af1158015620009d9573d6000803e3d6000fd5b505050506000808573ffffffffffffffffffffffffffffffffffffffff168773ffffffffffffffffffffffffffffffffffffffff16111562000a215786915085905062000a28565b8591508690505b6000828260405160200162000a3f9291906200224a565b6040516020818303038152906040528051906020012090506005819080600181540180825580915050600190039060005260206000200160009091909190915055600460009054906101000a900473ffffffffffffffffffffffffffffffffffffffff1673ffffffffffffffffffffffffffffffffffffffff1663ac572315826040518263ffffffff1660e01b815260040162000add919062002295565b602060405180830381865afa15801562000afb573d6000803e3d6000fd5b505050506040513d601f19601f8201168201806040525081019062000b219190620022c9565b83839550955095505050509250925092565b6000808373ffffffffffffffffffffffffffffffffffffffff168673ffffffffffffffffffffffffffffffffffffffff16111562000b775785915083905062000b7e565b8391508590505b6000828260405160200162000b959291906200224a565b604051602081830303815290604052805190602001209050600073ffffffffffffffffffffffffffffffffffffffff16600460009054906101000a900473ffffffffffffffffffffffffffffffffffffffff1673ffffffffffffffffffffffffffffffffffffffff1663ac572315836040518263ffffffff1660e01b815260040162000c22919062002295565b602060405180830381865afa15801562000c40573d6000803e3d6000fd5b505050506040513d601f19601f8201168201806040525081019062000c669190620022c9565b73ffffffffffffffffffffffffffffffffffffffff160362000d3f57600460009054906101000a900473ffffffffffffffffffffffffffffffffffffffff1673ffffffffffffffffffffffffffffffffffffffff1663b6f3e08784846040518363ffffffff1660e01b815260040162000ce1929190620026f8565b600060405180830381600087803b15801562000cfc57600080fd5b505af115801562000d11573d6000803e3d6000fd5b5050505060058190806001815401808255809150506001900390600052602060002001600090919091909150555b6000600460009054906101000a900473ffffffffffffffffffffffffffffffffffffffff1673ffffffffffffffffffffffffffffffffffffffff1663ac572315836040518263ffffffff1660e01b815260040162000d9e919062002295565b602060405180830381865afa15801562000dbc573d6000803e3d6000fd5b505050506040513d601f19601f8201168201806040525081019062000de29190620022c9565b90508373ffffffffffffffffffffffffffffffffffffffff168873ffffffffffffffffffffffffffffffffffffffff160362000e91578073ffffffffffffffffffffffffffffffffffffffff16633f9016238887336040518463ffffffff1660e01b815260040162000e579392919062002725565b600060405180830381600087803b15801562000e7257600080fd5b505af115801562000e87573d6000803e3d6000fd5b5050505062000f3a565b8273ffffffffffffffffffffffffffffffffffffffff168873ffffffffffffffffffffffffffffffffffffffff160362000f39578073ffffffffffffffffffffffffffffffffffffffff1663169aab8d8689336040518463ffffffff1660e01b815260040162000f049392919062002725565b600060405180830381600087803b15801562000f1f57600080fd5b505af115801562000f34573d6000803e3d6000fd5b505050505b5b6003600081548092919062000f4f90620023fd565b91905055507feddedc0bf3dc5c30b827ed2d896584c9178961d6ac9b1348586418ee92013b3d338989898960405162000f8d95949392919062002762565b60405180910390a15050505050505050565b606080606080606080600060035467ffffffffffffffff81111562000fc95762000fc862001ae4565b5b6040519080825280602002602001820160405280156200100657816020015b62000ff262001934565b81526020019060019003908162000fe85790505b5090506000805b60058054905081101562001778576000600460009054906101000a900473ffffffffffffffffffffffffffffffffffffffff1673ffffffffffffffffffffffffffffffffffffffff1663ac57231560058481548110620010725762001071620027bf565b5b90600052602060002001546040518263ffffffff1660e01b81526004016200109b919062002295565b602060405180830381865afa158015620010b9573d6000803e3d6000fd5b505050506040513d601f19601f82011682018060405250810190620010df9190620022c9565b90508073ffffffffffffffffffffffffffffffffffffffff16630e07df0b6040518163ffffffff1660e01b8152600401600060405180830381865afa1580156200112d573d6000803e3d6000fd5b505050506040513d6000823e3d601f19601f820116820180604052508101906200115891906200299f565b809950819a50829b50505050620011e08173ffffffffffffffffffffffffffffffffffffffff1663d21220a76040518163ffffffff1660e01b8152600401602060405180830381865afa158015620011b4573d6000803e3d6000fd5b505050506040513d601f19601f82011682018060405250810190620011da919062002a9d565b6200083b565b95506200125e8173ffffffffffffffffffffffffffffffffffffffff166325be124e6040518163ffffffff1660e01b8152600401602060405180830381865afa15801562001232573d6000803e3d6000fd5b505050506040513d601f19601f8201168201806040525081019062001258919062002a9d565b6200083b565b945060005b89518110156200149e576040518061010001604052808b83815181106200128f576200128e620027bf565b5b602002602001015173ffffffffffffffffffffffffffffffffffffffff1681526020018a8381518110620012c857620012c7620027bf565b5b60200260200101518152602001898381518110620012eb57620012ea620027bf565b5b602002602001015181526020018881526020018781526020016040518060400160405280600381526020017f627579000000000000000000000000000000000000000000000000000000000081525081526020018373ffffffffffffffffffffffffffffffffffffffff1663d21220a76040518163ffffffff1660e01b8152600401602060405180830381865afa1580156200138b573d6000803e3d6000fd5b505050506040513d601f19601f82011682018060405250810190620013b1919062002a9d565b73ffffffffffffffffffffffffffffffffffffffff1681526020018373ffffffffffffffffffffffffffffffffffffffff166325be124e6040518163ffffffff1660e01b8152600401602060405180830381865afa15801562001418573d6000803e3d6000fd5b505050506040513d601f19601f820116820180604052508101906200143e919062002a9d565b73ffffffffffffffffffffffffffffffffffffffff168152508585815181106200146d576200146c620027bf565b5b602002602001018190525083806200148590620023fd565b94505080806200149590620023fd565b91505062001263565b508073ffffffffffffffffffffffffffffffffffffffff1663949092c26040518163ffffffff1660e01b8152600401600060405180830381865afa158015620014eb573d6000803e3d6000fd5b505050506040513d6000823e3d601f19601f820116820180604052508101906200151691906200299f565b809950819a50829b5050505060005b895181101562001760576040518061010001604052808b8381518110620015515762001550620027bf565b5b602002602001015173ffffffffffffffffffffffffffffffffffffffff1681526020018a83815181106200158a5762001589620027bf565b5b60200260200101518152602001898381518110620015ad57620015ac620027bf565b5b602002602001015181526020018881526020018781526020016040518060400160405280600481526020017f73656c6c0000000000000000000000000000000000000000000000000000000081525081526020018373ffffffffffffffffffffffffffffffffffffffff1663d21220a76040518163ffffffff1660e01b8152600401602060405180830381865afa1580156200164d573d6000803e3d6000fd5b505050506040513d601f19601f8201168201806040525081019062001673919062002a9d565b73ffffffffffffffffffffffffffffffffffffffff1681526020018373ffffffffffffffffffffffffffffffffffffffff166325be124e6040518163ffffffff1660e01b8152600401602060405180830381865afa158015620016da573d6000803e3d6000fd5b505050506040513d601f19601f8201168201806040525081019062001700919062002a9d565b73ffffffffffffffffffffffffffffffffffffffff168152508585815181106200172f576200172e620027bf565b5b602002602001018190525083806200174790620023fd565b94505080806200175790620023fd565b91505062001525565b505080806200176f90620023fd565b9150506200100d565b508197505050505050505090565b6060600060025467ffffffffffffffff811115620017a957620017a862001ae4565b5b604051908082528060200260200182016040528015620017d85781602001602082028036833780820191505090505b50905060005b6002548110156200191e57600073ffffffffffffffffffffffffffffffffffffffff1660018281548110620018185762001817620027bf565b5b9060005260206000200160009054906101000a900473ffffffffffffffffffffffffffffffffffffffff1673ffffffffffffffffffffffffffffffffffffffff1603620018755780806200186c9062002acf565b91505062001908565b600181815481106200188c576200188b620027bf565b5b9060005260206000200160009054906101000a900473ffffffffffffffffffffffffffffffffffffffff16828281518110620018cd57620018cc620027bf565b5b602002602001019073ffffffffffffffffffffffffffffffffffffffff16908173ffffffffffffffffffffffffffffffffffffffff16815250505b80806200191590620023fd565b915050620017de565b508091505090565b611e708062002afe83390190565b604051806101000160405280600073ffffffffffffffffffffffffffffffffffffffff1681526020016000815260200160008152602001606081526020016060815260200160608152602001600073ffffffffffffffffffffffffffffffffffffffff168152602001600073ffffffffffffffffffffffffffffffffffffffff1681525090565b6000604051905090565b600080fd5b600080fd5b600073ffffffffffffffffffffffffffffffffffffffff82169050919050565b6000620019fc82620019cf565b9050919050565b62001a0e81620019ef565b811462001a1a57600080fd5b50565b60008135905062001a2e8162001a03565b92915050565b6000806040838503121562001a4e5762001a4d620019c5565b5b600062001a5e8582860162001a1d565b925050602062001a718582860162001a1d565b9150509250929050565b62001a8681620019ef565b82525050565b600060608201905062001aa3600083018662001a7b565b62001ab2602083018562001a7b565b62001ac1604083018462001a7b565b949350505050565b600080fd5b600080fd5b6000601f19601f8301169050919050565b7f4e487b7100000000000000000000000000000000000000000000000000000000600052604160045260246000fd5b62001b1e8262001ad3565b810181811067ffffffffffffffff8211171562001b405762001b3f62001ae4565b5b80604052505050565b600062001b55620019bb565b905062001b63828262001b13565b919050565b600067ffffffffffffffff82111562001b865762001b8562001ae4565b5b62001b918262001ad3565b9050602081019050919050565b82818337600083830152505050565b600062001bc462001bbe8462001b68565b62001b49565b90508281526020810184848401111562001be35762001be262001ace565b5b62001bf084828562001b9e565b509392505050565b600082601f83011262001c105762001c0f62001ac9565b5b813562001c2284826020860162001bad565b91505092915050565b6000806040838503121562001c455762001c44620019c5565b5b600083013567ffffffffffffffff81111562001c665762001c65620019ca565b5b62001c748582860162001bf8565b925050602083013567ffffffffffffffff81111562001c985762001c97620019ca565b5b62001ca68582860162001bf8565b9150509250929050565b6000819050919050565b62001cc58162001cb0565b811462001cd157600080fd5b50565b60008135905062001ce58162001cba565b92915050565b60008060006060848603121562001d075762001d06620019c5565b5b600062001d178682870162001a1d565b935050602062001d2a8682870162001a1d565b925050604062001d3d8682870162001cd4565b9150509250925092565b60006020828403121562001d605762001d5f620019c5565b5b600062001d708482850162001a1d565b91505092915050565b62001d848162001cb0565b82525050565b600060208201905062001da1600083018462001d79565b92915050565b600081519050919050565b600082825260208201905092915050565b60005b8381101562001de357808201518184015260208101905062001dc6565b60008484015250505050565b600062001dfc8262001da7565b62001e08818562001db2565b935062001e1a81856020860162001dc3565b62001e258162001ad3565b840191505092915050565b6000602082019050818103600083015262001e4c818462001def565b905092915050565b600060208201905062001e6b600083018462001a7b565b92915050565b6000806000806080858703121562001e8e5762001e8d620019c5565b5b600062001e9e8782880162001a1d565b945050602062001eb18782880162001cd4565b935050604062001ec48782880162001a1d565b925050606062001ed78782880162001cd4565b91505092959194509250565b600081519050919050565b600082825260208201905092915050565b6000819050602082019050919050565b62001f1a81620019ef565b82525050565b62001f2b8162001cb0565b82525050565b600082825260208201905092915050565b600062001f4f8262001da7565b62001f5b818562001f31565b935062001f6d81856020860162001dc3565b62001f788162001ad3565b840191505092915050565b60006101008301600083015162001f9e600086018262001f0f565b50602083015162001fb3602086018262001f20565b50604083015162001fc8604086018262001f20565b506060830151848203606086015262001fe2828262001f42565b9150506080830151848203608086015262001ffe828262001f42565b91505060a083015184820360a08601526200201a828262001f42565b91505060c08301516200203160c086018262001f0f565b5060e08301516200204660e086018262001f0f565b508091505092915050565b60006200205f838362001f83565b905092915050565b6000602082019050919050565b6000620020818262001ee3565b6200208d818562001eee565b935083602082028501620020a18562001eff565b8060005b85811015620020e35784840389528151620020c1858262002051565b9450620020ce8362002067565b925060208a01995050600181019050620020a5565b50829750879550505050505092915050565b6000602082019050818103600083015262002111818462002074565b905092915050565b600081519050919050565b600082825260208201905092915050565b6000819050602082019050919050565b600062002153838362001f0f565b60208301905092915050565b6000602082019050919050565b6000620021798262002119565b62002185818562002124565b9350620021928362002135565b8060005b83811015620021c9578151620021ad888262002145565b9750620021ba836200215f565b92505060018101905062002196565b5085935050505092915050565b60006020820190508181036000830152620021f281846200216c565b905092915050565b60008160601b9050919050565b60006200221482620021fa565b9050919050565b6000620022288262002207565b9050919050565b620022446200223e82620019ef565b6200221b565b82525050565b60006200225882856200222f565b6014820191506200226a82846200222f565b6014820191508190509392505050565b6000819050919050565b6200228f816200227a565b82525050565b6000602082019050620022ac600083018462002284565b92915050565b600081519050620022c38162001a03565b92915050565b600060208284031215620022e257620022e1620019c5565b5b6000620022f284828501620022b2565b91505092915050565b7f4f6e6c7920746865206f776e65722063616e2063726561746520746f6b656e7360008201527f2100000000000000000000000000000000000000000000000000000000000000602082015250565b60006200235960218362001db2565b91506200236682620022fb565b604082019050919050565b600060208201905081810360008301526200238c816200234a565b9050919050565b60006040820190508181036000830152620023af818562001def565b90508181036020830152620023c5818462001def565b90509392505050565b7f4e487b7100000000000000000000000000000000000000000000000000000000600052601160045260246000fd5b60006200240a8262001cb0565b91507fffffffffffffffffffffffffffffffffffffffffffffffffffffffffffffffff82036200243f576200243e620023ce565b5b600182019050919050565b600060608201905062002461600083018662001a7b565b818103602083015262002475818562001def565b905081810360408301526200248b818462001def565b9050949350505050565b7f4f6e6c7920746865206f776e65722063616e2073656e6420746f6b656e732100600082015250565b6000620024cd601f8362001db2565b9150620024da8262002495565b602082019050919050565b600060208201905081810360008301526200250081620024be565b9050919050565b60006040820190506200251e600083018562001a7b565b6200252d602083018462001d79565b9392505050565b60008115159050919050565b6200254b8162002534565b81146200255757600080fd5b50565b6000815190506200256b8162002540565b92915050565b6000602082840312156200258a5762002589620019c5565b5b60006200259a848285016200255a565b91505092915050565b6000606082019050620025ba600083018662001a7b565b620025c9602083018562001a7b565b620025d8604083018462001d79565b949350505050565b600081519050620025f18162001cba565b92915050565b60006020828403121562002610576200260f620019c5565b5b60006200262084828501620025e0565b91505092915050565b6000620026406200263a8462001b68565b62001b49565b9050828152602081018484840111156200265f576200265e62001ace565b5b6200266c84828562001dc3565b509392505050565b600082601f8301126200268c576200268b62001ac9565b5b81516200269e84826020860162002629565b91505092915050565b600060208284031215620026c057620026bf620019c5565b5b600082015167ffffffffffffffff811115620026e157620026e0620019ca565b5b620026ef8482850162002674565b91505092915050565b60006040820190506200270f600083018562001a7b565b6200271e602083018462001a7b565b9392505050565b60006060820190506200273c600083018662001d79565b6200274b602083018562001d79565b6200275a604083018462001a7b565b949350505050565b600060a08201905062002779600083018862001a7b565b62002788602083018762001a7b565b62002797604083018662001d79565b620027a6606083018562001a7b565b620027b5608083018462001d79565b9695505050505050565b7f4e487b7100000000000000000000000000000000000000000000000000000000600052603260045260246000fd5b600067ffffffffffffffff8211156200280c576200280b62001ae4565b5b602082029050602081019050919050565b600080fd5b6000620028396200283384620027ee565b62001b49565b905080838252602082019050602084028301858111156200285f576200285e6200281d565b5b835b818110156200288c5780620028778882620022b2565b84526020840193505060208101905062002861565b5050509392505050565b600082601f830112620028ae57620028ad62001ac9565b5b8151620028c084826020860162002822565b91505092915050565b600067ffffffffffffffff821115620028e757620028e662001ae4565b5b602082029050602081019050919050565b60006200290f6200290984620028c9565b62001b49565b905080838252602082019050602084028301858111156200293557620029346200281d565b5b835b818110156200296257806200294d8882620025e0565b84526020840193505060208101905062002937565b5050509392505050565b600082601f83011262002984576200298362001ac9565b5b815162002996848260208601620028f8565b91505092915050565b600080600060608486031215620029bb57620029ba620019c5565b5b600084015167ffffffffffffffff811115620029dc57620029db620019ca565b5b620029ea8682870162002896565b935050602084015167ffffffffffffffff81111562002a0e5762002a0d620019ca565b5b62002a1c868287016200296c565b925050604084015167ffffffffffffffff81111562002a405762002a3f620019ca565b5b62002a4e868287016200296c565b9150509250925092565b600062002a6582620019ef565b9050919050565b62002a778162002a58565b811462002a8357600080fd5b50565b60008151905062002a978162002a6c565b92915050565b60006020828403121562002ab65762002ab5620019c5565b5b600062002ac68482850162002a86565b91505092915050565b600062002adc8262001cb0565b91506000820362002af25762002af1620023ce565b5b60018203905091905056fe60806040523480156200001157600080fd5b5060405162001e7038038062001e708339818101604052810190620000379190620003d1565b818181600390816200004a9190620006a1565b5080600490816200005c9190620006a1565b50505033600560006101000a81548173ffffffffffffffffffffffffffffffffffffffff021916908373ffffffffffffffffffffffffffffffffffffffff160217905550620000b4336103e8620000bc60201b60201c565b5050620008a3565b600073ffffffffffffffffffffffffffffffffffffffff168273ffffffffffffffffffffffffffffffffffffffff16036200012e576040517f08c379a00000000000000000000000000000000000000000000000000000000081526004016200012590620007e9565b60405180910390fd5b62000142600083836200023460201b60201c565b80600260008282546200015691906200083a565b92505081905550806000808473ffffffffffffffffffffffffffffffffffffffff1673ffffffffffffffffffffffffffffffffffffffff1681526020019081526020016000206000828254620001ad91906200083a565b925050819055508173ffffffffffffffffffffffffffffffffffffffff16600073ffffffffffffffffffffffffffffffffffffffff167fddf252ad1be2c89b69c2b068fc378daa952ba7f163c4a11628f55a4df523b3ef8360405162000214919062000886565b60405180910390a362000230600083836200023960201b60201c565b5050565b505050565b505050565b6000604051905090565b600080fd5b600080fd5b600080fd5b600080fd5b6000601f19601f8301169050919050565b7f4e487b7100000000000000000000000000000000000000000000000000000000600052604160045260246000fd5b620002a7826200025c565b810181811067ffffffffffffffff82111715620002c957620002c86200026d565b5b80604052505050565b6000620002de6200023e565b9050620002ec82826200029c565b919050565b600067ffffffffffffffff8211156200030f576200030e6200026d565b5b6200031a826200025c565b9050602081019050919050565b60005b83811015620003475780820151818401526020810190506200032a565b60008484015250505050565b60006200036a6200036484620002f1565b620002d2565b90508281526020810184848401111562000389576200038862000257565b5b6200039684828562000327565b509392505050565b600082601f830112620003b657620003b562000252565b5b8151620003c884826020860162000353565b91505092915050565b60008060408385031215620003eb57620003ea62000248565b5b600083015167ffffffffffffffff8111156200040c576200040b6200024d565b5b6200041a858286016200039e565b925050602083015167ffffffffffffffff8111156200043e576200043d6200024d565b5b6200044c858286016200039e565b9150509250929050565b600081519050919050565b7f4e487b7100000000000000000000000000000000000000000000000000000000600052602260045260246000fd5b60006002820490506001821680620004a957607f821691505b602082108103620004bf57620004be62000461565b5b50919050565b60008190508160005260206000209050919050565b60006020601f8301049050919050565b600082821b905092915050565b600060088302620005297fffffffffffffffffffffffffffffffffffffffffffffffffffffffffffffffff82620004ea565b620005358683620004ea565b95508019841693508086168417925050509392505050565b6000819050919050565b6000819050919050565b6000620005826200057c62000576846200054d565b62000557565b6200054d565b9050919050565b6000819050919050565b6200059e8362000561565b620005b6620005ad8262000589565b848454620004f7565b825550505050565b600090565b620005cd620005be565b620005da81848462000593565b505050565b5b818110156200060257620005f6600082620005c3565b600181019050620005e0565b5050565b601f82111562000651576200061b81620004c5565b6200062684620004da565b8101602085101562000636578190505b6200064e6200064585620004da565b830182620005df565b50505b505050565b600082821c905092915050565b6000620006766000198460080262000656565b1980831691505092915050565b600062000691838362000663565b9150826002028217905092915050565b620006ac8262000456565b67ffffffffffffffff811115620006c857620006c76200026d565b5b620006d4825462000490565b620006e182828562000606565b600060209050601f83116001811462000719576000841562000704578287015190505b62000710858262000683565b86555062000780565b601f1984166200072986620004c5565b60005b8281101562000753578489015182556001820191506020850194506020810190506200072c565b868310156200077357848901516200076f601f89168262000663565b8355505b6001600288020188555050505b505050505050565b600082825260208201905092915050565b7f45524332303a206d696e7420746f20746865207a65726f206164647265737300600082015250565b6000620007d1601f8362000788565b9150620007de8262000799565b602082019050919050565b600060208201905081810360008301526200080481620007c2565b9050919050565b7f4e487b7100000000000000000000000000000000000000000000000000000000600052601160045260246000fd5b600062000847826200054d565b915062000854836200054d565b92508282019050808211156200086f576200086e6200080b565b5b92915050565b62000880816200054d565b82525050565b60006020820190506200089d600083018462000875565b92915050565b6115bd80620008b36000396000f3fe608060405234801561001057600080fd5b50600436106100cf5760003560e01c806340c10f191161008c578063a457c2d711610066578063a457c2d714610228578063a9059cbb14610258578063dd62ed3e14610288578063f851a440146102b8576100cf565b806340c10f19146101be57806370a08231146101da57806395d89b411461020a576100cf565b806306fdde03146100d4578063095ea7b3146100f257806318160ddd1461012257806323b872dd14610140578063313ce56714610170578063395093511461018e575b600080fd5b6100dc6102d6565b6040516100e99190610d98565b60405180910390f35b61010c60048036038101906101079190610e53565b610368565b6040516101199190610eae565b60405180910390f35b61012a61038b565b6040516101379190610ed8565b60405180910390f35b61015a60048036038101906101559190610ef3565b610395565b6040516101679190610eae565b60405180910390f35b6101786103c4565b6040516101859190610f62565b60405180910390f35b6101a860048036038101906101a39190610e53565b6103cd565b6040516101b59190610eae565b60405180910390f35b6101d860048036038101906101d39190610e53565b610404565b005b6101f460048036038101906101ef9190610f7d565b6104a2565b6040516102019190610ed8565b60405180910390f35b6102126104ea565b60405161021f9190610d98565b60405180910390f35b610242600480360381019061023d9190610e53565b61057c565b60405161024f9190610eae565b60405180910390f35b610272600480360381019061026d9190610e53565b6105f3565b60405161027f9190610eae565b60405180910390f35b6102a2600480360381019061029d9190610faa565b610616565b6040516102af9190610ed8565b60405180910390f35b6102c061069d565b6040516102cd9190610ff9565b60405180910390f35b6060600380546102e590611043565b80601f016020809104026020016040519081016040528092919081815260200182805461031190611043565b801561035e5780601f106103335761010080835404028352916020019161035e565b820191906000526020600020905b81548152906001019060200180831161034157829003601f168201915b5050505050905090565b6000806103736106c3565b90506103808185856106cb565b600191505092915050565b6000600254905090565b6000806103a06106c3565b90506103ad858285610894565b6103b8858585610920565b60019150509392505050565b60006012905090565b6000806103d86106c3565b90506103f98185856103ea8589610616565b6103f491906110a3565b6106cb565b600191505092915050565b600560009054906101000a900473ffffffffffffffffffffffffffffffffffffffff1673ffffffffffffffffffffffffffffffffffffffff163373ffffffffffffffffffffffffffffffffffffffff1614610494576040517f08c379a000000000000000000000000000000000000000000000000000000000815260040161048b90611123565b60405180910390fd5b61049e8282610b9f565b5050565b60008060008373ffffffffffffffffffffffffffffffffffffffff1673ffffffffffffffffffffffffffffffffffffffff168152602001908152602001600020549050919050565b6060600480546104f990611043565b80601f016020809104026020016040519081016040528092919081815260200182805461052590611043565b80156105725780601f1061054757610100808354040283529160200191610572565b820191906000526020600020905b81548152906001019060200180831161055557829003601f168201915b5050505050905090565b6000806105876106c3565b905060006105958286610616565b9050838110156105da576040517f08c379a00000000000000000000000000000000000000000000000000000000081526004016105d1906111b5565b60405180910390fd5b6105e782868684036106cb565b60019250505092915050565b6000806105fe6106c3565b905061060b818585610920565b600191505092915050565b6000600160008473ffffffffffffffffffffffffffffffffffffffff1673ffffffffffffffffffffffffffffffffffffffff16815260200190815260200160002060008373ffffffffffffffffffffffffffffffffffffffff1673ffffffffffffffffffffffffffffffffffffffff16815260200190815260200160002054905092915050565b600560009054906101000a900473ffffffffffffffffffffffffffffffffffffffff1681565b600033905090565b600073ffffffffffffffffffffffffffffffffffffffff168373ffffffffffffffffffffffffffffffffffffffff160361073a576040517f08c379a000000000000000000000000000000000000000000000000000000000815260040161073190611247565b60405180910390fd5b600073ffffffffffffffffffffffffffffffffffffffff168273ffffffffffffffffffffffffffffffffffffffff16036107a9576040517f08c379a00000000000000000000000000000000000000000000000000000000081526004016107a0906112d9565b60405180910390fd5b80600160008573ffffffffffffffffffffffffffffffffffffffff1673ffffffffffffffffffffffffffffffffffffffff16815260200190815260200160002060008473ffffffffffffffffffffffffffffffffffffffff1673ffffffffffffffffffffffffffffffffffffffff168152602001908152602001600020819055508173ffffffffffffffffffffffffffffffffffffffff168373ffffffffffffffffffffffffffffffffffffffff167f8c5be1e5ebec7d5bd14f71427d1e84f3dd0314c0f7b2291e5b200ac8c7c3b925836040516108879190610ed8565b60405180910390a3505050565b60006108a08484610616565b90507fffffffffffffffffffffffffffffffffffffffffffffffffffffffffffffffff811461091a578181101561090c576040517f08c379a000000000000000000000000000000000000000000000000000000000815260040161090390611345565b60405180910390fd5b61091984848484036106cb565b5b50505050565b600073ffffffffffffffffffffffffffffffffffffffff168373ffffffffffffffffffffffffffffffffffffffff160361098f576040517f08c379a0000000000000000000000000000000000000000000000000000000008152600401610986906113d7565b60405180910390fd5b600073ffffffffffffffffffffffffffffffffffffffff168273ffffffffffffffffffffffffffffffffffffffff16036109fe576040517f08c379a00000000000000000000000000000000000000000000000000000000081526004016109f590611469565b60405180910390fd5b610a09838383610cfe565b60008060008573ffffffffffffffffffffffffffffffffffffffff1673ffffffffffffffffffffffffffffffffffffffff16815260200190815260200160002054905081811015610a8f576040517f08c379a0000000000000000000000000000000000000000000000000000000008152600401610a86906114fb565b60405180910390fd5b8181036000808673ffffffffffffffffffffffffffffffffffffffff1673ffffffffffffffffffffffffffffffffffffffff16815260200190815260200160002081905550816000808573ffffffffffffffffffffffffffffffffffffffff1673ffffffffffffffffffffffffffffffffffffffff1681526020019081526020016000206000828254610b2291906110a3565b925050819055508273ffffffffffffffffffffffffffffffffffffffff168473ffffffffffffffffffffffffffffffffffffffff167fddf252ad1be2c89b69c2b068fc378daa952ba7f163c4a11628f55a4df523b3ef84604051610b869190610ed8565b60405180910390a3610b99848484610d03565b50505050565b600073ffffffffffffffffffffffffffffffffffffffff168273ffffffffffffffffffffffffffffffffffffffff1603610c0e576040517f08c379a0000000000000000000000000000000000000000000000000000000008152600401610c0590611567565b60405180910390fd5b610c1a60008383610cfe565b8060026000828254610c2c91906110a3565b92505081905550806000808473ffffffffffffffffffffffffffffffffffffffff1673ffffffffffffffffffffffffffffffffffffffff1681526020019081526020016000206000828254610c8191906110a3565b925050819055508173ffffffffffffffffffffffffffffffffffffffff16600073ffffffffffffffffffffffffffffffffffffffff167fddf252ad1be2c89b69c2b068fc378daa952ba7f163c4a11628f55a4df523b3ef83604051610ce69190610ed8565b60405180910390a3610cfa60008383610d03565b5050565b505050565b505050565b600081519050919050565b600082825260208201905092915050565b60005b83811015610d42578082015181840152602081019050610d27565b60008484015250505050565b6000601f19601f8301169050919050565b6000610d6a82610d08565b610d748185610d13565b9350610d84818560208601610d24565b610d8d81610d4e565b840191505092915050565b60006020820190508181036000830152610db28184610d5f565b905092915050565b600080fd5b600073ffffffffffffffffffffffffffffffffffffffff82169050919050565b6000610dea82610dbf565b9050919050565b610dfa81610ddf565b8114610e0557600080fd5b50565b600081359050610e1781610df1565b92915050565b6000819050919050565b610e3081610e1d565b8114610e3b57600080fd5b50565b600081359050610e4d81610e27565b92915050565b60008060408385031215610e6a57610e69610dba565b5b6000610e7885828601610e08565b9250506020610e8985828601610e3e565b9150509250929050565b60008115159050919050565b610ea881610e93565b82525050565b6000602082019050610ec36000830184610e9f565b92915050565b610ed281610e1d565b82525050565b6000602082019050610eed6000830184610ec9565b92915050565b600080600060608486031215610f0c57610f0b610dba565b5b6000610f1a86828701610e08565b9350506020610f2b86828701610e08565b9250506040610f3c86828701610e3e565b9150509250925092565b600060ff82169050919050565b610f5c81610f46565b82525050565b6000602082019050610f776000830184610f53565b92915050565b600060208284031215610f9357610f92610dba565b5b6000610fa184828501610e08565b91505092915050565b60008060408385031215610fc157610fc0610dba565b5b6000610fcf85828601610e08565b9250506020610fe085828601610e08565b9150509250929050565b610ff381610ddf565b82525050565b600060208201905061100e6000830184610fea565b92915050565b7f4e487b7100000000000000000000000000000000000000000000000000000000600052602260045260246000fd5b6000600282049050600182168061105b57607f821691505b60208210810361106e5761106d611014565b5b50919050565b7f4e487b7100000000000000000000000000000000000000000000000000000000600052601160045260246000fd5b60006110ae82610e1d565b91506110b983610e1d565b92508282019050808211156110d1576110d0611074565b5b92915050565b7f4f6e6c792061646d696e2063616e206d696e7400000000000000000000000000600082015250565b600061110d601383610d13565b9150611118826110d7565b602082019050919050565b6000602082019050818103600083015261113c81611100565b9050919050565b7f45524332303a2064656372656173656420616c6c6f77616e63652062656c6f7760008201527f207a65726f000000000000000000000000000000000000000000000000000000602082015250565b600061119f602583610d13565b91506111aa82611143565b604082019050919050565b600060208201905081810360008301526111ce81611192565b9050919050565b7f45524332303a20617070726f76652066726f6d20746865207a65726f2061646460008201527f7265737300000000000000000000000000000000000000000000000000000000602082015250565b6000611231602483610d13565b915061123c826111d5565b604082019050919050565b6000602082019050818103600083015261126081611224565b9050919050565b7f45524332303a20617070726f766520746f20746865207a65726f20616464726560008201527f7373000000000000000000000000000000000000000000000000000000000000602082015250565b60006112c3602283610d13565b91506112ce82611267565b604082019050919050565b600060208201905081810360008301526112f2816112b6565b9050919050565b7f45524332303a20696e73756666696369656e7420616c6c6f77616e6365000000600082015250565b600061132f601d83610d13565b915061133a826112f9565b602082019050919050565b6000602082019050818103600083015261135e81611322565b9050919050565b7f45524332303a207472616e736665722066726f6d20746865207a65726f20616460008201527f6472657373000000000000000000000000000000000000000000000000000000602082015250565b60006113c1602583610d13565b91506113cc82611365565b604082019050919050565b600060208201905081810360008301526113f0816113b4565b9050919050565b7f45524332303a207472616e7366657220746f20746865207a65726f206164647260008201527f6573730000000000000000000000000000000000000000000000000000000000602082015250565b6000611453602383610d13565b915061145e826113f7565b604082019050919050565b6000602082019050818103600083015261148281611446565b9050919050565b7f45524332303a207472616e7366657220616d6f756e742065786365656473206260008201527f616c616e63650000000000000000000000000000000000000000000000000000602082015250565b60006114e5602683610d13565b91506114f082611489565b604082019050919050565b60006020820190508181036000830152611514816114d8565b9050919050565b7f45524332303a206d696e7420746f20746865207a65726f206164647265737300600082015250565b6000611551601f83610d13565b915061155c8261151b565b602082019050919050565b6000602082019050818103600083015261158081611544565b905091905056fea264697066735822122097d41fb41b1a9f9d9942f287a313abc78766aacd4ca4690b4da0c4e7f9591e1c64736f6c63430008110033a26469706673582212200a27a0a01676d80a196935aa11f10cae1f5de742b7dc4b59bd1d1d55b314299064736f6c63430008110033608060405234801561001057600080fd5b5061300a806100206000396000f3fe608060405234801561001057600080fd5b50600436106100415760003560e01c806370f402f614610046578063ac57231514610064578063b6f3e08714610094575b600080fd5b61004e6100b0565b60405161005b9190610395565b60405180910390f35b61007e600480360381019061007991906103eb565b6100b6565b60405161008b9190610459565b60405180910390f35b6100ae60048036038101906100a991906104a0565b6100e9565b005b60005481565b60016020528060005260406000206000915054906101000a900473ffffffffffffffffffffffffffffffffffffffff1681565b8073ffffffffffffffffffffffffffffffffffffffff168273ffffffffffffffffffffffffffffffffffffffff1603610157576040517f08c379a000000000000000000000000000000000000000000000000000000000815260040161014e9061053d565b60405180910390fd5b6000808273ffffffffffffffffffffffffffffffffffffffff168473ffffffffffffffffffffffffffffffffffffffff161115610199578391508290506101a0565b8291508390505b600082826040516020016101b59291906105a5565b604051602081830303815290604052805190602001209050600073ffffffffffffffffffffffffffffffffffffffff166001600083815260200190815260200160002060009054906101000a900473ffffffffffffffffffffffffffffffffffffffff1673ffffffffffffffffffffffffffffffffffffffff161461026f576040517f08c379a00000000000000000000000000000000000000000000000000000000081526004016102669061061d565b60405180910390fd5b828260405161027d9061036e565b61028892919061063d565b604051809103906000f0801580156102a4573d6000803e3d6000fd5b506001600083815260200190815260200160002060006101000a81548173ffffffffffffffffffffffffffffffffffffffff021916908373ffffffffffffffffffffffffffffffffffffffff16021790555060008081548092919061030890610695565b91905055508173ffffffffffffffffffffffffffffffffffffffff168373ffffffffffffffffffffffffffffffffffffffff167fbc9687dc21b69bf8e01370b9f0ae1625f6bf5244fc230fa3ad4c06350deb634d60405160405180910390a35050505050565b6128f780620006de83390190565b6000819050919050565b61038f8161037c565b82525050565b60006020820190506103aa6000830184610386565b92915050565b600080fd5b6000819050919050565b6103c8816103b5565b81146103d357600080fd5b50565b6000813590506103e5816103bf565b92915050565b600060208284031215610401576104006103b0565b5b600061040f848285016103d6565b91505092915050565b600073ffffffffffffffffffffffffffffffffffffffff82169050919050565b600061044382610418565b9050919050565b61045381610438565b82525050565b600060208201905061046e600083018461044a565b92915050565b61047d81610438565b811461048857600080fd5b50565b60008135905061049a81610474565b92915050565b600080604083850312156104b7576104b66103b0565b5b60006104c58582860161048b565b92505060206104d68582860161048b565b9150509250929050565b600082825260208201905092915050565b7f546f6b656e73206d75737420626520646966666572656e740000000000000000600082015250565b60006105276018836104e0565b9150610532826104f1565b602082019050919050565b600060208201905081810360008301526105568161051a565b9050919050565b60008160601b9050919050565b60006105758261055d565b9050919050565b60006105878261056a565b9050919050565b61059f61059a82610438565b61057c565b82525050565b60006105b1828561058e565b6014820191506105c1828461058e565b6014820191508190509392505050565b7f546f6b656e207061697220616c72656164792065786973747300000000000000600082015250565b60006106076019836104e0565b9150610612826105d1565b602082019050919050565b60006020820190508181036000830152610636816105fa565b9050919050565b6000604082019050610652600083018561044a565b61065f602083018461044a565b9392505050565b7f4e487b7100000000000000000000000000000000000000000000000000000000600052601160045260246000fd5b60006106a08261037c565b91507fffffffffffffffffffffffffffffffffffffffffffffffffffffffffffffffff82036106d2576106d1610666565b5b60018201905091905056fe60806040523480156200001157600080fd5b50604051620028f7380380620028f783398181016040528101906200003791906200022a565b816000806101000a81548173ffffffffffffffffffffffffffffffffffffffff021916908373ffffffffffffffffffffffffffffffffffffffff16021790555080600160006101000a81548173ffffffffffffffffffffffffffffffffffffffff021916908373ffffffffffffffffffffffffffffffffffffffff160217905550600160036000600173ffffffffffffffffffffffffffffffffffffffff1673ffffffffffffffffffffffffffffffffffffffff16815260200190815260200160002060006101000a81548173ffffffffffffffffffffffffffffffffffffffff021916908373ffffffffffffffffffffffffffffffffffffffff160217905550600160066000600173ffffffffffffffffffffffffffffffffffffffff1673ffffffffffffffffffffffffffffffffffffffff16815260200190815260200160002060006101000a81548173ffffffffffffffffffffffffffffffffffffffff021916908373ffffffffffffffffffffffffffffffffffffffff160217905550505062000271565b600080fd5b600073ffffffffffffffffffffffffffffffffffffffff82169050919050565b6000620001f282620001c5565b9050919050565b6200020481620001e5565b81146200021057600080fd5b50565b6000815190506200022481620001f9565b92915050565b60008060408385031215620002445762000243620001c0565b5b6000620002548582860162000213565b9250506020620002678582860162000213565b9150509250929050565b61267680620002816000396000f3fe608060405234801561001057600080fd5b50600436106100a95760003560e01c80637b3cee60116100715780637b3cee60146101425780637f008a0a14610160578063949092c21461016a578063ca7030751461018a578063d21220a7146101a8578063fecd817c146101c6576100a9565b80630c6b6737146100ae5780630e07df0b146100cc578063169aab8d146100ec57806325be124e146101085780633f90162314610126575b600080fd5b6100b66101d0565b6040516100c39190611ea8565b60405180910390f35b6100d46101d6565b6040516100e393929190612071565b60405180910390f35b6101066004803603810190610101919061211a565b61049b565b005b610110610868565b60405161011d91906121cc565b60405180910390f35b610140600480360381019061013b919061211a565b61088e565b005b61014a610c5d565b6040516101579190611ea8565b60405180910390f35b610168610dd8565b005b6101726111eb565b60405161018193929190612071565b60405180910390f35b6101926114b0565b60405161019f9190611ea8565b60405180910390f35b6101b06114b6565b6040516101bd91906121cc565b60405180910390f35b6101ce6114da565b005b60075481565b6060806060600060045467ffffffffffffffff8111156101f9576101f86121e7565b5b6040519080825280602002602001820160405280156102275781602001602082028036833780820191505090505b509050600060045467ffffffffffffffff811115610248576102476121e7565b5b6040519080825280602002602001820160405280156102765781602001602082028036833780820191505090505b509050600060045467ffffffffffffffff811115610297576102966121e7565b5b6040519080825280602002602001820160405280156102c55781602001602082028036833780820191505090505b509050600060036000600173ffffffffffffffffffffffffffffffffffffffff1673ffffffffffffffffffffffffffffffffffffffff16815260200190815260200160002060009054906101000a900473ffffffffffffffffffffffffffffffffffffffff16905060005b8451811015610488578185828151811061034d5761034c612216565b5b602002602001019073ffffffffffffffffffffffffffffffffffffffff16908173ffffffffffffffffffffffffffffffffffffffff16815250506000600260008473ffffffffffffffffffffffffffffffffffffffff1673ffffffffffffffffffffffffffffffffffffffff168152602001908152602001600020905080600001548583815181106103e2576103e1612216565b5b602002602001018181525050806001015484838151811061040657610405612216565b5b602002602001018181525050600360008473ffffffffffffffffffffffffffffffffffffffff1673ffffffffffffffffffffffffffffffffffffffff16815260200190815260200160002060009054906101000a900473ffffffffffffffffffffffffffffffffffffffff16925050808061048090612274565b915050610330565b5083838396509650965050505050909192565b6000600260008373ffffffffffffffffffffffffffffffffffffffff1673ffffffffffffffffffffffffffffffffffffffff1681526020019081526020016000206002015414610520576040517f08c379a000000000000000000000000000000000000000000000000000000000815260040161051790612319565b60405180910390fd5b60008314158015610532575060008214155b610571576040517f08c379a0000000000000000000000000000000000000000000000000000000008152600401610568906123ab565b60405180910390fd5b604051806060016040528084815260200183815260200142815250600260008373ffffffffffffffffffffffffffffffffffffffff1673ffffffffffffffffffffffffffffffffffffffff16815260200190815260200160002060008201518160000155602082015181600101556040820151816002015590505060006105f7846118e9565b90506000600360008373ffffffffffffffffffffffffffffffffffffffff1673ffffffffffffffffffffffffffffffffffffffff16815260200190815260200160002060009054906101000a900473ffffffffffffffffffffffffffffffffffffffff16905082600360008473ffffffffffffffffffffffffffffffffffffffff1673ffffffffffffffffffffffffffffffffffffffff16815260200190815260200160002060006101000a81548173ffffffffffffffffffffffffffffffffffffffff021916908373ffffffffffffffffffffffffffffffffffffffff16021790555080600360008573ffffffffffffffffffffffffffffffffffffffff1673ffffffffffffffffffffffffffffffffffffffff16815260200190815260200160002060006101000a81548173ffffffffffffffffffffffffffffffffffffffff021916908373ffffffffffffffffffffffffffffffffffffffff1602179055506004600081548092919061076c90612274565b919050555060008054906101000a900473ffffffffffffffffffffffffffffffffffffffff1673ffffffffffffffffffffffffffffffffffffffff166323b872dd8430886040518463ffffffff1660e01b81526004016107ce939291906123da565b6020604051808303816000875af11580156107ed573d6000803e3d6000fd5b505050506040513d601f19601f820116820180604052508101906108119190612449565b508273ffffffffffffffffffffffffffffffffffffffff16857f89b6a1645f23bb3cb10a8d5693e3bdde2682f6f7c0b254f8c6317ed02e6e7750866040516108599190611ea8565b60405180910390a35050505050565b600160009054906101000a900473ffffffffffffffffffffffffffffffffffffffff1681565b6000600560008373ffffffffffffffffffffffffffffffffffffffff1673ffffffffffffffffffffffffffffffffffffffff1681526020019081526020016000206002015414610913576040517f08c379a000000000000000000000000000000000000000000000000000000000815260040161090a906124c2565b60405180910390fd5b60008314158015610925575060008214155b610964576040517f08c379a000000000000000000000000000000000000000000000000000000000815260040161095b906123ab565b60405180910390fd5b604051806060016040528084815260200183815260200142815250600560008373ffffffffffffffffffffffffffffffffffffffff1673ffffffffffffffffffffffffffffffffffffffff16815260200190815260200160002060008201518160000155602082015181600101556040820151816002015590505060006109ea846119de565b90506000600660008373ffffffffffffffffffffffffffffffffffffffff1673ffffffffffffffffffffffffffffffffffffffff16815260200190815260200160002060009054906101000a900473ffffffffffffffffffffffffffffffffffffffff16905082600660008473ffffffffffffffffffffffffffffffffffffffff1673ffffffffffffffffffffffffffffffffffffffff16815260200190815260200160002060006101000a81548173ffffffffffffffffffffffffffffffffffffffff021916908373ffffffffffffffffffffffffffffffffffffffff16021790555080600660008573ffffffffffffffffffffffffffffffffffffffff1673ffffffffffffffffffffffffffffffffffffffff16815260200190815260200160002060006101000a81548173ffffffffffffffffffffffffffffffffffffffff021916908373ffffffffffffffffffffffffffffffffffffffff16021790555060076000815480929190610b5f90612274565b9190505550600160009054906101000a900473ffffffffffffffffffffffffffffffffffffffff1673ffffffffffffffffffffffffffffffffffffffff166323b872dd8430876040518463ffffffff1660e01b8152600401610bc3939291906123da565b6020604051808303816000875af1158015610be2573d6000803e3d6000fd5b505050506040513d601f19601f82011682018060405250810190610c069190612449565b508273ffffffffffffffffffffffffffffffffffffffff16857f7ffeafa3f52f6955d686c233ece4b42adb8cf4c8e4f4190a489b52e27a1d7c4d86604051610c4e9190611ea8565b60405180910390a35050505050565b6000806005600060066000600173ffffffffffffffffffffffffffffffffffffffff1673ffffffffffffffffffffffffffffffffffffffff16815260200190815260200160002060009054906101000a900473ffffffffffffffffffffffffffffffffffffffff1673ffffffffffffffffffffffffffffffffffffffff1673ffffffffffffffffffffffffffffffffffffffff16815260200190815260200160002060000154905060006002600060036000600173ffffffffffffffffffffffffffffffffffffffff1673ffffffffffffffffffffffffffffffffffffffff16815260200190815260200160002060009054906101000a900473ffffffffffffffffffffffffffffffffffffffff1673ffffffffffffffffffffffffffffffffffffffff1673ffffffffffffffffffffffffffffffffffffffff168152602001908152602001600020600001549050818111610dc4578082610dbf91906124e2565b610dd1565b8181610dd091906124e2565b5b9250505090565b6000600560003373ffffffffffffffffffffffffffffffffffffffff1673ffffffffffffffffffffffffffffffffffffffff1681526020019081526020016000206002015403610e5d576040517f08c379a0000000000000000000000000000000000000000000000000000000008152600401610e5490612562565b60405180910390fd5b6000600560003373ffffffffffffffffffffffffffffffffffffffff1673ffffffffffffffffffffffffffffffffffffffff1681526020019081526020016000206001015490506000610eaf33611ad3565b9050600660003373ffffffffffffffffffffffffffffffffffffffff1673ffffffffffffffffffffffffffffffffffffffff16815260200190815260200160002060009054906101000a900473ffffffffffffffffffffffffffffffffffffffff16600660008373ffffffffffffffffffffffffffffffffffffffff1673ffffffffffffffffffffffffffffffffffffffff16815260200190815260200160002060006101000a81548173ffffffffffffffffffffffffffffffffffffffff021916908373ffffffffffffffffffffffffffffffffffffffff160217905550600660003373ffffffffffffffffffffffffffffffffffffffff1673ffffffffffffffffffffffffffffffffffffffff16815260200190815260200160002060006101000a81549073ffffffffffffffffffffffffffffffffffffffff0219169055600560003373ffffffffffffffffffffffffffffffffffffffff1673ffffffffffffffffffffffffffffffffffffffff1681526020019081526020016000206000808201600090556001820160009055600282016000905550506007600081548092919061105d90612582565b9190505550600160009054906101000a900473ffffffffffffffffffffffffffffffffffffffff1673ffffffffffffffffffffffffffffffffffffffff1663095ea7b333846040518363ffffffff1660e01b81526004016110bf9291906125ab565b6020604051808303816000875af11580156110de573d6000803e3d6000fd5b505050506040513d601f19601f820116820180604052508101906111029190612449565b50600160009054906101000a900473ffffffffffffffffffffffffffffffffffffffff1673ffffffffffffffffffffffffffffffffffffffff1663a9059cbb33846040518363ffffffff1660e01b81526004016111609291906125ab565b6020604051808303816000875af115801561117f573d6000803e3d6000fd5b505050506040513d601f19601f820116820180604052508101906111a39190612449565b503373ffffffffffffffffffffffffffffffffffffffff167fd72fd04c1f0f3dd2839fa078c4beeaabe5ef0b99fa16e668873e262e2ba475a260405160405180910390a25050565b6060806060600060075467ffffffffffffffff81111561120e5761120d6121e7565b5b60405190808252806020026020018201604052801561123c5781602001602082028036833780820191505090505b509050600060075467ffffffffffffffff81111561125d5761125c6121e7565b5b60405190808252806020026020018201604052801561128b5781602001602082028036833780820191505090505b509050600060075467ffffffffffffffff8111156112ac576112ab6121e7565b5b6040519080825280602002602001820160405280156112da5781602001602082028036833780820191505090505b509050600060066000600173ffffffffffffffffffffffffffffffffffffffff1673ffffffffffffffffffffffffffffffffffffffff16815260200190815260200160002060009054906101000a900473ffffffffffffffffffffffffffffffffffffffff16905060005b845181101561149d578185828151811061136257611361612216565b5b602002602001019073ffffffffffffffffffffffffffffffffffffffff16908173ffffffffffffffffffffffffffffffffffffffff16815250506000600560008473ffffffffffffffffffffffffffffffffffffffff1673ffffffffffffffffffffffffffffffffffffffff168152602001908152602001600020905080600001548583815181106113f7576113f6612216565b5b602002602001018181525050806001015484838151811061141b5761141a612216565b5b602002602001018181525050600660008473ffffffffffffffffffffffffffffffffffffffff1673ffffffffffffffffffffffffffffffffffffffff16815260200190815260200160002060009054906101000a900473ffffffffffffffffffffffffffffffffffffffff16925050808061149590612274565b915050611345565b5083838396509650965050505050909192565b60045481565b60008054906101000a900473ffffffffffffffffffffffffffffffffffffffff1681565b6000600260003373ffffffffffffffffffffffffffffffffffffffff1673ffffffffffffffffffffffffffffffffffffffff168152602001908152602001600020600201540361155f576040517f08c379a000000000000000000000000000000000000000000000000000000000815260040161155690612620565b60405180910390fd5b6000600260003373ffffffffffffffffffffffffffffffffffffffff1673ffffffffffffffffffffffffffffffffffffffff16815260200190815260200160002060010154905060006115b133611ad3565b9050600360003373ffffffffffffffffffffffffffffffffffffffff1673ffffffffffffffffffffffffffffffffffffffff16815260200190815260200160002060009054906101000a900473ffffffffffffffffffffffffffffffffffffffff16600360008373ffffffffffffffffffffffffffffffffffffffff1673ffffffffffffffffffffffffffffffffffffffff16815260200190815260200160002060006101000a81548173ffffffffffffffffffffffffffffffffffffffff021916908373ffffffffffffffffffffffffffffffffffffffff160217905550600360003373ffffffffffffffffffffffffffffffffffffffff1673ffffffffffffffffffffffffffffffffffffffff16815260200190815260200160002060006101000a81549073ffffffffffffffffffffffffffffffffffffffff0219169055600260003373ffffffffffffffffffffffffffffffffffffffff1673ffffffffffffffffffffffffffffffffffffffff1681526020019081526020016000206000808201600090556001820160009055600282016000905550506004600081548092919061175f90612582565b919050555060008054906101000a900473ffffffffffffffffffffffffffffffffffffffff1673ffffffffffffffffffffffffffffffffffffffff1663095ea7b333846040518363ffffffff1660e01b81526004016117bf9291906125ab565b6020604051808303816000875af11580156117de573d6000803e3d6000fd5b505050506040513d601f19601f820116820180604052508101906118029190612449565b5060008054906101000a900473ffffffffffffffffffffffffffffffffffffffff1673ffffffffffffffffffffffffffffffffffffffff1663a9059cbb33846040518363ffffffff1660e01b815260040161185e9291906125ab565b6020604051808303816000875af115801561187d573d6000803e3d6000fd5b505050506040513d601f19601f820116820180604052508101906118a19190612449565b503373ffffffffffffffffffffffffffffffffffffffff167f40a722cc05fdeaf68cfdd1182ed21c908bd55248a30fb25c43d3bca5f9eb66f560405160405180910390a25050565b600080600190505b6001156119d7576119628184600360008573ffffffffffffffffffffffffffffffffffffffff1673ffffffffffffffffffffffffffffffffffffffff16815260200190815260200160002060009054906101000a900473ffffffffffffffffffffffffffffffffffffffff16611c77565b1561197057809150506119d9565b600360008273ffffffffffffffffffffffffffffffffffffffff1673ffffffffffffffffffffffffffffffffffffffff16815260200190815260200160002060009054906101000a900473ffffffffffffffffffffffffffffffffffffffff1690506118f1565b505b919050565b600080600190505b600115611acc57611a578184600660008573ffffffffffffffffffffffffffffffffffffffff1673ffffffffffffffffffffffffffffffffffffffff16815260200190815260200160002060009054906101000a900473ffffffffffffffffffffffffffffffffffffffff16611d83565b15611a655780915050611ace565b600660008273ffffffffffffffffffffffffffffffffffffffff1673ffffffffffffffffffffffffffffffffffffffff16815260200190815260200160002060009054906101000a900473ffffffffffffffffffffffffffffffffffffffff1690506119e6565b505b919050565b600080600190505b600173ffffffffffffffffffffffffffffffffffffffff16600360008373ffffffffffffffffffffffffffffffffffffffff1673ffffffffffffffffffffffffffffffffffffffff16815260200190815260200160002060009054906101000a900473ffffffffffffffffffffffffffffffffffffffff1673ffffffffffffffffffffffffffffffffffffffff1614611c70578273ffffffffffffffffffffffffffffffffffffffff16600360008373ffffffffffffffffffffffffffffffffffffffff1673ffffffffffffffffffffffffffffffffffffffff16815260200190815260200160002060009054906101000a900473ffffffffffffffffffffffffffffffffffffffff1673ffffffffffffffffffffffffffffffffffffffff1603611c095780915050611c72565b600360008273ffffffffffffffffffffffffffffffffffffffff1673ffffffffffffffffffffffffffffffffffffffff16815260200190815260200160002060009054906101000a900473ffffffffffffffffffffffffffffffffffffffff169050611adb565b505b919050565b6000600173ffffffffffffffffffffffffffffffffffffffff168473ffffffffffffffffffffffffffffffffffffffff161480611cf65750600260008573ffffffffffffffffffffffffffffffffffffffff1673ffffffffffffffffffffffffffffffffffffffff168152602001908152602001600020600001548311155b8015611d7a5750600173ffffffffffffffffffffffffffffffffffffffff168273ffffffffffffffffffffffffffffffffffffffff161480611d795750600260008373ffffffffffffffffffffffffffffffffffffffff1673ffffffffffffffffffffffffffffffffffffffff1681526020019081526020016000206000015483115b5b90509392505050565b6000600173ffffffffffffffffffffffffffffffffffffffff168473ffffffffffffffffffffffffffffffffffffffff161480611e025750600560008573ffffffffffffffffffffffffffffffffffffffff1673ffffffffffffffffffffffffffffffffffffffff168152602001908152602001600020600001548310155b8015611e865750600173ffffffffffffffffffffffffffffffffffffffff168273ffffffffffffffffffffffffffffffffffffffff161480611e855750600560008373ffffffffffffffffffffffffffffffffffffffff1673ffffffffffffffffffffffffffffffffffffffff1681526020019081526020016000206000015483105b5b90509392505050565b6000819050919050565b611ea281611e8f565b82525050565b6000602082019050611ebd6000830184611e99565b92915050565b600081519050919050565b600082825260208201905092915050565b6000819050602082019050919050565b600073ffffffffffffffffffffffffffffffffffffffff82169050919050565b6000611f1a82611eef565b9050919050565b611f2a81611f0f565b82525050565b6000611f3c8383611f21565b60208301905092915050565b6000602082019050919050565b6000611f6082611ec3565b611f6a8185611ece565b9350611f7583611edf565b8060005b83811015611fa6578151611f8d8882611f30565b9750611f9883611f48565b925050600181019050611f79565b5085935050505092915050565b600081519050919050565b600082825260208201905092915050565b6000819050602082019050919050565b611fe881611e8f565b82525050565b6000611ffa8383611fdf565b60208301905092915050565b6000602082019050919050565b600061201e82611fb3565b6120288185611fbe565b935061203383611fcf565b8060005b8381101561206457815161204b8882611fee565b975061205683612006565b925050600181019050612037565b5085935050505092915050565b6000606082019050818103600083015261208b8186611f55565b9050818103602083015261209f8185612013565b905081810360408301526120b38184612013565b9050949350505050565b600080fd5b6120cb81611e8f565b81146120d657600080fd5b50565b6000813590506120e8816120c2565b92915050565b6120f781611f0f565b811461210257600080fd5b50565b600081359050612114816120ee565b92915050565b600080600060608486031215612133576121326120bd565b5b6000612141868287016120d9565b9350506020612152868287016120d9565b925050604061216386828701612105565b9150509250925092565b6000819050919050565b600061219261218d61218884611eef565b61216d565b611eef565b9050919050565b60006121a482612177565b9050919050565b60006121b682612199565b9050919050565b6121c6816121ab565b82525050565b60006020820190506121e160008301846121bd565b92915050565b7f4e487b7100000000000000000000000000000000000000000000000000000000600052604160045260246000fd5b7f4e487b7100000000000000000000000000000000000000000000000000000000600052603260045260246000fd5b7f4e487b7100000000000000000000000000000000000000000000000000000000600052601160045260246000fd5b600061227f82611e8f565b91507fffffffffffffffffffffffffffffffffffffffffffffffffffffffffffffffff82036122b1576122b0612245565b5b600182019050919050565b600082825260208201905092915050565b7f46697273742064656c657465206578697374696e6720627579206f7264657200600082015250565b6000612303601f836122bc565b915061230e826122cd565b602082019050919050565b60006020820190508181036000830152612332816122f6565b9050919050565b7f4d7573742068617665206e6f6e7a65726f207069636520616e64207175616e7460008201527f6974790000000000000000000000000000000000000000000000000000000000602082015250565b60006123956023836122bc565b91506123a082612339565b604082019050919050565b600060208201905081810360008301526123c481612388565b9050919050565b6123d481611f0f565b82525050565b60006060820190506123ef60008301866123cb565b6123fc60208301856123cb565b6124096040830184611e99565b949350505050565b60008115159050919050565b61242681612411565b811461243157600080fd5b50565b6000815190506124438161241d565b92915050565b60006020828403121561245f5761245e6120bd565b5b600061246d84828501612434565b91505092915050565b7f46697273742064656c657465206578697374696e672073656c6c206f72646572600082015250565b60006124ac6020836122bc565b91506124b782612476565b602082019050919050565b600060208201905081810360008301526124db8161249f565b9050919050565b60006124ed82611e8f565b91506124f883611e8f565b92508282039050818111156125105761250f612245565b5b92915050565b7f53656c6c206f72646572206d75737420616c7265616479206578697374000000600082015250565b600061254c601d836122bc565b915061255782612516565b602082019050919050565b6000602082019050818103600083015261257b8161253f565b9050919050565b600061258d82611e8f565b9150600082036125a05761259f612245565b5b600182039050919050565b60006040820190506125c060008301856123cb565b6125cd6020830184611e99565b9392505050565b7f427579206f72646572206d75737420616c726561647920657869737400000000600082015250565b600061260a601c836122bc565b9150612615826125d4565b602082019050919050565b60006020820190508181036000830152612639816125fd565b905091905056fea26469706673582212208af9dc5d4ec4b1216596f6acb5567a2bf6ca9ddd961582aca56f865d7eeead2664736f6c63430008110033a26469706673582212204041875038d48ec39bf82c42f42ac5119306bcbe6dd25ad4c4d5de6205ce85d864736f6c63430008110033",
  "immutableReferences": {},
  "source": "pragma solidity ^0.8.17;\r\n\r\nimport \"../node_modules/@openzeppelin/contracts/token/ERC20/ERC20.sol\";\r\n\r\ncontract Token is ERC20 {\r\n    address public admin;\r\n\r\n    constructor(string memory _name, string memory _symbol) ERC20(_name, _symbol) {\r\n        admin = msg.sender;\r\n        _mint(msg.sender, 1000);\r\n    }\r\n\r\n    function mint(address _to, uint256 _amount) external {\r\n        require(msg.sender == admin, \"Only admin can mint\");\r\n        _mint(_to, _amount);\r\n    }\r\n}\r\n\r\ncontract Dex {\r\n    mapping (address => ERC20) private availableTokens;\r\n    address[] private tokenAddresses;\r\n    uint256 private numTokens;\r\n    uint256 private numOrders;\r\n    OrderbookFactory private books = new OrderbookFactory();\r\n    bytes32[] private identifiers;\r\n\r\n    address public owner;\r\n    event LogTokenSent(address token, address receipient, uint256 amount);\r\n    event LogTokenCreated(address tokenAddress, string tokenName, string tokenSymbol);\r\n    event LogBuyOrderPlaced(address buyer, address buyToken, uint256 buyAmt, address payToken, uint256 payAmt);\r\n\r\n    // Order struct containing price, quantity, and tokens being transacted\r\n    struct Order {\r\n        address orderedBy; // address of buyer/seller\r\n        uint256 price;\r\n        uint256 quantity;\r\n        string token1;\r\n        string token2;\r\n        string orderType; // buy or sell\r\n        address token1Addr;\r\n        address token2Addr;\r\n    }\r\n\r\n    constructor () {\r\n        owner = msg.sender;\r\n        numTokens = 0;\r\n        numOrders = 0;\r\n    }\r\n\r\n\r\n    // Allows admin to create new token, and new token will be added into availableTokens dict.\r\n    function createToken(string memory _name, string memory _symbol) public {\r\n        // only allow owner to create tokens\r\n        require(owner == msg.sender, \"Only the owner can create tokens!\");\r\n\r\n        //mapping address of new Token created\r\n        address newTokenAddress = address(new Token(_name, _symbol));\r\n        availableTokens[newTokenAddress] = ERC20(newTokenAddress);\r\n        tokenAddresses.push(newTokenAddress);\r\n        numTokens++;\r\n\r\n        // log token creation event\r\n        emit LogTokenCreated(newTokenAddress, _name, _symbol);\r\n    }\r\n\r\n    // Allows admin to send token\r\n    function sendToken(address _token, address _receipient, uint256 _amount) public {\r\n        // only allow owner to create tokens\r\n        require(owner == msg.sender, \"Only the owner can send tokens!\");\r\n        ERC20 ERC20TOKEN = availableTokens[_token];\r\n        ERC20TOKEN.transfer(_receipient, _amount);\r\n\r\n        // log token sent event\r\n        emit LogTokenSent(_token, _receipient, _amount);\r\n    }\r\n\r\n    // Returns an array of available tokens\r\n    function getAvailableTokens() public view returns(address[] memory) {\r\n        address[] memory addressTemp = new address[](numTokens);\r\n\r\n        //loop through the available tokens\r\n        for (uint256 i=0; i < numTokens; i++) {\r\n            if(tokenAddresses[i] == address(0)){\r\n                i--; //so that i does not increase\r\n                continue;\r\n            }\r\n            addressTemp[i] = tokenAddresses[i];\r\n        }\r\n        return addressTemp;\r\n    }\r\n\r\n    function getTokenName(address _token) public view returns(string memory) {\r\n        ERC20 ERC20TOKEN = availableTokens[_token];\r\n        return ERC20TOKEN.name();\r\n    }\r\n\r\n    function getTokenBalance(address _token) public view returns(uint256) {\r\n        ERC20 ERC20TOKEN = availableTokens[_token];\r\n        return ERC20TOKEN.balanceOf(msg.sender);\r\n    }\r\n\r\n    // the logic for this buy is a little weird, because the orderbook assumes the token to be bought/sold.\r\n    // for example in orderbook for tokenA and tokenB. orderbook always assumes tokenA is the one being sold, \r\n    // tokenB is the one being bought. because of this, when we want to buy tokenA, we have to place a sell order for token B.\r\n    function buy(address _buyToken, uint256 _buyAmt, address _payToken, uint256 _payAmt) public {\r\n        // first check whether there is an existing orderboook for this pair of tokens\r\n        address token1;\r\n        address token2;\r\n        if (uint160(_buyToken) > uint160(_payToken)) {\r\n            token1 = _buyToken;\r\n            token2 = _payToken;\r\n        } else {\r\n            token1 = _payToken;\r\n            token2 = _buyToken;\r\n        }\r\n        bytes32 identifier = keccak256(abi.encodePacked(token1, token2));\r\n        // if no existing orderbook for this pair of tokens then create it\r\n        if(books.orderbooks(identifier) == address(0)){\r\n            books.addPair(token1, token2);\r\n            identifiers.push(identifier);\r\n        }\r\n        Orderbook book = Orderbook(books.orderbooks(identifier));\r\n        // in orderbook token 1 acts as cash, token 2 acts as commodity.\r\n        // so, by comparing _buyToken with token1, we will know if _buyToken here is cash or commodity.\r\n        // if _buyToken is cash, means we need to place sell order, if is commodity, means we need to place buy order\r\n        if(_buyToken == token1){\r\n            //place sell order\r\n            book.placeSell(_buyAmt, _payAmt, msg.sender);\r\n        }else if(_buyToken == token2){\r\n            //place buy order\r\n            book.placeBuy(_payAmt, _buyAmt, msg.sender);\r\n        }\r\n\r\n        numOrders++;\r\n        emit LogBuyOrderPlaced(msg.sender, _buyToken, _buyAmt, _payToken, _payAmt);\r\n    }\r\n\r\n    // will need this to retrieve address of orderbook, and address of token1 and token2 so we know which is getting bought/sold\r\n    function getOrderbookAddress(address _token1, address _token2) view external returns (address, address, address) {\r\n        address token1;\r\n        address token2;\r\n        if (uint160(_token1) > uint160(_token2)) {\r\n            token1 = _token1;\r\n            token2 = _token2;\r\n        } else {\r\n            token1 = _token2;\r\n            token2 = _token1;\r\n        }\r\n        bytes32 identifier = keccak256(abi.encodePacked(token1, token2));\r\n        return (books.orderbooks(identifier), token1, token2);\r\n    }\r\n\r\n    // create orderbook for the token pair and return the address\r\n    function addTokenPair(address _token1, address _token2) external returns (address, address, address) {\r\n        books.addPair(_token1, _token2);\r\n        address token1;\r\n        address token2;\r\n        if (uint160(_token1) > uint160(_token2)) {\r\n            token1 = _token1;\r\n            token2 = _token2;\r\n        } else {\r\n            token1 = _token2;\r\n            token2 = _token1;\r\n        }\r\n        bytes32 identifier = keccak256(abi.encodePacked(token1, token2));\r\n        identifiers.push(identifier);\r\n        return (books.orderbooks(identifier), token1, token2);\r\n    }\r\n\r\n    function getBuyOrders() view external returns (Order[] memory){\r\n        address[] memory addressTemp;\r\n        uint256[] memory priceTemp;\r\n        uint256[] memory quantityTemp;\r\n        string memory _token1;\r\n        string memory _token2;\r\n\r\n        Order[] memory _orders = new Order[](numOrders);\r\n\r\n        uint256 k = 0; // for looping through orders\r\n\r\n        //loop through the available tokens\r\n        for(uint256 i=0; i < identifiers.length; i++) {\r\n            Orderbook book = Orderbook(books.orderbooks(identifiers[i]));\r\n            (addressTemp, priceTemp, quantityTemp) = book.getBuySide();\r\n            _token1 = getTokenName(address(book.token1()));\r\n            _token2 = getTokenName(address(book.token2()));\r\n            \r\n            for(uint256 j=0; j < addressTemp.length; j++){\r\n                _orders[k] = Order(addressTemp[j], priceTemp[j], quantityTemp[j], _token1, _token2, \"buy\", address(book.token1()), address(book.token2()));\r\n                k++;\r\n            }\r\n\r\n            (addressTemp, priceTemp, quantityTemp) = book.getSellSide();\r\n            for(uint256 j=0; j < addressTemp.length; j++){\r\n                _orders[k] = Order(addressTemp[j], priceTemp[j], quantityTemp[j], _token1, _token2, \"sell\", address(book.token1()), address(book.token2()));\r\n                k++;\r\n            }\r\n        }\r\n        // still missing names of token being bought/sold.\r\n        // buyPriceTemp holds the amount of token1 being paid, buyQuantityTemp holds the amount of token2 being bought\r\n        // buyAddressTemp holds wallet addresses of those who placed the buy orders\r\n        // \r\n        return _orders;\r\n    }\r\n\r\n\r\n}\r\n\r\n\r\n/* This contract represents a factory to create an arbitrary number of orderbooks\r\n * for unique trading pairs. If an orderbook for the trading pair already exists\r\n * then contract execution will revert.\r\n */\r\ncontract OrderbookFactory {\r\n    // number of pairs supported\r\n    uint256 public pairsSupported;\r\n\r\n    // mapping of existing orderbooks\r\n    mapping(bytes32 => address) public orderbooks;\r\n\r\n    // event emitted every time a new token pair is added\r\n    event NewPair(address indexed token1, address indexed token2);\r\n\r\n    // Creates a new orderbook contract instance for the token pair\r\n    function addPair(address _token1, address _token2) external {\r\n        require(_token1 != _token2, \"Tokens must be different\");\r\n\r\n        address token1;\r\n        address token2;\r\n\r\n        /* This ensures that token addresses are order correctly, this way if\r\n         * the same pair is entered but in different order, a new orderbook will\r\n         * NOT be created!\r\n         */\r\n        if (uint160(_token1) > uint160(_token2)) {\r\n            token1 = _token1;\r\n            token2 = _token2;\r\n        } else {\r\n            token1 = _token2;\r\n            token2 = _token1;\r\n        }\r\n\r\n        // mapping identifier is computed from the hash of the ordered addresses\r\n        bytes32 identifier = keccak256(abi.encodePacked(token1, token2));\r\n        require(\r\n            orderbooks[identifier] == address(0),\r\n            \"Token pair already exists\"\r\n        );\r\n\r\n        /* create the new orderbook contract for the pair and store its address\r\n         * in the orderbooks mapping\r\n         */\r\n        orderbooks[identifier] = address(new Orderbook(token1, token2));\r\n        pairsSupported++;\r\n\r\n        emit NewPair(token1, token2);\r\n    }\r\n}\r\n\r\n/* This contract represents an orderbook with a buy side and sell side of the\r\n * book. This contract maintains an ordered list of both the buy side and the\r\n * sell side of the book and allows any user to remove his or her order. There\r\n * is also functionality to return both the buy and sell side of the book. Please\r\n * see the README for further assumptions.\r\n */\r\ncontract Orderbook {\r\n    IERC20 public token1;\r\n    IERC20 public token2;\r\n\r\n    // Order struct containing price, quantity, and date created\r\n    struct Order {\r\n        uint256 price;\r\n        uint256 quantity;\r\n        uint256 date;\r\n    }\r\n\r\n    // mapping of buyer address to buy order\r\n    mapping(address => Order) buyOrders;\r\n\r\n    // mapping used to preserve order based on buy price\r\n    mapping(address => address) nextBuy;\r\n\r\n    // overall buy order count\r\n    uint256 public buyCount;\r\n\r\n    // mapping of seller address to sell order\r\n    mapping(address => Order) sellOrders;\r\n\r\n    // mapping used to preserve order based on sell price\r\n    mapping(address => address) nextSell;\r\n\r\n    // overall sell order count\r\n    uint256 public sellCount;\r\n\r\n    // BUFFER used to signal beginning and end of order mappings\r\n    address constant BUFFER = address(1);\r\n\r\n    // event emitted whenever a buy order is placed\r\n    event BuyOrderPlaced(\r\n        uint256 indexed price,\r\n        uint256 quantity,\r\n        address indexed buyer\r\n    );\r\n\r\n    // event emitted whenever a buy order is cancelled\r\n    event CancelBuyOrder(address indexed buyer);\r\n\r\n    // event emitted whenever a sell order is placed\r\n    event SellOrderPlaced(\r\n        uint256 indexed price,\r\n        uint256 quantity,\r\n        address indexed seller\r\n    );\r\n\r\n    // event emitted whenever a sell order is cancelled\r\n    event CancelSellOrder(address indexed seller);\r\n\r\n    // initialize token1 and token2 of the pair\r\n    constructor(address _token1, address _token2) {\r\n        token1 = IERC20(_token1);\r\n        token2 = IERC20(_token2);\r\n\r\n        // initialize order mappings\r\n        nextBuy[BUFFER] = BUFFER;\r\n        nextSell[BUFFER] = BUFFER;\r\n    }\r\n\r\n    /* Helper function used to verify the correct insertion position of a\r\n     * buy order when it is added to the buy side. Returns true if the order is\r\n     * at least as expensive as the previous buy order in the list and definitely\r\n     * more expensive than the next order in the list (for descending order)\r\n     */\r\n    function _verifyIndexBuy(\r\n        address prev,\r\n        uint256 price,\r\n        address next\r\n    ) internal view returns (bool) {\r\n        return ((prev == BUFFER || price <= buyOrders[prev].price) &&\r\n            (next == BUFFER || price > buyOrders[next].price));\r\n    }\r\n\r\n    /* Helper function used to verify the correct insertion position of a\r\n     * sell order when it is added to the sell side. Returns true if the order is\r\n     * at least as cheap as the previous sell order in the list and definitely\r\n     * less expensive than the next order in the list (for ascending order)\r\n     */\r\n    function _verifyIndexSell(\r\n        address prev,\r\n        uint256 price,\r\n        address next\r\n    ) internal view returns (bool) {\r\n        return ((prev == BUFFER || price >= sellOrders[prev].price) &&\r\n            (next == BUFFER || price < sellOrders[next].price));\r\n    }\r\n\r\n    /* Helper function that finds the previous buy order address for the new buy\r\n     * order to add to the list based on the new buy order price.\r\n     */\r\n    function _findPrevBuy(uint256 price) internal view returns (address) {\r\n        address prev = BUFFER;\r\n        while (true) {\r\n            if (_verifyIndexBuy(prev, price, nextBuy[prev])) {\r\n                return prev;\r\n            }\r\n            prev = nextBuy[prev];\r\n        }\r\n    }\r\n\r\n    /* Helper function that finds the previous sell order address for the new\r\n     * sell order to add to the list based on the new sell order price.\r\n     */\r\n    function _findPrevSell(uint256 price) internal view returns (address) {\r\n        address prev = BUFFER;\r\n        while (true) {\r\n            if (_verifyIndexSell(prev, price, nextSell[prev])) {\r\n                return prev;\r\n            }\r\n            prev = nextSell[prev];\r\n        }\r\n    }\r\n\r\n    /* Finds the previous address of the target address in the order mapping of\r\n     * either buy or sell order addresses. Used for removing buy or sell orders.\r\n     */\r\n    function _getPrevious(address target) internal view returns (address) {\r\n        address current = BUFFER;\r\n        while (nextBuy[current] != BUFFER) {\r\n            if (nextBuy[current] == target) {\r\n                return current;\r\n            }\r\n            current = nextBuy[current];\r\n        }\r\n    }\r\n\r\n    // Places a buy order and locks associated collateral\r\n    function placeBuy(uint256 _price, uint256 _quantity, address _buyer) external {\r\n        // Only one buy order per address\r\n        require(\r\n            buyOrders[_buyer].date == 0,\r\n            \"First delete existing buy order\"\r\n        );\r\n        require(\r\n            _price != 0 && _quantity != 0,\r\n            \"Must have nonzero pice and quantity\"\r\n        );\r\n\r\n        // Create a new order in the buy order mapping for _buyer\r\n        buyOrders[_buyer] = Order(_price, _quantity, block.timestamp);\r\n\r\n        /* Add _buyer into the appropriate position in the ordering mapping.\r\n         * This is similar to linked list insertion\r\n         */\r\n        address prev = _findPrevBuy(_price);\r\n        address temp = nextBuy[prev];\r\n        nextBuy[prev] = _buyer;\r\n        nextBuy[_buyer] = temp;\r\n\r\n        // Increment the overall buy count\r\n        buyCount++;\r\n\r\n        /* Transfer the buy order quantity of token1 from the buyer to the\r\n         * orderbook contract. This locks the associated collateral\r\n         */\r\n        token1.transferFrom(_buyer, address(this), _price);\r\n\r\n        // Emit buy order placed event\r\n        emit BuyOrderPlaced(_price, _quantity, _buyer);\r\n    }\r\n\r\n    // Cancels the buy order associated with _buyer if it exists\r\n    function cancelBuy() external {\r\n        require(\r\n            buyOrders[msg.sender].date != 0,\r\n            \"Buy order must already exist\"\r\n        );\r\n\r\n        // Store quantity of buy order to refund msg.sender with correct amount\r\n        uint256 quantity = buyOrders[msg.sender].quantity;\r\n\r\n        // Find the previous address of the msg.sender in the ordering mapping\r\n        address prev = _getPrevious(msg.sender);\r\n\r\n        // Delete msg.sender from ordering mapping. Similar to linked list deletion\r\n        nextBuy[prev] = nextBuy[msg.sender];\r\n\r\n        // Delete buy order from buy order mapping and ordering mapping\r\n        delete nextBuy[msg.sender];\r\n        delete buyOrders[msg.sender];\r\n\r\n        // Decrement the buy count\r\n        buyCount--;\r\n\r\n        // approve corresponding wallet to draw funds from this contract\r\n        token1.approve(msg.sender, quantity);\r\n        // uint256 allowance = token1.allowance(address(this), msg.sender);\r\n        // Unlock associated collateral and send it back to msg.sender\r\n        token1.transfer(msg.sender, quantity);\r\n\r\n        // Emit a cancel buy order event\r\n        emit CancelBuyOrder(msg.sender);\r\n    }\r\n\r\n    // Places a sell order and locks associated collateral\r\n    function placeSell(uint256 _price, uint256 _quantity, address _seller) external {\r\n        // Only one sell order per address\r\n        require(\r\n            sellOrders[_seller].date == 0,\r\n            \"First delete existing sell order\"\r\n        );\r\n        require(\r\n            _price != 0 && _quantity != 0,\r\n            \"Must have nonzero pice and quantity\"\r\n        );\r\n\r\n        // Create a new order in the sell order mapping for _seller\r\n        sellOrders[_seller] = Order(_price, _quantity, block.timestamp);\r\n\r\n        /* Add _seller into the appropriate position in the ordering mapping.\r\n         * This is similar to linked list insertion\r\n         */\r\n        address prev = _findPrevSell(_price);\r\n        address temp = nextSell[prev];\r\n        nextSell[prev] = _seller;\r\n        nextSell[_seller] = temp;\r\n\r\n        // Increment the sell count\r\n        sellCount++;\r\n\r\n        /* Transfer the sell order quantity of token2 from the seller to the\r\n         * orderbook contract. This locks the associated collateral\r\n         */\r\n        token2.transferFrom(_seller, address(this), _quantity);\r\n\r\n        // Emit a sell order placed event\r\n        emit SellOrderPlaced(_price, _quantity, _seller);\r\n    }\r\n\r\n    // Cancels the sell order associated with msg.sender if it exists\r\n    function cancelSell() external {\r\n        require(\r\n            sellOrders[msg.sender].date != 0,\r\n            \"Sell order must already exist\"\r\n        );\r\n\r\n        // Store quantity of sell order to refund msg.sender with correct amount\r\n        uint256 quantity = sellOrders[msg.sender].quantity;\r\n\r\n        // Find the previous address of the msg.sender in the ordering mapping\r\n        address prev = _getPrevious(msg.sender);\r\n\r\n        // Delete msg.sender from ordering mapping. Similar to linked list deletion\r\n        nextSell[prev] = nextSell[msg.sender];\r\n\r\n        // Delete sell order from sell order mapping and ordering mapping\r\n        delete nextSell[msg.sender];\r\n        delete sellOrders[msg.sender];\r\n\r\n        // Decrement sell count\r\n        sellCount--;\r\n\r\n        // approve corresponding wallet to draw funds from this contract\r\n        token2.approve(msg.sender, quantity);\r\n        // console.log(token2.allowance(address(this), msg.sender));\r\n        // Unlock associated collateral and send it back to msg.sender\r\n        token2.transfer(msg.sender, quantity);\r\n\r\n        // Emit a cencel sell order event\r\n        emit CancelSellOrder(msg.sender);\r\n    }\r\n\r\n    /* Returns the buy side of the orderbook in three separate arrays. The first\r\n     * array contains all the addresses with active buy orders, and the second\r\n     * and third arrays contain the associated prices and quantities of these\r\n     * buy orders respectively. Arrays are returned in descending order\r\n     */\r\n    function getBuySide()\r\n        external\r\n        view\r\n        returns (\r\n            address[] memory,\r\n            uint256[] memory,\r\n            uint256[] memory\r\n        )\r\n    {\r\n        // Instantiate three arrays equal in length to the total buy count\r\n        address[] memory addressTemp = new address[](buyCount);\r\n        uint256[] memory priceTemp = new uint256[](buyCount);\r\n        uint256[] memory quantityTemp = new uint256[](buyCount);\r\n\r\n        // Set current address equal to the first buy order address\r\n        address current = nextBuy[BUFFER];\r\n\r\n        // Iterate through each array and store the corresponding values\r\n        for (uint256 i = 0; i < addressTemp.length; i++) {\r\n            addressTemp[i] = current;\r\n            Order storage order = buyOrders[current];\r\n\r\n            priceTemp[i] = order.price;\r\n            quantityTemp[i] = order.quantity;\r\n\r\n            current = nextBuy[current];\r\n        }\r\n\r\n        // Return the three arrays\r\n        return (addressTemp, priceTemp, quantityTemp);\r\n    }\r\n\r\n    /* Returns the sell side of the orderbook in three separate arrays. The first\r\n     * array contains all the addresses with active sell orders, and the second\r\n     * and third arrays contain the associated prices and quantities of these\r\n     * sell orders respectively. Arrays are returned in ascending order\r\n     */\r\n    function getSellSide()\r\n        external\r\n        view\r\n        returns (\r\n            address[] memory,\r\n            uint256[] memory,\r\n            uint256[] memory\r\n        )\r\n    {\r\n        // Instantiate three arrays equal in length to the total sell count\r\n        address[] memory addressTemp = new address[](sellCount);\r\n        uint256[] memory priceTemp = new uint256[](sellCount);\r\n        uint256[] memory quantityTemp = new uint256[](sellCount);\r\n\r\n        // Set current address equal to the first sell order address\r\n        address current = nextSell[BUFFER];\r\n\r\n        // Iterate through each array and store the corresponding values\r\n        for (uint256 i = 0; i < addressTemp.length; i++) {\r\n            addressTemp[i] = current;\r\n            Order storage order = sellOrders[current];\r\n\r\n            priceTemp[i] = order.price;\r\n            quantityTemp[i] = order.quantity;\r\n\r\n            current = nextSell[current];\r\n        }\r\n\r\n        // Return the three arrays\r\n        return (addressTemp, priceTemp, quantityTemp);\r\n    }\r\n\r\n    /* Returns the spread of the orderbook defined as the absolute value of the\r\n     * difference between the highest buy price and the lowest sell price.\r\n     */\r\n    function getSpread() external view returns (uint256) {\r\n        uint256 bestSell = sellOrders[nextSell[BUFFER]].price;\r\n        uint256 bestBuy = buyOrders[nextBuy[BUFFER]].price;\r\n\r\n        // Return the spread as a positive number (uint must be positive)\r\n        return bestBuy > bestSell ? bestBuy - bestSell : bestSell - bestBuy;\r\n    }\r\n}\r\n\r\n",
  "sourcePath": "C:\\Users\\Yu_Hao\\Desktop\\Y3S1\\CZ4153\\Project\\CZ4153-DEX\\frontend\\contracts\\Dex.sol",
  "compiler": {
    "name": "solc",
    "version": "0.8.17+commit.8df45f5f.Emscripten.clang"
  },
  "schemaVersion": "3.4.10",
  "updatedAt": "2022-10-31T07:56:08.456Z",
  "networkType": "ethereum",
  "devdoc": {
    "kind": "dev",
    "methods": {},
    "version": 1
  },
  "userdoc": {
    "kind": "user",
    "methods": {},
    "version": 1
  }
}