{
  "contractName": "Dex",
  "abi": [
    {
      "inputs": [],
      "stateMutability": "nonpayable",
      "type": "constructor"
    },
    {
      "anonymous": false,
      "inputs": [
        {
          "indexed": false,
          "internalType": "address",
          "name": "buyer",
          "type": "address"
        },
        {
          "indexed": false,
          "internalType": "address",
          "name": "buyToken",
          "type": "address"
        },
        {
          "indexed": false,
          "internalType": "uint256",
          "name": "buyAmt",
          "type": "uint256"
        },
        {
          "indexed": false,
          "internalType": "address",
          "name": "payToken",
          "type": "address"
        },
        {
          "indexed": false,
          "internalType": "uint256",
          "name": "payAmt",
          "type": "uint256"
        }
      ],
      "name": "LogBuyOrderPlaced",
      "type": "event"
    },
    {
      "anonymous": false,
      "inputs": [
        {
          "indexed": false,
          "internalType": "address",
          "name": "tokenAddress",
          "type": "address"
        },
        {
          "indexed": false,
          "internalType": "string",
          "name": "tokenName",
          "type": "string"
        },
        {
          "indexed": false,
          "internalType": "string",
          "name": "tokenSymbol",
          "type": "string"
        }
      ],
      "name": "LogTokenCreated",
      "type": "event"
    },
    {
      "anonymous": false,
      "inputs": [
        {
          "indexed": false,
          "internalType": "address",
          "name": "token",
          "type": "address"
        },
        {
          "indexed": false,
          "internalType": "address",
          "name": "receipient",
          "type": "address"
        },
        {
          "indexed": false,
          "internalType": "uint256",
          "name": "amount",
          "type": "uint256"
        }
      ],
      "name": "LogTokenSent",
      "type": "event"
    },
    {
      "inputs": [
        {
          "internalType": "uint256",
          "name": "",
          "type": "uint256"
        }
      ],
      "name": "_orders",
      "outputs": [
        {
          "internalType": "address",
          "name": "orderedBy",
          "type": "address"
        },
        {
          "internalType": "uint256",
          "name": "price",
          "type": "uint256"
        },
        {
          "internalType": "uint256",
          "name": "quantity",
          "type": "uint256"
        },
        {
          "internalType": "string",
          "name": "token1",
          "type": "string"
        },
        {
          "internalType": "string",
          "name": "token2",
          "type": "string"
        },
        {
          "internalType": "string",
          "name": "orderType",
          "type": "string"
        },
        {
          "internalType": "address",
          "name": "token1Addr",
          "type": "address"
        },
        {
          "internalType": "address",
          "name": "token2Addr",
          "type": "address"
        }
      ],
      "stateMutability": "view",
      "type": "function",
      "constant": true
    },
    {
      "inputs": [],
      "name": "owner",
      "outputs": [
        {
          "internalType": "address",
          "name": "",
          "type": "address"
        }
      ],
      "stateMutability": "view",
      "type": "function",
      "constant": true
    },
    {
      "inputs": [
        {
          "internalType": "string",
          "name": "_name",
          "type": "string"
        },
        {
          "internalType": "string",
          "name": "_symbol",
          "type": "string"
        }
      ],
      "name": "createToken",
      "outputs": [],
      "stateMutability": "nonpayable",
      "type": "function"
    },
    {
      "inputs": [
        {
          "internalType": "address",
          "name": "_token",
          "type": "address"
        },
        {
          "internalType": "address",
          "name": "_receipient",
          "type": "address"
        },
        {
          "internalType": "uint256",
          "name": "_amount",
          "type": "uint256"
        }
      ],
      "name": "sendToken",
      "outputs": [],
      "stateMutability": "nonpayable",
      "type": "function"
    },
    {
      "inputs": [],
      "name": "getAvailableTokens",
      "outputs": [
        {
          "internalType": "address[]",
          "name": "",
          "type": "address[]"
        }
      ],
      "stateMutability": "view",
      "type": "function",
      "constant": true
    },
    {
      "inputs": [
        {
          "internalType": "address",
          "name": "_token",
          "type": "address"
        }
      ],
      "name": "getTokenName",
      "outputs": [
        {
          "internalType": "string",
          "name": "",
          "type": "string"
        }
      ],
      "stateMutability": "view",
      "type": "function",
      "constant": true
    },
    {
      "inputs": [
        {
          "internalType": "address",
          "name": "_token",
          "type": "address"
        }
      ],
      "name": "getTokenBalance",
      "outputs": [
        {
          "internalType": "uint256",
          "name": "",
          "type": "uint256"
        }
      ],
      "stateMutability": "view",
      "type": "function",
      "constant": true
    },
    {
      "inputs": [
        {
          "internalType": "address",
          "name": "_buyToken",
          "type": "address"
        },
        {
          "internalType": "uint256",
          "name": "_buyAmt",
          "type": "uint256"
        },
        {
          "internalType": "address",
          "name": "_payToken",
          "type": "address"
        },
        {
          "internalType": "uint256",
          "name": "_payAmt",
          "type": "uint256"
        }
      ],
      "name": "buy",
      "outputs": [],
      "stateMutability": "nonpayable",
      "type": "function"
    },
    {
      "inputs": [
        {
          "internalType": "address",
          "name": "_token1",
          "type": "address"
        },
        {
          "internalType": "address",
          "name": "_token2",
          "type": "address"
        }
      ],
      "name": "getOrderbookAddress",
      "outputs": [
        {
          "internalType": "address",
          "name": "",
          "type": "address"
        },
        {
          "internalType": "address",
          "name": "",
          "type": "address"
        },
        {
          "internalType": "address",
          "name": "",
          "type": "address"
        }
      ],
      "stateMutability": "view",
      "type": "function",
      "constant": true
    },
    {
      "inputs": [
        {
          "internalType": "address",
          "name": "_token1",
          "type": "address"
        },
        {
          "internalType": "address",
          "name": "_token2",
          "type": "address"
        }
      ],
      "name": "addTokenPair",
      "outputs": [
        {
          "internalType": "address",
          "name": "",
          "type": "address"
        },
        {
          "internalType": "address",
          "name": "",
          "type": "address"
        },
        {
          "internalType": "address",
          "name": "",
          "type": "address"
        }
      ],
      "stateMutability": "nonpayable",
      "type": "function"
    },
    {
      "inputs": [],
      "name": "getOrders",
      "outputs": [
        {
          "components": [
            {
              "internalType": "address",
              "name": "orderedBy",
              "type": "address"
            },
            {
              "internalType": "uint256",
              "name": "price",
              "type": "uint256"
            },
            {
              "internalType": "uint256",
              "name": "quantity",
              "type": "uint256"
            },
            {
              "internalType": "string",
              "name": "token1",
              "type": "string"
            },
            {
              "internalType": "string",
              "name": "token2",
              "type": "string"
            },
            {
              "internalType": "string",
              "name": "orderType",
              "type": "string"
            },
            {
              "internalType": "address",
              "name": "token1Addr",
              "type": "address"
            },
            {
              "internalType": "address",
              "name": "token2Addr",
              "type": "address"
            }
          ],
          "internalType": "struct Dex.Order[]",
          "name": "",
          "type": "tuple[]"
        }
      ],
      "stateMutability": "nonpayable",
      "type": "function"
    }
  ],
  "bytecode": "0x60806040526040516200001290620000d5565b604051809103906000f0801580156200002f573d6000803e3d6000fd5b50600460006101000a81548173ffffffffffffffffffffffffffffffffffffffff021916908373ffffffffffffffffffffffffffffffffffffffff1602179055503480156200007d57600080fd5b5033600760006101000a81548173ffffffffffffffffffffffffffffffffffffffff021916908373ffffffffffffffffffffffffffffffffffffffff16021790555060006002819055506000600381905550620000e3565b613efd806200578c83390190565b61569980620000f36000396000f3fe60806040523480156200001157600080fd5b5060043610620000b85760003560e01c80634e5919ef116200007b5780634e5919ef146200018d5780636f0fccab14620001ca5780638da5cb5b1462000200578063a7c87ec21462000222578063b3ffb760146200025a578063e35568cb146200027a57620000b8565b80630633fe0114620000bd5780632e2dc43e14620000f55780632f2f2d5614620001175780632fdcfbd214620001375780633aecd0e31462000157575b600080fd5b620000db6004803603810190620000d5919062002309565b6200029c565b604051620000ec9392919062002361565b60405180910390f35b620000ff620003ce565b6040516200010e919062002602565b60405180910390f35b6200013560048036038101906200012f919062002777565b620011fa565b005b6200015560048036038101906200014f91906200282d565b62001408565b005b6200017560048036038101906200016f919062002889565b620015c5565b604051620001849190620028cc565b60405180910390f35b620001ab6004803603810190620001a59190620028e9565b620016b0565b604051620001c19897969594939291906200296d565b60405180910390f35b620001e86004803603810190620001e2919062002889565b62001919565b604051620001f7919062002a10565b60405180910390f35b6200020a620019fd565b60405162000219919062002a34565b60405180910390f35b6200024060048036038101906200023a919062002309565b62001a23565b604051620002519392919062002361565b60405180910390f35b62000278600480360381019062000272919062002a51565b62001c11565b005b620002846200207d565b60405162000293919062002b80565b60405180910390f35b60008060008060008573ffffffffffffffffffffffffffffffffffffffff168773ffffffffffffffffffffffffffffffffffffffff161115620002e557869150859050620002ec565b8591508690505b600082826040516020016200030392919062002bf4565b604051602081830303815290604052805190602001209050600460009054906101000a900473ffffffffffffffffffffffffffffffffffffffff1673ffffffffffffffffffffffffffffffffffffffff1663ac572315826040518263ffffffff1660e01b815260040162000378919062002c3f565b602060405180830381865afa15801562000396573d6000803e3d6000fd5b505050506040513d601f19601f82011682018060405250810190620003bc919062002c73565b83839550955095505050509250925092565b60608060608060608060005b600580549050811015620004e7576005805480620003fd57620003fc62002ca5565b5b6001900381819060005260206000209060080201600080820160006101000a81549073ffffffffffffffffffffffffffffffffffffffff0219169055600182016000905560028201600090556003820160006200045b91906200221d565b6004820160006200046d91906200221d565b6005820160006200047f91906200221d565b6006820160006101000a81549073ffffffffffffffffffffffffffffffffffffffff02191690556007820160006101000a81549073ffffffffffffffffffffffffffffffffffffffff0219169055505090558080620004de9062002d03565b915050620003da565b5060005b60068054905081101562000eb0576000600460009054906101000a900473ffffffffffffffffffffffffffffffffffffffff1673ffffffffffffffffffffffffffffffffffffffff1663ac5723156006848154811062000550576200054f62002d50565b5b90600052602060002001546040518263ffffffff1660e01b815260040162000579919062002c3f565b602060405180830381865afa15801562000597573d6000803e3d6000fd5b505050506040513d601f19601f82011682018060405250810190620005bd919062002c73565b90508073ffffffffffffffffffffffffffffffffffffffff16630e07df0b6040518163ffffffff1660e01b8152600401600060405180830381865afa1580156200060b573d6000803e3d6000fd5b505050506040513d6000823e3d601f19601f8201168201806040525081019062000636919062002f47565b809750819850829950505050620006be8173ffffffffffffffffffffffffffffffffffffffff1663d21220a76040518163ffffffff1660e01b8152600401602060405180830381865afa15801562000692573d6000803e3d6000fd5b505050506040513d601f19601f82011682018060405250810190620006b8919062003045565b62001919565b93506200073c8173ffffffffffffffffffffffffffffffffffffffff166325be124e6040518163ffffffff1660e01b8152600401602060405180830381865afa15801562000710573d6000803e3d6000fd5b505050506040513d601f19601f8201168201806040525081019062000736919062003045565b62001919565b925060005b875181101562000aa95760056040518061010001604052808a84815181106200076f576200076e62002d50565b5b602002602001015173ffffffffffffffffffffffffffffffffffffffff168152602001898481518110620007a857620007a762002d50565b5b60200260200101518152602001888481518110620007cb57620007ca62002d50565b5b602002602001015181526020018781526020018681526020016040518060400160405280600381526020017f627579000000000000000000000000000000000000000000000000000000000081525081526020018473ffffffffffffffffffffffffffffffffffffffff1663d21220a76040518163ffffffff1660e01b8152600401602060405180830381865afa1580156200086b573d6000803e3d6000fd5b505050506040513d601f19601f8201168201806040525081019062000891919062003045565b73ffffffffffffffffffffffffffffffffffffffff1681526020018473ffffffffffffffffffffffffffffffffffffffff166325be124e6040518163ffffffff1660e01b8152600401602060405180830381865afa158015620008f8573d6000803e3d6000fd5b505050506040513d601f19601f820116820180604052508101906200091e919062003045565b73ffffffffffffffffffffffffffffffffffffffff16815250908060018154018082558091505060019003906000526020600020906008020160009091909190915060008201518160000160006101000a81548173ffffffffffffffffffffffffffffffffffffffff021916908373ffffffffffffffffffffffffffffffffffffffff16021790555060208201518160010155604082015181600201556060820151816003019081620009d29190620032ad565b506080820151816004019081620009ea9190620032ad565b5060a082015181600501908162000a029190620032ad565b5060c08201518160060160006101000a81548173ffffffffffffffffffffffffffffffffffffffff021916908373ffffffffffffffffffffffffffffffffffffffff16021790555060e08201518160070160006101000a81548173ffffffffffffffffffffffffffffffffffffffff021916908373ffffffffffffffffffffffffffffffffffffffff1602179055505050808062000aa09062002d03565b91505062000741565b508073ffffffffffffffffffffffffffffffffffffffff1663949092c26040518163ffffffff1660e01b8152600401600060405180830381865afa15801562000af6573d6000803e3d6000fd5b505050506040513d6000823e3d601f19601f8201168201806040525081019062000b21919062002f47565b80975081985082995050505060005b875181101562000e985760056040518061010001604052808a848151811062000b5e5762000b5d62002d50565b5b602002602001015173ffffffffffffffffffffffffffffffffffffffff16815260200189848151811062000b975762000b9662002d50565b5b6020026020010151815260200188848151811062000bba5762000bb962002d50565b5b602002602001015181526020018781526020018681526020016040518060400160405280600481526020017f73656c6c0000000000000000000000000000000000000000000000000000000081525081526020018473ffffffffffffffffffffffffffffffffffffffff1663d21220a76040518163ffffffff1660e01b8152600401602060405180830381865afa15801562000c5a573d6000803e3d6000fd5b505050506040513d601f19601f8201168201806040525081019062000c80919062003045565b73ffffffffffffffffffffffffffffffffffffffff1681526020018473ffffffffffffffffffffffffffffffffffffffff166325be124e6040518163ffffffff1660e01b8152600401602060405180830381865afa15801562000ce7573d6000803e3d6000fd5b505050506040513d601f19601f8201168201806040525081019062000d0d919062003045565b73ffffffffffffffffffffffffffffffffffffffff16815250908060018154018082558091505060019003906000526020600020906008020160009091909190915060008201518160000160006101000a81548173ffffffffffffffffffffffffffffffffffffffff021916908373ffffffffffffffffffffffffffffffffffffffff1602179055506020820151816001015560408201518160020155606082015181600301908162000dc19190620032ad565b50608082015181600401908162000dd99190620032ad565b5060a082015181600501908162000df19190620032ad565b5060c08201518160060160006101000a81548173ffffffffffffffffffffffffffffffffffffffff021916908373ffffffffffffffffffffffffffffffffffffffff16021790555060e08201518160070160006101000a81548173ffffffffffffffffffffffffffffffffffffffff021916908373ffffffffffffffffffffffffffffffffffffffff1602179055505050808062000e8f9062002d03565b91505062000b30565b5050808062000ea79062002d03565b915050620004eb565b506005805480602002602001604051908101604052809291908181526020016000905b82821015620011ec5783829060005260206000209060080201604051806101000160405290816000820160009054906101000a900473ffffffffffffffffffffffffffffffffffffffff1673ffffffffffffffffffffffffffffffffffffffff1673ffffffffffffffffffffffffffffffffffffffff168152602001600182015481526020016002820154815260200160038201805462000f7490620030a6565b80601f016020809104026020016040519081016040528092919081815260200182805462000fa290620030a6565b801562000ff35780601f1062000fc75761010080835404028352916020019162000ff3565b820191906000526020600020905b81548152906001019060200180831162000fd557829003601f168201915b505050505081526020016004820180546200100e90620030a6565b80601f01602080910402602001604051908101604052809291908181526020018280546200103c90620030a6565b80156200108d5780601f1062001061576101008083540402835291602001916200108d565b820191906000526020600020905b8154815290600101906020018083116200106f57829003601f168201915b50505050508152602001600582018054620010a890620030a6565b80601f0160208091040260200160405190810160405280929190818152602001828054620010d690620030a6565b8015620011275780601f10620010fb5761010080835404028352916020019162001127565b820191906000526020600020905b8154815290600101906020018083116200110957829003601f168201915b505050505081526020016006820160009054906101000a900473ffffffffffffffffffffffffffffffffffffffff1673ffffffffffffffffffffffffffffffffffffffff1673ffffffffffffffffffffffffffffffffffffffff1681526020016007820160009054906101000a900473ffffffffffffffffffffffffffffffffffffffff1673ffffffffffffffffffffffffffffffffffffffff1673ffffffffffffffffffffffffffffffffffffffff16815250508152602001906001019062000ed3565b505050509550505050505090565b3373ffffffffffffffffffffffffffffffffffffffff16600760009054906101000a900473ffffffffffffffffffffffffffffffffffffffff1673ffffffffffffffffffffffffffffffffffffffff16146200128d576040517f08c379a000000000000000000000000000000000000000000000000000000000815260040162001284906200340a565b60405180910390fd5b600082826040516200129f9062002263565b620012ac9291906200342c565b604051809103906000f080158015620012c9573d6000803e3d6000fd5b509050806000808373ffffffffffffffffffffffffffffffffffffffff1673ffffffffffffffffffffffffffffffffffffffff16815260200190815260200160002060006101000a81548173ffffffffffffffffffffffffffffffffffffffff021916908373ffffffffffffffffffffffffffffffffffffffff1602179055506001819080600181540180825580915050600190039060005260206000200160009091909190916101000a81548173ffffffffffffffffffffffffffffffffffffffff021916908373ffffffffffffffffffffffffffffffffffffffff16021790555060026000815480929190620013c19062002d03565b91905055507f28258920a6a347f90c2201ff8bd92b5b7a00bbf5c88c5fce1a1fb42c6546e710818484604051620013fb9392919062003467565b60405180910390a1505050565b3373ffffffffffffffffffffffffffffffffffffffff16600760009054906101000a900473ffffffffffffffffffffffffffffffffffffffff1673ffffffffffffffffffffffffffffffffffffffff16146200149b576040517f08c379a0000000000000000000000000000000000000000000000000000000008152600401620014929062003502565b60405180910390fd5b60008060008573ffffffffffffffffffffffffffffffffffffffff1673ffffffffffffffffffffffffffffffffffffffff16815260200190815260200160002060009054906101000a900473ffffffffffffffffffffffffffffffffffffffff1690508073ffffffffffffffffffffffffffffffffffffffff1663a9059cbb84846040518363ffffffff1660e01b81526004016200153b92919062003524565b6020604051808303816000875af11580156200155b573d6000803e3d6000fd5b505050506040513d601f19601f820116820180604052508101906200158191906200358e565b507faa8d76b5ad42bc1fee99a7520271a35d2442ee3ff95215fbc2b4856af9616888848484604051620015b793929190620035c0565b60405180910390a150505050565b6000806000808473ffffffffffffffffffffffffffffffffffffffff1673ffffffffffffffffffffffffffffffffffffffff16815260200190815260200160002060009054906101000a900473ffffffffffffffffffffffffffffffffffffffff1690508073ffffffffffffffffffffffffffffffffffffffff166370a08231336040518263ffffffff1660e01b815260040162001664919062002a34565b602060405180830381865afa15801562001682573d6000803e3d6000fd5b505050506040513d601f19601f82011682018060405250810190620016a89190620035fd565b915050919050565b60058181548110620016c157600080fd5b90600052602060002090600802016000915090508060000160009054906101000a900473ffffffffffffffffffffffffffffffffffffffff16908060010154908060020154908060030180546200171890620030a6565b80601f01602080910402602001604051908101604052809291908181526020018280546200174690620030a6565b8015620017975780601f106200176b5761010080835404028352916020019162001797565b820191906000526020600020905b8154815290600101906020018083116200177957829003601f168201915b505050505090806004018054620017ae90620030a6565b80601f0160208091040260200160405190810160405280929190818152602001828054620017dc90620030a6565b80156200182d5780601f1062001801576101008083540402835291602001916200182d565b820191906000526020600020905b8154815290600101906020018083116200180f57829003601f168201915b5050505050908060050180546200184490620030a6565b80601f01602080910402602001604051908101604052809291908181526020018280546200187290620030a6565b8015620018c35780601f106200189757610100808354040283529160200191620018c3565b820191906000526020600020905b815481529060010190602001808311620018a557829003601f168201915b5050505050908060060160009054906101000a900473ffffffffffffffffffffffffffffffffffffffff16908060070160009054906101000a900473ffffffffffffffffffffffffffffffffffffffff16905088565b606060008060008473ffffffffffffffffffffffffffffffffffffffff1673ffffffffffffffffffffffffffffffffffffffff16815260200190815260200160002060009054906101000a900473ffffffffffffffffffffffffffffffffffffffff1690508073ffffffffffffffffffffffffffffffffffffffff166306fdde036040518163ffffffff1660e01b8152600401600060405180830381865afa158015620019ca573d6000803e3d6000fd5b505050506040513d6000823e3d601f19601f82011682018060405250810190620019f59190620036ad565b915050919050565b600760009054906101000a900473ffffffffffffffffffffffffffffffffffffffff1681565b6000806000600460009054906101000a900473ffffffffffffffffffffffffffffffffffffffff1673ffffffffffffffffffffffffffffffffffffffff1663b6f3e08786866040518363ffffffff1660e01b815260040162001a87929190620036fe565b600060405180830381600087803b15801562001aa257600080fd5b505af115801562001ab7573d6000803e3d6000fd5b505050506000808573ffffffffffffffffffffffffffffffffffffffff168773ffffffffffffffffffffffffffffffffffffffff16111562001aff5786915085905062001b06565b8591508690505b6000828260405160200162001b1d92919062002bf4565b6040516020818303038152906040528051906020012090506006819080600181540180825580915050600190039060005260206000200160009091909190915055600460009054906101000a900473ffffffffffffffffffffffffffffffffffffffff1673ffffffffffffffffffffffffffffffffffffffff1663ac572315826040518263ffffffff1660e01b815260040162001bbb919062002c3f565b602060405180830381865afa15801562001bd9573d6000803e3d6000fd5b505050506040513d601f19601f8201168201806040525081019062001bff919062002c73565b83839550955095505050509250925092565b6000808373ffffffffffffffffffffffffffffffffffffffff168673ffffffffffffffffffffffffffffffffffffffff16111562001c555785915083905062001c5c565b8391508590505b6000828260405160200162001c7392919062002bf4565b604051602081830303815290604052805190602001209050600073ffffffffffffffffffffffffffffffffffffffff16600460009054906101000a900473ffffffffffffffffffffffffffffffffffffffff1673ffffffffffffffffffffffffffffffffffffffff1663ac572315836040518263ffffffff1660e01b815260040162001d00919062002c3f565b602060405180830381865afa15801562001d1e573d6000803e3d6000fd5b505050506040513d601f19601f8201168201806040525081019062001d44919062002c73565b73ffffffffffffffffffffffffffffffffffffffff160362001e1d57600460009054906101000a900473ffffffffffffffffffffffffffffffffffffffff1673ffffffffffffffffffffffffffffffffffffffff1663b6f3e08784846040518363ffffffff1660e01b815260040162001dbf929190620036fe565b600060405180830381600087803b15801562001dda57600080fd5b505af115801562001def573d6000803e3d6000fd5b5050505060068190806001815401808255809150506001900390600052602060002001600090919091909150555b6000600460009054906101000a900473ffffffffffffffffffffffffffffffffffffffff1673ffffffffffffffffffffffffffffffffffffffff1663ac572315836040518263ffffffff1660e01b815260040162001e7c919062002c3f565b602060405180830381865afa15801562001e9a573d6000803e3d6000fd5b505050506040513d601f19601f8201168201806040525081019062001ec0919062002c73565b90508373ffffffffffffffffffffffffffffffffffffffff168873ffffffffffffffffffffffffffffffffffffffff160362001f6f578073ffffffffffffffffffffffffffffffffffffffff16633f9016238887336040518463ffffffff1660e01b815260040162001f35939291906200372b565b600060405180830381600087803b15801562001f5057600080fd5b505af115801562001f65573d6000803e3d6000fd5b5050505062002018565b8273ffffffffffffffffffffffffffffffffffffffff168873ffffffffffffffffffffffffffffffffffffffff160362002017578073ffffffffffffffffffffffffffffffffffffffff1663169aab8d8689336040518463ffffffff1660e01b815260040162001fe2939291906200372b565b600060405180830381600087803b15801562001ffd57600080fd5b505af115801562002012573d6000803e3d6000fd5b505050505b5b600360008154809291906200202d9062002d03565b91905055507feddedc0bf3dc5c30b827ed2d896584c9178961d6ac9b1348586418ee92013b3d33898989896040516200206b95949392919062003768565b60405180910390a15050505050505050565b6060600060025467ffffffffffffffff811115620020a0576200209f62002630565b5b604051908082528060200260200182016040528015620020cf5781602001602082028036833780820191505090505b50905060005b6002548110156200221557600073ffffffffffffffffffffffffffffffffffffffff16600182815481106200210f576200210e62002d50565b5b9060005260206000200160009054906101000a900473ffffffffffffffffffffffffffffffffffffffff1673ffffffffffffffffffffffffffffffffffffffff16036200216c5780806200216390620037c5565b915050620021ff565b6001818154811062002183576200218262002d50565b5b9060005260206000200160009054906101000a900473ffffffffffffffffffffffffffffffffffffffff16828281518110620021c457620021c362002d50565b5b602002602001019073ffffffffffffffffffffffffffffffffffffffff16908173ffffffffffffffffffffffffffffffffffffffff16815250505b80806200220c9062002d03565b915050620020d5565b508091505090565b5080546200222b90620030a6565b6000825580601f106200223f575062002260565b601f0160209004906000526020600020908101906200225f919062002271565b5b50565b611e7080620037f483390190565b5b808211156200228c57600081600090555060010162002272565b5090565b6000604051905090565b600080fd5b600080fd5b600073ffffffffffffffffffffffffffffffffffffffff82169050919050565b6000620022d182620022a4565b9050919050565b620022e381620022c4565b8114620022ef57600080fd5b50565b6000813590506200230381620022d8565b92915050565b600080604083850312156200232357620023226200229a565b5b60006200233385828601620022f2565b92505060206200234685828601620022f2565b9150509250929050565b6200235b81620022c4565b82525050565b600060608201905062002378600083018662002350565b62002387602083018562002350565b62002396604083018462002350565b949350505050565b600081519050919050565b600082825260208201905092915050565b6000819050602082019050919050565b620023d581620022c4565b82525050565b6000819050919050565b620023f081620023db565b82525050565b600081519050919050565b600082825260208201905092915050565b60005b838110156200243257808201518184015260208101905062002415565b60008484015250505050565b6000601f19601f8301169050919050565b60006200245c82620023f6565b62002468818562002401565b93506200247a81856020860162002412565b62002485816200243e565b840191505092915050565b600061010083016000830151620024ab6000860182620023ca565b506020830151620024c06020860182620023e5565b506040830151620024d56040860182620023e5565b5060608301518482036060860152620024ef82826200244f565b915050608083015184820360808601526200250b82826200244f565b91505060a083015184820360a08601526200252782826200244f565b91505060c08301516200253e60c0860182620023ca565b5060e08301516200255360e0860182620023ca565b508091505092915050565b60006200256c838362002490565b905092915050565b6000602082019050919050565b60006200258e826200239e565b6200259a8185620023a9565b935083602082028501620025ae85620023ba565b8060005b85811015620025f05784840389528151620025ce85826200255e565b9450620025db8362002574565b925060208a01995050600181019050620025b2565b50829750879550505050505092915050565b600060208201905081810360008301526200261e818462002581565b905092915050565b600080fd5b600080fd5b7f4e487b7100000000000000000000000000000000000000000000000000000000600052604160045260246000fd5b6200266a826200243e565b810181811067ffffffffffffffff821117156200268c576200268b62002630565b5b80604052505050565b6000620026a162002290565b9050620026af82826200265f565b919050565b600067ffffffffffffffff821115620026d257620026d162002630565b5b620026dd826200243e565b9050602081019050919050565b82818337600083830152505050565b6000620027106200270a84620026b4565b62002695565b9050828152602081018484840111156200272f576200272e6200262b565b5b6200273c848285620026ea565b509392505050565b600082601f8301126200275c576200275b62002626565b5b81356200276e848260208601620026f9565b91505092915050565b600080604083850312156200279157620027906200229a565b5b600083013567ffffffffffffffff811115620027b257620027b16200229f565b5b620027c08582860162002744565b925050602083013567ffffffffffffffff811115620027e457620027e36200229f565b5b620027f28582860162002744565b9150509250929050565b6200280781620023db565b81146200281357600080fd5b50565b6000813590506200282781620027fc565b92915050565b6000806000606084860312156200284957620028486200229a565b5b60006200285986828701620022f2565b93505060206200286c86828701620022f2565b92505060406200287f8682870162002816565b9150509250925092565b600060208284031215620028a257620028a16200229a565b5b6000620028b284828501620022f2565b91505092915050565b620028c681620023db565b82525050565b6000602082019050620028e36000830184620028bb565b92915050565b6000602082840312156200290257620029016200229a565b5b6000620029128482850162002816565b91505092915050565b600082825260208201905092915050565b60006200293982620023f6565b6200294581856200291b565b93506200295781856020860162002412565b62002962816200243e565b840191505092915050565b60006101008201905062002985600083018b62002350565b62002994602083018a620028bb565b620029a36040830189620028bb565b8181036060830152620029b781886200292c565b90508181036080830152620029cd81876200292c565b905081810360a0830152620029e381866200292c565b9050620029f460c083018562002350565b62002a0360e083018462002350565b9998505050505050505050565b6000602082019050818103600083015262002a2c81846200292c565b905092915050565b600060208201905062002a4b600083018462002350565b92915050565b6000806000806080858703121562002a6e5762002a6d6200229a565b5b600062002a7e87828801620022f2565b945050602062002a918782880162002816565b935050604062002aa487828801620022f2565b925050606062002ab78782880162002816565b91505092959194509250565b600081519050919050565b600082825260208201905092915050565b6000819050602082019050919050565b600062002afd8383620023ca565b60208301905092915050565b6000602082019050919050565b600062002b238262002ac3565b62002b2f818562002ace565b935062002b3c8362002adf565b8060005b8381101562002b7357815162002b57888262002aef565b975062002b648362002b09565b92505060018101905062002b40565b5085935050505092915050565b6000602082019050818103600083015262002b9c818462002b16565b905092915050565b60008160601b9050919050565b600062002bbe8262002ba4565b9050919050565b600062002bd28262002bb1565b9050919050565b62002bee62002be882620022c4565b62002bc5565b82525050565b600062002c02828562002bd9565b60148201915062002c14828462002bd9565b6014820191508190509392505050565b6000819050919050565b62002c398162002c24565b82525050565b600060208201905062002c56600083018462002c2e565b92915050565b60008151905062002c6d81620022d8565b92915050565b60006020828403121562002c8c5762002c8b6200229a565b5b600062002c9c8482850162002c5c565b91505092915050565b7f4e487b7100000000000000000000000000000000000000000000000000000000600052603160045260246000fd5b7f4e487b7100000000000000000000000000000000000000000000000000000000600052601160045260246000fd5b600062002d1082620023db565b91507fffffffffffffffffffffffffffffffffffffffffffffffffffffffffffffffff820362002d455762002d4462002cd4565b5b600182019050919050565b7f4e487b7100000000000000000000000000000000000000000000000000000000600052603260045260246000fd5b600067ffffffffffffffff82111562002d9d5762002d9c62002630565b5b602082029050602081019050919050565b600080fd5b600062002dca62002dc48462002d7f565b62002695565b9050808382526020820190506020840283018581111562002df05762002def62002dae565b5b835b8181101562002e1d578062002e08888262002c5c565b84526020840193505060208101905062002df2565b5050509392505050565b600082601f83011262002e3f5762002e3e62002626565b5b815162002e5184826020860162002db3565b91505092915050565b600067ffffffffffffffff82111562002e785762002e7762002630565b5b602082029050602081019050919050565b60008151905062002e9a81620027fc565b92915050565b600062002eb762002eb18462002e5a565b62002695565b9050808382526020820190506020840283018581111562002edd5762002edc62002dae565b5b835b8181101562002f0a578062002ef5888262002e89565b84526020840193505060208101905062002edf565b5050509392505050565b600082601f83011262002f2c5762002f2b62002626565b5b815162002f3e84826020860162002ea0565b91505092915050565b60008060006060848603121562002f635762002f626200229a565b5b600084015167ffffffffffffffff81111562002f845762002f836200229f565b5b62002f928682870162002e27565b935050602084015167ffffffffffffffff81111562002fb65762002fb56200229f565b5b62002fc48682870162002f14565b925050604084015167ffffffffffffffff81111562002fe85762002fe76200229f565b5b62002ff68682870162002f14565b9150509250925092565b60006200300d82620022c4565b9050919050565b6200301f8162003000565b81146200302b57600080fd5b50565b6000815190506200303f8162003014565b92915050565b6000602082840312156200305e576200305d6200229a565b5b60006200306e848285016200302e565b91505092915050565b7f4e487b7100000000000000000000000000000000000000000000000000000000600052602260045260246000fd5b60006002820490506001821680620030bf57607f821691505b602082108103620030d557620030d462003077565b5b50919050565b60008190508160005260206000209050919050565b60006020601f8301049050919050565b600082821b905092915050565b6000600883026200313f7fffffffffffffffffffffffffffffffffffffffffffffffffffffffffffffffff8262003100565b6200314b868362003100565b95508019841693508086168417925050509392505050565b6000819050919050565b60006200318e620031886200318284620023db565b62003163565b620023db565b9050919050565b6000819050919050565b620031aa836200316d565b620031c2620031b98262003195565b8484546200310d565b825550505050565b600090565b620031d9620031ca565b620031e68184846200319f565b505050565b5b818110156200320e5762003202600082620031cf565b600181019050620031ec565b5050565b601f8211156200325d576200322781620030db565b6200323284620030f0565b8101602085101562003242578190505b6200325a6200325185620030f0565b830182620031eb565b50505b505050565b600082821c905092915050565b6000620032826000198460080262003262565b1980831691505092915050565b60006200329d83836200326f565b9150826002028217905092915050565b620032b882620023f6565b67ffffffffffffffff811115620032d457620032d362002630565b5b620032e08254620030a6565b620032ed82828562003212565b600060209050601f83116001811462003325576000841562003310578287015190505b6200331c85826200328f565b8655506200338c565b601f1984166200333586620030db565b60005b828110156200335f5784890151825560018201915060208501945060208101905062003338565b868310156200337f57848901516200337b601f8916826200326f565b8355505b6001600288020188555050505b505050505050565b7f4f6e6c7920746865206f776e65722063616e2063726561746520746f6b656e7360008201527f2100000000000000000000000000000000000000000000000000000000000000602082015250565b6000620033f26021836200291b565b9150620033ff8262003394565b604082019050919050565b600060208201905081810360008301526200342581620033e3565b9050919050565b600060408201905081810360008301526200344881856200292c565b905081810360208301526200345e81846200292c565b90509392505050565b60006060820190506200347e600083018662002350565b81810360208301526200349281856200292c565b90508181036040830152620034a881846200292c565b9050949350505050565b7f4f6e6c7920746865206f776e65722063616e2073656e6420746f6b656e732100600082015250565b6000620034ea601f836200291b565b9150620034f782620034b2565b602082019050919050565b600060208201905081810360008301526200351d81620034db565b9050919050565b60006040820190506200353b600083018562002350565b6200354a6020830184620028bb565b9392505050565b60008115159050919050565b620035688162003551565b81146200357457600080fd5b50565b60008151905062003588816200355d565b92915050565b600060208284031215620035a757620035a66200229a565b5b6000620035b78482850162003577565b91505092915050565b6000606082019050620035d7600083018662002350565b620035e6602083018562002350565b620035f56040830184620028bb565b949350505050565b6000602082840312156200361657620036156200229a565b5b6000620036268482850162002e89565b91505092915050565b6000620036466200364084620026b4565b62002695565b9050828152602081018484840111156200366557620036646200262b565b5b6200367284828562002412565b509392505050565b600082601f83011262003692576200369162002626565b5b8151620036a48482602086016200362f565b91505092915050565b600060208284031215620036c657620036c56200229a565b5b600082015167ffffffffffffffff811115620036e757620036e66200229f565b5b620036f5848285016200367a565b91505092915050565b600060408201905062003715600083018562002350565b62003724602083018462002350565b9392505050565b6000606082019050620037426000830186620028bb565b620037516020830185620028bb565b62003760604083018462002350565b949350505050565b600060a0820190506200377f600083018862002350565b6200378e602083018762002350565b6200379d6040830186620028bb565b620037ac606083018562002350565b620037bb6080830184620028bb565b9695505050505050565b6000620037d282620023db565b915060008203620037e857620037e762002cd4565b5b60018203905091905056fe60806040523480156200001157600080fd5b5060405162001e7038038062001e708339818101604052810190620000379190620003d1565b818181600390816200004a9190620006a1565b5080600490816200005c9190620006a1565b50505033600560006101000a81548173ffffffffffffffffffffffffffffffffffffffff021916908373ffffffffffffffffffffffffffffffffffffffff160217905550620000b4336103e8620000bc60201b60201c565b5050620008a3565b600073ffffffffffffffffffffffffffffffffffffffff168273ffffffffffffffffffffffffffffffffffffffff16036200012e576040517f08c379a00000000000000000000000000000000000000000000000000000000081526004016200012590620007e9565b60405180910390fd5b62000142600083836200023460201b60201c565b80600260008282546200015691906200083a565b92505081905550806000808473ffffffffffffffffffffffffffffffffffffffff1673ffffffffffffffffffffffffffffffffffffffff1681526020019081526020016000206000828254620001ad91906200083a565b925050819055508173ffffffffffffffffffffffffffffffffffffffff16600073ffffffffffffffffffffffffffffffffffffffff167fddf252ad1be2c89b69c2b068fc378daa952ba7f163c4a11628f55a4df523b3ef8360405162000214919062000886565b60405180910390a362000230600083836200023960201b60201c565b5050565b505050565b505050565b6000604051905090565b600080fd5b600080fd5b600080fd5b600080fd5b6000601f19601f8301169050919050565b7f4e487b7100000000000000000000000000000000000000000000000000000000600052604160045260246000fd5b620002a7826200025c565b810181811067ffffffffffffffff82111715620002c957620002c86200026d565b5b80604052505050565b6000620002de6200023e565b9050620002ec82826200029c565b919050565b600067ffffffffffffffff8211156200030f576200030e6200026d565b5b6200031a826200025c565b9050602081019050919050565b60005b83811015620003475780820151818401526020810190506200032a565b60008484015250505050565b60006200036a6200036484620002f1565b620002d2565b90508281526020810184848401111562000389576200038862000257565b5b6200039684828562000327565b509392505050565b600082601f830112620003b657620003b562000252565b5b8151620003c884826020860162000353565b91505092915050565b60008060408385031215620003eb57620003ea62000248565b5b600083015167ffffffffffffffff8111156200040c576200040b6200024d565b5b6200041a858286016200039e565b925050602083015167ffffffffffffffff8111156200043e576200043d6200024d565b5b6200044c858286016200039e565b9150509250929050565b600081519050919050565b7f4e487b7100000000000000000000000000000000000000000000000000000000600052602260045260246000fd5b60006002820490506001821680620004a957607f821691505b602082108103620004bf57620004be62000461565b5b50919050565b60008190508160005260206000209050919050565b60006020601f8301049050919050565b600082821b905092915050565b600060088302620005297fffffffffffffffffffffffffffffffffffffffffffffffffffffffffffffffff82620004ea565b620005358683620004ea565b95508019841693508086168417925050509392505050565b6000819050919050565b6000819050919050565b6000620005826200057c62000576846200054d565b62000557565b6200054d565b9050919050565b6000819050919050565b6200059e8362000561565b620005b6620005ad8262000589565b848454620004f7565b825550505050565b600090565b620005cd620005be565b620005da81848462000593565b505050565b5b818110156200060257620005f6600082620005c3565b600181019050620005e0565b5050565b601f82111562000651576200061b81620004c5565b6200062684620004da565b8101602085101562000636578190505b6200064e6200064585620004da565b830182620005df565b50505b505050565b600082821c905092915050565b6000620006766000198460080262000656565b1980831691505092915050565b600062000691838362000663565b9150826002028217905092915050565b620006ac8262000456565b67ffffffffffffffff811115620006c857620006c76200026d565b5b620006d4825462000490565b620006e182828562000606565b600060209050601f83116001811462000719576000841562000704578287015190505b62000710858262000683565b86555062000780565b601f1984166200072986620004c5565b60005b8281101562000753578489015182556001820191506020850194506020810190506200072c565b868310156200077357848901516200076f601f89168262000663565b8355505b6001600288020188555050505b505050505050565b600082825260208201905092915050565b7f45524332303a206d696e7420746f20746865207a65726f206164647265737300600082015250565b6000620007d1601f8362000788565b9150620007de8262000799565b602082019050919050565b600060208201905081810360008301526200080481620007c2565b9050919050565b7f4e487b7100000000000000000000000000000000000000000000000000000000600052601160045260246000fd5b600062000847826200054d565b915062000854836200054d565b92508282019050808211156200086f576200086e6200080b565b5b92915050565b62000880816200054d565b82525050565b60006020820190506200089d600083018462000875565b92915050565b6115bd80620008b36000396000f3fe608060405234801561001057600080fd5b50600436106100cf5760003560e01c806340c10f191161008c578063a457c2d711610066578063a457c2d714610228578063a9059cbb14610258578063dd62ed3e14610288578063f851a440146102b8576100cf565b806340c10f19146101be57806370a08231146101da57806395d89b411461020a576100cf565b806306fdde03146100d4578063095ea7b3146100f257806318160ddd1461012257806323b872dd14610140578063313ce56714610170578063395093511461018e575b600080fd5b6100dc6102d6565b6040516100e99190610d98565b60405180910390f35b61010c60048036038101906101079190610e53565b610368565b6040516101199190610eae565b60405180910390f35b61012a61038b565b6040516101379190610ed8565b60405180910390f35b61015a60048036038101906101559190610ef3565b610395565b6040516101679190610eae565b60405180910390f35b6101786103c4565b6040516101859190610f62565b60405180910390f35b6101a860048036038101906101a39190610e53565b6103cd565b6040516101b59190610eae565b60405180910390f35b6101d860048036038101906101d39190610e53565b610404565b005b6101f460048036038101906101ef9190610f7d565b6104a2565b6040516102019190610ed8565b60405180910390f35b6102126104ea565b60405161021f9190610d98565b60405180910390f35b610242600480360381019061023d9190610e53565b61057c565b60405161024f9190610eae565b60405180910390f35b610272600480360381019061026d9190610e53565b6105f3565b60405161027f9190610eae565b60405180910390f35b6102a2600480360381019061029d9190610faa565b610616565b6040516102af9190610ed8565b60405180910390f35b6102c061069d565b6040516102cd9190610ff9565b60405180910390f35b6060600380546102e590611043565b80601f016020809104026020016040519081016040528092919081815260200182805461031190611043565b801561035e5780601f106103335761010080835404028352916020019161035e565b820191906000526020600020905b81548152906001019060200180831161034157829003601f168201915b5050505050905090565b6000806103736106c3565b90506103808185856106cb565b600191505092915050565b6000600254905090565b6000806103a06106c3565b90506103ad858285610894565b6103b8858585610920565b60019150509392505050565b60006012905090565b6000806103d86106c3565b90506103f98185856103ea8589610616565b6103f491906110a3565b6106cb565b600191505092915050565b600560009054906101000a900473ffffffffffffffffffffffffffffffffffffffff1673ffffffffffffffffffffffffffffffffffffffff163373ffffffffffffffffffffffffffffffffffffffff1614610494576040517f08c379a000000000000000000000000000000000000000000000000000000000815260040161048b90611123565b60405180910390fd5b61049e8282610b9f565b5050565b60008060008373ffffffffffffffffffffffffffffffffffffffff1673ffffffffffffffffffffffffffffffffffffffff168152602001908152602001600020549050919050565b6060600480546104f990611043565b80601f016020809104026020016040519081016040528092919081815260200182805461052590611043565b80156105725780601f1061054757610100808354040283529160200191610572565b820191906000526020600020905b81548152906001019060200180831161055557829003601f168201915b5050505050905090565b6000806105876106c3565b905060006105958286610616565b9050838110156105da576040517f08c379a00000000000000000000000000000000000000000000000000000000081526004016105d1906111b5565b60405180910390fd5b6105e782868684036106cb565b60019250505092915050565b6000806105fe6106c3565b905061060b818585610920565b600191505092915050565b6000600160008473ffffffffffffffffffffffffffffffffffffffff1673ffffffffffffffffffffffffffffffffffffffff16815260200190815260200160002060008373ffffffffffffffffffffffffffffffffffffffff1673ffffffffffffffffffffffffffffffffffffffff16815260200190815260200160002054905092915050565b600560009054906101000a900473ffffffffffffffffffffffffffffffffffffffff1681565b600033905090565b600073ffffffffffffffffffffffffffffffffffffffff168373ffffffffffffffffffffffffffffffffffffffff160361073a576040517f08c379a000000000000000000000000000000000000000000000000000000000815260040161073190611247565b60405180910390fd5b600073ffffffffffffffffffffffffffffffffffffffff168273ffffffffffffffffffffffffffffffffffffffff16036107a9576040517f08c379a00000000000000000000000000000000000000000000000000000000081526004016107a0906112d9565b60405180910390fd5b80600160008573ffffffffffffffffffffffffffffffffffffffff1673ffffffffffffffffffffffffffffffffffffffff16815260200190815260200160002060008473ffffffffffffffffffffffffffffffffffffffff1673ffffffffffffffffffffffffffffffffffffffff168152602001908152602001600020819055508173ffffffffffffffffffffffffffffffffffffffff168373ffffffffffffffffffffffffffffffffffffffff167f8c5be1e5ebec7d5bd14f71427d1e84f3dd0314c0f7b2291e5b200ac8c7c3b925836040516108879190610ed8565b60405180910390a3505050565b60006108a08484610616565b90507fffffffffffffffffffffffffffffffffffffffffffffffffffffffffffffffff811461091a578181101561090c576040517f08c379a000000000000000000000000000000000000000000000000000000000815260040161090390611345565b60405180910390fd5b61091984848484036106cb565b5b50505050565b600073ffffffffffffffffffffffffffffffffffffffff168373ffffffffffffffffffffffffffffffffffffffff160361098f576040517f08c379a0000000000000000000000000000000000000000000000000000000008152600401610986906113d7565b60405180910390fd5b600073ffffffffffffffffffffffffffffffffffffffff168273ffffffffffffffffffffffffffffffffffffffff16036109fe576040517f08c379a00000000000000000000000000000000000000000000000000000000081526004016109f590611469565b60405180910390fd5b610a09838383610cfe565b60008060008573ffffffffffffffffffffffffffffffffffffffff1673ffffffffffffffffffffffffffffffffffffffff16815260200190815260200160002054905081811015610a8f576040517f08c379a0000000000000000000000000000000000000000000000000000000008152600401610a86906114fb565b60405180910390fd5b8181036000808673ffffffffffffffffffffffffffffffffffffffff1673ffffffffffffffffffffffffffffffffffffffff16815260200190815260200160002081905550816000808573ffffffffffffffffffffffffffffffffffffffff1673ffffffffffffffffffffffffffffffffffffffff1681526020019081526020016000206000828254610b2291906110a3565b925050819055508273ffffffffffffffffffffffffffffffffffffffff168473ffffffffffffffffffffffffffffffffffffffff167fddf252ad1be2c89b69c2b068fc378daa952ba7f163c4a11628f55a4df523b3ef84604051610b869190610ed8565b60405180910390a3610b99848484610d03565b50505050565b600073ffffffffffffffffffffffffffffffffffffffff168273ffffffffffffffffffffffffffffffffffffffff1603610c0e576040517f08c379a0000000000000000000000000000000000000000000000000000000008152600401610c0590611567565b60405180910390fd5b610c1a60008383610cfe565b8060026000828254610c2c91906110a3565b92505081905550806000808473ffffffffffffffffffffffffffffffffffffffff1673ffffffffffffffffffffffffffffffffffffffff1681526020019081526020016000206000828254610c8191906110a3565b925050819055508173ffffffffffffffffffffffffffffffffffffffff16600073ffffffffffffffffffffffffffffffffffffffff167fddf252ad1be2c89b69c2b068fc378daa952ba7f163c4a11628f55a4df523b3ef83604051610ce69190610ed8565b60405180910390a3610cfa60008383610d03565b5050565b505050565b505050565b600081519050919050565b600082825260208201905092915050565b60005b83811015610d42578082015181840152602081019050610d27565b60008484015250505050565b6000601f19601f8301169050919050565b6000610d6a82610d08565b610d748185610d13565b9350610d84818560208601610d24565b610d8d81610d4e565b840191505092915050565b60006020820190508181036000830152610db28184610d5f565b905092915050565b600080fd5b600073ffffffffffffffffffffffffffffffffffffffff82169050919050565b6000610dea82610dbf565b9050919050565b610dfa81610ddf565b8114610e0557600080fd5b50565b600081359050610e1781610df1565b92915050565b6000819050919050565b610e3081610e1d565b8114610e3b57600080fd5b50565b600081359050610e4d81610e27565b92915050565b60008060408385031215610e6a57610e69610dba565b5b6000610e7885828601610e08565b9250506020610e8985828601610e3e565b9150509250929050565b60008115159050919050565b610ea881610e93565b82525050565b6000602082019050610ec36000830184610e9f565b92915050565b610ed281610e1d565b82525050565b6000602082019050610eed6000830184610ec9565b92915050565b600080600060608486031215610f0c57610f0b610dba565b5b6000610f1a86828701610e08565b9350506020610f2b86828701610e08565b9250506040610f3c86828701610e3e565b9150509250925092565b600060ff82169050919050565b610f5c81610f46565b82525050565b6000602082019050610f776000830184610f53565b92915050565b600060208284031215610f9357610f92610dba565b5b6000610fa184828501610e08565b91505092915050565b60008060408385031215610fc157610fc0610dba565b5b6000610fcf85828601610e08565b9250506020610fe085828601610e08565b9150509250929050565b610ff381610ddf565b82525050565b600060208201905061100e6000830184610fea565b92915050565b7f4e487b7100000000000000000000000000000000000000000000000000000000600052602260045260246000fd5b6000600282049050600182168061105b57607f821691505b60208210810361106e5761106d611014565b5b50919050565b7f4e487b7100000000000000000000000000000000000000000000000000000000600052601160045260246000fd5b60006110ae82610e1d565b91506110b983610e1d565b92508282019050808211156110d1576110d0611074565b5b92915050565b7f4f6e6c792061646d696e2063616e206d696e7400000000000000000000000000600082015250565b600061110d601383610d13565b9150611118826110d7565b602082019050919050565b6000602082019050818103600083015261113c81611100565b9050919050565b7f45524332303a2064656372656173656420616c6c6f77616e63652062656c6f7760008201527f207a65726f000000000000000000000000000000000000000000000000000000602082015250565b600061119f602583610d13565b91506111aa82611143565b604082019050919050565b600060208201905081810360008301526111ce81611192565b9050919050565b7f45524332303a20617070726f76652066726f6d20746865207a65726f2061646460008201527f7265737300000000000000000000000000000000000000000000000000000000602082015250565b6000611231602483610d13565b915061123c826111d5565b604082019050919050565b6000602082019050818103600083015261126081611224565b9050919050565b7f45524332303a20617070726f766520746f20746865207a65726f20616464726560008201527f7373000000000000000000000000000000000000000000000000000000000000602082015250565b60006112c3602283610d13565b91506112ce82611267565b604082019050919050565b600060208201905081810360008301526112f2816112b6565b9050919050565b7f45524332303a20696e73756666696369656e7420616c6c6f77616e6365000000600082015250565b600061132f601d83610d13565b915061133a826112f9565b602082019050919050565b6000602082019050818103600083015261135e81611322565b9050919050565b7f45524332303a207472616e736665722066726f6d20746865207a65726f20616460008201527f6472657373000000000000000000000000000000000000000000000000000000602082015250565b60006113c1602583610d13565b91506113cc82611365565b604082019050919050565b600060208201905081810360008301526113f0816113b4565b9050919050565b7f45524332303a207472616e7366657220746f20746865207a65726f206164647260008201527f6573730000000000000000000000000000000000000000000000000000000000602082015250565b6000611453602383610d13565b915061145e826113f7565b604082019050919050565b6000602082019050818103600083015261148281611446565b9050919050565b7f45524332303a207472616e7366657220616d6f756e742065786365656473206260008201527f616c616e63650000000000000000000000000000000000000000000000000000602082015250565b60006114e5602683610d13565b91506114f082611489565b604082019050919050565b60006020820190508181036000830152611514816114d8565b9050919050565b7f45524332303a206d696e7420746f20746865207a65726f206164647265737300600082015250565b6000611551601f83610d13565b915061155c8261151b565b602082019050919050565b6000602082019050818103600083015261158081611544565b905091905056fea2646970667358221220392bff28e3a1b8da5cece7561ed8e89c1d937be91633bccf1756bdfe3e91f3b464736f6c63430008110033a264697066735822122002d5616949ff275e965d7813392674c75af13c309964568d3ad366108d6f79ea64736f6c63430008110033608060405234801561001057600080fd5b50613edd806100206000396000f3fe608060405234801561001057600080fd5b50600436106100415760003560e01c806370f402f614610046578063ac57231514610064578063b6f3e08714610094575b600080fd5b61004e6100b0565b60405161005b9190610395565b60405180910390f35b61007e600480360381019061007991906103eb565b6100b6565b60405161008b9190610459565b60405180910390f35b6100ae60048036038101906100a991906104a0565b6100e9565b005b60005481565b60016020528060005260406000206000915054906101000a900473ffffffffffffffffffffffffffffffffffffffff1681565b8073ffffffffffffffffffffffffffffffffffffffff168273ffffffffffffffffffffffffffffffffffffffff1603610157576040517f08c379a000000000000000000000000000000000000000000000000000000000815260040161014e9061053d565b60405180910390fd5b6000808273ffffffffffffffffffffffffffffffffffffffff168473ffffffffffffffffffffffffffffffffffffffff161115610199578391508290506101a0565b8291508390505b600082826040516020016101b59291906105a5565b604051602081830303815290604052805190602001209050600073ffffffffffffffffffffffffffffffffffffffff166001600083815260200190815260200160002060009054906101000a900473ffffffffffffffffffffffffffffffffffffffff1673ffffffffffffffffffffffffffffffffffffffff161461026f576040517f08c379a00000000000000000000000000000000000000000000000000000000081526004016102669061061d565b60405180910390fd5b828260405161027d9061036e565b61028892919061063d565b604051809103906000f0801580156102a4573d6000803e3d6000fd5b506001600083815260200190815260200160002060006101000a81548173ffffffffffffffffffffffffffffffffffffffff021916908373ffffffffffffffffffffffffffffffffffffffff16021790555060008081548092919061030890610695565b91905055508173ffffffffffffffffffffffffffffffffffffffff168373ffffffffffffffffffffffffffffffffffffffff167fbc9687dc21b69bf8e01370b9f0ae1625f6bf5244fc230fa3ad4c06350deb634d60405160405180910390a35050505050565b6137ca80620006de83390190565b6000819050919050565b61038f8161037c565b82525050565b60006020820190506103aa6000830184610386565b92915050565b600080fd5b6000819050919050565b6103c8816103b5565b81146103d357600080fd5b50565b6000813590506103e5816103bf565b92915050565b600060208284031215610401576104006103b0565b5b600061040f848285016103d6565b91505092915050565b600073ffffffffffffffffffffffffffffffffffffffff82169050919050565b600061044382610418565b9050919050565b61045381610438565b82525050565b600060208201905061046e600083018461044a565b92915050565b61047d81610438565b811461048857600080fd5b50565b60008135905061049a81610474565b92915050565b600080604083850312156104b7576104b66103b0565b5b60006104c58582860161048b565b92505060206104d68582860161048b565b9150509250929050565b600082825260208201905092915050565b7f546f6b656e73206d75737420626520646966666572656e740000000000000000600082015250565b60006105276018836104e0565b9150610532826104f1565b602082019050919050565b600060208201905081810360008301526105568161051a565b9050919050565b60008160601b9050919050565b60006105758261055d565b9050919050565b60006105878261056a565b9050919050565b61059f61059a82610438565b61057c565b82525050565b60006105b1828561058e565b6014820191506105c1828461058e565b6014820191508190509392505050565b7f546f6b656e207061697220616c72656164792065786973747300000000000000600082015250565b60006106076019836104e0565b9150610612826105d1565b602082019050919050565b60006020820190508181036000830152610636816105fa565b9050919050565b6000604082019050610652600083018561044a565b61065f602083018461044a565b9392505050565b7f4e487b7100000000000000000000000000000000000000000000000000000000600052601160045260246000fd5b60006106a08261037c565b91507fffffffffffffffffffffffffffffffffffffffffffffffffffffffffffffffff82036106d2576106d1610666565b5b60018201905091905056fe60806040523480156200001157600080fd5b50604051620037ca380380620037ca83398181016040528101906200003791906200022a565b816000806101000a81548173ffffffffffffffffffffffffffffffffffffffff021916908373ffffffffffffffffffffffffffffffffffffffff16021790555080600160006101000a81548173ffffffffffffffffffffffffffffffffffffffff021916908373ffffffffffffffffffffffffffffffffffffffff160217905550600160036000600173ffffffffffffffffffffffffffffffffffffffff1673ffffffffffffffffffffffffffffffffffffffff16815260200190815260200160002060006101000a81548173ffffffffffffffffffffffffffffffffffffffff021916908373ffffffffffffffffffffffffffffffffffffffff160217905550600160066000600173ffffffffffffffffffffffffffffffffffffffff1673ffffffffffffffffffffffffffffffffffffffff16815260200190815260200160002060006101000a81548173ffffffffffffffffffffffffffffffffffffffff021916908373ffffffffffffffffffffffffffffffffffffffff160217905550505062000271565b600080fd5b600073ffffffffffffffffffffffffffffffffffffffff82169050919050565b6000620001f282620001c5565b9050919050565b6200020481620001e5565b81146200021057600080fd5b50565b6000815190506200022481620001f9565b92915050565b60008060408385031215620002445762000243620001c0565b5b6000620002548582860162000213565b9250506020620002678582860162000213565b9150509250929050565b61354980620002816000396000f3fe608060405234801561001057600080fd5b50600436106100a95760003560e01c80637b3cee60116100715780637b3cee60146101425780637f008a0a14610160578063949092c21461016a578063ca7030751461018a578063d21220a7146101a8578063fecd817c146101c6576100a9565b80630c6b6737146100ae5780630e07df0b146100cc578063169aab8d146100ec57806325be124e146101085780633f90162314610126575b600080fd5b6100b66101d0565b6040516100c39190612cf2565b60405180910390f35b6100d46101d6565b6040516100e393929190612ebb565b60405180910390f35b61010660048036038101906101019190612f64565b61049b565b005b6101106109c5565b60405161011d9190613016565b60405180910390f35b610140600480360381019061013b9190612f64565b6109eb565b005b61014a610f0c565b6040516101579190612cf2565b60405180910390f35b610168611087565b005b610172611401565b60405161018193929190612ebb565b60405180910390f35b6101926116c6565b60405161019f9190612cf2565b60405180910390f35b6101b06116cc565b6040516101bd9190613016565b60405180910390f35b6101ce6116f0565b005b60075481565b6060806060600060045467ffffffffffffffff8111156101f9576101f8613031565b5b6040519080825280602002602001820160405280156102275781602001602082028036833780820191505090505b509050600060045467ffffffffffffffff81111561024857610247613031565b5b6040519080825280602002602001820160405280156102765781602001602082028036833780820191505090505b509050600060045467ffffffffffffffff81111561029757610296613031565b5b6040519080825280602002602001820160405280156102c55781602001602082028036833780820191505090505b509050600060036000600173ffffffffffffffffffffffffffffffffffffffff1673ffffffffffffffffffffffffffffffffffffffff16815260200190815260200160002060009054906101000a900473ffffffffffffffffffffffffffffffffffffffff16905060005b8451811015610488578185828151811061034d5761034c613060565b5b602002602001019073ffffffffffffffffffffffffffffffffffffffff16908173ffffffffffffffffffffffffffffffffffffffff16815250506000600260008473ffffffffffffffffffffffffffffffffffffffff1673ffffffffffffffffffffffffffffffffffffffff168152602001908152602001600020905080600001548583815181106103e2576103e1613060565b5b602002602001018181525050806001015484838151811061040657610405613060565b5b602002602001018181525050600360008473ffffffffffffffffffffffffffffffffffffffff1673ffffffffffffffffffffffffffffffffffffffff16815260200190815260200160002060009054906101000a900473ffffffffffffffffffffffffffffffffffffffff169250508080610480906130be565b915050610330565b5083838396509650965050505050909192565b6000600260008373ffffffffffffffffffffffffffffffffffffffff1673ffffffffffffffffffffffffffffffffffffffff1681526020019081526020016000206002015414610520576040517f08c379a000000000000000000000000000000000000000000000000000000000815260040161051790613163565b60405180910390fd5b60008314158015610532575060008214155b610571576040517f08c379a0000000000000000000000000000000000000000000000000000000008152600401610568906131f5565b60405180910390fd5b6040518060800160405280848152602001838152602001428152602001838561059a9190613244565b815250600260008373ffffffffffffffffffffffffffffffffffffffff1673ffffffffffffffffffffffffffffffffffffffff16815260200190815260200160002060008201518160000155602082015181600101556040820151816002015560608201518160030155905050600061061d83856106189190613244565b611a68565b90506000600360008373ffffffffffffffffffffffffffffffffffffffff1673ffffffffffffffffffffffffffffffffffffffff16815260200190815260200160002060009054906101000a900473ffffffffffffffffffffffffffffffffffffffff16905082600360008473ffffffffffffffffffffffffffffffffffffffff1673ffffffffffffffffffffffffffffffffffffffff16815260200190815260200160002060006101000a81548173ffffffffffffffffffffffffffffffffffffffff021916908373ffffffffffffffffffffffffffffffffffffffff16021790555080600360008573ffffffffffffffffffffffffffffffffffffffff1673ffffffffffffffffffffffffffffffffffffffff16815260200190815260200160002060006101000a81548173ffffffffffffffffffffffffffffffffffffffff021916908373ffffffffffffffffffffffffffffffffffffffff16021790555060046000815480929190610792906130be565b919050555060008054906101000a900473ffffffffffffffffffffffffffffffffffffffff1673ffffffffffffffffffffffffffffffffffffffff166323b872dd8430886040518463ffffffff1660e01b81526004016107f493929190613284565b6020604051808303816000875af1158015610813573d6000803e3d6000fd5b505050506040513d601f19601f8201168201806040525081019061083791906132f3565b508273ffffffffffffffffffffffffffffffffffffffff16848661085b9190613244565b7fbde30b7e17ea0c4c30ae7712e520d37bbbbff36c1e9d4c3698f7c841c02bead1878760405161088c929190613320565b60405180910390a3600060075411156109be57600060066000600173ffffffffffffffffffffffffffffffffffffffff1673ffffffffffffffffffffffffffffffffffffffff16815260200190815260200160002060009054906101000a900473ffffffffffffffffffffffffffffffffffffffff169050600061091285836001611b5d565b9050600481146109bb576109ad858383600560008773ffffffffffffffffffffffffffffffffffffffff1673ffffffffffffffffffffffffffffffffffffffff16815260200190815260200160002060000154600560008873ffffffffffffffffffffffffffffffffffffffff1673ffffffffffffffffffffffffffffffffffffffff16815260200190815260200160002060010154611e62565b6109ba8583838a8a612343565b5b50505b5050505050565b600160009054906101000a900473ffffffffffffffffffffffffffffffffffffffff1681565b6000600560008373ffffffffffffffffffffffffffffffffffffffff1673ffffffffffffffffffffffffffffffffffffffff1681526020019081526020016000206002015414610a70576040517f08c379a0000000000000000000000000000000000000000000000000000000008152600401610a6790613395565b60405180910390fd5b60008314158015610a82575060008214155b610ac1576040517f08c379a0000000000000000000000000000000000000000000000000000000008152600401610ab8906131f5565b60405180910390fd5b60405180608001604052808481526020018381526020014281526020018385610aea9190613244565b815250600560008373ffffffffffffffffffffffffffffffffffffffff1673ffffffffffffffffffffffffffffffffffffffff168152602001908152602001600020600082015181600001556020820151816001015560408201518160020155606082015181600301559050506000610b6284612828565b90506000600660008373ffffffffffffffffffffffffffffffffffffffff1673ffffffffffffffffffffffffffffffffffffffff16815260200190815260200160002060009054906101000a900473ffffffffffffffffffffffffffffffffffffffff16905082600660008473ffffffffffffffffffffffffffffffffffffffff1673ffffffffffffffffffffffffffffffffffffffff16815260200190815260200160002060006101000a81548173ffffffffffffffffffffffffffffffffffffffff021916908373ffffffffffffffffffffffffffffffffffffffff16021790555080600660008573ffffffffffffffffffffffffffffffffffffffff1673ffffffffffffffffffffffffffffffffffffffff16815260200190815260200160002060006101000a81548173ffffffffffffffffffffffffffffffffffffffff021916908373ffffffffffffffffffffffffffffffffffffffff16021790555060076000815480929190610cd7906130be565b9190505550600160009054906101000a900473ffffffffffffffffffffffffffffffffffffffff1673ffffffffffffffffffffffffffffffffffffffff166323b872dd8430876040518463ffffffff1660e01b8152600401610d3b93929190613284565b6020604051808303816000875af1158015610d5a573d6000803e3d6000fd5b505050506040513d601f19601f82011682018060405250810190610d7e91906132f3565b508273ffffffffffffffffffffffffffffffffffffffff168486610da29190613244565b7f415e371b8594ab74b619283a8063dd3d79117adc0a323c43248267399325d44d8787604051610dd3929190613320565b60405180910390a360006004541115610f0557600060036000600173ffffffffffffffffffffffffffffffffffffffff1673ffffffffffffffffffffffffffffffffffffffff16815260200190815260200160002060009054906101000a900473ffffffffffffffffffffffffffffffffffffffff1690506000610e5982866001611b5d565b905060048114610f0257610ef4828683600260008773ffffffffffffffffffffffffffffffffffffffff1673ffffffffffffffffffffffffffffffffffffffff16815260200190815260200160002060000154600260008873ffffffffffffffffffffffffffffffffffffffff1673ffffffffffffffffffffffffffffffffffffffff16815260200190815260200160002060010154612343565b610f018286838a8a611e62565b5b50505b5050505050565b6000806005600060066000600173ffffffffffffffffffffffffffffffffffffffff1673ffffffffffffffffffffffffffffffffffffffff16815260200190815260200160002060009054906101000a900473ffffffffffffffffffffffffffffffffffffffff1673ffffffffffffffffffffffffffffffffffffffff1673ffffffffffffffffffffffffffffffffffffffff16815260200190815260200160002060000154905060006002600060036000600173ffffffffffffffffffffffffffffffffffffffff1673ffffffffffffffffffffffffffffffffffffffff16815260200190815260200160002060009054906101000a900473ffffffffffffffffffffffffffffffffffffffff1673ffffffffffffffffffffffffffffffffffffffff1673ffffffffffffffffffffffffffffffffffffffff16815260200190815260200160002060000154905081811161107357808261106e91906133b5565b611080565b818161107f91906133b5565b5b9250505090565b6000600560003373ffffffffffffffffffffffffffffffffffffffff1673ffffffffffffffffffffffffffffffffffffffff168152602001908152602001600020600201540361110c576040517f08c379a000000000000000000000000000000000000000000000000000000000815260040161110390613435565b60405180910390fd5b6000600560003373ffffffffffffffffffffffffffffffffffffffff1673ffffffffffffffffffffffffffffffffffffffff168152602001908152602001600020600101549050600061115e3361291d565b9050600660003373ffffffffffffffffffffffffffffffffffffffff1673ffffffffffffffffffffffffffffffffffffffff16815260200190815260200160002060009054906101000a900473ffffffffffffffffffffffffffffffffffffffff16600660008373ffffffffffffffffffffffffffffffffffffffff1673ffffffffffffffffffffffffffffffffffffffff16815260200190815260200160002060006101000a81548173ffffffffffffffffffffffffffffffffffffffff021916908373ffffffffffffffffffffffffffffffffffffffff160217905550600660003373ffffffffffffffffffffffffffffffffffffffff1673ffffffffffffffffffffffffffffffffffffffff16815260200190815260200160002060006101000a81549073ffffffffffffffffffffffffffffffffffffffff0219169055600560003373ffffffffffffffffffffffffffffffffffffffff1673ffffffffffffffffffffffffffffffffffffffff16815260200190815260200160002060008082016000905560018201600090556002820160009055600382016000905550506007600081548092919061131490613455565b9190505550600160009054906101000a900473ffffffffffffffffffffffffffffffffffffffff1673ffffffffffffffffffffffffffffffffffffffff1663a9059cbb33846040518363ffffffff1660e01b815260040161137692919061347e565b6020604051808303816000875af1158015611395573d6000803e3d6000fd5b505050506040513d601f19601f820116820180604052508101906113b991906132f3565b503373ffffffffffffffffffffffffffffffffffffffff167fd72fd04c1f0f3dd2839fa078c4beeaabe5ef0b99fa16e668873e262e2ba475a260405160405180910390a25050565b6060806060600060075467ffffffffffffffff81111561142457611423613031565b5b6040519080825280602002602001820160405280156114525781602001602082028036833780820191505090505b509050600060075467ffffffffffffffff81111561147357611472613031565b5b6040519080825280602002602001820160405280156114a15781602001602082028036833780820191505090505b509050600060075467ffffffffffffffff8111156114c2576114c1613031565b5b6040519080825280602002602001820160405280156114f05781602001602082028036833780820191505090505b509050600060066000600173ffffffffffffffffffffffffffffffffffffffff1673ffffffffffffffffffffffffffffffffffffffff16815260200190815260200160002060009054906101000a900473ffffffffffffffffffffffffffffffffffffffff16905060005b84518110156116b3578185828151811061157857611577613060565b5b602002602001019073ffffffffffffffffffffffffffffffffffffffff16908173ffffffffffffffffffffffffffffffffffffffff16815250506000600560008473ffffffffffffffffffffffffffffffffffffffff1673ffffffffffffffffffffffffffffffffffffffff1681526020019081526020016000209050806000015485838151811061160d5761160c613060565b5b602002602001018181525050806001015484838151811061163157611630613060565b5b602002602001018181525050600660008473ffffffffffffffffffffffffffffffffffffffff1673ffffffffffffffffffffffffffffffffffffffff16815260200190815260200160002060009054906101000a900473ffffffffffffffffffffffffffffffffffffffff1692505080806116ab906130be565b91505061155b565b5083838396509650965050505050909192565b60045481565b60008054906101000a900473ffffffffffffffffffffffffffffffffffffffff1681565b6000600260003373ffffffffffffffffffffffffffffffffffffffff1673ffffffffffffffffffffffffffffffffffffffff1681526020019081526020016000206002015403611775576040517f08c379a000000000000000000000000000000000000000000000000000000000815260040161176c906134f3565b60405180910390fd5b6000600260003373ffffffffffffffffffffffffffffffffffffffff1673ffffffffffffffffffffffffffffffffffffffff16815260200190815260200160002060000154905060006117c73361291d565b9050600360003373ffffffffffffffffffffffffffffffffffffffff1673ffffffffffffffffffffffffffffffffffffffff16815260200190815260200160002060009054906101000a900473ffffffffffffffffffffffffffffffffffffffff16600360008373ffffffffffffffffffffffffffffffffffffffff1673ffffffffffffffffffffffffffffffffffffffff16815260200190815260200160002060006101000a81548173ffffffffffffffffffffffffffffffffffffffff021916908373ffffffffffffffffffffffffffffffffffffffff160217905550600360003373ffffffffffffffffffffffffffffffffffffffff1673ffffffffffffffffffffffffffffffffffffffff16815260200190815260200160002060006101000a81549073ffffffffffffffffffffffffffffffffffffffff0219169055600260003373ffffffffffffffffffffffffffffffffffffffff1673ffffffffffffffffffffffffffffffffffffffff16815260200190815260200160002060008082016000905560018201600090556002820160009055600382016000905550506004600081548092919061197d90613455565b919050555060008054906101000a900473ffffffffffffffffffffffffffffffffffffffff1673ffffffffffffffffffffffffffffffffffffffff1663a9059cbb33846040518363ffffffff1660e01b81526004016119dd92919061347e565b6020604051808303816000875af11580156119fc573d6000803e3d6000fd5b505050506040513d601f19601f82011682018060405250810190611a2091906132f3565b503373ffffffffffffffffffffffffffffffffffffffff167f40a722cc05fdeaf68cfdd1182ed21c908bd55248a30fb25c43d3bca5f9eb66f560405160405180910390a25050565b600080600190505b600115611b5657611ae18184600360008573ffffffffffffffffffffffffffffffffffffffff1673ffffffffffffffffffffffffffffffffffffffff16815260200190815260200160002060009054906101000a900473ffffffffffffffffffffffffffffffffffffffff16612ac1565b15611aef5780915050611b58565b600360008273ffffffffffffffffffffffffffffffffffffffff1673ffffffffffffffffffffffffffffffffffffffff16815260200190815260200160002060009054906101000a900473ffffffffffffffffffffffffffffffffffffffff169050611a70565b505b919050565b6000818015611bf05750600560008473ffffffffffffffffffffffffffffffffffffffff1673ffffffffffffffffffffffffffffffffffffffff16815260200190815260200160002060030154600260008673ffffffffffffffffffffffffffffffffffffffff1673ffffffffffffffffffffffffffffffffffffffff1681526020019081526020016000206003015410155b80611c89575081158015611c885750600260008573ffffffffffffffffffffffffffffffffffffffff1673ffffffffffffffffffffffffffffffffffffffff16815260200190815260200160002060030154600560008573ffffffffffffffffffffffffffffffffffffffff1673ffffffffffffffffffffffffffffffffffffffff1681526020019081526020016000206003015411155b5b15611e5157600560008473ffffffffffffffffffffffffffffffffffffffff1673ffffffffffffffffffffffffffffffffffffffff16815260200190815260200160002060000154600260008673ffffffffffffffffffffffffffffffffffffffff1673ffffffffffffffffffffffffffffffffffffffff1681526020019081526020016000206001015403611d225760019050611e5b565b600560008473ffffffffffffffffffffffffffffffffffffffff1673ffffffffffffffffffffffffffffffffffffffff16815260200190815260200160002060000154600260008673ffffffffffffffffffffffffffffffffffffffff1673ffffffffffffffffffffffffffffffffffffffff168152602001908152602001600020600101541015611db75760029050611e5b565b600560008473ffffffffffffffffffffffffffffffffffffffff1673ffffffffffffffffffffffffffffffffffffffff16815260200190815260200160002060000154600260008673ffffffffffffffffffffffffffffffffffffffff1673ffffffffffffffffffffffffffffffffffffffff168152602001908152602001600020600101541115611e4c5760039050611e5b565b611e5a565b60049050611e5b565b5b9392505050565b6000600260008773ffffffffffffffffffffffffffffffffffffffff1673ffffffffffffffffffffffffffffffffffffffff1681526020019081526020016000206000015490506001841480611eb85750600284145b15612128576000611ec88761291d565b9050600360008873ffffffffffffffffffffffffffffffffffffffff1673ffffffffffffffffffffffffffffffffffffffff16815260200190815260200160002060009054906101000a900473ffffffffffffffffffffffffffffffffffffffff16600360008373ffffffffffffffffffffffffffffffffffffffff1673ffffffffffffffffffffffffffffffffffffffff16815260200190815260200160002060006101000a81548173ffffffffffffffffffffffffffffffffffffffff021916908373ffffffffffffffffffffffffffffffffffffffff160217905550600360008873ffffffffffffffffffffffffffffffffffffffff1673ffffffffffffffffffffffffffffffffffffffff16815260200190815260200160002060006101000a81549073ffffffffffffffffffffffffffffffffffffffff0219169055600260008873ffffffffffffffffffffffffffffffffffffffff1673ffffffffffffffffffffffffffffffffffffffff16815260200190815260200160002060008082016000905560018201600090556002820160009055600382016000905550506004600081548092919061207e90613455565b919050555060008054906101000a900473ffffffffffffffffffffffffffffffffffffffff1673ffffffffffffffffffffffffffffffffffffffff1663a9059cbb87846040518363ffffffff1660e01b81526004016120de92919061347e565b6020604051808303816000875af11580156120fd573d6000803e3d6000fd5b505050506040513d601f19601f8201168201806040525081019061212191906132f3565b505061233b565b6003840361233a5782600260008873ffffffffffffffffffffffffffffffffffffffff1673ffffffffffffffffffffffffffffffffffffffff1681526020019081526020016000206000015461217e91906133b5565b600260008873ffffffffffffffffffffffffffffffffffffffff1673ffffffffffffffffffffffffffffffffffffffff1681526020019081526020016000206000018190555081600260008873ffffffffffffffffffffffffffffffffffffffff1673ffffffffffffffffffffffffffffffffffffffff1681526020019081526020016000206001015461221291906133b5565b600260008873ffffffffffffffffffffffffffffffffffffffff1673ffffffffffffffffffffffffffffffffffffffff1681526020019081526020016000206001018190555060008054906101000a900473ffffffffffffffffffffffffffffffffffffffff1673ffffffffffffffffffffffffffffffffffffffff1663a9059cbb86600260008a73ffffffffffffffffffffffffffffffffffffffff1673ffffffffffffffffffffffffffffffffffffffff168152602001908152602001600020600001546040518363ffffffff1660e01b81526004016122f592919061347e565b6020604051808303816000875af1158015612314573d6000803e3d6000fd5b505050506040513d601f19601f8201168201806040525081019061233891906132f3565b505b5b505050505050565b6000600560008673ffffffffffffffffffffffffffffffffffffffff1673ffffffffffffffffffffffffffffffffffffffff16815260200190815260200160002060010154905060018414806123995750600384145b1561260b5760006123a98661291d565b9050600660008773ffffffffffffffffffffffffffffffffffffffff1673ffffffffffffffffffffffffffffffffffffffff16815260200190815260200160002060009054906101000a900473ffffffffffffffffffffffffffffffffffffffff16600660008373ffffffffffffffffffffffffffffffffffffffff1673ffffffffffffffffffffffffffffffffffffffff16815260200190815260200160002060006101000a81548173ffffffffffffffffffffffffffffffffffffffff021916908373ffffffffffffffffffffffffffffffffffffffff160217905550600660008773ffffffffffffffffffffffffffffffffffffffff1673ffffffffffffffffffffffffffffffffffffffff16815260200190815260200160002060006101000a81549073ffffffffffffffffffffffffffffffffffffffff0219169055600560008773ffffffffffffffffffffffffffffffffffffffff1673ffffffffffffffffffffffffffffffffffffffff16815260200190815260200160002060008082016000905560018201600090556002820160009055600382016000905550506007600081548092919061255f90613455565b9190505550600160009054906101000a900473ffffffffffffffffffffffffffffffffffffffff1673ffffffffffffffffffffffffffffffffffffffff1663a9059cbb88846040518363ffffffff1660e01b81526004016125c192919061347e565b6020604051808303816000875af11580156125e0573d6000803e3d6000fd5b505050506040513d601f19601f8201168201806040525081019061260491906132f3565b5050612820565b6002840361281f5781600560008773ffffffffffffffffffffffffffffffffffffffff1673ffffffffffffffffffffffffffffffffffffffff1681526020019081526020016000206001015461266191906133b5565b600560008773ffffffffffffffffffffffffffffffffffffffff1673ffffffffffffffffffffffffffffffffffffffff1681526020019081526020016000206001018190555082600560008773ffffffffffffffffffffffffffffffffffffffff1673ffffffffffffffffffffffffffffffffffffffff168152602001908152602001600020600001546126f591906133b5565b600560008773ffffffffffffffffffffffffffffffffffffffff1673ffffffffffffffffffffffffffffffffffffffff16815260200190815260200160002060000181905550600160009054906101000a900473ffffffffffffffffffffffffffffffffffffffff1673ffffffffffffffffffffffffffffffffffffffff1663a9059cbb87600560008973ffffffffffffffffffffffffffffffffffffffff1673ffffffffffffffffffffffffffffffffffffffff168152602001908152602001600020600101546040518363ffffffff1660e01b81526004016127da92919061347e565b6020604051808303816000875af11580156127f9573d6000803e3d6000fd5b505050506040513d601f19601f8201168201806040525081019061281d91906132f3565b505b5b505050505050565b600080600190505b600115612916576128a18184600660008573ffffffffffffffffffffffffffffffffffffffff1673ffffffffffffffffffffffffffffffffffffffff16815260200190815260200160002060009054906101000a900473ffffffffffffffffffffffffffffffffffffffff16612bcd565b156128af5780915050612918565b600660008273ffffffffffffffffffffffffffffffffffffffff1673ffffffffffffffffffffffffffffffffffffffff16815260200190815260200160002060009054906101000a900473ffffffffffffffffffffffffffffffffffffffff169050612830565b505b919050565b600080600190505b600173ffffffffffffffffffffffffffffffffffffffff16600360008373ffffffffffffffffffffffffffffffffffffffff1673ffffffffffffffffffffffffffffffffffffffff16815260200190815260200160002060009054906101000a900473ffffffffffffffffffffffffffffffffffffffff1673ffffffffffffffffffffffffffffffffffffffff1614612aba578273ffffffffffffffffffffffffffffffffffffffff16600360008373ffffffffffffffffffffffffffffffffffffffff1673ffffffffffffffffffffffffffffffffffffffff16815260200190815260200160002060009054906101000a900473ffffffffffffffffffffffffffffffffffffffff1673ffffffffffffffffffffffffffffffffffffffff1603612a535780915050612abc565b600360008273ffffffffffffffffffffffffffffffffffffffff1673ffffffffffffffffffffffffffffffffffffffff16815260200190815260200160002060009054906101000a900473ffffffffffffffffffffffffffffffffffffffff169050612925565b505b919050565b6000600173ffffffffffffffffffffffffffffffffffffffff168473ffffffffffffffffffffffffffffffffffffffff161480612b405750600260008573ffffffffffffffffffffffffffffffffffffffff1673ffffffffffffffffffffffffffffffffffffffff168152602001908152602001600020600301548311155b8015612bc45750600173ffffffffffffffffffffffffffffffffffffffff168273ffffffffffffffffffffffffffffffffffffffff161480612bc35750600260008373ffffffffffffffffffffffffffffffffffffffff1673ffffffffffffffffffffffffffffffffffffffff1681526020019081526020016000206003015483115b5b90509392505050565b6000600173ffffffffffffffffffffffffffffffffffffffff168473ffffffffffffffffffffffffffffffffffffffff161480612c4c5750600560008573ffffffffffffffffffffffffffffffffffffffff1673ffffffffffffffffffffffffffffffffffffffff168152602001908152602001600020600301548310155b8015612cd05750600173ffffffffffffffffffffffffffffffffffffffff168273ffffffffffffffffffffffffffffffffffffffff161480612ccf5750600560008373ffffffffffffffffffffffffffffffffffffffff1673ffffffffffffffffffffffffffffffffffffffff1681526020019081526020016000206003015483105b5b90509392505050565b6000819050919050565b612cec81612cd9565b82525050565b6000602082019050612d076000830184612ce3565b92915050565b600081519050919050565b600082825260208201905092915050565b6000819050602082019050919050565b600073ffffffffffffffffffffffffffffffffffffffff82169050919050565b6000612d6482612d39565b9050919050565b612d7481612d59565b82525050565b6000612d868383612d6b565b60208301905092915050565b6000602082019050919050565b6000612daa82612d0d565b612db48185612d18565b9350612dbf83612d29565b8060005b83811015612df0578151612dd78882612d7a565b9750612de283612d92565b925050600181019050612dc3565b5085935050505092915050565b600081519050919050565b600082825260208201905092915050565b6000819050602082019050919050565b612e3281612cd9565b82525050565b6000612e448383612e29565b60208301905092915050565b6000602082019050919050565b6000612e6882612dfd565b612e728185612e08565b9350612e7d83612e19565b8060005b83811015612eae578151612e958882612e38565b9750612ea083612e50565b925050600181019050612e81565b5085935050505092915050565b60006060820190508181036000830152612ed58186612d9f565b90508181036020830152612ee98185612e5d565b90508181036040830152612efd8184612e5d565b9050949350505050565b600080fd5b612f1581612cd9565b8114612f2057600080fd5b50565b600081359050612f3281612f0c565b92915050565b612f4181612d59565b8114612f4c57600080fd5b50565b600081359050612f5e81612f38565b92915050565b600080600060608486031215612f7d57612f7c612f07565b5b6000612f8b86828701612f23565b9350506020612f9c86828701612f23565b9250506040612fad86828701612f4f565b9150509250925092565b6000819050919050565b6000612fdc612fd7612fd284612d39565b612fb7565b612d39565b9050919050565b6000612fee82612fc1565b9050919050565b600061300082612fe3565b9050919050565b61301081612ff5565b82525050565b600060208201905061302b6000830184613007565b92915050565b7f4e487b7100000000000000000000000000000000000000000000000000000000600052604160045260246000fd5b7f4e487b7100000000000000000000000000000000000000000000000000000000600052603260045260246000fd5b7f4e487b7100000000000000000000000000000000000000000000000000000000600052601160045260246000fd5b60006130c982612cd9565b91507fffffffffffffffffffffffffffffffffffffffffffffffffffffffffffffffff82036130fb576130fa61308f565b5b600182019050919050565b600082825260208201905092915050565b7f46697273742064656c657465206578697374696e6720627579206f7264657200600082015250565b600061314d601f83613106565b915061315882613117565b602082019050919050565b6000602082019050818103600083015261317c81613140565b9050919050565b7f4d7573742068617665206e6f6e7a65726f207069636520616e64207175616e7460008201527f6974790000000000000000000000000000000000000000000000000000000000602082015250565b60006131df602383613106565b91506131ea82613183565b604082019050919050565b6000602082019050818103600083015261320e816131d2565b9050919050565b7f4e487b7100000000000000000000000000000000000000000000000000000000600052601260045260246000fd5b600061324f82612cd9565b915061325a83612cd9565b92508261326a57613269613215565b5b828204905092915050565b61327e81612d59565b82525050565b60006060820190506132996000830186613275565b6132a66020830185613275565b6132b36040830184612ce3565b949350505050565b60008115159050919050565b6132d0816132bb565b81146132db57600080fd5b50565b6000815190506132ed816132c7565b92915050565b60006020828403121561330957613308612f07565b5b6000613317848285016132de565b91505092915050565b60006040820190506133356000830185612ce3565b6133426020830184612ce3565b9392505050565b7f46697273742064656c657465206578697374696e672073656c6c206f72646572600082015250565b600061337f602083613106565b915061338a82613349565b602082019050919050565b600060208201905081810360008301526133ae81613372565b9050919050565b60006133c082612cd9565b91506133cb83612cd9565b92508282039050818111156133e3576133e261308f565b5b92915050565b7f53656c6c206f72646572206d75737420616c7265616479206578697374000000600082015250565b600061341f601d83613106565b915061342a826133e9565b602082019050919050565b6000602082019050818103600083015261344e81613412565b9050919050565b600061346082612cd9565b9150600082036134735761347261308f565b5b600182039050919050565b60006040820190506134936000830185613275565b6134a06020830184612ce3565b9392505050565b7f427579206f72646572206d75737420616c726561647920657869737400000000600082015250565b60006134dd601c83613106565b91506134e8826134a7565b602082019050919050565b6000602082019050818103600083015261350c816134d0565b905091905056fea26469706673582212200140d54fd6199699e7edc4e1dd2ef2e530de48698e6c5bfef9c1b60f63b8adbf64736f6c63430008110033a26469706673582212201992205b659e690c3a9f367dd536926ba34483128da30472030dd701ebdf345564736f6c63430008110033",
  "immutableReferences": {},
  "source": "pragma solidity ^0.8.17;\r\n\r\nimport \"../node_modules/@openzeppelin/contracts/token/ERC20/ERC20.sol\";\r\n\r\ncontract Token is ERC20 {\r\n    address public admin;\r\n\r\n    constructor(string memory _name, string memory _symbol) ERC20(_name, _symbol) {\r\n        admin = msg.sender;\r\n        _mint(msg.sender, 1000);\r\n    }\r\n\r\n    function mint(address _to, uint256 _amount) external {\r\n        require(msg.sender == admin, \"Only admin can mint\");\r\n        _mint(_to, _amount);\r\n    }\r\n}\r\n\r\ncontract Dex {\r\n    mapping (address => ERC20) private availableTokens;\r\n    address[] private tokenAddresses;\r\n    uint256 private numTokens;\r\n    uint256 private numOrders;\r\n    OrderbookFactory private books = new OrderbookFactory();\r\n    Order[] public _orders;\r\n    bytes32[] private identifiers;\r\n\r\n    address public owner;\r\n    event LogTokenSent(address token, address receipient, uint256 amount);\r\n    event LogTokenCreated(address tokenAddress, string tokenName, string tokenSymbol);\r\n    event LogBuyOrderPlaced(address buyer, address buyToken, uint256 buyAmt, address payToken, uint256 payAmt);\r\n\r\n    // Order struct containing price, quantity, and tokens being transacted\r\n    struct Order {\r\n        address orderedBy; // address of buyer/seller\r\n        uint256 price;\r\n        uint256 quantity;\r\n        string token1;\r\n        string token2;\r\n        string orderType; // buy or sell\r\n        address token1Addr;\r\n        address token2Addr;\r\n    }\r\n\r\n    constructor () {\r\n        owner = msg.sender;\r\n        numTokens = 0;\r\n        numOrders = 0;\r\n    }\r\n\r\n\r\n    // Allows admin to create new token, and new token will be added into availableTokens dict.\r\n    function createToken(string memory _name, string memory _symbol) public {\r\n        // only allow owner to create tokens\r\n        require(owner == msg.sender, \"Only the owner can create tokens!\");\r\n\r\n        //mapping address of new Token created\r\n        address newTokenAddress = address(new Token(_name, _symbol));\r\n        availableTokens[newTokenAddress] = ERC20(newTokenAddress);\r\n        tokenAddresses.push(newTokenAddress);\r\n        numTokens++;\r\n\r\n        // log token creation event\r\n        emit LogTokenCreated(newTokenAddress, _name, _symbol);\r\n    }\r\n\r\n    // Allows admin to send token\r\n    function sendToken(address _token, address _receipient, uint256 _amount) public {\r\n        // only allow owner to create tokens\r\n        require(owner == msg.sender, \"Only the owner can send tokens!\");\r\n        ERC20 ERC20TOKEN = availableTokens[_token];\r\n        ERC20TOKEN.transfer(_receipient, _amount);\r\n\r\n        // log token sent event\r\n        emit LogTokenSent(_token, _receipient, _amount);\r\n    }\r\n\r\n    // Returns an array of available tokens\r\n    function getAvailableTokens() public view returns(address[] memory) {\r\n        address[] memory addressTemp = new address[](numTokens);\r\n\r\n        //loop through the available tokens\r\n        for (uint256 i=0; i < numTokens; i++) {\r\n            if(tokenAddresses[i] == address(0)){\r\n                i--; //so that i does not increase\r\n                continue;\r\n            }\r\n            addressTemp[i] = tokenAddresses[i];\r\n        }\r\n        return addressTemp;\r\n    }\r\n\r\n    function getTokenName(address _token) public view returns(string memory) {\r\n        ERC20 ERC20TOKEN = availableTokens[_token];\r\n        return ERC20TOKEN.name();\r\n    }\r\n\r\n    function getTokenBalance(address _token) public view returns(uint256) {\r\n        ERC20 ERC20TOKEN = availableTokens[_token];\r\n        return ERC20TOKEN.balanceOf(msg.sender);\r\n    }\r\n\r\n    // the logic for this buy is a little weird, because the orderbook assumes the token to be bought/sold.\r\n    // for example in orderbook for tokenA and tokenB. orderbook always assumes tokenA is the one being sold, \r\n    // tokenB is the one being bought. because of this, when we want to buy tokenA, we have to place a sell order for token B.\r\n    function buy(address _buyToken, uint256 _buyAmt, address _payToken, uint256 _payAmt) public {\r\n        // first check whether there is an existing orderboook for this pair of tokens\r\n        address token1;\r\n        address token2;\r\n        if (uint160(_buyToken) > uint160(_payToken)) {\r\n            token1 = _buyToken;\r\n            token2 = _payToken;\r\n        } else {\r\n            token1 = _payToken;\r\n            token2 = _buyToken;\r\n        }\r\n        bytes32 identifier = keccak256(abi.encodePacked(token1, token2));\r\n        // if no existing orderbook for this pair of tokens then create it\r\n        if(books.orderbooks(identifier) == address(0)){\r\n            books.addPair(token1, token2);\r\n            identifiers.push(identifier);\r\n        }\r\n        Orderbook book = Orderbook(books.orderbooks(identifier));\r\n        // in orderbook token 1 acts as cash, token 2 acts as commodity.\r\n        // so, by comparing _buyToken with token1, we will know if _buyToken here is cash or commodity.\r\n        // if _buyToken is cash, means we need to place sell order, if is commodity, means we need to place buy order\r\n        if(_buyToken == token1){\r\n            //place sell order\r\n            book.placeSell(_buyAmt, _payAmt, msg.sender);\r\n        }else if(_buyToken == token2){\r\n            //place buy order\r\n            book.placeBuy(_payAmt, _buyAmt, msg.sender);\r\n        }\r\n\r\n        numOrders++;\r\n        emit LogBuyOrderPlaced(msg.sender, _buyToken, _buyAmt, _payToken, _payAmt);\r\n    }\r\n\r\n    // will need this to retrieve address of orderbook, and address of token1 and token2 so we know which is getting bought/sold\r\n    function getOrderbookAddress(address _token1, address _token2) view external returns (address, address, address) {\r\n        address token1;\r\n        address token2;\r\n        if (uint160(_token1) > uint160(_token2)) {\r\n            token1 = _token1;\r\n            token2 = _token2;\r\n        } else {\r\n            token1 = _token2;\r\n            token2 = _token1;\r\n        }\r\n        bytes32 identifier = keccak256(abi.encodePacked(token1, token2));\r\n        return (books.orderbooks(identifier), token1, token2);\r\n    }\r\n\r\n    // create orderbook for the token pair and return the address\r\n    function addTokenPair(address _token1, address _token2) external returns (address, address, address) {\r\n        books.addPair(_token1, _token2);\r\n        address token1;\r\n        address token2;\r\n        if (uint160(_token1) > uint160(_token2)) {\r\n            token1 = _token1;\r\n            token2 = _token2;\r\n        } else {\r\n            token1 = _token2;\r\n            token2 = _token1;\r\n        }\r\n        bytes32 identifier = keccak256(abi.encodePacked(token1, token2));\r\n        identifiers.push(identifier);\r\n        return (books.orderbooks(identifier), token1, token2);\r\n    }\r\n\r\n    function getOrders() external returns (Order[] memory){\r\n        address[] memory addressTemp;\r\n        uint256[] memory priceTemp;\r\n        uint256[] memory quantityTemp;\r\n        string memory _token1;\r\n        string memory _token2;\r\n        for(uint256 i=0; i < _orders.length; i++) {\r\n            _orders.pop();\r\n        }\r\n\r\n        //loop through the available tokens\r\n        for(uint256 i=0; i < identifiers.length; i++) {\r\n            Orderbook book = Orderbook(books.orderbooks(identifiers[i]));\r\n            (addressTemp, priceTemp, quantityTemp) = book.getBuySide();\r\n            _token1 = getTokenName(address(book.token1()));\r\n            _token2 = getTokenName(address(book.token2()));\r\n            \r\n            for(uint256 j=0; j < addressTemp.length; j++){\r\n                _orders.push(Order(addressTemp[j], priceTemp[j], quantityTemp[j], _token1, _token2, \"buy\", address(book.token1()), address(book.token2())));\r\n            }\r\n\r\n            (addressTemp, priceTemp, quantityTemp) = book.getSellSide();\r\n            for(uint256 j=0; j < addressTemp.length; j++){\r\n                _orders.push(Order(addressTemp[j], priceTemp[j], quantityTemp[j], _token1, _token2, \"sell\", address(book.token1()), address(book.token2())));\r\n            }\r\n        }\r\n        // still missing names of token being bought/sold.\r\n        // buyPriceTemp holds the amount of token1 being paid, buyQuantityTemp holds the amount of token2 being bought\r\n        // buyAddressTemp holds wallet addresses of those who placed the buy orders\r\n        // \r\n        return _orders;\r\n    }\r\n\r\n\r\n}\r\n\r\n\r\n/* This contract represents a factory to create an arbitrary number of orderbooks\r\n * for unique trading pairs. If an orderbook for the trading pair already exists\r\n * then contract execution will revert.\r\n */\r\ncontract OrderbookFactory {\r\n    // number of pairs supported\r\n    uint256 public pairsSupported;\r\n\r\n    // mapping of existing orderbooks\r\n    mapping(bytes32 => address) public orderbooks;\r\n\r\n    // event emitted every time a new token pair is added\r\n    event NewPair(address indexed token1, address indexed token2);\r\n\r\n    // Creates a new orderbook contract instance for the token pair\r\n    function addPair(address _token1, address _token2) external {\r\n        require(_token1 != _token2, \"Tokens must be different\");\r\n\r\n        address token1;\r\n        address token2;\r\n\r\n        /* This ensures that token addresses are order correctly, this way if\r\n         * the same pair is entered but in different order, a new orderbook will\r\n         * NOT be created!\r\n         */\r\n        if (uint160(_token1) > uint160(_token2)) {\r\n            token1 = _token1;\r\n            token2 = _token2;\r\n        } else {\r\n            token1 = _token2;\r\n            token2 = _token1;\r\n        }\r\n\r\n        // mapping identifier is computed from the hash of the ordered addresses\r\n        bytes32 identifier = keccak256(abi.encodePacked(token1, token2));\r\n        require(\r\n            orderbooks[identifier] == address(0),\r\n            \"Token pair already exists\"\r\n        );\r\n\r\n        /* create the new orderbook contract for the pair and store its address\r\n         * in the orderbooks mapping\r\n         */\r\n        orderbooks[identifier] = address(new Orderbook(token1, token2));\r\n        pairsSupported++;\r\n\r\n        emit NewPair(token1, token2);\r\n    }\r\n}\r\n\r\n/* This contract represents an orderbook with a buy side and sell side of the\r\n * book. This contract maintains an ordered list of both the buy side and the\r\n * sell side of the book and allows any user to remove his or her order. There\r\n * is also functionality to return both the buy and sell side of the book. Please\r\n * see the README for further assumptions.\r\n */\r\ncontract Orderbook {\r\n    IERC20 public token1;\r\n    IERC20 public token2;\r\n\r\n    // Order struct containing price, quantity, and date created\r\n    struct Order {\r\n        uint256 price;\r\n        uint256 quantity;\r\n        uint256 date;\r\n        uint256 unitPrice;\r\n    }\r\n\r\n    // mapping of buyer address to buy order\r\n    mapping(address => Order) buyOrders;\r\n\r\n    // mapping used to preserve order based on buy price\r\n    mapping(address => address) nextBuy;\r\n\r\n    // overall buy order count\r\n    uint256 public buyCount;\r\n\r\n    // mapping of seller address to sell order\r\n    mapping(address => Order) sellOrders;\r\n\r\n    // mapping used to preserve order based on sell price\r\n    mapping(address => address) nextSell;\r\n\r\n    // overall sell order count\r\n    uint256 public sellCount;\r\n\r\n    // BUFFER used to signal beginning and end of order mappings\r\n    address constant BUFFER = address(1);\r\n\r\n    // event emitted whenever a buy order is placed\r\n    event BuyOrderPlaced(\r\n        uint256 indexed unitPrice,\r\n        uint256 price,\r\n        uint256 quantity,\r\n        address indexed buyer\r\n    );\r\n\r\n    // event emitted whenever a buy order is cancelled\r\n    event CancelBuyOrder(address indexed buyer);\r\n\r\n    // event emitted whenever a sell order is placed\r\n    event SellOrderPlaced(\r\n        uint256 indexed unitPrice,\r\n        uint256 price,\r\n        uint256 quantity,\r\n        address indexed seller\r\n    );\r\n\r\n    // event emitted whenever a sell order is cancelled\r\n    event CancelSellOrder(address indexed seller);\r\n\r\n    // initialize token1 and token2 of the pair\r\n    constructor(address _token1, address _token2) {\r\n        token1 = IERC20(_token1);\r\n        token2 = IERC20(_token2);\r\n\r\n        // initialize order mappings\r\n        nextBuy[BUFFER] = BUFFER;\r\n        nextSell[BUFFER] = BUFFER;\r\n    }\r\n\r\n    /* Helper function used to verify the correct insertion position of a\r\n     * buy order when it is added to the buy side. Returns true if the order is\r\n     * at least as expensive as the previous buy order in the list and definitely\r\n     * more expensive than the next order in the list (for descending order)\r\n     */\r\n    function _verifyIndexBuy(\r\n        address prev,\r\n        uint256 unitPrice,\r\n        address next\r\n    ) internal view returns (bool) {\r\n        return ((prev == BUFFER || unitPrice <= buyOrders[prev].unitPrice) &&\r\n            (next == BUFFER || unitPrice > buyOrders[next].unitPrice));\r\n    }\r\n\r\n    /* Helper function used to verify the correct insertion position of a\r\n     * sell order when it is added to the sell side. Returns true if the order is\r\n     * at least as cheap as the previous sell order in the list and definitely\r\n     * less expensive than the next order in the list (for ascending order)\r\n     */\r\n    function _verifyIndexSell(\r\n        address prev,\r\n        uint256 unitPrice,\r\n        address next\r\n    ) internal view returns (bool) {\r\n        return ((prev == BUFFER || unitPrice >= sellOrders[prev].unitPrice) &&\r\n            (next == BUFFER || unitPrice < sellOrders[next].unitPrice));\r\n    }\r\n\r\n    /* Helper function that finds the previous buy order address for the new buy\r\n     * order to add to the list based on the new buy order price.\r\n     */\r\n    function _findPrevBuy(uint256 unitPrice) internal view returns (address) {\r\n        address prev = BUFFER;\r\n        while (true) {\r\n            if (_verifyIndexBuy(prev, unitPrice, nextBuy[prev])) {\r\n                return prev;\r\n            }\r\n            prev = nextBuy[prev];\r\n        }\r\n    }\r\n\r\n    /* Helper function that finds the previous sell order address for the new\r\n     * sell order to add to the list based on the new sell order price.\r\n     */\r\n    function _findPrevSell(uint256 unitPrice) internal view returns (address) {\r\n        address prev = BUFFER;\r\n        while (true) {\r\n            if (_verifyIndexSell(prev, unitPrice, nextSell[prev])) {\r\n                return prev;\r\n            }\r\n            prev = nextSell[prev];\r\n        }\r\n    }\r\n\r\n    /* Finds the previous address of the target address in the order mapping of\r\n     * either buy or sell order addresses. Used for removing buy or sell orders.\r\n     */\r\n    function _getPrevious(address target) internal view returns (address) {\r\n        address current = BUFFER;\r\n        while (nextBuy[current] != BUFFER) {\r\n            if (nextBuy[current] == target) {\r\n                return current;\r\n            }\r\n            current = nextBuy[current];\r\n        }\r\n    }\r\n\r\n    // Places a buy order and locks associated collateral\r\n    function placeBuy(uint256 _price, uint256 _quantity, address _buyer) external {\r\n        // Only one buy order per address\r\n        require(\r\n            buyOrders[_buyer].date == 0,\r\n            \"First delete existing buy order\"\r\n        );\r\n        require(\r\n            _price != 0 && _quantity != 0,\r\n            \"Must have nonzero pice and quantity\"\r\n        );\r\n\r\n        // Create a new order in the buy order mapping for _buyer\r\n        buyOrders[_buyer] = Order(_price, _quantity, block.timestamp, _price/_quantity);\r\n\r\n        /* Add _buyer into the appropriate position in the ordering mapping.\r\n         * This is similar to linked list insertion\r\n         */\r\n        address prev = _findPrevBuy(_price/_quantity);\r\n        address temp = nextBuy[prev];\r\n        nextBuy[prev] = _buyer;\r\n        nextBuy[_buyer] = temp;\r\n\r\n        // Increment the overall buy count\r\n        buyCount++;\r\n\r\n        /* Transfer the buy order quantity of token1 from the buyer to the\r\n         * orderbook contract. This locks the associated collateral\r\n         */\r\n        token1.transferFrom(_buyer, address(this), _price);\r\n\r\n        // Emit buy order placed event\r\n        emit BuyOrderPlaced(_price/_quantity,_price, _quantity, _buyer);\r\n\r\n        if(sellCount > 0){\r\n            address _seller = nextSell[BUFFER];\r\n            uint256 k = matchOrders(_buyer, _seller, true);\r\n            if (k!=4){\r\n                completeBuyOrder(_buyer,_seller,k, sellOrders[_seller].price, sellOrders[_seller].quantity);\r\n                completeSellOrder(_buyer,_seller,k, _price, _quantity);\r\n            }\r\n        }\r\n    }\r\n\r\n    // Cancels the buy order associated with _buyer if it exists\r\n    function cancelBuy() external {\r\n        require(\r\n            buyOrders[msg.sender].date != 0,\r\n            \"Buy order must already exist\"\r\n        );\r\n\r\n        // Store quantity of buy order to refund msg.sender with correct amount\r\n        uint256 price = buyOrders[msg.sender].price;\r\n\r\n        // Find the previous address of the msg.sender in the ordering mapping\r\n        address prev = _getPrevious(msg.sender);\r\n\r\n        // Delete msg.sender from ordering mapping. Similar to linked list deletion\r\n        nextBuy[prev] = nextBuy[msg.sender];\r\n\r\n        // Delete buy order from buy order mapping and ordering mapping\r\n        delete nextBuy[msg.sender];\r\n        delete buyOrders[msg.sender];\r\n\r\n        // Decrement the buy count\r\n        buyCount--;\r\n\r\n        // approve corresponding wallet to dr\r\n        // uint256 allowance = token1.allowance(address(this), msg.sender);\r\n        // Unlock associated collateral and send it back to msg.sender\r\n        token1.transfer(msg.sender, price);\r\n\r\n        // Emit a cancel buy order event\r\n        emit CancelBuyOrder(msg.sender);\r\n    }\r\n\r\n    function completeBuyOrder(address buyAddress, address sellAddress, uint256 k, uint256 sellPrice, uint256 sellQuantity) internal { // Cancels the buy order associated with msg.sender if it exists\r\n        \r\n        uint256 price = buyOrders[buyAddress].price; // Store quantity of buy order to refund msg.sender with correct amount\r\n        \r\n\r\n        // Delete buy order from buy order mapping and ordering mapping\r\n        if (k==1 || k==2){\r\n            address prev = _getPrevious(buyAddress); // Find the previous address of the msg.sender in the ordering mapping\r\n            nextBuy[prev] = nextBuy[buyAddress]; // Delete msg.sender from ordering mapping. Similar to linked list deletion\r\n            delete nextBuy[buyAddress];\r\n            delete buyOrders[buyAddress];\r\n            buyCount--; // Decrement the buy count\r\n            token1.transfer(sellAddress, price); // Unlock associated collateral and send it back to msg.sender\r\n            // emit CancelBuyOrder(buyAddress); // Emit a cancel buy order event\r\n        } \r\n        else if (k==3){\r\n            // Buy Order partially fulfilled\r\n            //buy 5b (quantity) for 5a(price)\r\n            //sell 10a(price) for 10b (quantity)\r\n            buyOrders[buyAddress].price = buyOrders[buyAddress].price - sellPrice;\r\n\r\n            buyOrders[buyAddress].quantity = buyOrders[buyAddress].quantity - sellQuantity;\r\n            token1.transfer(sellAddress, buyOrders[buyAddress].price); // Unlock associated collateral and send it back to msg.sender\r\n            \r\n        }\r\n    }\r\n\r\n    // Places a sell order and locks associated collateral\r\n    function placeSell(uint256 _price, uint256 _quantity, address _seller) external {\r\n        // Only one sell order per address\r\n        require(\r\n            sellOrders[_seller].date == 0,\r\n            \"First delete existing sell order\"\r\n        );\r\n        require(\r\n            _price != 0 && _quantity != 0,\r\n            \"Must have nonzero pice and quantity\"\r\n        );\r\n\r\n        // Create a new order in the sell order mapping for _seller\r\n        sellOrders[_seller] = Order(_price, _quantity, block.timestamp, _price/_quantity);\r\n\r\n        /* Add _seller into the appropriate position in the ordering mapping.\r\n         * This is similar to linked list insertion\r\n         */\r\n        address prev = _findPrevSell(_price);\r\n        address temp = nextSell[prev];\r\n        nextSell[prev] = _seller;\r\n        nextSell[_seller] = temp;\r\n\r\n        // Increment the sell count\r\n        sellCount++;\r\n\r\n        /* Transfer the sell order quantity of token2 from the seller to the\r\n         * orderbook contract. This locks the associated collateral\r\n         */\r\n        token2.transferFrom(_seller, address(this), _quantity);\r\n\r\n        // Emit a sell order placed event\r\n        emit SellOrderPlaced(_price/_quantity, _price, _quantity, _seller);\r\n\r\n        if(buyCount > 0){\r\n            address _buyer = nextBuy[BUFFER];\r\n            uint256 k = matchOrders(_buyer, _seller, true);\r\n            if (k!=4){\r\n                completeSellOrder(_buyer,_seller,k, buyOrders[_buyer].price, buyOrders[_buyer].quantity);\r\n                completeBuyOrder(_buyer,_seller,k, _price, _quantity);\r\n            }\r\n        }\r\n    }\r\n\r\n    // Cancels the sell order associated with msg.sender if it exists\r\n    function cancelSell() external {\r\n        require(\r\n            sellOrders[msg.sender].date != 0,\r\n            \"Sell order must already exist\"\r\n        );\r\n\r\n        // Store quantity of sell order to refund msg.sender with correct amount\r\n        uint256 quantity = sellOrders[msg.sender].quantity;\r\n\r\n        // Find the previous address of the msg.sender in the ordering mapping\r\n        address prev = _getPrevious(msg.sender);\r\n\r\n        // Delete msg.sender from ordering mapping. Similar to linked list deletion\r\n        nextSell[prev] = nextSell[msg.sender];\r\n\r\n        // Delete sell order from sell order mapping and ordering mapping\r\n        delete nextSell[msg.sender];\r\n        delete sellOrders[msg.sender];\r\n\r\n        // Decrement sell count\r\n        sellCount--;\r\n\r\n        // console.log(token2.allowance(address(this), msg.sender));\r\n        // Unlock associated collateral and send it back to msg.sender\r\n        token2.transfer(msg.sender, quantity);\r\n\r\n        // Emit a cencel sell order event\r\n        emit CancelSellOrder(msg.sender);\r\n    }\r\n\r\n    function completeSellOrder(address buyAddress, address sellAddress, uint256 k, uint256 buyPrice, uint256 buyQuantity) internal { // Cancels the buy order associated with msg.sender if it exists\r\n        \r\n        uint256 quantity = sellOrders[sellAddress].quantity; // Store quantity of buy order to refund msg.sender with correct amount\r\n        \r\n\r\n        if (k==1 || k==3){\r\n            address prev = _getPrevious(sellAddress); // Find the previous address of the msg.sender in the ordering mapping\r\n            nextSell[prev] = nextSell[sellAddress]; // Delete msg.sender from ordering mapping. Similar to linked list deletion\r\n            // Delete buy order from buy order mapping and ordering mapping\r\n            delete nextSell[sellAddress];\r\n            delete sellOrders[sellAddress];\r\n            sellCount--; // Decrement the buy count\r\n            token2.transfer(buyAddress, quantity); // Unlock associated collateral and send it back to msg.sender\r\n            // emit CancelSellOrder(sellAddress); // Emit a cancel buy order event\r\n        }\r\n        else if (k==2){\r\n            // sell Order partially fulfilled\r\n            sellOrders[sellAddress].quantity = sellOrders[sellAddress].quantity - buyQuantity;\r\n            sellOrders[sellAddress].price = sellOrders[sellAddress].price - buyPrice;\r\n            token2.transfer(buyAddress, sellOrders[sellAddress].quantity);\r\n            \r\n            // emit CancelSellOrder(sellAddress);\r\n            \r\n        }\r\n    }\r\n\r\n    /* Returns the buy side of the orderbook in three separate arrays. The first\r\n     * array contains all the addresses with active buy orders, and the second\r\n     * and third arrays contain the associated prices and quantities of these\r\n     * buy orders respectively. Arrays are returned in descending order\r\n     */\r\n    function getBuySide()\r\n        external\r\n        view\r\n        returns (\r\n            address[] memory,\r\n            uint256[] memory,\r\n            uint256[] memory\r\n        )\r\n    {\r\n        // Instantiate three arrays equal in length to the total buy count\r\n        address[] memory addressTemp = new address[](buyCount);\r\n        uint256[] memory priceTemp = new uint256[](buyCount);\r\n        uint256[] memory quantityTemp = new uint256[](buyCount);\r\n\r\n        // Set current address equal to the first buy order address\r\n        address current = nextBuy[BUFFER];\r\n\r\n        // Iterate through each array and store the corresponding values\r\n        for (uint256 i = 0; i < addressTemp.length; i++) {\r\n            addressTemp[i] = current;\r\n            Order storage order = buyOrders[current];\r\n\r\n            priceTemp[i] = order.price;\r\n            quantityTemp[i] = order.quantity;\r\n\r\n            current = nextBuy[current];\r\n        }\r\n\r\n        // Return the three arrays\r\n        return (addressTemp, priceTemp, quantityTemp);\r\n    }\r\n\r\n    /* Returns the sell side of the orderbook in three separate arrays. The first\r\n     * array contains all the addresses with active sell orders, and the second\r\n     * and third arrays contain the associated prices and quantities of these\r\n     * sell orders respectively. Arrays are returned in ascending order\r\n     */\r\n    function getSellSide()\r\n        external\r\n        view\r\n        returns (\r\n            address[] memory,\r\n            uint256[] memory,\r\n            uint256[] memory\r\n        )\r\n    {\r\n        // Instantiate three arrays equal in length to the total sell count\r\n        address[] memory addressTemp = new address[](sellCount);\r\n        uint256[] memory priceTemp = new uint256[](sellCount);\r\n        uint256[] memory quantityTemp = new uint256[](sellCount);\r\n\r\n        // Set current address equal to the first sell order address\r\n        address current = nextSell[BUFFER];\r\n\r\n        // Iterate through each array and store the corresponding values\r\n        for (uint256 i = 0; i < addressTemp.length; i++) {\r\n            addressTemp[i] = current;\r\n            Order storage order = sellOrders[current];\r\n\r\n            priceTemp[i] = order.price;\r\n            quantityTemp[i] = order.quantity;\r\n\r\n            current = nextSell[current];\r\n        }\r\n\r\n        // Return the three arrays\r\n        return (addressTemp, priceTemp, quantityTemp);\r\n    }\r\n\r\n    /* Returns the spread of the orderbook defined as the absolute value of the\r\n     * difference between the highest buy price and the lowest sell price.\r\n     */\r\n    function getSpread() external view returns (uint256) {\r\n        uint256 bestSell = sellOrders[nextSell[BUFFER]].price;\r\n        uint256 bestBuy = buyOrders[nextBuy[BUFFER]].price;\r\n\r\n        // Return the spread as a positive number (uint must be positive)\r\n        return bestBuy > bestSell ? bestBuy - bestSell : bestSell - bestBuy;\r\n    }\r\n    /* \r\n    */\r\n    function matchOrders(address buyAddress, address sellAddress, bool isBuy) internal view returns (uint256) {\r\n        //If this function is called inside placeBuy AND the new Buy Order matches the Sell Order\r\n        if (isBuy && buyOrders[buyAddress].unitPrice >= sellOrders[sellAddress].unitPrice \r\n            || !isBuy && sellOrders[sellAddress].unitPrice <= buyOrders[buyAddress].unitPrice){\r\n            // If matched Orders have equal quantities\r\n            if (buyOrders[buyAddress].quantity == sellOrders[sellAddress].price){\r\n                return 1;\r\n            }\r\n            // Sell Partial Order\r\n            else if (buyOrders[buyAddress].quantity < sellOrders[sellAddress].price){\r\n                return 2;\r\n            }\r\n            // Buy Partial Order\r\n            else if (buyOrders[buyAddress].quantity > sellOrders[sellAddress].price) {\r\n                return 3;\r\n            }\r\n        }\r\n        else {\r\n            return 4;\r\n        }\r\n\r\n    }\r\n}\r\n",
  "sourcePath": "C:\\Users\\Yu_Hao\\Desktop\\Y3S1\\CZ4153\\Project\\CZ4153-DEX\\frontend\\contracts\\Dex.sol",
  "compiler": {
    "name": "solc",
    "version": "0.8.17+commit.8df45f5f.Emscripten.clang"
  },
  "schemaVersion": "3.4.10",
  "updatedAt": "2022-11-02T08:22:59.156Z",
  "networkType": "ethereum",
  "devdoc": {
    "kind": "dev",
    "methods": {},
    "version": 1
  },
  "userdoc": {
    "kind": "user",
    "methods": {},
    "version": 1
  }
}