{
  "contractName": "Dex",
  "abi": [
    {
      "inputs": [],
      "stateMutability": "nonpayable",
      "type": "constructor"
    },
    {
      "anonymous": false,
      "inputs": [
        {
          "indexed": false,
          "internalType": "address",
          "name": "buyer",
          "type": "address"
        },
        {
          "indexed": false,
          "internalType": "address",
          "name": "buyToken",
          "type": "address"
        },
        {
          "indexed": false,
          "internalType": "uint256",
          "name": "buyAmt",
          "type": "uint256"
        },
        {
          "indexed": false,
          "internalType": "address",
          "name": "payToken",
          "type": "address"
        },
        {
          "indexed": false,
          "internalType": "uint256",
          "name": "payAmt",
          "type": "uint256"
        }
      ],
      "name": "LogBuyOrderPlaced",
      "type": "event"
    },
    {
      "anonymous": false,
      "inputs": [
        {
          "indexed": false,
          "internalType": "address",
          "name": "tokenAddress",
          "type": "address"
        },
        {
          "indexed": false,
          "internalType": "string",
          "name": "tokenName",
          "type": "string"
        },
        {
          "indexed": false,
          "internalType": "string",
          "name": "tokenSymbol",
          "type": "string"
        }
      ],
      "name": "LogTokenCreated",
      "type": "event"
    },
    {
      "anonymous": false,
      "inputs": [
        {
          "indexed": false,
          "internalType": "address",
          "name": "token",
          "type": "address"
        },
        {
          "indexed": false,
          "internalType": "address",
          "name": "receipient",
          "type": "address"
        },
        {
          "indexed": false,
          "internalType": "uint256",
          "name": "amount",
          "type": "uint256"
        }
      ],
      "name": "LogTokenSent",
      "type": "event"
    },
    {
      "inputs": [],
      "name": "owner",
      "outputs": [
        {
          "internalType": "address",
          "name": "",
          "type": "address"
        }
      ],
      "stateMutability": "view",
      "type": "function",
      "constant": true
    },
    {
      "inputs": [
        {
          "internalType": "string",
          "name": "_name",
          "type": "string"
        },
        {
          "internalType": "string",
          "name": "_symbol",
          "type": "string"
        }
      ],
      "name": "createToken",
      "outputs": [],
      "stateMutability": "nonpayable",
      "type": "function"
    },
    {
      "inputs": [
        {
          "internalType": "address",
          "name": "_token",
          "type": "address"
        },
        {
          "internalType": "address",
          "name": "_receipient",
          "type": "address"
        },
        {
          "internalType": "uint256",
          "name": "_amount",
          "type": "uint256"
        }
      ],
      "name": "sendToken",
      "outputs": [],
      "stateMutability": "nonpayable",
      "type": "function"
    },
    {
      "inputs": [],
      "name": "getAvailableTokens",
      "outputs": [
        {
          "internalType": "address[]",
          "name": "",
          "type": "address[]"
        }
      ],
      "stateMutability": "view",
      "type": "function",
      "constant": true
    },
    {
      "inputs": [
        {
          "internalType": "address",
          "name": "_token",
          "type": "address"
        }
      ],
      "name": "getTokenName",
      "outputs": [
        {
          "internalType": "string",
          "name": "",
          "type": "string"
        }
      ],
      "stateMutability": "view",
      "type": "function",
      "constant": true
    },
    {
      "inputs": [
        {
          "internalType": "address",
          "name": "_token",
          "type": "address"
        }
      ],
      "name": "getTokenBalance",
      "outputs": [
        {
          "internalType": "uint256",
          "name": "",
          "type": "uint256"
        }
      ],
      "stateMutability": "view",
      "type": "function",
      "constant": true
    },
    {
      "inputs": [
        {
          "internalType": "address",
          "name": "_buyToken",
          "type": "address"
        },
        {
          "internalType": "uint256",
          "name": "_buyAmt",
          "type": "uint256"
        },
        {
          "internalType": "address",
          "name": "_payToken",
          "type": "address"
        },
        {
          "internalType": "uint256",
          "name": "_payAmt",
          "type": "uint256"
        }
      ],
      "name": "buy",
      "outputs": [],
      "stateMutability": "nonpayable",
      "type": "function"
    },
    {
      "inputs": [
        {
          "internalType": "address",
          "name": "_token1",
          "type": "address"
        },
        {
          "internalType": "address",
          "name": "_token2",
          "type": "address"
        }
      ],
      "name": "getOrderbookAddress",
      "outputs": [
        {
          "internalType": "address",
          "name": "",
          "type": "address"
        },
        {
          "internalType": "address",
          "name": "",
          "type": "address"
        },
        {
          "internalType": "address",
          "name": "",
          "type": "address"
        }
      ],
      "stateMutability": "view",
      "type": "function",
      "constant": true
    },
    {
      "inputs": [
        {
          "internalType": "address",
          "name": "_token1",
          "type": "address"
        },
        {
          "internalType": "address",
          "name": "_token2",
          "type": "address"
        }
      ],
      "name": "addTokenPair",
      "outputs": [
        {
          "internalType": "address",
          "name": "",
          "type": "address"
        }
      ],
      "stateMutability": "nonpayable",
      "type": "function"
    },
    {
      "inputs": [
        {
          "internalType": "address",
          "name": "_token1",
          "type": "address"
        },
        {
          "internalType": "address",
          "name": "_token2",
          "type": "address"
        }
      ],
      "name": "getBuyOrders",
      "outputs": [
        {
          "internalType": "address[]",
          "name": "",
          "type": "address[]"
        },
        {
          "internalType": "uint256[]",
          "name": "",
          "type": "uint256[]"
        },
        {
          "internalType": "uint256[]",
          "name": "",
          "type": "uint256[]"
        }
      ],
      "stateMutability": "view",
      "type": "function",
      "constant": true
    }
  ],
  "bytecode": "0x6080604052604051610010906100c8565b604051809103906000f08015801561002c573d6000803e3d6000fd5b50600360006101000a81548173ffffffffffffffffffffffffffffffffffffffff021916908373ffffffffffffffffffffffffffffffffffffffff16021790555034801561007957600080fd5b5033600460006101000a81548173ffffffffffffffffffffffffffffffffffffffff021916908373ffffffffffffffffffffffffffffffffffffffff16021790555060006002819055506100d6565b612f14806200436d83390190565b61428780620000e66000396000f3fe60806040523480156200001157600080fd5b5060043610620000ac5760003560e01c80636f0fccab116200006f5780636f0fccab14620001975780638da5cb5b14620001cd578063a7c87ec214620001ef578063b3ffb7601462000225578063e35568cb146200024557620000ac565b80630633fe0114620000b15780632f2f2d5614620000e95780632fdcfbd214620001095780633aecd0e314620001295780635dc572f9146200015f575b600080fd5b620000cf6004803603810190620000c9919062001422565b62000267565b604051620000e0939291906200147a565b60405180910390f35b62000107600480360381019062000101919062001619565b62000399565b005b620001276004803603810190620001219190620016d9565b620005a7565b005b62000147600480360381019062000141919062001735565b62000764565b60405162000156919062001778565b60405180910390f35b6200017d600480360381019062000177919062001422565b6200084f565b6040516200018e9392919062001931565b60405180910390f35b620001b56004803603810190620001af919062001735565b62000b0d565b604051620001c4919062001a0c565b60405180910390f35b620001d762000bf1565b604051620001e6919062001a30565b60405180910390f35b6200020d600480360381019062000207919062001422565b62000c17565b6040516200021c919062001a30565b60405180910390f35b6200024360048036038101906200023d919062001a4d565b62000dd2565b005b6200024f620011fb565b6040516200025e919062001abf565b60405180910390f35b60008060008060008573ffffffffffffffffffffffffffffffffffffffff168773ffffffffffffffffffffffffffffffffffffffff161115620002b057869150859050620002b7565b8591508690505b60008282604051602001620002ce92919062001b33565b604051602081830303815290604052805190602001209050600360009054906101000a900473ffffffffffffffffffffffffffffffffffffffff1673ffffffffffffffffffffffffffffffffffffffff1663ac572315826040518263ffffffff1660e01b815260040162000343919062001b7e565b602060405180830381865afa15801562000361573d6000803e3d6000fd5b505050506040513d601f19601f8201168201806040525081019062000387919062001bb2565b83839550955095505050509250925092565b3373ffffffffffffffffffffffffffffffffffffffff16600460009054906101000a900473ffffffffffffffffffffffffffffffffffffffff1673ffffffffffffffffffffffffffffffffffffffff16146200042c576040517f08c379a0000000000000000000000000000000000000000000000000000000008152600401620004239062001c5a565b60405180910390fd5b600082826040516200043e906200139b565b6200044b92919062001c7c565b604051809103906000f08015801562000468573d6000803e3d6000fd5b509050806000808373ffffffffffffffffffffffffffffffffffffffff1673ffffffffffffffffffffffffffffffffffffffff16815260200190815260200160002060006101000a81548173ffffffffffffffffffffffffffffffffffffffff021916908373ffffffffffffffffffffffffffffffffffffffff1602179055506001819080600181540180825580915050600190039060005260206000200160009091909190916101000a81548173ffffffffffffffffffffffffffffffffffffffff021916908373ffffffffffffffffffffffffffffffffffffffff16021790555060026000815480929190620005609062001ce6565b91905055507f28258920a6a347f90c2201ff8bd92b5b7a00bbf5c88c5fce1a1fb42c6546e7108184846040516200059a9392919062001d33565b60405180910390a1505050565b3373ffffffffffffffffffffffffffffffffffffffff16600460009054906101000a900473ffffffffffffffffffffffffffffffffffffffff1673ffffffffffffffffffffffffffffffffffffffff16146200063a576040517f08c379a0000000000000000000000000000000000000000000000000000000008152600401620006319062001dce565b60405180910390fd5b60008060008573ffffffffffffffffffffffffffffffffffffffff1673ffffffffffffffffffffffffffffffffffffffff16815260200190815260200160002060009054906101000a900473ffffffffffffffffffffffffffffffffffffffff1690508073ffffffffffffffffffffffffffffffffffffffff1663a9059cbb84846040518363ffffffff1660e01b8152600401620006da92919062001df0565b6020604051808303816000875af1158015620006fa573d6000803e3d6000fd5b505050506040513d601f19601f8201168201806040525081019062000720919062001e5a565b507faa8d76b5ad42bc1fee99a7520271a35d2442ee3ff95215fbc2b4856af9616888848484604051620007569392919062001e8c565b60405180910390a150505050565b6000806000808473ffffffffffffffffffffffffffffffffffffffff1673ffffffffffffffffffffffffffffffffffffffff16815260200190815260200160002060009054906101000a900473ffffffffffffffffffffffffffffffffffffffff1690508073ffffffffffffffffffffffffffffffffffffffff166370a08231336040518263ffffffff1660e01b815260040162000803919062001a30565b602060405180830381865afa15801562000821573d6000803e3d6000fd5b505050506040513d601f19601f8201168201806040525081019062000847919062001ee0565b915050919050565b60608060606000808573ffffffffffffffffffffffffffffffffffffffff168773ffffffffffffffffffffffffffffffffffffffff16111562000898578691508590506200089f565b8591508690505b60008282604051602001620008b692919062001b33565b604051602081830303815290604052805190602001209050600073ffffffffffffffffffffffffffffffffffffffff16600360009054906101000a900473ffffffffffffffffffffffffffffffffffffffff1673ffffffffffffffffffffffffffffffffffffffff1663ac572315836040518263ffffffff1660e01b815260040162000943919062001b7e565b602060405180830381865afa15801562000961573d6000803e3d6000fd5b505050506040513d601f19601f8201168201806040525081019062000987919062001bb2565b73ffffffffffffffffffffffffffffffffffffffff1603620009e0576040517f08c379a0000000000000000000000000000000000000000000000000000000008152600401620009d79062001f62565b60405180910390fd5b6000600360009054906101000a900473ffffffffffffffffffffffffffffffffffffffff1673ffffffffffffffffffffffffffffffffffffffff1663ac572315836040518263ffffffff1660e01b815260040162000a3f919062001b7e565b602060405180830381865afa15801562000a5d573d6000803e3d6000fd5b505050506040513d601f19601f8201168201806040525081019062000a83919062001bb2565b90508073ffffffffffffffffffffffffffffffffffffffff16630e07df0b6040518163ffffffff1660e01b8152600401600060405180830381865afa15801562000ad1573d6000803e3d6000fd5b505050506040513d6000823e3d601f19601f8201168201806040525081019062000afc919062002135565b965096509650505050509250925092565b606060008060008473ffffffffffffffffffffffffffffffffffffffff1673ffffffffffffffffffffffffffffffffffffffff16815260200190815260200160002060009054906101000a900473ffffffffffffffffffffffffffffffffffffffff1690508073ffffffffffffffffffffffffffffffffffffffff166306fdde036040518163ffffffff1660e01b8152600401600060405180830381865afa15801562000bbe573d6000803e3d6000fd5b505050506040513d6000823e3d601f19601f8201168201806040525081019062000be991906200226c565b915050919050565b600460009054906101000a900473ffffffffffffffffffffffffffffffffffffffff1681565b6000600360009054906101000a900473ffffffffffffffffffffffffffffffffffffffff1673ffffffffffffffffffffffffffffffffffffffff1663b6f3e08784846040518363ffffffff1660e01b815260040162000c78929190620022bd565b600060405180830381600087803b15801562000c9357600080fd5b505af115801562000ca8573d6000803e3d6000fd5b505050506000808373ffffffffffffffffffffffffffffffffffffffff168573ffffffffffffffffffffffffffffffffffffffff16111562000cf05784915083905062000cf7565b8391508490505b6000828260405160200162000d0e92919062001b33565b604051602081830303815290604052805190602001209050600360009054906101000a900473ffffffffffffffffffffffffffffffffffffffff1673ffffffffffffffffffffffffffffffffffffffff1663ac572315826040518263ffffffff1660e01b815260040162000d83919062001b7e565b602060405180830381865afa15801562000da1573d6000803e3d6000fd5b505050506040513d601f19601f8201168201806040525081019062000dc7919062001bb2565b935050505092915050565b6000808373ffffffffffffffffffffffffffffffffffffffff168673ffffffffffffffffffffffffffffffffffffffff16111562000e165785915083905062000e1d565b8391508590505b6000828260405160200162000e3492919062001b33565b604051602081830303815290604052805190602001209050600073ffffffffffffffffffffffffffffffffffffffff16600360009054906101000a900473ffffffffffffffffffffffffffffffffffffffff1673ffffffffffffffffffffffffffffffffffffffff1663ac572315836040518263ffffffff1660e01b815260040162000ec1919062001b7e565b602060405180830381865afa15801562000edf573d6000803e3d6000fd5b505050506040513d601f19601f8201168201806040525081019062000f05919062001bb2565b73ffffffffffffffffffffffffffffffffffffffff160362000fb557600360009054906101000a900473ffffffffffffffffffffffffffffffffffffffff1673ffffffffffffffffffffffffffffffffffffffff1663b6f3e08784846040518363ffffffff1660e01b815260040162000f80929190620022bd565b600060405180830381600087803b15801562000f9b57600080fd5b505af115801562000fb0573d6000803e3d6000fd5b505050505b6000600360009054906101000a900473ffffffffffffffffffffffffffffffffffffffff1673ffffffffffffffffffffffffffffffffffffffff1663ac572315836040518263ffffffff1660e01b815260040162001014919062001b7e565b602060405180830381865afa15801562001032573d6000803e3d6000fd5b505050506040513d601f19601f8201168201806040525081019062001058919062001bb2565b90508373ffffffffffffffffffffffffffffffffffffffff168873ffffffffffffffffffffffffffffffffffffffff160362001107578073ffffffffffffffffffffffffffffffffffffffff16633f9016238887336040518463ffffffff1660e01b8152600401620010cd93929190620022ea565b600060405180830381600087803b158015620010e857600080fd5b505af1158015620010fd573d6000803e3d6000fd5b50505050620011b0565b8273ffffffffffffffffffffffffffffffffffffffff168873ffffffffffffffffffffffffffffffffffffffff1603620011af578073ffffffffffffffffffffffffffffffffffffffff1663169aab8d8689336040518463ffffffff1660e01b81526004016200117a93929190620022ea565b600060405180830381600087803b1580156200119557600080fd5b505af1158015620011aa573d6000803e3d6000fd5b505050505b5b7feddedc0bf3dc5c30b827ed2d896584c9178961d6ac9b1348586418ee92013b3d3389898989604051620011e995949392919062002327565b60405180910390a15050505050505050565b6060600060025467ffffffffffffffff8111156200121e576200121d620014d2565b5b6040519080825280602002602001820160405280156200124d5781602001602082028036833780820191505090505b50905060005b6002548110156200139357600073ffffffffffffffffffffffffffffffffffffffff16600182815481106200128d576200128c62002384565b5b9060005260206000200160009054906101000a900473ffffffffffffffffffffffffffffffffffffffff1673ffffffffffffffffffffffffffffffffffffffff1603620012ea578080620012e190620023b3565b9150506200137d565b6001818154811062001301576200130062002384565b5b9060005260206000200160009054906101000a900473ffffffffffffffffffffffffffffffffffffffff1682828151811062001342576200134162002384565b5b602002602001019073ffffffffffffffffffffffffffffffffffffffff16908173ffffffffffffffffffffffffffffffffffffffff16815250505b80806200138a9062001ce6565b91505062001253565b508091505090565b611e7080620023e283390190565b6000604051905090565b600080fd5b600080fd5b600073ffffffffffffffffffffffffffffffffffffffff82169050919050565b6000620013ea82620013bd565b9050919050565b620013fc81620013dd565b81146200140857600080fd5b50565b6000813590506200141c81620013f1565b92915050565b600080604083850312156200143c576200143b620013b3565b5b60006200144c858286016200140b565b92505060206200145f858286016200140b565b9150509250929050565b6200147481620013dd565b82525050565b600060608201905062001491600083018662001469565b620014a0602083018562001469565b620014af604083018462001469565b949350505050565b600080fd5b600080fd5b6000601f19601f8301169050919050565b7f4e487b7100000000000000000000000000000000000000000000000000000000600052604160045260246000fd5b6200150c82620014c1565b810181811067ffffffffffffffff821117156200152e576200152d620014d2565b5b80604052505050565b600062001543620013a9565b905062001551828262001501565b919050565b600067ffffffffffffffff821115620015745762001573620014d2565b5b6200157f82620014c1565b9050602081019050919050565b82818337600083830152505050565b6000620015b2620015ac8462001556565b62001537565b905082815260208101848484011115620015d157620015d0620014bc565b5b620015de8482856200158c565b509392505050565b600082601f830112620015fe57620015fd620014b7565b5b8135620016108482602086016200159b565b91505092915050565b60008060408385031215620016335762001632620013b3565b5b600083013567ffffffffffffffff811115620016545762001653620013b8565b5b6200166285828601620015e6565b925050602083013567ffffffffffffffff811115620016865762001685620013b8565b5b6200169485828601620015e6565b9150509250929050565b6000819050919050565b620016b3816200169e565b8114620016bf57600080fd5b50565b600081359050620016d381620016a8565b92915050565b600080600060608486031215620016f557620016f4620013b3565b5b600062001705868287016200140b565b935050602062001718868287016200140b565b92505060406200172b86828701620016c2565b9150509250925092565b6000602082840312156200174e576200174d620013b3565b5b60006200175e848285016200140b565b91505092915050565b62001772816200169e565b82525050565b60006020820190506200178f600083018462001767565b92915050565b600081519050919050565b600082825260208201905092915050565b6000819050602082019050919050565b620017cc81620013dd565b82525050565b6000620017e08383620017c1565b60208301905092915050565b6000602082019050919050565b6000620018068262001795565b620018128185620017a0565b93506200181f83620017b1565b8060005b83811015620018565781516200183a8882620017d2565b97506200184783620017ec565b92505060018101905062001823565b5085935050505092915050565b600081519050919050565b600082825260208201905092915050565b6000819050602082019050919050565b6200189a816200169e565b82525050565b6000620018ae83836200188f565b60208301905092915050565b6000602082019050919050565b6000620018d48262001863565b620018e081856200186e565b9350620018ed836200187f565b8060005b8381101562001924578151620019088882620018a0565b97506200191583620018ba565b925050600181019050620018f1565b5085935050505092915050565b600060608201905081810360008301526200194d8186620017f9565b90508181036020830152620019638185620018c7565b90508181036040830152620019798184620018c7565b9050949350505050565b600081519050919050565b600082825260208201905092915050565b60005b83811015620019bf578082015181840152602081019050620019a2565b60008484015250505050565b6000620019d88262001983565b620019e481856200198e565b9350620019f68185602086016200199f565b62001a0181620014c1565b840191505092915050565b6000602082019050818103600083015262001a288184620019cb565b905092915050565b600060208201905062001a47600083018462001469565b92915050565b6000806000806080858703121562001a6a5762001a69620013b3565b5b600062001a7a878288016200140b565b945050602062001a8d87828801620016c2565b935050604062001aa0878288016200140b565b925050606062001ab387828801620016c2565b91505092959194509250565b6000602082019050818103600083015262001adb8184620017f9565b905092915050565b60008160601b9050919050565b600062001afd8262001ae3565b9050919050565b600062001b118262001af0565b9050919050565b62001b2d62001b2782620013dd565b62001b04565b82525050565b600062001b41828562001b18565b60148201915062001b53828462001b18565b6014820191508190509392505050565b6000819050919050565b62001b788162001b63565b82525050565b600060208201905062001b95600083018462001b6d565b92915050565b60008151905062001bac81620013f1565b92915050565b60006020828403121562001bcb5762001bca620013b3565b5b600062001bdb8482850162001b9b565b91505092915050565b7f4f6e6c7920746865206f776e65722063616e2063726561746520746f6b656e7360008201527f2100000000000000000000000000000000000000000000000000000000000000602082015250565b600062001c426021836200198e565b915062001c4f8262001be4565b604082019050919050565b6000602082019050818103600083015262001c758162001c33565b9050919050565b6000604082019050818103600083015262001c988185620019cb565b9050818103602083015262001cae8184620019cb565b90509392505050565b7f4e487b7100000000000000000000000000000000000000000000000000000000600052601160045260246000fd5b600062001cf3826200169e565b91507fffffffffffffffffffffffffffffffffffffffffffffffffffffffffffffffff820362001d285762001d2762001cb7565b5b600182019050919050565b600060608201905062001d4a600083018662001469565b818103602083015262001d5e8185620019cb565b9050818103604083015262001d748184620019cb565b9050949350505050565b7f4f6e6c7920746865206f776e65722063616e2073656e6420746f6b656e732100600082015250565b600062001db6601f836200198e565b915062001dc38262001d7e565b602082019050919050565b6000602082019050818103600083015262001de98162001da7565b9050919050565b600060408201905062001e07600083018562001469565b62001e16602083018462001767565b9392505050565b60008115159050919050565b62001e348162001e1d565b811462001e4057600080fd5b50565b60008151905062001e548162001e29565b92915050565b60006020828403121562001e735762001e72620013b3565b5b600062001e838482850162001e43565b91505092915050565b600060608201905062001ea3600083018662001469565b62001eb2602083018562001469565b62001ec1604083018462001767565b949350505050565b60008151905062001eda81620016a8565b92915050565b60006020828403121562001ef95762001ef8620013b3565b5b600062001f098482850162001ec9565b91505092915050565b7f6f72646572626f6f6b20646f65736e7420657869737421000000000000000000600082015250565b600062001f4a6017836200198e565b915062001f578262001f12565b602082019050919050565b6000602082019050818103600083015262001f7d8162001f3b565b9050919050565b600067ffffffffffffffff82111562001fa25762001fa1620014d2565b5b602082029050602081019050919050565b600080fd5b600062001fcf62001fc98462001f84565b62001537565b9050808382526020820190506020840283018581111562001ff55762001ff462001fb3565b5b835b818110156200202257806200200d888262001b9b565b84526020840193505060208101905062001ff7565b5050509392505050565b600082601f830112620020445762002043620014b7565b5b81516200205684826020860162001fb8565b91505092915050565b600067ffffffffffffffff8211156200207d576200207c620014d2565b5b602082029050602081019050919050565b6000620020a56200209f846200205f565b62001537565b90508083825260208201905060208402830185811115620020cb57620020ca62001fb3565b5b835b81811015620020f85780620020e3888262001ec9565b845260208401935050602081019050620020cd565b5050509392505050565b600082601f8301126200211a5762002119620014b7565b5b81516200212c8482602086016200208e565b91505092915050565b600080600060608486031215620021515762002150620013b3565b5b600084015167ffffffffffffffff811115620021725762002171620013b8565b5b62002180868287016200202c565b935050602084015167ffffffffffffffff811115620021a457620021a3620013b8565b5b620021b28682870162002102565b925050604084015167ffffffffffffffff811115620021d657620021d5620013b8565b5b620021e48682870162002102565b9150509250925092565b600062002205620021ff8462001556565b62001537565b905082815260208101848484011115620022245762002223620014bc565b5b620022318482856200199f565b509392505050565b600082601f830112620022515762002250620014b7565b5b815162002263848260208601620021ee565b91505092915050565b600060208284031215620022855762002284620013b3565b5b600082015167ffffffffffffffff811115620022a657620022a5620013b8565b5b620022b48482850162002239565b91505092915050565b6000604082019050620022d4600083018562001469565b620022e3602083018462001469565b9392505050565b600060608201905062002301600083018662001767565b62002310602083018562001767565b6200231f604083018462001469565b949350505050565b600060a0820190506200233e600083018862001469565b6200234d602083018762001469565b6200235c604083018662001767565b6200236b606083018562001469565b6200237a608083018462001767565b9695505050505050565b7f4e487b7100000000000000000000000000000000000000000000000000000000600052603260045260246000fd5b6000620023c0826200169e565b915060008203620023d657620023d562001cb7565b5b60018203905091905056fe60806040523480156200001157600080fd5b5060405162001e7038038062001e708339818101604052810190620000379190620003d1565b818181600390816200004a9190620006a1565b5080600490816200005c9190620006a1565b50505033600560006101000a81548173ffffffffffffffffffffffffffffffffffffffff021916908373ffffffffffffffffffffffffffffffffffffffff160217905550620000b4336103e8620000bc60201b60201c565b5050620008a3565b600073ffffffffffffffffffffffffffffffffffffffff168273ffffffffffffffffffffffffffffffffffffffff16036200012e576040517f08c379a00000000000000000000000000000000000000000000000000000000081526004016200012590620007e9565b60405180910390fd5b62000142600083836200023460201b60201c565b80600260008282546200015691906200083a565b92505081905550806000808473ffffffffffffffffffffffffffffffffffffffff1673ffffffffffffffffffffffffffffffffffffffff1681526020019081526020016000206000828254620001ad91906200083a565b925050819055508173ffffffffffffffffffffffffffffffffffffffff16600073ffffffffffffffffffffffffffffffffffffffff167fddf252ad1be2c89b69c2b068fc378daa952ba7f163c4a11628f55a4df523b3ef8360405162000214919062000886565b60405180910390a362000230600083836200023960201b60201c565b5050565b505050565b505050565b6000604051905090565b600080fd5b600080fd5b600080fd5b600080fd5b6000601f19601f8301169050919050565b7f4e487b7100000000000000000000000000000000000000000000000000000000600052604160045260246000fd5b620002a7826200025c565b810181811067ffffffffffffffff82111715620002c957620002c86200026d565b5b80604052505050565b6000620002de6200023e565b9050620002ec82826200029c565b919050565b600067ffffffffffffffff8211156200030f576200030e6200026d565b5b6200031a826200025c565b9050602081019050919050565b60005b83811015620003475780820151818401526020810190506200032a565b60008484015250505050565b60006200036a6200036484620002f1565b620002d2565b90508281526020810184848401111562000389576200038862000257565b5b6200039684828562000327565b509392505050565b600082601f830112620003b657620003b562000252565b5b8151620003c884826020860162000353565b91505092915050565b60008060408385031215620003eb57620003ea62000248565b5b600083015167ffffffffffffffff8111156200040c576200040b6200024d565b5b6200041a858286016200039e565b925050602083015167ffffffffffffffff8111156200043e576200043d6200024d565b5b6200044c858286016200039e565b9150509250929050565b600081519050919050565b7f4e487b7100000000000000000000000000000000000000000000000000000000600052602260045260246000fd5b60006002820490506001821680620004a957607f821691505b602082108103620004bf57620004be62000461565b5b50919050565b60008190508160005260206000209050919050565b60006020601f8301049050919050565b600082821b905092915050565b600060088302620005297fffffffffffffffffffffffffffffffffffffffffffffffffffffffffffffffff82620004ea565b620005358683620004ea565b95508019841693508086168417925050509392505050565b6000819050919050565b6000819050919050565b6000620005826200057c62000576846200054d565b62000557565b6200054d565b9050919050565b6000819050919050565b6200059e8362000561565b620005b6620005ad8262000589565b848454620004f7565b825550505050565b600090565b620005cd620005be565b620005da81848462000593565b505050565b5b818110156200060257620005f6600082620005c3565b600181019050620005e0565b5050565b601f82111562000651576200061b81620004c5565b6200062684620004da565b8101602085101562000636578190505b6200064e6200064585620004da565b830182620005df565b50505b505050565b600082821c905092915050565b6000620006766000198460080262000656565b1980831691505092915050565b600062000691838362000663565b9150826002028217905092915050565b620006ac8262000456565b67ffffffffffffffff811115620006c857620006c76200026d565b5b620006d4825462000490565b620006e182828562000606565b600060209050601f83116001811462000719576000841562000704578287015190505b62000710858262000683565b86555062000780565b601f1984166200072986620004c5565b60005b8281101562000753578489015182556001820191506020850194506020810190506200072c565b868310156200077357848901516200076f601f89168262000663565b8355505b6001600288020188555050505b505050505050565b600082825260208201905092915050565b7f45524332303a206d696e7420746f20746865207a65726f206164647265737300600082015250565b6000620007d1601f8362000788565b9150620007de8262000799565b602082019050919050565b600060208201905081810360008301526200080481620007c2565b9050919050565b7f4e487b7100000000000000000000000000000000000000000000000000000000600052601160045260246000fd5b600062000847826200054d565b915062000854836200054d565b92508282019050808211156200086f576200086e6200080b565b5b92915050565b62000880816200054d565b82525050565b60006020820190506200089d600083018462000875565b92915050565b6115bd80620008b36000396000f3fe608060405234801561001057600080fd5b50600436106100cf5760003560e01c806340c10f191161008c578063a457c2d711610066578063a457c2d714610228578063a9059cbb14610258578063dd62ed3e14610288578063f851a440146102b8576100cf565b806340c10f19146101be57806370a08231146101da57806395d89b411461020a576100cf565b806306fdde03146100d4578063095ea7b3146100f257806318160ddd1461012257806323b872dd14610140578063313ce56714610170578063395093511461018e575b600080fd5b6100dc6102d6565b6040516100e99190610d98565b60405180910390f35b61010c60048036038101906101079190610e53565b610368565b6040516101199190610eae565b60405180910390f35b61012a61038b565b6040516101379190610ed8565b60405180910390f35b61015a60048036038101906101559190610ef3565b610395565b6040516101679190610eae565b60405180910390f35b6101786103c4565b6040516101859190610f62565b60405180910390f35b6101a860048036038101906101a39190610e53565b6103cd565b6040516101b59190610eae565b60405180910390f35b6101d860048036038101906101d39190610e53565b610404565b005b6101f460048036038101906101ef9190610f7d565b6104a2565b6040516102019190610ed8565b60405180910390f35b6102126104ea565b60405161021f9190610d98565b60405180910390f35b610242600480360381019061023d9190610e53565b61057c565b60405161024f9190610eae565b60405180910390f35b610272600480360381019061026d9190610e53565b6105f3565b60405161027f9190610eae565b60405180910390f35b6102a2600480360381019061029d9190610faa565b610616565b6040516102af9190610ed8565b60405180910390f35b6102c061069d565b6040516102cd9190610ff9565b60405180910390f35b6060600380546102e590611043565b80601f016020809104026020016040519081016040528092919081815260200182805461031190611043565b801561035e5780601f106103335761010080835404028352916020019161035e565b820191906000526020600020905b81548152906001019060200180831161034157829003601f168201915b5050505050905090565b6000806103736106c3565b90506103808185856106cb565b600191505092915050565b6000600254905090565b6000806103a06106c3565b90506103ad858285610894565b6103b8858585610920565b60019150509392505050565b60006012905090565b6000806103d86106c3565b90506103f98185856103ea8589610616565b6103f491906110a3565b6106cb565b600191505092915050565b600560009054906101000a900473ffffffffffffffffffffffffffffffffffffffff1673ffffffffffffffffffffffffffffffffffffffff163373ffffffffffffffffffffffffffffffffffffffff1614610494576040517f08c379a000000000000000000000000000000000000000000000000000000000815260040161048b90611123565b60405180910390fd5b61049e8282610b9f565b5050565b60008060008373ffffffffffffffffffffffffffffffffffffffff1673ffffffffffffffffffffffffffffffffffffffff168152602001908152602001600020549050919050565b6060600480546104f990611043565b80601f016020809104026020016040519081016040528092919081815260200182805461052590611043565b80156105725780601f1061054757610100808354040283529160200191610572565b820191906000526020600020905b81548152906001019060200180831161055557829003601f168201915b5050505050905090565b6000806105876106c3565b905060006105958286610616565b9050838110156105da576040517f08c379a00000000000000000000000000000000000000000000000000000000081526004016105d1906111b5565b60405180910390fd5b6105e782868684036106cb565b60019250505092915050565b6000806105fe6106c3565b905061060b818585610920565b600191505092915050565b6000600160008473ffffffffffffffffffffffffffffffffffffffff1673ffffffffffffffffffffffffffffffffffffffff16815260200190815260200160002060008373ffffffffffffffffffffffffffffffffffffffff1673ffffffffffffffffffffffffffffffffffffffff16815260200190815260200160002054905092915050565b600560009054906101000a900473ffffffffffffffffffffffffffffffffffffffff1681565b600033905090565b600073ffffffffffffffffffffffffffffffffffffffff168373ffffffffffffffffffffffffffffffffffffffff160361073a576040517f08c379a000000000000000000000000000000000000000000000000000000000815260040161073190611247565b60405180910390fd5b600073ffffffffffffffffffffffffffffffffffffffff168273ffffffffffffffffffffffffffffffffffffffff16036107a9576040517f08c379a00000000000000000000000000000000000000000000000000000000081526004016107a0906112d9565b60405180910390fd5b80600160008573ffffffffffffffffffffffffffffffffffffffff1673ffffffffffffffffffffffffffffffffffffffff16815260200190815260200160002060008473ffffffffffffffffffffffffffffffffffffffff1673ffffffffffffffffffffffffffffffffffffffff168152602001908152602001600020819055508173ffffffffffffffffffffffffffffffffffffffff168373ffffffffffffffffffffffffffffffffffffffff167f8c5be1e5ebec7d5bd14f71427d1e84f3dd0314c0f7b2291e5b200ac8c7c3b925836040516108879190610ed8565b60405180910390a3505050565b60006108a08484610616565b90507fffffffffffffffffffffffffffffffffffffffffffffffffffffffffffffffff811461091a578181101561090c576040517f08c379a000000000000000000000000000000000000000000000000000000000815260040161090390611345565b60405180910390fd5b61091984848484036106cb565b5b50505050565b600073ffffffffffffffffffffffffffffffffffffffff168373ffffffffffffffffffffffffffffffffffffffff160361098f576040517f08c379a0000000000000000000000000000000000000000000000000000000008152600401610986906113d7565b60405180910390fd5b600073ffffffffffffffffffffffffffffffffffffffff168273ffffffffffffffffffffffffffffffffffffffff16036109fe576040517f08c379a00000000000000000000000000000000000000000000000000000000081526004016109f590611469565b60405180910390fd5b610a09838383610cfe565b60008060008573ffffffffffffffffffffffffffffffffffffffff1673ffffffffffffffffffffffffffffffffffffffff16815260200190815260200160002054905081811015610a8f576040517f08c379a0000000000000000000000000000000000000000000000000000000008152600401610a86906114fb565b60405180910390fd5b8181036000808673ffffffffffffffffffffffffffffffffffffffff1673ffffffffffffffffffffffffffffffffffffffff16815260200190815260200160002081905550816000808573ffffffffffffffffffffffffffffffffffffffff1673ffffffffffffffffffffffffffffffffffffffff1681526020019081526020016000206000828254610b2291906110a3565b925050819055508273ffffffffffffffffffffffffffffffffffffffff168473ffffffffffffffffffffffffffffffffffffffff167fddf252ad1be2c89b69c2b068fc378daa952ba7f163c4a11628f55a4df523b3ef84604051610b869190610ed8565b60405180910390a3610b99848484610d03565b50505050565b600073ffffffffffffffffffffffffffffffffffffffff168273ffffffffffffffffffffffffffffffffffffffff1603610c0e576040517f08c379a0000000000000000000000000000000000000000000000000000000008152600401610c0590611567565b60405180910390fd5b610c1a60008383610cfe565b8060026000828254610c2c91906110a3565b92505081905550806000808473ffffffffffffffffffffffffffffffffffffffff1673ffffffffffffffffffffffffffffffffffffffff1681526020019081526020016000206000828254610c8191906110a3565b925050819055508173ffffffffffffffffffffffffffffffffffffffff16600073ffffffffffffffffffffffffffffffffffffffff167fddf252ad1be2c89b69c2b068fc378daa952ba7f163c4a11628f55a4df523b3ef83604051610ce69190610ed8565b60405180910390a3610cfa60008383610d03565b5050565b505050565b505050565b600081519050919050565b600082825260208201905092915050565b60005b83811015610d42578082015181840152602081019050610d27565b60008484015250505050565b6000601f19601f8301169050919050565b6000610d6a82610d08565b610d748185610d13565b9350610d84818560208601610d24565b610d8d81610d4e565b840191505092915050565b60006020820190508181036000830152610db28184610d5f565b905092915050565b600080fd5b600073ffffffffffffffffffffffffffffffffffffffff82169050919050565b6000610dea82610dbf565b9050919050565b610dfa81610ddf565b8114610e0557600080fd5b50565b600081359050610e1781610df1565b92915050565b6000819050919050565b610e3081610e1d565b8114610e3b57600080fd5b50565b600081359050610e4d81610e27565b92915050565b60008060408385031215610e6a57610e69610dba565b5b6000610e7885828601610e08565b9250506020610e8985828601610e3e565b9150509250929050565b60008115159050919050565b610ea881610e93565b82525050565b6000602082019050610ec36000830184610e9f565b92915050565b610ed281610e1d565b82525050565b6000602082019050610eed6000830184610ec9565b92915050565b600080600060608486031215610f0c57610f0b610dba565b5b6000610f1a86828701610e08565b9350506020610f2b86828701610e08565b9250506040610f3c86828701610e3e565b9150509250925092565b600060ff82169050919050565b610f5c81610f46565b82525050565b6000602082019050610f776000830184610f53565b92915050565b600060208284031215610f9357610f92610dba565b5b6000610fa184828501610e08565b91505092915050565b60008060408385031215610fc157610fc0610dba565b5b6000610fcf85828601610e08565b9250506020610fe085828601610e08565b9150509250929050565b610ff381610ddf565b82525050565b600060208201905061100e6000830184610fea565b92915050565b7f4e487b7100000000000000000000000000000000000000000000000000000000600052602260045260246000fd5b6000600282049050600182168061105b57607f821691505b60208210810361106e5761106d611014565b5b50919050565b7f4e487b7100000000000000000000000000000000000000000000000000000000600052601160045260246000fd5b60006110ae82610e1d565b91506110b983610e1d565b92508282019050808211156110d1576110d0611074565b5b92915050565b7f4f6e6c792061646d696e2063616e206d696e7400000000000000000000000000600082015250565b600061110d601383610d13565b9150611118826110d7565b602082019050919050565b6000602082019050818103600083015261113c81611100565b9050919050565b7f45524332303a2064656372656173656420616c6c6f77616e63652062656c6f7760008201527f207a65726f000000000000000000000000000000000000000000000000000000602082015250565b600061119f602583610d13565b91506111aa82611143565b604082019050919050565b600060208201905081810360008301526111ce81611192565b9050919050565b7f45524332303a20617070726f76652066726f6d20746865207a65726f2061646460008201527f7265737300000000000000000000000000000000000000000000000000000000602082015250565b6000611231602483610d13565b915061123c826111d5565b604082019050919050565b6000602082019050818103600083015261126081611224565b9050919050565b7f45524332303a20617070726f766520746f20746865207a65726f20616464726560008201527f7373000000000000000000000000000000000000000000000000000000000000602082015250565b60006112c3602283610d13565b91506112ce82611267565b604082019050919050565b600060208201905081810360008301526112f2816112b6565b9050919050565b7f45524332303a20696e73756666696369656e7420616c6c6f77616e6365000000600082015250565b600061132f601d83610d13565b915061133a826112f9565b602082019050919050565b6000602082019050818103600083015261135e81611322565b9050919050565b7f45524332303a207472616e736665722066726f6d20746865207a65726f20616460008201527f6472657373000000000000000000000000000000000000000000000000000000602082015250565b60006113c1602583610d13565b91506113cc82611365565b604082019050919050565b600060208201905081810360008301526113f0816113b4565b9050919050565b7f45524332303a207472616e7366657220746f20746865207a65726f206164647260008201527f6573730000000000000000000000000000000000000000000000000000000000602082015250565b6000611453602383610d13565b915061145e826113f7565b604082019050919050565b6000602082019050818103600083015261148281611446565b9050919050565b7f45524332303a207472616e7366657220616d6f756e742065786365656473206260008201527f616c616e63650000000000000000000000000000000000000000000000000000602082015250565b60006114e5602683610d13565b91506114f082611489565b604082019050919050565b60006020820190508181036000830152611514816114d8565b9050919050565b7f45524332303a206d696e7420746f20746865207a65726f206164647265737300600082015250565b6000611551601f83610d13565b915061155c8261151b565b602082019050919050565b6000602082019050818103600083015261158081611544565b905091905056fea264697066735822122038a0a4481d4a3779de4969ce81fa892323c188a04ac999b49aef3f3c7a90986364736f6c63430008110033a2646970667358221220aa2b437fad6ac574358ca8ed65f024733e0cddd15fae48b9c2f136e1e20365c664736f6c63430008110033608060405234801561001057600080fd5b50612ef4806100206000396000f3fe608060405234801561001057600080fd5b50600436106100415760003560e01c806370f402f614610046578063ac57231514610064578063b6f3e08714610094575b600080fd5b61004e6100b0565b60405161005b9190610395565b60405180910390f35b61007e600480360381019061007991906103eb565b6100b6565b60405161008b9190610459565b60405180910390f35b6100ae60048036038101906100a991906104a0565b6100e9565b005b60005481565b60016020528060005260406000206000915054906101000a900473ffffffffffffffffffffffffffffffffffffffff1681565b8073ffffffffffffffffffffffffffffffffffffffff168273ffffffffffffffffffffffffffffffffffffffff1603610157576040517f08c379a000000000000000000000000000000000000000000000000000000000815260040161014e9061053d565b60405180910390fd5b6000808273ffffffffffffffffffffffffffffffffffffffff168473ffffffffffffffffffffffffffffffffffffffff161115610199578391508290506101a0565b8291508390505b600082826040516020016101b59291906105a5565b604051602081830303815290604052805190602001209050600073ffffffffffffffffffffffffffffffffffffffff166001600083815260200190815260200160002060009054906101000a900473ffffffffffffffffffffffffffffffffffffffff1673ffffffffffffffffffffffffffffffffffffffff161461026f576040517f08c379a00000000000000000000000000000000000000000000000000000000081526004016102669061061d565b60405180910390fd5b828260405161027d9061036e565b61028892919061063d565b604051809103906000f0801580156102a4573d6000803e3d6000fd5b506001600083815260200190815260200160002060006101000a81548173ffffffffffffffffffffffffffffffffffffffff021916908373ffffffffffffffffffffffffffffffffffffffff16021790555060008081548092919061030890610695565b91905055508173ffffffffffffffffffffffffffffffffffffffff168373ffffffffffffffffffffffffffffffffffffffff167fbc9687dc21b69bf8e01370b9f0ae1625f6bf5244fc230fa3ad4c06350deb634d60405160405180910390a35050505050565b6127e180620006de83390190565b6000819050919050565b61038f8161037c565b82525050565b60006020820190506103aa6000830184610386565b92915050565b600080fd5b6000819050919050565b6103c8816103b5565b81146103d357600080fd5b50565b6000813590506103e5816103bf565b92915050565b600060208284031215610401576104006103b0565b5b600061040f848285016103d6565b91505092915050565b600073ffffffffffffffffffffffffffffffffffffffff82169050919050565b600061044382610418565b9050919050565b61045381610438565b82525050565b600060208201905061046e600083018461044a565b92915050565b61047d81610438565b811461048857600080fd5b50565b60008135905061049a81610474565b92915050565b600080604083850312156104b7576104b66103b0565b5b60006104c58582860161048b565b92505060206104d68582860161048b565b9150509250929050565b600082825260208201905092915050565b7f546f6b656e73206d75737420626520646966666572656e740000000000000000600082015250565b60006105276018836104e0565b9150610532826104f1565b602082019050919050565b600060208201905081810360008301526105568161051a565b9050919050565b60008160601b9050919050565b60006105758261055d565b9050919050565b60006105878261056a565b9050919050565b61059f61059a82610438565b61057c565b82525050565b60006105b1828561058e565b6014820191506105c1828461058e565b6014820191508190509392505050565b7f546f6b656e207061697220616c72656164792065786973747300000000000000600082015250565b60006106076019836104e0565b9150610612826105d1565b602082019050919050565b60006020820190508181036000830152610636816105fa565b9050919050565b6000604082019050610652600083018561044a565b61065f602083018461044a565b9392505050565b7f4e487b7100000000000000000000000000000000000000000000000000000000600052601160045260246000fd5b60006106a08261037c565b91507fffffffffffffffffffffffffffffffffffffffffffffffffffffffffffffffff82036106d2576106d1610666565b5b60018201905091905056fe60806040523480156200001157600080fd5b50604051620027e1380380620027e183398181016040528101906200003791906200022a565b816000806101000a81548173ffffffffffffffffffffffffffffffffffffffff021916908373ffffffffffffffffffffffffffffffffffffffff16021790555080600160006101000a81548173ffffffffffffffffffffffffffffffffffffffff021916908373ffffffffffffffffffffffffffffffffffffffff160217905550600160036000600173ffffffffffffffffffffffffffffffffffffffff1673ffffffffffffffffffffffffffffffffffffffff16815260200190815260200160002060006101000a81548173ffffffffffffffffffffffffffffffffffffffff021916908373ffffffffffffffffffffffffffffffffffffffff160217905550600160066000600173ffffffffffffffffffffffffffffffffffffffff1673ffffffffffffffffffffffffffffffffffffffff16815260200190815260200160002060006101000a81548173ffffffffffffffffffffffffffffffffffffffff021916908373ffffffffffffffffffffffffffffffffffffffff160217905550505062000271565b600080fd5b600073ffffffffffffffffffffffffffffffffffffffff82169050919050565b6000620001f282620001c5565b9050919050565b6200020481620001e5565b81146200021057600080fd5b50565b6000815190506200022481620001f9565b92915050565b60008060408385031215620002445762000243620001c0565b5b6000620002548582860162000213565b9250506020620002678582860162000213565b9150509250929050565b61256080620002816000396000f3fe608060405234801561001057600080fd5b50600436106100935760003560e01c80637b3cee60116100665780637b3cee601461010e5780637f008a0a1461012c578063949092c214610136578063ca70307514610156578063fecd817c1461017457610093565b80630c6b6737146100985780630e07df0b146100b6578063169aab8d146100d65780633f901623146100f2575b600080fd5b6100a061017e565b6040516100ad9190611e0c565b60405180910390f35b6100be610184565b6040516100cd93929190611fd5565b60405180910390f35b6100f060048036038101906100eb919061207e565b610449565b005b61010c6004803603810190610107919061207e565b610816565b005b610116610be5565b6040516101239190611e0c565b60405180910390f35b610134610d60565b005b61013e611173565b60405161014d93929190611fd5565b60405180910390f35b61015e611438565b60405161016b9190611e0c565b60405180910390f35b61017c61143e565b005b60075481565b6060806060600060045467ffffffffffffffff8111156101a7576101a66120d1565b5b6040519080825280602002602001820160405280156101d55781602001602082028036833780820191505090505b509050600060045467ffffffffffffffff8111156101f6576101f56120d1565b5b6040519080825280602002602001820160405280156102245781602001602082028036833780820191505090505b509050600060045467ffffffffffffffff811115610245576102446120d1565b5b6040519080825280602002602001820160405280156102735781602001602082028036833780820191505090505b509050600060036000600173ffffffffffffffffffffffffffffffffffffffff1673ffffffffffffffffffffffffffffffffffffffff16815260200190815260200160002060009054906101000a900473ffffffffffffffffffffffffffffffffffffffff16905060005b845181101561043657818582815181106102fb576102fa612100565b5b602002602001019073ffffffffffffffffffffffffffffffffffffffff16908173ffffffffffffffffffffffffffffffffffffffff16815250506000600260008473ffffffffffffffffffffffffffffffffffffffff1673ffffffffffffffffffffffffffffffffffffffff168152602001908152602001600020905080600001548583815181106103905761038f612100565b5b60200260200101818152505080600101548483815181106103b4576103b3612100565b5b602002602001018181525050600360008473ffffffffffffffffffffffffffffffffffffffff1673ffffffffffffffffffffffffffffffffffffffff16815260200190815260200160002060009054906101000a900473ffffffffffffffffffffffffffffffffffffffff16925050808061042e9061215e565b9150506102de565b5083838396509650965050505050909192565b6000600260008373ffffffffffffffffffffffffffffffffffffffff1673ffffffffffffffffffffffffffffffffffffffff16815260200190815260200160002060020154146104ce576040517f08c379a00000000000000000000000000000000000000000000000000000000081526004016104c590612203565b60405180910390fd5b600083141580156104e0575060008214155b61051f576040517f08c379a000000000000000000000000000000000000000000000000000000000815260040161051690612295565b60405180910390fd5b604051806060016040528084815260200183815260200142815250600260008373ffffffffffffffffffffffffffffffffffffffff1673ffffffffffffffffffffffffffffffffffffffff16815260200190815260200160002060008201518160000155602082015181600101556040820151816002015590505060006105a58461184d565b90506000600360008373ffffffffffffffffffffffffffffffffffffffff1673ffffffffffffffffffffffffffffffffffffffff16815260200190815260200160002060009054906101000a900473ffffffffffffffffffffffffffffffffffffffff16905082600360008473ffffffffffffffffffffffffffffffffffffffff1673ffffffffffffffffffffffffffffffffffffffff16815260200190815260200160002060006101000a81548173ffffffffffffffffffffffffffffffffffffffff021916908373ffffffffffffffffffffffffffffffffffffffff16021790555080600360008573ffffffffffffffffffffffffffffffffffffffff1673ffffffffffffffffffffffffffffffffffffffff16815260200190815260200160002060006101000a81548173ffffffffffffffffffffffffffffffffffffffff021916908373ffffffffffffffffffffffffffffffffffffffff1602179055506004600081548092919061071a9061215e565b919050555060008054906101000a900473ffffffffffffffffffffffffffffffffffffffff1673ffffffffffffffffffffffffffffffffffffffff166323b872dd8430886040518463ffffffff1660e01b815260040161077c939291906122c4565b6020604051808303816000875af115801561079b573d6000803e3d6000fd5b505050506040513d601f19601f820116820180604052508101906107bf9190612333565b508273ffffffffffffffffffffffffffffffffffffffff16857f89b6a1645f23bb3cb10a8d5693e3bdde2682f6f7c0b254f8c6317ed02e6e7750866040516108079190611e0c565b60405180910390a35050505050565b6000600560008373ffffffffffffffffffffffffffffffffffffffff1673ffffffffffffffffffffffffffffffffffffffff168152602001908152602001600020600201541461089b576040517f08c379a0000000000000000000000000000000000000000000000000000000008152600401610892906123ac565b60405180910390fd5b600083141580156108ad575060008214155b6108ec576040517f08c379a00000000000000000000000000000000000000000000000000000000081526004016108e390612295565b60405180910390fd5b604051806060016040528084815260200183815260200142815250600560008373ffffffffffffffffffffffffffffffffffffffff1673ffffffffffffffffffffffffffffffffffffffff168152602001908152602001600020600082015181600001556020820151816001015560408201518160020155905050600061097284611942565b90506000600660008373ffffffffffffffffffffffffffffffffffffffff1673ffffffffffffffffffffffffffffffffffffffff16815260200190815260200160002060009054906101000a900473ffffffffffffffffffffffffffffffffffffffff16905082600660008473ffffffffffffffffffffffffffffffffffffffff1673ffffffffffffffffffffffffffffffffffffffff16815260200190815260200160002060006101000a81548173ffffffffffffffffffffffffffffffffffffffff021916908373ffffffffffffffffffffffffffffffffffffffff16021790555080600660008573ffffffffffffffffffffffffffffffffffffffff1673ffffffffffffffffffffffffffffffffffffffff16815260200190815260200160002060006101000a81548173ffffffffffffffffffffffffffffffffffffffff021916908373ffffffffffffffffffffffffffffffffffffffff16021790555060076000815480929190610ae79061215e565b9190505550600160009054906101000a900473ffffffffffffffffffffffffffffffffffffffff1673ffffffffffffffffffffffffffffffffffffffff166323b872dd8430876040518463ffffffff1660e01b8152600401610b4b939291906122c4565b6020604051808303816000875af1158015610b6a573d6000803e3d6000fd5b505050506040513d601f19601f82011682018060405250810190610b8e9190612333565b508273ffffffffffffffffffffffffffffffffffffffff16857f7ffeafa3f52f6955d686c233ece4b42adb8cf4c8e4f4190a489b52e27a1d7c4d86604051610bd69190611e0c565b60405180910390a35050505050565b6000806005600060066000600173ffffffffffffffffffffffffffffffffffffffff1673ffffffffffffffffffffffffffffffffffffffff16815260200190815260200160002060009054906101000a900473ffffffffffffffffffffffffffffffffffffffff1673ffffffffffffffffffffffffffffffffffffffff1673ffffffffffffffffffffffffffffffffffffffff16815260200190815260200160002060000154905060006002600060036000600173ffffffffffffffffffffffffffffffffffffffff1673ffffffffffffffffffffffffffffffffffffffff16815260200190815260200160002060009054906101000a900473ffffffffffffffffffffffffffffffffffffffff1673ffffffffffffffffffffffffffffffffffffffff1673ffffffffffffffffffffffffffffffffffffffff168152602001908152602001600020600001549050818111610d4c578082610d4791906123cc565b610d59565b8181610d5891906123cc565b5b9250505090565b6000600560003373ffffffffffffffffffffffffffffffffffffffff1673ffffffffffffffffffffffffffffffffffffffff1681526020019081526020016000206002015403610de5576040517f08c379a0000000000000000000000000000000000000000000000000000000008152600401610ddc9061244c565b60405180910390fd5b6000600560003373ffffffffffffffffffffffffffffffffffffffff1673ffffffffffffffffffffffffffffffffffffffff1681526020019081526020016000206001015490506000610e3733611a37565b9050600660003373ffffffffffffffffffffffffffffffffffffffff1673ffffffffffffffffffffffffffffffffffffffff16815260200190815260200160002060009054906101000a900473ffffffffffffffffffffffffffffffffffffffff16600660008373ffffffffffffffffffffffffffffffffffffffff1673ffffffffffffffffffffffffffffffffffffffff16815260200190815260200160002060006101000a81548173ffffffffffffffffffffffffffffffffffffffff021916908373ffffffffffffffffffffffffffffffffffffffff160217905550600660003373ffffffffffffffffffffffffffffffffffffffff1673ffffffffffffffffffffffffffffffffffffffff16815260200190815260200160002060006101000a81549073ffffffffffffffffffffffffffffffffffffffff0219169055600560003373ffffffffffffffffffffffffffffffffffffffff1673ffffffffffffffffffffffffffffffffffffffff16815260200190815260200160002060008082016000905560018201600090556002820160009055505060076000815480929190610fe59061246c565b9190505550600160009054906101000a900473ffffffffffffffffffffffffffffffffffffffff1673ffffffffffffffffffffffffffffffffffffffff1663095ea7b333846040518363ffffffff1660e01b8152600401611047929190612495565b6020604051808303816000875af1158015611066573d6000803e3d6000fd5b505050506040513d601f19601f8201168201806040525081019061108a9190612333565b50600160009054906101000a900473ffffffffffffffffffffffffffffffffffffffff1673ffffffffffffffffffffffffffffffffffffffff1663a9059cbb33846040518363ffffffff1660e01b81526004016110e8929190612495565b6020604051808303816000875af1158015611107573d6000803e3d6000fd5b505050506040513d601f19601f8201168201806040525081019061112b9190612333565b503373ffffffffffffffffffffffffffffffffffffffff167fd72fd04c1f0f3dd2839fa078c4beeaabe5ef0b99fa16e668873e262e2ba475a260405160405180910390a25050565b6060806060600060075467ffffffffffffffff811115611196576111956120d1565b5b6040519080825280602002602001820160405280156111c45781602001602082028036833780820191505090505b509050600060075467ffffffffffffffff8111156111e5576111e46120d1565b5b6040519080825280602002602001820160405280156112135781602001602082028036833780820191505090505b509050600060075467ffffffffffffffff811115611234576112336120d1565b5b6040519080825280602002602001820160405280156112625781602001602082028036833780820191505090505b509050600060066000600173ffffffffffffffffffffffffffffffffffffffff1673ffffffffffffffffffffffffffffffffffffffff16815260200190815260200160002060009054906101000a900473ffffffffffffffffffffffffffffffffffffffff16905060005b845181101561142557818582815181106112ea576112e9612100565b5b602002602001019073ffffffffffffffffffffffffffffffffffffffff16908173ffffffffffffffffffffffffffffffffffffffff16815250506000600560008473ffffffffffffffffffffffffffffffffffffffff1673ffffffffffffffffffffffffffffffffffffffff1681526020019081526020016000209050806000015485838151811061137f5761137e612100565b5b60200260200101818152505080600101548483815181106113a3576113a2612100565b5b602002602001018181525050600660008473ffffffffffffffffffffffffffffffffffffffff1673ffffffffffffffffffffffffffffffffffffffff16815260200190815260200160002060009054906101000a900473ffffffffffffffffffffffffffffffffffffffff16925050808061141d9061215e565b9150506112cd565b5083838396509650965050505050909192565b60045481565b6000600260003373ffffffffffffffffffffffffffffffffffffffff1673ffffffffffffffffffffffffffffffffffffffff16815260200190815260200160002060020154036114c3576040517f08c379a00000000000000000000000000000000000000000000000000000000081526004016114ba9061250a565b60405180910390fd5b6000600260003373ffffffffffffffffffffffffffffffffffffffff1673ffffffffffffffffffffffffffffffffffffffff168152602001908152602001600020600101549050600061151533611a37565b9050600360003373ffffffffffffffffffffffffffffffffffffffff1673ffffffffffffffffffffffffffffffffffffffff16815260200190815260200160002060009054906101000a900473ffffffffffffffffffffffffffffffffffffffff16600360008373ffffffffffffffffffffffffffffffffffffffff1673ffffffffffffffffffffffffffffffffffffffff16815260200190815260200160002060006101000a81548173ffffffffffffffffffffffffffffffffffffffff021916908373ffffffffffffffffffffffffffffffffffffffff160217905550600360003373ffffffffffffffffffffffffffffffffffffffff1673ffffffffffffffffffffffffffffffffffffffff16815260200190815260200160002060006101000a81549073ffffffffffffffffffffffffffffffffffffffff0219169055600260003373ffffffffffffffffffffffffffffffffffffffff1673ffffffffffffffffffffffffffffffffffffffff168152602001908152602001600020600080820160009055600182016000905560028201600090555050600460008154809291906116c39061246c565b919050555060008054906101000a900473ffffffffffffffffffffffffffffffffffffffff1673ffffffffffffffffffffffffffffffffffffffff1663095ea7b333846040518363ffffffff1660e01b8152600401611723929190612495565b6020604051808303816000875af1158015611742573d6000803e3d6000fd5b505050506040513d601f19601f820116820180604052508101906117669190612333565b5060008054906101000a900473ffffffffffffffffffffffffffffffffffffffff1673ffffffffffffffffffffffffffffffffffffffff1663a9059cbb33846040518363ffffffff1660e01b81526004016117c2929190612495565b6020604051808303816000875af11580156117e1573d6000803e3d6000fd5b505050506040513d601f19601f820116820180604052508101906118059190612333565b503373ffffffffffffffffffffffffffffffffffffffff167f40a722cc05fdeaf68cfdd1182ed21c908bd55248a30fb25c43d3bca5f9eb66f560405160405180910390a25050565b600080600190505b60011561193b576118c68184600360008573ffffffffffffffffffffffffffffffffffffffff1673ffffffffffffffffffffffffffffffffffffffff16815260200190815260200160002060009054906101000a900473ffffffffffffffffffffffffffffffffffffffff16611bdb565b156118d4578091505061193d565b600360008273ffffffffffffffffffffffffffffffffffffffff1673ffffffffffffffffffffffffffffffffffffffff16815260200190815260200160002060009054906101000a900473ffffffffffffffffffffffffffffffffffffffff169050611855565b505b919050565b600080600190505b600115611a30576119bb8184600660008573ffffffffffffffffffffffffffffffffffffffff1673ffffffffffffffffffffffffffffffffffffffff16815260200190815260200160002060009054906101000a900473ffffffffffffffffffffffffffffffffffffffff16611ce7565b156119c95780915050611a32565b600660008273ffffffffffffffffffffffffffffffffffffffff1673ffffffffffffffffffffffffffffffffffffffff16815260200190815260200160002060009054906101000a900473ffffffffffffffffffffffffffffffffffffffff16905061194a565b505b919050565b600080600190505b600173ffffffffffffffffffffffffffffffffffffffff16600360008373ffffffffffffffffffffffffffffffffffffffff1673ffffffffffffffffffffffffffffffffffffffff16815260200190815260200160002060009054906101000a900473ffffffffffffffffffffffffffffffffffffffff1673ffffffffffffffffffffffffffffffffffffffff1614611bd4578273ffffffffffffffffffffffffffffffffffffffff16600360008373ffffffffffffffffffffffffffffffffffffffff1673ffffffffffffffffffffffffffffffffffffffff16815260200190815260200160002060009054906101000a900473ffffffffffffffffffffffffffffffffffffffff1673ffffffffffffffffffffffffffffffffffffffff1603611b6d5780915050611bd6565b600360008273ffffffffffffffffffffffffffffffffffffffff1673ffffffffffffffffffffffffffffffffffffffff16815260200190815260200160002060009054906101000a900473ffffffffffffffffffffffffffffffffffffffff169050611a3f565b505b919050565b6000600173ffffffffffffffffffffffffffffffffffffffff168473ffffffffffffffffffffffffffffffffffffffff161480611c5a5750600260008573ffffffffffffffffffffffffffffffffffffffff1673ffffffffffffffffffffffffffffffffffffffff168152602001908152602001600020600001548311155b8015611cde5750600173ffffffffffffffffffffffffffffffffffffffff168273ffffffffffffffffffffffffffffffffffffffff161480611cdd5750600260008373ffffffffffffffffffffffffffffffffffffffff1673ffffffffffffffffffffffffffffffffffffffff1681526020019081526020016000206000015483115b5b90509392505050565b6000600173ffffffffffffffffffffffffffffffffffffffff168473ffffffffffffffffffffffffffffffffffffffff161480611d665750600560008573ffffffffffffffffffffffffffffffffffffffff1673ffffffffffffffffffffffffffffffffffffffff168152602001908152602001600020600001548310155b8015611dea5750600173ffffffffffffffffffffffffffffffffffffffff168273ffffffffffffffffffffffffffffffffffffffff161480611de95750600560008373ffffffffffffffffffffffffffffffffffffffff1673ffffffffffffffffffffffffffffffffffffffff1681526020019081526020016000206000015483105b5b90509392505050565b6000819050919050565b611e0681611df3565b82525050565b6000602082019050611e216000830184611dfd565b92915050565b600081519050919050565b600082825260208201905092915050565b6000819050602082019050919050565b600073ffffffffffffffffffffffffffffffffffffffff82169050919050565b6000611e7e82611e53565b9050919050565b611e8e81611e73565b82525050565b6000611ea08383611e85565b60208301905092915050565b6000602082019050919050565b6000611ec482611e27565b611ece8185611e32565b9350611ed983611e43565b8060005b83811015611f0a578151611ef18882611e94565b9750611efc83611eac565b925050600181019050611edd565b5085935050505092915050565b600081519050919050565b600082825260208201905092915050565b6000819050602082019050919050565b611f4c81611df3565b82525050565b6000611f5e8383611f43565b60208301905092915050565b6000602082019050919050565b6000611f8282611f17565b611f8c8185611f22565b9350611f9783611f33565b8060005b83811015611fc8578151611faf8882611f52565b9750611fba83611f6a565b925050600181019050611f9b565b5085935050505092915050565b60006060820190508181036000830152611fef8186611eb9565b905081810360208301526120038185611f77565b905081810360408301526120178184611f77565b9050949350505050565b600080fd5b61202f81611df3565b811461203a57600080fd5b50565b60008135905061204c81612026565b92915050565b61205b81611e73565b811461206657600080fd5b50565b60008135905061207881612052565b92915050565b60008060006060848603121561209757612096612021565b5b60006120a58682870161203d565b93505060206120b68682870161203d565b92505060406120c786828701612069565b9150509250925092565b7f4e487b7100000000000000000000000000000000000000000000000000000000600052604160045260246000fd5b7f4e487b7100000000000000000000000000000000000000000000000000000000600052603260045260246000fd5b7f4e487b7100000000000000000000000000000000000000000000000000000000600052601160045260246000fd5b600061216982611df3565b91507fffffffffffffffffffffffffffffffffffffffffffffffffffffffffffffffff820361219b5761219a61212f565b5b600182019050919050565b600082825260208201905092915050565b7f46697273742064656c657465206578697374696e6720627579206f7264657200600082015250565b60006121ed601f836121a6565b91506121f8826121b7565b602082019050919050565b6000602082019050818103600083015261221c816121e0565b9050919050565b7f4d7573742068617665206e6f6e7a65726f207069636520616e64207175616e7460008201527f6974790000000000000000000000000000000000000000000000000000000000602082015250565b600061227f6023836121a6565b915061228a82612223565b604082019050919050565b600060208201905081810360008301526122ae81612272565b9050919050565b6122be81611e73565b82525050565b60006060820190506122d960008301866122b5565b6122e660208301856122b5565b6122f36040830184611dfd565b949350505050565b60008115159050919050565b612310816122fb565b811461231b57600080fd5b50565b60008151905061232d81612307565b92915050565b60006020828403121561234957612348612021565b5b60006123578482850161231e565b91505092915050565b7f46697273742064656c657465206578697374696e672073656c6c206f72646572600082015250565b60006123966020836121a6565b91506123a182612360565b602082019050919050565b600060208201905081810360008301526123c581612389565b9050919050565b60006123d782611df3565b91506123e283611df3565b92508282039050818111156123fa576123f961212f565b5b92915050565b7f53656c6c206f72646572206d75737420616c7265616479206578697374000000600082015250565b6000612436601d836121a6565b915061244182612400565b602082019050919050565b6000602082019050818103600083015261246581612429565b9050919050565b600061247782611df3565b91506000820361248a5761248961212f565b5b600182039050919050565b60006040820190506124aa60008301856122b5565b6124b76020830184611dfd565b9392505050565b7f427579206f72646572206d75737420616c726561647920657869737400000000600082015250565b60006124f4601c836121a6565b91506124ff826124be565b602082019050919050565b60006020820190508181036000830152612523816124e7565b905091905056fea26469706673582212203255b7f38ecf440daf24339c00bda23c7d2e77c09f47b3c3de99f031de1e053264736f6c63430008110033a2646970667358221220d01ea60fc984299c14be8bc0743e9d96a09b62965fa19654a373e646d099f51264736f6c63430008110033",
  "immutableReferences": {},
  "source": "pragma solidity ^0.8.17;\r\n\r\nimport \"../node_modules/@openzeppelin/contracts/token/ERC20/ERC20.sol\";\r\n\r\ncontract Token is ERC20 {\r\n    address public admin;\r\n\r\n    constructor(string memory _name, string memory _symbol) ERC20(_name, _symbol) {\r\n        admin = msg.sender;\r\n        _mint(msg.sender, 1000);\r\n    }\r\n\r\n    function mint(address _to, uint256 _amount) external {\r\n        require(msg.sender == admin, \"Only admin can mint\");\r\n        _mint(_to, _amount);\r\n    }\r\n}\r\n\r\ncontract Dex {\r\n    mapping (address => ERC20) private availableTokens;\r\n    address[] private tokenAddresses;\r\n    uint256 private numTokens;\r\n    OrderbookFactory private books = new OrderbookFactory();\r\n\r\n    address public owner;\r\n    event LogTokenSent(address token, address receipient, uint256 amount);\r\n    event LogTokenCreated(address tokenAddress, string tokenName, string tokenSymbol);\r\n    event LogBuyOrderPlaced(address buyer, address buyToken, uint256 buyAmt, address payToken, uint256 payAmt);\r\n\r\n    constructor () {\r\n        owner = msg.sender;\r\n        numTokens = 0;\r\n    }\r\n\r\n\r\n    // Allows admin to create new token, and new token will be added into availableTokens dict.\r\n    function createToken(string memory _name, string memory _symbol) public {\r\n        // only allow owner to create tokens\r\n        require(owner == msg.sender, \"Only the owner can create tokens!\");\r\n\r\n        //mapping address of new Token created\r\n        address newTokenAddress = address(new Token(_name, _symbol));\r\n        availableTokens[newTokenAddress] = ERC20(newTokenAddress);\r\n        tokenAddresses.push(newTokenAddress);\r\n        numTokens++;\r\n\r\n        // log token creation event\r\n        emit LogTokenCreated(newTokenAddress, _name, _symbol);\r\n    }\r\n\r\n    // Allows admin to send token\r\n    function sendToken(address _token, address _receipient, uint256 _amount) public {\r\n        // only allow owner to create tokens\r\n        require(owner == msg.sender, \"Only the owner can send tokens!\");\r\n        ERC20 ERC20TOKEN = availableTokens[_token];\r\n        ERC20TOKEN.transfer(_receipient, _amount);\r\n\r\n        // log token sent event\r\n        emit LogTokenSent(_token, _receipient, _amount);\r\n    }\r\n\r\n    // Returns an array of available tokens\r\n    function getAvailableTokens() public view returns(address[] memory) {\r\n        address[] memory addressTemp = new address[](numTokens);\r\n\r\n        //loop through the available tokens\r\n        for (uint256 i=0; i < numTokens; i++) {\r\n            if(tokenAddresses[i] == address(0)){\r\n                i--; //so that i does not increase\r\n                continue;\r\n            }\r\n            addressTemp[i] = tokenAddresses[i];\r\n        }\r\n        return addressTemp;\r\n    }\r\n\r\n    function getTokenName(address _token) public view returns(string memory) {\r\n        ERC20 ERC20TOKEN = availableTokens[_token];\r\n        return ERC20TOKEN.name();\r\n    }\r\n\r\n    function getTokenBalance(address _token) public view returns(uint256) {\r\n        ERC20 ERC20TOKEN = availableTokens[_token];\r\n        return ERC20TOKEN.balanceOf(msg.sender);\r\n    }\r\n\r\n    // the logic for this buy is a little weird, because the orderbook assumes the token to be bought/sold.\r\n    // for example in orderbook for tokenA and tokenB. orderbook always assumes tokenA is the one being sold, \r\n    // tokenB is the one being bought. because of this, when we want to buy tokenA, we have to place a sell order for token B.\r\n    function buy(address _buyToken, uint256 _buyAmt, address _payToken, uint256 _payAmt) public {\r\n        // first check whether there is an existing orderboook for this pair of tokens\r\n        address token1;\r\n        address token2;\r\n        if (uint160(_buyToken) > uint160(_payToken)) {\r\n            token1 = _buyToken;\r\n            token2 = _payToken;\r\n        } else {\r\n            token1 = _payToken;\r\n            token2 = _buyToken;\r\n        }\r\n        bytes32 identifier = keccak256(abi.encodePacked(token1, token2));\r\n        // if no existing orderbook for this pair of tokens then create it\r\n        if(books.orderbooks(identifier) == address(0)){\r\n            books.addPair(token1, token2);\r\n        }\r\n        Orderbook book = Orderbook(books.orderbooks(identifier));\r\n        // in orderbook token 1 acts as cash, token 2 acts as commodity.\r\n        // so, by comparing _buyToken with token1, we will know if _buyToken here is cash or commodity.\r\n        // if _buyToken is cash, means we need to place sell order, if is commodity, means we need to place buy order\r\n        if(_buyToken == token1){\r\n            //place sell order\r\n            book.placeSell(_buyAmt, _payAmt, msg.sender);\r\n        }else if(_buyToken == token2){\r\n            //place buy order\r\n            book.placeBuy(_payAmt, _buyAmt, msg.sender);\r\n        }\r\n\r\n        emit LogBuyOrderPlaced(msg.sender, _buyToken, _buyAmt, _payToken, _payAmt);\r\n    }\r\n\r\n    // will need this to retrieve address of orderbook, and address of token1 and token2 so we know which is getting bought/sold\r\n    function getOrderbookAddress(address _token1, address _token2) view external returns (address, address, address) {\r\n        address token1;\r\n        address token2;\r\n        if (uint160(_token1) > uint160(_token2)) {\r\n            token1 = _token1;\r\n            token2 = _token2;\r\n        } else {\r\n            token1 = _token2;\r\n            token2 = _token1;\r\n        }\r\n        bytes32 identifier = keccak256(abi.encodePacked(token1, token2));\r\n        return (books.orderbooks(identifier), token1, token2);\r\n    }\r\n\r\n    // create orderbook for the token pair and return the address\r\n    function addTokenPair(address _token1, address _token2) external returns (address) {\r\n        books.addPair(_token1, _token2);\r\n        address token1;\r\n        address token2;\r\n        if (uint160(_token1) > uint160(_token2)) {\r\n            token1 = _token1;\r\n            token2 = _token2;\r\n        } else {\r\n            token1 = _token2;\r\n            token2 = _token1;\r\n        }\r\n        bytes32 identifier = keccak256(abi.encodePacked(token1, token2));\r\n        return books.orderbooks(identifier);\r\n    }\r\n\r\n    function getBuyOrders(address _token1, address _token2) view external returns (address[] memory, uint256[] memory, uint256[] memory){\r\n        address token1;\r\n        address token2;\r\n        if (uint160(_token1) > uint160(_token2)) {\r\n            token1 = _token1;\r\n            token2 = _token2;\r\n        } else {\r\n            token1 = _token2;\r\n            token2 = _token1;\r\n        }\r\n        bytes32 identifier = keccak256(abi.encodePacked(token1, token2));\r\n        require(books.orderbooks(identifier) != address(0), \"orderbook doesnt exist!\");\r\n\r\n        Orderbook book = Orderbook(books.orderbooks(identifier));\r\n        return book.getBuySide();\r\n    }\r\n\r\n\r\n}\r\n\r\n\r\n/* This contract represents a factory to create an arbitrary number of orderbooks\r\n * for unique trading pairs. If an orderbook for the trading pair already exists\r\n * then contract execution will revert.\r\n */\r\ncontract OrderbookFactory {\r\n    // number of pairs supported\r\n    uint256 public pairsSupported;\r\n\r\n    // mapping of existing orderbooks\r\n    mapping(bytes32 => address) public orderbooks;\r\n\r\n    // event emitted every time a new token pair is added\r\n    event NewPair(address indexed token1, address indexed token2);\r\n\r\n    // Creates a new orderbook contract instance for the token pair\r\n    function addPair(address _token1, address _token2) external {\r\n        require(_token1 != _token2, \"Tokens must be different\");\r\n\r\n        address token1;\r\n        address token2;\r\n\r\n        /* This ensures that token addresses are order correctly, this way if\r\n         * the same pair is entered but in different order, a new orderbook will\r\n         * NOT be created!\r\n         */\r\n        if (uint160(_token1) > uint160(_token2)) {\r\n            token1 = _token1;\r\n            token2 = _token2;\r\n        } else {\r\n            token1 = _token2;\r\n            token2 = _token1;\r\n        }\r\n\r\n        // mapping identifier is computed from the hash of the ordered addresses\r\n        bytes32 identifier = keccak256(abi.encodePacked(token1, token2));\r\n        require(\r\n            orderbooks[identifier] == address(0),\r\n            \"Token pair already exists\"\r\n        );\r\n\r\n        /* create the new orderbook contract for the pair and store its address\r\n         * in the orderbooks mapping\r\n         */\r\n        orderbooks[identifier] = address(new Orderbook(token1, token2));\r\n        pairsSupported++;\r\n\r\n        emit NewPair(token1, token2);\r\n    }\r\n}\r\n\r\n/* This contract represents an orderbook with a buy side and sell side of the\r\n * book. This contract maintains an ordered list of both the buy side and the\r\n * sell side of the book and allows any user to remove his or her order. There\r\n * is also functionality to return both the buy and sell side of the book. Please\r\n * see the README for further assumptions.\r\n */\r\ncontract Orderbook {\r\n    IERC20 token1;\r\n    IERC20 token2;\r\n\r\n    // Order struct containing price, quantity, and date created\r\n    struct Order {\r\n        uint256 price;\r\n        uint256 quantity;\r\n        uint256 date;\r\n    }\r\n\r\n    // mapping of buyer address to buy order\r\n    mapping(address => Order) buyOrders;\r\n\r\n    // mapping used to preserve order based on buy price\r\n    mapping(address => address) nextBuy;\r\n\r\n    // overall buy order count\r\n    uint256 public buyCount;\r\n\r\n    // mapping of seller address to sell order\r\n    mapping(address => Order) sellOrders;\r\n\r\n    // mapping used to preserve order based on sell price\r\n    mapping(address => address) nextSell;\r\n\r\n    // overall sell order count\r\n    uint256 public sellCount;\r\n\r\n    // BUFFER used to signal beginning and end of order mappings\r\n    address constant BUFFER = address(1);\r\n\r\n    // event emitted whenever a buy order is placed\r\n    event BuyOrderPlaced(\r\n        uint256 indexed price,\r\n        uint256 quantity,\r\n        address indexed buyer\r\n    );\r\n\r\n    // event emitted whenever a buy order is cancelled\r\n    event CancelBuyOrder(address indexed buyer);\r\n\r\n    // event emitted whenever a sell order is placed\r\n    event SellOrderPlaced(\r\n        uint256 indexed price,\r\n        uint256 quantity,\r\n        address indexed seller\r\n    );\r\n\r\n    // event emitted whenever a sell order is cancelled\r\n    event CancelSellOrder(address indexed seller);\r\n\r\n    // initialize token1 and token2 of the pair\r\n    constructor(address _token1, address _token2) {\r\n        token1 = IERC20(_token1);\r\n        token2 = IERC20(_token2);\r\n\r\n        // initialize order mappings\r\n        nextBuy[BUFFER] = BUFFER;\r\n        nextSell[BUFFER] = BUFFER;\r\n    }\r\n\r\n    /* Helper function used to verify the correct insertion position of a\r\n     * buy order when it is added to the buy side. Returns true if the order is\r\n     * at least as expensive as the previous buy order in the list and definitely\r\n     * more expensive than the next order in the list (for descending order)\r\n     */\r\n    function _verifyIndexBuy(\r\n        address prev,\r\n        uint256 price,\r\n        address next\r\n    ) internal view returns (bool) {\r\n        return ((prev == BUFFER || price <= buyOrders[prev].price) &&\r\n            (next == BUFFER || price > buyOrders[next].price));\r\n    }\r\n\r\n    /* Helper function used to verify the correct insertion position of a\r\n     * sell order when it is added to the sell side. Returns true if the order is\r\n     * at least as cheap as the previous sell order in the list and definitely\r\n     * less expensive than the next order in the list (for ascending order)\r\n     */\r\n    function _verifyIndexSell(\r\n        address prev,\r\n        uint256 price,\r\n        address next\r\n    ) internal view returns (bool) {\r\n        return ((prev == BUFFER || price >= sellOrders[prev].price) &&\r\n            (next == BUFFER || price < sellOrders[next].price));\r\n    }\r\n\r\n    /* Helper function that finds the previous buy order address for the new buy\r\n     * order to add to the list based on the new buy order price.\r\n     */\r\n    function _findPrevBuy(uint256 price) internal view returns (address) {\r\n        address prev = BUFFER;\r\n        while (true) {\r\n            if (_verifyIndexBuy(prev, price, nextBuy[prev])) {\r\n                return prev;\r\n            }\r\n            prev = nextBuy[prev];\r\n        }\r\n    }\r\n\r\n    /* Helper function that finds the previous sell order address for the new\r\n     * sell order to add to the list based on the new sell order price.\r\n     */\r\n    function _findPrevSell(uint256 price) internal view returns (address) {\r\n        address prev = BUFFER;\r\n        while (true) {\r\n            if (_verifyIndexSell(prev, price, nextSell[prev])) {\r\n                return prev;\r\n            }\r\n            prev = nextSell[prev];\r\n        }\r\n    }\r\n\r\n    /* Finds the previous address of the target address in the order mapping of\r\n     * either buy or sell order addresses. Used for removing buy or sell orders.\r\n     */\r\n    function _getPrevious(address target) internal view returns (address) {\r\n        address current = BUFFER;\r\n        while (nextBuy[current] != BUFFER) {\r\n            if (nextBuy[current] == target) {\r\n                return current;\r\n            }\r\n            current = nextBuy[current];\r\n        }\r\n    }\r\n\r\n    // Places a buy order and locks associated collateral\r\n    function placeBuy(uint256 _price, uint256 _quantity, address _buyer) external {\r\n        // Only one buy order per address\r\n        require(\r\n            buyOrders[_buyer].date == 0,\r\n            \"First delete existing buy order\"\r\n        );\r\n        require(\r\n            _price != 0 && _quantity != 0,\r\n            \"Must have nonzero pice and quantity\"\r\n        );\r\n\r\n        // Create a new order in the buy order mapping for _buyer\r\n        buyOrders[_buyer] = Order(_price, _quantity, block.timestamp);\r\n\r\n        /* Add _buyer into the appropriate position in the ordering mapping.\r\n         * This is similar to linked list insertion\r\n         */\r\n        address prev = _findPrevBuy(_price);\r\n        address temp = nextBuy[prev];\r\n        nextBuy[prev] = _buyer;\r\n        nextBuy[_buyer] = temp;\r\n\r\n        // Increment the overall buy count\r\n        buyCount++;\r\n\r\n        /* Transfer the buy order quantity of token1 from the buyer to the\r\n         * orderbook contract. This locks the associated collateral\r\n         */\r\n        token1.transferFrom(_buyer, address(this), _price);\r\n\r\n        // Emit buy order placed event\r\n        emit BuyOrderPlaced(_price, _quantity, _buyer);\r\n    }\r\n\r\n    // Cancels the buy order associated with _buyer if it exists\r\n    function cancelBuy() external {\r\n        require(\r\n            buyOrders[msg.sender].date != 0,\r\n            \"Buy order must already exist\"\r\n        );\r\n\r\n        // Store quantity of buy order to refund msg.sender with correct amount\r\n        uint256 quantity = buyOrders[msg.sender].quantity;\r\n\r\n        // Find the previous address of the msg.sender in the ordering mapping\r\n        address prev = _getPrevious(msg.sender);\r\n\r\n        // Delete msg.sender from ordering mapping. Similar to linked list deletion\r\n        nextBuy[prev] = nextBuy[msg.sender];\r\n\r\n        // Delete buy order from buy order mapping and ordering mapping\r\n        delete nextBuy[msg.sender];\r\n        delete buyOrders[msg.sender];\r\n\r\n        // Decrement the buy count\r\n        buyCount--;\r\n\r\n        // approve corresponding wallet to draw funds from this contract\r\n        token1.approve(msg.sender, quantity);\r\n        // uint256 allowance = token1.allowance(address(this), msg.sender);\r\n        // Unlock associated collateral and send it back to msg.sender\r\n        token1.transfer(msg.sender, quantity);\r\n\r\n        // Emit a cancel buy order event\r\n        emit CancelBuyOrder(msg.sender);\r\n    }\r\n\r\n    // Places a sell order and locks associated collateral\r\n    function placeSell(uint256 _price, uint256 _quantity, address _seller) external {\r\n        // Only one sell order per address\r\n        require(\r\n            sellOrders[_seller].date == 0,\r\n            \"First delete existing sell order\"\r\n        );\r\n        require(\r\n            _price != 0 && _quantity != 0,\r\n            \"Must have nonzero pice and quantity\"\r\n        );\r\n\r\n        // Create a new order in the sell order mapping for _seller\r\n        sellOrders[_seller] = Order(_price, _quantity, block.timestamp);\r\n\r\n        /* Add _seller into the appropriate position in the ordering mapping.\r\n         * This is similar to linked list insertion\r\n         */\r\n        address prev = _findPrevSell(_price);\r\n        address temp = nextSell[prev];\r\n        nextSell[prev] = _seller;\r\n        nextSell[_seller] = temp;\r\n\r\n        // Increment the sell count\r\n        sellCount++;\r\n\r\n        /* Transfer the sell order quantity of token2 from the seller to the\r\n         * orderbook contract. This locks the associated collateral\r\n         */\r\n        token2.transferFrom(_seller, address(this), _quantity);\r\n\r\n        // Emit a sell order placed event\r\n        emit SellOrderPlaced(_price, _quantity, _seller);\r\n    }\r\n\r\n    // Cancels the sell order associated with msg.sender if it exists\r\n    function cancelSell() external {\r\n        require(\r\n            sellOrders[msg.sender].date != 0,\r\n            \"Sell order must already exist\"\r\n        );\r\n\r\n        // Store quantity of sell order to refund msg.sender with correct amount\r\n        uint256 quantity = sellOrders[msg.sender].quantity;\r\n\r\n        // Find the previous address of the msg.sender in the ordering mapping\r\n        address prev = _getPrevious(msg.sender);\r\n\r\n        // Delete msg.sender from ordering mapping. Similar to linked list deletion\r\n        nextSell[prev] = nextSell[msg.sender];\r\n\r\n        // Delete sell order from sell order mapping and ordering mapping\r\n        delete nextSell[msg.sender];\r\n        delete sellOrders[msg.sender];\r\n\r\n        // Decrement sell count\r\n        sellCount--;\r\n\r\n        // approve corresponding wallet to draw funds from this contract\r\n        token2.approve(msg.sender, quantity);\r\n        // console.log(token2.allowance(address(this), msg.sender));\r\n        // Unlock associated collateral and send it back to msg.sender\r\n        token2.transfer(msg.sender, quantity);\r\n\r\n        // Emit a cencel sell order event\r\n        emit CancelSellOrder(msg.sender);\r\n    }\r\n\r\n    /* Returns the buy side of the orderbook in three separate arrays. The first\r\n     * array contains all the addresses with active buy orders, and the second\r\n     * and third arrays contain the associated prices and quantities of these\r\n     * buy orders respectively. Arrays are returned in descending order\r\n     */\r\n    function getBuySide()\r\n        external\r\n        view\r\n        returns (\r\n            address[] memory,\r\n            uint256[] memory,\r\n            uint256[] memory\r\n        )\r\n    {\r\n        // Instantiate three arrays equal in length to the total buy count\r\n        address[] memory addressTemp = new address[](buyCount);\r\n        uint256[] memory priceTemp = new uint256[](buyCount);\r\n        uint256[] memory quantityTemp = new uint256[](buyCount);\r\n\r\n        // Set current address equal to the first buy order address\r\n        address current = nextBuy[BUFFER];\r\n\r\n        // Iterate through each array and store the corresponding values\r\n        for (uint256 i = 0; i < addressTemp.length; i++) {\r\n            addressTemp[i] = current;\r\n            Order storage order = buyOrders[current];\r\n\r\n            priceTemp[i] = order.price;\r\n            quantityTemp[i] = order.quantity;\r\n\r\n            current = nextBuy[current];\r\n        }\r\n\r\n        // Return the three arrays\r\n        return (addressTemp, priceTemp, quantityTemp);\r\n    }\r\n\r\n    /* Returns the sell side of the orderbook in three separate arrays. The first\r\n     * array contains all the addresses with active sell orders, and the second\r\n     * and third arrays contain the associated prices and quantities of these\r\n     * sell orders respectively. Arrays are returned in ascending order\r\n     */\r\n    function getSellSide()\r\n        external\r\n        view\r\n        returns (\r\n            address[] memory,\r\n            uint256[] memory,\r\n            uint256[] memory\r\n        )\r\n    {\r\n        // Instantiate three arrays equal in length to the total sell count\r\n        address[] memory addressTemp = new address[](sellCount);\r\n        uint256[] memory priceTemp = new uint256[](sellCount);\r\n        uint256[] memory quantityTemp = new uint256[](sellCount);\r\n\r\n        // Set current address equal to the first sell order address\r\n        address current = nextSell[BUFFER];\r\n\r\n        // Iterate through each array and store the corresponding values\r\n        for (uint256 i = 0; i < addressTemp.length; i++) {\r\n            addressTemp[i] = current;\r\n            Order storage order = sellOrders[current];\r\n\r\n            priceTemp[i] = order.price;\r\n            quantityTemp[i] = order.quantity;\r\n\r\n            current = nextSell[current];\r\n        }\r\n\r\n        // Return the three arrays\r\n        return (addressTemp, priceTemp, quantityTemp);\r\n    }\r\n\r\n    /* Returns the spread of the orderbook defined as the absolute value of the\r\n     * difference between the highest buy price and the lowest sell price.\r\n     */\r\n    function getSpread() external view returns (uint256) {\r\n        uint256 bestSell = sellOrders[nextSell[BUFFER]].price;\r\n        uint256 bestBuy = buyOrders[nextBuy[BUFFER]].price;\r\n\r\n        // Return the spread as a positive number (uint must be positive)\r\n        return bestBuy > bestSell ? bestBuy - bestSell : bestSell - bestBuy;\r\n    }\r\n}\r\n\r\n",
  "sourcePath": "C:\\Users\\Yu_Hao\\Desktop\\Y3S1\\CZ4153\\Project\\CZ4153-DEX\\frontend\\contracts\\Dex.sol",
  "compiler": {
    "name": "solc",
    "version": "0.8.17+commit.8df45f5f.Emscripten.clang"
  },
  "schemaVersion": "3.4.10",
  "updatedAt": "2022-10-29T16:45:45.714Z",
  "networkType": "ethereum",
  "devdoc": {
    "kind": "dev",
    "methods": {},
    "version": 1
  },
  "userdoc": {
    "kind": "user",
    "methods": {},
    "version": 1
  }
}