{
  "contractName": "Dex",
  "abi": [
    {
      "inputs": [],
      "stateMutability": "nonpayable",
      "type": "constructor"
    },
    {
      "anonymous": false,
      "inputs": [
        {
          "indexed": false,
          "internalType": "address",
          "name": "accountAddress",
          "type": "address"
        },
        {
          "indexed": false,
          "internalType": "uint256",
          "name": "amount",
          "type": "uint256"
        }
      ],
      "name": "LogDepositMade",
      "type": "event"
    },
    {
      "anonymous": false,
      "inputs": [
        {
          "indexed": false,
          "internalType": "address",
          "name": "tokenAddress",
          "type": "address"
        },
        {
          "indexed": false,
          "internalType": "string",
          "name": "tokenName",
          "type": "string"
        },
        {
          "indexed": false,
          "internalType": "string",
          "name": "tokenSymbol",
          "type": "string"
        }
      ],
      "name": "LogTokenCreated",
      "type": "event"
    },
    {
      "inputs": [],
      "name": "owner",
      "outputs": [
        {
          "internalType": "address",
          "name": "",
          "type": "address"
        }
      ],
      "stateMutability": "view",
      "type": "function"
    },
    {
      "inputs": [
        {
          "internalType": "string",
          "name": "_name",
          "type": "string"
        },
        {
          "internalType": "string",
          "name": "_symbol",
          "type": "string"
        }
      ],
      "name": "createToken",
      "outputs": [],
      "stateMutability": "nonpayable",
      "type": "function"
    },
    {
      "inputs": [],
      "name": "getAvailableTokens",
      "outputs": [
        {
          "internalType": "address[]",
          "name": "",
          "type": "address[]"
        }
      ],
      "stateMutability": "view",
      "type": "function"
    },
    {
      "inputs": [
        {
          "internalType": "uint256",
          "name": "withdrawAmount",
          "type": "uint256"
        }
      ],
      "name": "withdraw",
      "outputs": [
        {
          "internalType": "uint256",
          "name": "remainingBal",
          "type": "uint256"
        }
      ],
      "stateMutability": "nonpayable",
      "type": "function"
    }
  ],
  "bytecode": "0x6080604052600060025534801561001557600080fd5b5033600360006101000a81548173ffffffffffffffffffffffffffffffffffffffff021916908373ffffffffffffffffffffffffffffffffffffffff16021790555060006001600080815260200190815260200160002060006101000a81548173ffffffffffffffffffffffffffffffffffffffff021916908373ffffffffffffffffffffffffffffffffffffffff1602179055506128d1806100b96000396000f3fe60806040523480156200001157600080fd5b5060043610620000525760003560e01c80632e1a7d4d14620000575780632f2f2d56146200008d5780638da5cb5b14620000ad578063e35568cb14620000cf575b600080fd5b6200007560048036038101906200006f91906200049b565b620000f1565b604051620000849190620004de565b60405180910390f35b620000ab6004803603810190620000a591906200065d565b62000224565b005b620000b762000313565b604051620000c6919062000727565b60405180910390f35b620000d962000339565b604051620000e8919062000812565b60405180910390f35b60008060003373ffffffffffffffffffffffffffffffffffffffff1673ffffffffffffffffffffffffffffffffffffffff168152602001908152602001600020548211156200013f57600080fd5b816000803373ffffffffffffffffffffffffffffffffffffffff1673ffffffffffffffffffffffffffffffffffffffff16815260200190815260200160002060008282546200018f919062000865565b925050819055503373ffffffffffffffffffffffffffffffffffffffff166108fc839081150290604051600060405180830381858888f19350505050158015620001dd573d6000803e3d6000fd5b506000803373ffffffffffffffffffffffffffffffffffffffff1673ffffffffffffffffffffffffffffffffffffffff168152602001908152602001600020549050919050565b6000828260405162000236906200043e565b6200024392919062000929565b604051809103906000f08015801562000260573d6000803e3d6000fd5b5090508060016000600254815260200190815260200160002060006101000a81548173ffffffffffffffffffffffffffffffffffffffff021916908373ffffffffffffffffffffffffffffffffffffffff16021790555060026000815480929190620002cc9062000964565b91905055507f28258920a6a347f90c2201ff8bd92b5b7a00bbf5c88c5fce1a1fb42c6546e7108184846040516200030693929190620009b1565b60405180910390a1505050565b600360009054906101000a900473ffffffffffffffffffffffffffffffffffffffff1681565b6060600060025467ffffffffffffffff8111156200035c576200035b62000516565b5b6040519080825280602002602001820160405280156200038b5781602001602082028036833780820191505090505b50905060005b60025481101562000436576001600082815260200190815260200160002060009054906101000a900473ffffffffffffffffffffffffffffffffffffffff16828281518110620003e657620003e5620009fc565b5b602002602001019073ffffffffffffffffffffffffffffffffffffffff16908173ffffffffffffffffffffffffffffffffffffffff168152505080806200042d9062000964565b91505062000391565b508091505090565b611e708062000a2c83390190565b6000604051905090565b600080fd5b600080fd5b6000819050919050565b620004758162000460565b81146200048157600080fd5b50565b60008135905062000495816200046a565b92915050565b600060208284031215620004b457620004b362000456565b5b6000620004c48482850162000484565b91505092915050565b620004d88162000460565b82525050565b6000602082019050620004f56000830184620004cd565b92915050565b600080fd5b600080fd5b6000601f19601f8301169050919050565b7f4e487b7100000000000000000000000000000000000000000000000000000000600052604160045260246000fd5b620005508262000505565b810181811067ffffffffffffffff8211171562000572576200057162000516565b5b80604052505050565b6000620005876200044c565b905062000595828262000545565b919050565b600067ffffffffffffffff821115620005b857620005b762000516565b5b620005c38262000505565b9050602081019050919050565b82818337600083830152505050565b6000620005f6620005f0846200059a565b6200057b565b90508281526020810184848401111562000615576200061462000500565b5b62000622848285620005d0565b509392505050565b600082601f830112620006425762000641620004fb565b5b813562000654848260208601620005df565b91505092915050565b6000806040838503121562000677576200067662000456565b5b600083013567ffffffffffffffff8111156200069857620006976200045b565b5b620006a6858286016200062a565b925050602083013567ffffffffffffffff811115620006ca57620006c96200045b565b5b620006d8858286016200062a565b9150509250929050565b600073ffffffffffffffffffffffffffffffffffffffff82169050919050565b60006200070f82620006e2565b9050919050565b620007218162000702565b82525050565b60006020820190506200073e600083018462000716565b92915050565b600081519050919050565b600082825260208201905092915050565b6000819050602082019050919050565b6200077b8162000702565b82525050565b60006200078f838362000770565b60208301905092915050565b6000602082019050919050565b6000620007b58262000744565b620007c181856200074f565b9350620007ce8362000760565b8060005b8381101562000805578151620007e9888262000781565b9750620007f6836200079b565b925050600181019050620007d2565b5085935050505092915050565b600060208201905081810360008301526200082e8184620007a8565b905092915050565b7f4e487b7100000000000000000000000000000000000000000000000000000000600052601160045260246000fd5b6000620008728262000460565b91506200087f8362000460565b92508282039050818111156200089a576200089962000836565b5b92915050565b600081519050919050565b600082825260208201905092915050565b60005b83811015620008dc578082015181840152602081019050620008bf565b60008484015250505050565b6000620008f582620008a0565b620009018185620008ab565b935062000913818560208601620008bc565b6200091e8162000505565b840191505092915050565b60006040820190508181036000830152620009458185620008e8565b905081810360208301526200095b8184620008e8565b90509392505050565b6000620009718262000460565b91507fffffffffffffffffffffffffffffffffffffffffffffffffffffffffffffffff8203620009a657620009a562000836565b5b600182019050919050565b6000606082019050620009c8600083018662000716565b8181036020830152620009dc8185620008e8565b90508181036040830152620009f28184620008e8565b9050949350505050565b7f4e487b7100000000000000000000000000000000000000000000000000000000600052603260045260246000fdfe60806040523480156200001157600080fd5b5060405162001e7038038062001e708339818101604052810190620000379190620003d1565b818181600390816200004a9190620006a1565b5080600490816200005c9190620006a1565b50505033600560006101000a81548173ffffffffffffffffffffffffffffffffffffffff021916908373ffffffffffffffffffffffffffffffffffffffff160217905550620000b4336103e8620000bc60201b60201c565b5050620008a3565b600073ffffffffffffffffffffffffffffffffffffffff168273ffffffffffffffffffffffffffffffffffffffff16036200012e576040517f08c379a00000000000000000000000000000000000000000000000000000000081526004016200012590620007e9565b60405180910390fd5b62000142600083836200023460201b60201c565b80600260008282546200015691906200083a565b92505081905550806000808473ffffffffffffffffffffffffffffffffffffffff1673ffffffffffffffffffffffffffffffffffffffff1681526020019081526020016000206000828254620001ad91906200083a565b925050819055508173ffffffffffffffffffffffffffffffffffffffff16600073ffffffffffffffffffffffffffffffffffffffff167fddf252ad1be2c89b69c2b068fc378daa952ba7f163c4a11628f55a4df523b3ef8360405162000214919062000886565b60405180910390a362000230600083836200023960201b60201c565b5050565b505050565b505050565b6000604051905090565b600080fd5b600080fd5b600080fd5b600080fd5b6000601f19601f8301169050919050565b7f4e487b7100000000000000000000000000000000000000000000000000000000600052604160045260246000fd5b620002a7826200025c565b810181811067ffffffffffffffff82111715620002c957620002c86200026d565b5b80604052505050565b6000620002de6200023e565b9050620002ec82826200029c565b919050565b600067ffffffffffffffff8211156200030f576200030e6200026d565b5b6200031a826200025c565b9050602081019050919050565b60005b83811015620003475780820151818401526020810190506200032a565b60008484015250505050565b60006200036a6200036484620002f1565b620002d2565b90508281526020810184848401111562000389576200038862000257565b5b6200039684828562000327565b509392505050565b600082601f830112620003b657620003b562000252565b5b8151620003c884826020860162000353565b91505092915050565b60008060408385031215620003eb57620003ea62000248565b5b600083015167ffffffffffffffff8111156200040c576200040b6200024d565b5b6200041a858286016200039e565b925050602083015167ffffffffffffffff8111156200043e576200043d6200024d565b5b6200044c858286016200039e565b9150509250929050565b600081519050919050565b7f4e487b7100000000000000000000000000000000000000000000000000000000600052602260045260246000fd5b60006002820490506001821680620004a957607f821691505b602082108103620004bf57620004be62000461565b5b50919050565b60008190508160005260206000209050919050565b60006020601f8301049050919050565b600082821b905092915050565b600060088302620005297fffffffffffffffffffffffffffffffffffffffffffffffffffffffffffffffff82620004ea565b620005358683620004ea565b95508019841693508086168417925050509392505050565b6000819050919050565b6000819050919050565b6000620005826200057c62000576846200054d565b62000557565b6200054d565b9050919050565b6000819050919050565b6200059e8362000561565b620005b6620005ad8262000589565b848454620004f7565b825550505050565b600090565b620005cd620005be565b620005da81848462000593565b505050565b5b818110156200060257620005f6600082620005c3565b600181019050620005e0565b5050565b601f82111562000651576200061b81620004c5565b6200062684620004da565b8101602085101562000636578190505b6200064e6200064585620004da565b830182620005df565b50505b505050565b600082821c905092915050565b6000620006766000198460080262000656565b1980831691505092915050565b600062000691838362000663565b9150826002028217905092915050565b620006ac8262000456565b67ffffffffffffffff811115620006c857620006c76200026d565b5b620006d4825462000490565b620006e182828562000606565b600060209050601f83116001811462000719576000841562000704578287015190505b62000710858262000683565b86555062000780565b601f1984166200072986620004c5565b60005b8281101562000753578489015182556001820191506020850194506020810190506200072c565b868310156200077357848901516200076f601f89168262000663565b8355505b6001600288020188555050505b505050505050565b600082825260208201905092915050565b7f45524332303a206d696e7420746f20746865207a65726f206164647265737300600082015250565b6000620007d1601f8362000788565b9150620007de8262000799565b602082019050919050565b600060208201905081810360008301526200080481620007c2565b9050919050565b7f4e487b7100000000000000000000000000000000000000000000000000000000600052601160045260246000fd5b600062000847826200054d565b915062000854836200054d565b92508282019050808211156200086f576200086e6200080b565b5b92915050565b62000880816200054d565b82525050565b60006020820190506200089d600083018462000875565b92915050565b6115bd80620008b36000396000f3fe608060405234801561001057600080fd5b50600436106100cf5760003560e01c806340c10f191161008c578063a457c2d711610066578063a457c2d714610228578063a9059cbb14610258578063dd62ed3e14610288578063f851a440146102b8576100cf565b806340c10f19146101be57806370a08231146101da57806395d89b411461020a576100cf565b806306fdde03146100d4578063095ea7b3146100f257806318160ddd1461012257806323b872dd14610140578063313ce56714610170578063395093511461018e575b600080fd5b6100dc6102d6565b6040516100e99190610d98565b60405180910390f35b61010c60048036038101906101079190610e53565b610368565b6040516101199190610eae565b60405180910390f35b61012a61038b565b6040516101379190610ed8565b60405180910390f35b61015a60048036038101906101559190610ef3565b610395565b6040516101679190610eae565b60405180910390f35b6101786103c4565b6040516101859190610f62565b60405180910390f35b6101a860048036038101906101a39190610e53565b6103cd565b6040516101b59190610eae565b60405180910390f35b6101d860048036038101906101d39190610e53565b610404565b005b6101f460048036038101906101ef9190610f7d565b6104a2565b6040516102019190610ed8565b60405180910390f35b6102126104ea565b60405161021f9190610d98565b60405180910390f35b610242600480360381019061023d9190610e53565b61057c565b60405161024f9190610eae565b60405180910390f35b610272600480360381019061026d9190610e53565b6105f3565b60405161027f9190610eae565b60405180910390f35b6102a2600480360381019061029d9190610faa565b610616565b6040516102af9190610ed8565b60405180910390f35b6102c061069d565b6040516102cd9190610ff9565b60405180910390f35b6060600380546102e590611043565b80601f016020809104026020016040519081016040528092919081815260200182805461031190611043565b801561035e5780601f106103335761010080835404028352916020019161035e565b820191906000526020600020905b81548152906001019060200180831161034157829003601f168201915b5050505050905090565b6000806103736106c3565b90506103808185856106cb565b600191505092915050565b6000600254905090565b6000806103a06106c3565b90506103ad858285610894565b6103b8858585610920565b60019150509392505050565b60006012905090565b6000806103d86106c3565b90506103f98185856103ea8589610616565b6103f491906110a3565b6106cb565b600191505092915050565b600560009054906101000a900473ffffffffffffffffffffffffffffffffffffffff1673ffffffffffffffffffffffffffffffffffffffff163373ffffffffffffffffffffffffffffffffffffffff1614610494576040517f08c379a000000000000000000000000000000000000000000000000000000000815260040161048b90611123565b60405180910390fd5b61049e8282610b9f565b5050565b60008060008373ffffffffffffffffffffffffffffffffffffffff1673ffffffffffffffffffffffffffffffffffffffff168152602001908152602001600020549050919050565b6060600480546104f990611043565b80601f016020809104026020016040519081016040528092919081815260200182805461052590611043565b80156105725780601f1061054757610100808354040283529160200191610572565b820191906000526020600020905b81548152906001019060200180831161055557829003601f168201915b5050505050905090565b6000806105876106c3565b905060006105958286610616565b9050838110156105da576040517f08c379a00000000000000000000000000000000000000000000000000000000081526004016105d1906111b5565b60405180910390fd5b6105e782868684036106cb565b60019250505092915050565b6000806105fe6106c3565b905061060b818585610920565b600191505092915050565b6000600160008473ffffffffffffffffffffffffffffffffffffffff1673ffffffffffffffffffffffffffffffffffffffff16815260200190815260200160002060008373ffffffffffffffffffffffffffffffffffffffff1673ffffffffffffffffffffffffffffffffffffffff16815260200190815260200160002054905092915050565b600560009054906101000a900473ffffffffffffffffffffffffffffffffffffffff1681565b600033905090565b600073ffffffffffffffffffffffffffffffffffffffff168373ffffffffffffffffffffffffffffffffffffffff160361073a576040517f08c379a000000000000000000000000000000000000000000000000000000000815260040161073190611247565b60405180910390fd5b600073ffffffffffffffffffffffffffffffffffffffff168273ffffffffffffffffffffffffffffffffffffffff16036107a9576040517f08c379a00000000000000000000000000000000000000000000000000000000081526004016107a0906112d9565b60405180910390fd5b80600160008573ffffffffffffffffffffffffffffffffffffffff1673ffffffffffffffffffffffffffffffffffffffff16815260200190815260200160002060008473ffffffffffffffffffffffffffffffffffffffff1673ffffffffffffffffffffffffffffffffffffffff168152602001908152602001600020819055508173ffffffffffffffffffffffffffffffffffffffff168373ffffffffffffffffffffffffffffffffffffffff167f8c5be1e5ebec7d5bd14f71427d1e84f3dd0314c0f7b2291e5b200ac8c7c3b925836040516108879190610ed8565b60405180910390a3505050565b60006108a08484610616565b90507fffffffffffffffffffffffffffffffffffffffffffffffffffffffffffffffff811461091a578181101561090c576040517f08c379a000000000000000000000000000000000000000000000000000000000815260040161090390611345565b60405180910390fd5b61091984848484036106cb565b5b50505050565b600073ffffffffffffffffffffffffffffffffffffffff168373ffffffffffffffffffffffffffffffffffffffff160361098f576040517f08c379a0000000000000000000000000000000000000000000000000000000008152600401610986906113d7565b60405180910390fd5b600073ffffffffffffffffffffffffffffffffffffffff168273ffffffffffffffffffffffffffffffffffffffff16036109fe576040517f08c379a00000000000000000000000000000000000000000000000000000000081526004016109f590611469565b60405180910390fd5b610a09838383610cfe565b60008060008573ffffffffffffffffffffffffffffffffffffffff1673ffffffffffffffffffffffffffffffffffffffff16815260200190815260200160002054905081811015610a8f576040517f08c379a0000000000000000000000000000000000000000000000000000000008152600401610a86906114fb565b60405180910390fd5b8181036000808673ffffffffffffffffffffffffffffffffffffffff1673ffffffffffffffffffffffffffffffffffffffff16815260200190815260200160002081905550816000808573ffffffffffffffffffffffffffffffffffffffff1673ffffffffffffffffffffffffffffffffffffffff1681526020019081526020016000206000828254610b2291906110a3565b925050819055508273ffffffffffffffffffffffffffffffffffffffff168473ffffffffffffffffffffffffffffffffffffffff167fddf252ad1be2c89b69c2b068fc378daa952ba7f163c4a11628f55a4df523b3ef84604051610b869190610ed8565b60405180910390a3610b99848484610d03565b50505050565b600073ffffffffffffffffffffffffffffffffffffffff168273ffffffffffffffffffffffffffffffffffffffff1603610c0e576040517f08c379a0000000000000000000000000000000000000000000000000000000008152600401610c0590611567565b60405180910390fd5b610c1a60008383610cfe565b8060026000828254610c2c91906110a3565b92505081905550806000808473ffffffffffffffffffffffffffffffffffffffff1673ffffffffffffffffffffffffffffffffffffffff1681526020019081526020016000206000828254610c8191906110a3565b925050819055508173ffffffffffffffffffffffffffffffffffffffff16600073ffffffffffffffffffffffffffffffffffffffff167fddf252ad1be2c89b69c2b068fc378daa952ba7f163c4a11628f55a4df523b3ef83604051610ce69190610ed8565b60405180910390a3610cfa60008383610d03565b5050565b505050565b505050565b600081519050919050565b600082825260208201905092915050565b60005b83811015610d42578082015181840152602081019050610d27565b60008484015250505050565b6000601f19601f8301169050919050565b6000610d6a82610d08565b610d748185610d13565b9350610d84818560208601610d24565b610d8d81610d4e565b840191505092915050565b60006020820190508181036000830152610db28184610d5f565b905092915050565b600080fd5b600073ffffffffffffffffffffffffffffffffffffffff82169050919050565b6000610dea82610dbf565b9050919050565b610dfa81610ddf565b8114610e0557600080fd5b50565b600081359050610e1781610df1565b92915050565b6000819050919050565b610e3081610e1d565b8114610e3b57600080fd5b50565b600081359050610e4d81610e27565b92915050565b60008060408385031215610e6a57610e69610dba565b5b6000610e7885828601610e08565b9250506020610e8985828601610e3e565b9150509250929050565b60008115159050919050565b610ea881610e93565b82525050565b6000602082019050610ec36000830184610e9f565b92915050565b610ed281610e1d565b82525050565b6000602082019050610eed6000830184610ec9565b92915050565b600080600060608486031215610f0c57610f0b610dba565b5b6000610f1a86828701610e08565b9350506020610f2b86828701610e08565b9250506040610f3c86828701610e3e565b9150509250925092565b600060ff82169050919050565b610f5c81610f46565b82525050565b6000602082019050610f776000830184610f53565b92915050565b600060208284031215610f9357610f92610dba565b5b6000610fa184828501610e08565b91505092915050565b60008060408385031215610fc157610fc0610dba565b5b6000610fcf85828601610e08565b9250506020610fe085828601610e08565b9150509250929050565b610ff381610ddf565b82525050565b600060208201905061100e6000830184610fea565b92915050565b7f4e487b7100000000000000000000000000000000000000000000000000000000600052602260045260246000fd5b6000600282049050600182168061105b57607f821691505b60208210810361106e5761106d611014565b5b50919050565b7f4e487b7100000000000000000000000000000000000000000000000000000000600052601160045260246000fd5b60006110ae82610e1d565b91506110b983610e1d565b92508282019050808211156110d1576110d0611074565b5b92915050565b7f4f6e6c792061646d696e2063616e206d696e7400000000000000000000000000600082015250565b600061110d601383610d13565b9150611118826110d7565b602082019050919050565b6000602082019050818103600083015261113c81611100565b9050919050565b7f45524332303a2064656372656173656420616c6c6f77616e63652062656c6f7760008201527f207a65726f000000000000000000000000000000000000000000000000000000602082015250565b600061119f602583610d13565b91506111aa82611143565b604082019050919050565b600060208201905081810360008301526111ce81611192565b9050919050565b7f45524332303a20617070726f76652066726f6d20746865207a65726f2061646460008201527f7265737300000000000000000000000000000000000000000000000000000000602082015250565b6000611231602483610d13565b915061123c826111d5565b604082019050919050565b6000602082019050818103600083015261126081611224565b9050919050565b7f45524332303a20617070726f766520746f20746865207a65726f20616464726560008201527f7373000000000000000000000000000000000000000000000000000000000000602082015250565b60006112c3602283610d13565b91506112ce82611267565b604082019050919050565b600060208201905081810360008301526112f2816112b6565b9050919050565b7f45524332303a20696e73756666696369656e7420616c6c6f77616e6365000000600082015250565b600061132f601d83610d13565b915061133a826112f9565b602082019050919050565b6000602082019050818103600083015261135e81611322565b9050919050565b7f45524332303a207472616e736665722066726f6d20746865207a65726f20616460008201527f6472657373000000000000000000000000000000000000000000000000000000602082015250565b60006113c1602583610d13565b91506113cc82611365565b604082019050919050565b600060208201905081810360008301526113f0816113b4565b9050919050565b7f45524332303a207472616e7366657220746f20746865207a65726f206164647260008201527f6573730000000000000000000000000000000000000000000000000000000000602082015250565b6000611453602383610d13565b915061145e826113f7565b604082019050919050565b6000602082019050818103600083015261148281611446565b9050919050565b7f45524332303a207472616e7366657220616d6f756e742065786365656473206260008201527f616c616e63650000000000000000000000000000000000000000000000000000602082015250565b60006114e5602683610d13565b91506114f082611489565b604082019050919050565b60006020820190508181036000830152611514816114d8565b9050919050565b7f45524332303a206d696e7420746f20746865207a65726f206164647265737300600082015250565b6000611551601f83610d13565b915061155c8261151b565b602082019050919050565b6000602082019050818103600083015261158081611544565b905091905056fea264697066735822122007df4103ac83fe571072e8e323d1aac6ded590aaa4a083f3b076c4e6d8d2ac5a64736f6c63430008110033a264697066735822122023213da3ff741c87cd26513eb35c06dde7466cd14a9d04c506241c250c4a19a964736f6c63430008110033",
  "immutableReferences": {},
  "source": "pragma solidity ^0.8.17;\r\n\r\nimport \"../node_modules/@openzeppelin/contracts/token/ERC20/ERC20.sol\";\r\n\r\ncontract Token is ERC20 {\r\n    address public admin;\r\n\r\n    constructor(string memory _name, string memory _symbol) ERC20(_name, _symbol) {\r\n        admin = msg.sender;\r\n        _mint(msg.sender, 1000);\r\n    }\r\n\r\n    function mint(address _to, uint256 _amount) external {\r\n        require(msg.sender == admin, \"Only admin can mint\");\r\n        _mint(_to, _amount);\r\n    }\r\n}\r\n\r\ncontract Dex {\r\n    mapping (address => uint) private balances;\r\n    mapping (uint => address) private availableTokens;\r\n    uint256 private numTokens=0;\r\n\r\n    address public owner;\r\n    event LogDepositMade(address accountAddress, uint amount);\r\n    event LogTokenCreated(address tokenAddress, string tokenName, string tokenSymbol);\r\n\r\n    constructor () {\r\n        owner = msg.sender;\r\n        availableTokens[0] = address(0);\r\n    }\r\n\r\n\r\n    // Allows admin to create new token, and new token will be added into availableTokens dict.\r\n    function createToken(string memory _name, string memory _symbol) public {\r\n        // only allow owner to create tokens\r\n        // require(owner == msg.sender, \"Only the owner can create tokens!\");\r\n\r\n        //mapping address of new Token created\r\n        address newTokenAddress = address(new Token(_name, _symbol));\r\n        availableTokens[numTokens] = newTokenAddress;\r\n        numTokens++;\r\n\r\n        // log token creation event\r\n        emit LogTokenCreated(newTokenAddress, _name, _symbol);\r\n    }\r\n\r\n    // Returns an array of available tokens\r\n    function getAvailableTokens() public view returns(address[] memory){\r\n        address[] memory addressTemp = new address[](numTokens);\r\n\r\n        //loop through the available tokens\r\n        for (uint256 i=0; i < numTokens; i++) {\r\n            addressTemp[i] = availableTokens[i];\r\n        }\r\n        return addressTemp;\r\n    }\r\n\r\n\r\n    function withdraw(uint withdrawAmount) public returns (uint remainingBal) {\r\n        require(withdrawAmount <= balances[msg.sender]);\r\n\r\n        balances[msg.sender] -= withdrawAmount;\r\n\r\n        payable(msg.sender).transfer(withdrawAmount);\r\n\r\n        return balances[msg.sender];\r\n    }\r\n}\r\n\r\n",
  "sourcePath": "C:\\Users\\Yu_Hao\\Desktop\\Y3S1\\CZ4153\\Project\\4153-Decentralized-Exchange\\truffleProj\\contracts\\Dex.sol",
  "compiler": {
    "name": "solc",
    "version": "0.8.17+commit.8df45f5f.Emscripten.clang"
  },
  "schemaVersion": "3.4.10",
  "updatedAt": "2022-10-26T19:00:15.959Z",
  "devdoc": {
    "kind": "dev",
    "methods": {},
    "version": 1
  },
  "userdoc": {
    "kind": "user",
    "methods": {},
    "version": 1
  }
}