{
  "contractName": "Dex",
  "abi": [
    {
      "inputs": [],
      "stateMutability": "nonpayable",
      "type": "constructor"
    },
    {
      "anonymous": false,
      "inputs": [
        {
          "indexed": false,
          "internalType": "address",
          "name": "buyer",
          "type": "address"
        },
        {
          "indexed": false,
          "internalType": "address",
          "name": "buyToken",
          "type": "address"
        },
        {
          "indexed": false,
          "internalType": "uint256",
          "name": "buyAmt",
          "type": "uint256"
        },
        {
          "indexed": false,
          "internalType": "address",
          "name": "payToken",
          "type": "address"
        },
        {
          "indexed": false,
          "internalType": "uint256",
          "name": "payAmt",
          "type": "uint256"
        }
      ],
      "name": "LogBuyOrderPlaced",
      "type": "event"
    },
    {
      "anonymous": false,
      "inputs": [
        {
          "indexed": false,
          "internalType": "address",
          "name": "tokenAddress",
          "type": "address"
        },
        {
          "indexed": false,
          "internalType": "string",
          "name": "tokenName",
          "type": "string"
        },
        {
          "indexed": false,
          "internalType": "string",
          "name": "tokenSymbol",
          "type": "string"
        }
      ],
      "name": "LogTokenCreated",
      "type": "event"
    },
    {
      "anonymous": false,
      "inputs": [
        {
          "indexed": false,
          "internalType": "address",
          "name": "token",
          "type": "address"
        },
        {
          "indexed": false,
          "internalType": "address",
          "name": "receipient",
          "type": "address"
        },
        {
          "indexed": false,
          "internalType": "uint256",
          "name": "amount",
          "type": "uint256"
        }
      ],
      "name": "LogTokenSent",
      "type": "event"
    },
    {
      "inputs": [
        {
          "internalType": "uint256",
          "name": "",
          "type": "uint256"
        }
      ],
      "name": "_orders",
      "outputs": [
        {
          "internalType": "address",
          "name": "orderedBy",
          "type": "address"
        },
        {
          "internalType": "uint256",
          "name": "price",
          "type": "uint256"
        },
        {
          "internalType": "uint256",
          "name": "quantity",
          "type": "uint256"
        },
        {
          "internalType": "uint256",
          "name": "date",
          "type": "uint256"
        },
        {
          "internalType": "bool",
          "name": "isTimed",
          "type": "bool"
        },
        {
          "internalType": "string",
          "name": "token1",
          "type": "string"
        },
        {
          "internalType": "string",
          "name": "token2",
          "type": "string"
        },
        {
          "internalType": "string",
          "name": "orderType",
          "type": "string"
        },
        {
          "internalType": "address",
          "name": "token1Addr",
          "type": "address"
        },
        {
          "internalType": "address",
          "name": "token2Addr",
          "type": "address"
        }
      ],
      "stateMutability": "view",
      "type": "function",
      "constant": true
    },
    {
      "inputs": [],
      "name": "owner",
      "outputs": [
        {
          "internalType": "address",
          "name": "",
          "type": "address"
        }
      ],
      "stateMutability": "view",
      "type": "function",
      "constant": true
    },
    {
      "inputs": [
        {
          "internalType": "string",
          "name": "_name",
          "type": "string"
        },
        {
          "internalType": "string",
          "name": "_symbol",
          "type": "string"
        }
      ],
      "name": "createToken",
      "outputs": [],
      "stateMutability": "nonpayable",
      "type": "function"
    },
    {
      "inputs": [
        {
          "internalType": "address",
          "name": "_token",
          "type": "address"
        },
        {
          "internalType": "address",
          "name": "_receipient",
          "type": "address"
        },
        {
          "internalType": "uint256",
          "name": "_amount",
          "type": "uint256"
        }
      ],
      "name": "sendToken",
      "outputs": [],
      "stateMutability": "nonpayable",
      "type": "function"
    },
    {
      "inputs": [],
      "name": "getAvailableTokens",
      "outputs": [
        {
          "internalType": "address[]",
          "name": "",
          "type": "address[]"
        }
      ],
      "stateMutability": "view",
      "type": "function",
      "constant": true
    },
    {
      "inputs": [
        {
          "internalType": "address",
          "name": "_token",
          "type": "address"
        }
      ],
      "name": "getTokenName",
      "outputs": [
        {
          "internalType": "string",
          "name": "",
          "type": "string"
        }
      ],
      "stateMutability": "view",
      "type": "function",
      "constant": true
    },
    {
      "inputs": [
        {
          "internalType": "address",
          "name": "_token",
          "type": "address"
        }
      ],
      "name": "getTokenBalance",
      "outputs": [
        {
          "internalType": "uint256",
          "name": "",
          "type": "uint256"
        }
      ],
      "stateMutability": "view",
      "type": "function",
      "constant": true
    },
    {
      "inputs": [
        {
          "internalType": "address",
          "name": "_buyToken",
          "type": "address"
        },
        {
          "internalType": "uint256",
          "name": "_buyAmt",
          "type": "uint256"
        },
        {
          "internalType": "address",
          "name": "_payToken",
          "type": "address"
        },
        {
          "internalType": "uint256",
          "name": "_payAmt",
          "type": "uint256"
        },
        {
          "internalType": "bool",
          "name": "_isTimedOrder",
          "type": "bool"
        }
      ],
      "name": "buy",
      "outputs": [],
      "stateMutability": "nonpayable",
      "type": "function"
    },
    {
      "inputs": [
        {
          "internalType": "address",
          "name": "_token1",
          "type": "address"
        },
        {
          "internalType": "address",
          "name": "_token2",
          "type": "address"
        }
      ],
      "name": "getOrderbookAddress",
      "outputs": [
        {
          "internalType": "address",
          "name": "",
          "type": "address"
        },
        {
          "internalType": "address",
          "name": "",
          "type": "address"
        },
        {
          "internalType": "address",
          "name": "",
          "type": "address"
        }
      ],
      "stateMutability": "view",
      "type": "function",
      "constant": true
    },
    {
      "inputs": [
        {
          "internalType": "address",
          "name": "_token1",
          "type": "address"
        },
        {
          "internalType": "address",
          "name": "_token2",
          "type": "address"
        }
      ],
      "name": "addTokenPair",
      "outputs": [
        {
          "internalType": "address",
          "name": "",
          "type": "address"
        },
        {
          "internalType": "address",
          "name": "",
          "type": "address"
        },
        {
          "internalType": "address",
          "name": "",
          "type": "address"
        }
      ],
      "stateMutability": "nonpayable",
      "type": "function"
    },
    {
      "inputs": [],
      "name": "getOrders",
      "outputs": [
        {
          "components": [
            {
              "internalType": "address",
              "name": "orderedBy",
              "type": "address"
            },
            {
              "internalType": "uint256",
              "name": "price",
              "type": "uint256"
            },
            {
              "internalType": "uint256",
              "name": "quantity",
              "type": "uint256"
            },
            {
              "internalType": "uint256",
              "name": "date",
              "type": "uint256"
            },
            {
              "internalType": "bool",
              "name": "isTimed",
              "type": "bool"
            },
            {
              "internalType": "string",
              "name": "token1",
              "type": "string"
            },
            {
              "internalType": "string",
              "name": "token2",
              "type": "string"
            },
            {
              "internalType": "string",
              "name": "orderType",
              "type": "string"
            },
            {
              "internalType": "address",
              "name": "token1Addr",
              "type": "address"
            },
            {
              "internalType": "address",
              "name": "token2Addr",
              "type": "address"
            }
          ],
          "internalType": "struct Dex.Order[]",
          "name": "",
          "type": "tuple[]"
        }
      ],
      "stateMutability": "nonpayable",
      "type": "function"
    }
  ],
  "bytecode": "0x60806040526040516200001290620000cd565b604051809103906000f0801580156200002f573d6000803e3d6000fd5b50600360006101000a81548173ffffffffffffffffffffffffffffffffffffffff021916908373ffffffffffffffffffffffffffffffffffffffff1602179055503480156200007d57600080fd5b5033600660006101000a81548173ffffffffffffffffffffffffffffffffffffffff021916908373ffffffffffffffffffffffffffffffffffffffff1602179055506000600281905550620000db565b61446a8062005ab783390190565b6159cc80620000eb6000396000f3fe60806040523480156200001157600080fd5b5060043610620000b85760003560e01c80634e5919ef116200007b5780634e5919ef146200018d5780636f0fccab14620001cc5780638da5cb5b1462000202578063a7c87ec21462000224578063e35568cb146200025c578063f9761398146200027e57620000b8565b80630633fe0114620000bd5780632e2dc43e14620000f55780632f2f2d5614620001175780632fdcfbd214620001375780633aecd0e31462000157575b600080fd5b620000db6004803603810190620000d591906200244d565b6200029e565b604051620000ec93929190620024a5565b60405180910390f35b620000ff620003d0565b6040516200010e919062002791565b60405180910390f35b6200013560048036038101906200012f919062002906565b6200133a565b005b6200015560048036038101906200014f9190620029bc565b62001548565b005b6200017560048036038101906200016f919062002a18565b62001705565b60405162000184919062002a5b565b60405180910390f35b620001ab6004803603810190620001a5919062002a78565b620017f0565b604051620001c39a9998979695949392919062002b0d565b60405180910390f35b620001ea6004803603810190620001e4919062002a18565b62001a72565b604051620001f9919062002bd2565b60405180910390f35b6200020c62001b56565b6040516200021b919062002bf6565b60405180910390f35b6200024260048036038101906200023c91906200244d565b62001b7c565b6040516200025393929190620024a5565b60405180910390f35b6200026662001d6a565b60405162000275919062002cd0565b60405180910390f35b6200029c600480360381019062000296919062002d25565b62001f0a565b005b60008060008060008573ffffffffffffffffffffffffffffffffffffffff168773ffffffffffffffffffffffffffffffffffffffff161115620002e757869150859050620002ee565b8591508690505b600082826040516020016200030592919062002dfd565b604051602081830303815290604052805190602001209050600360009054906101000a900473ffffffffffffffffffffffffffffffffffffffff1673ffffffffffffffffffffffffffffffffffffffff1663ac572315826040518263ffffffff1660e01b81526004016200037a919062002e48565b602060405180830381865afa15801562000398573d6000803e3d6000fd5b505050506040513d601f19601f82011682018060405250810190620003be919062002e7c565b83839550955095505050509250925092565b60608060608060608060608060005b6004805490508110156200050857600480548062000402576200040162002eae565b5b60019003818190600052602060002090600a0201600080820160006101000a81549073ffffffffffffffffffffffffffffffffffffffff02191690556001820160009055600282016000905560038201600090556004820160006101000a81549060ff02191690556005820160006200047c919062002361565b6006820160006200048e919062002361565b600782016000620004a0919062002361565b6008820160006101000a81549073ffffffffffffffffffffffffffffffffffffffff02191690556009820160006101000a81549073ffffffffffffffffffffffffffffffffffffffff0219169055505090558080620004ff9062002f0c565b915050620003df565b5060005b60058054905081101562000fc9576000600360009054906101000a900473ffffffffffffffffffffffffffffffffffffffff1673ffffffffffffffffffffffffffffffffffffffff1663ac5723156005848154811062000571576200057062002f59565b5b90600052602060002001546040518263ffffffff1660e01b81526004016200059a919062002e48565b602060405180830381865afa158015620005b8573d6000803e3d6000fd5b505050506040513d601f19601f82011682018060405250810190620005de919062002e7c565b90508073ffffffffffffffffffffffffffffffffffffffff16630e07df0b6040518163ffffffff1660e01b8152600401600060405180830381865afa1580156200062c573d6000803e3d6000fd5b505050506040513d6000823e3d601f19601f820116820180604052508101906200065791906200323d565b809950819a50829b50839c50849d505050505050620006e78173ffffffffffffffffffffffffffffffffffffffff1663d21220a76040518163ffffffff1660e01b8152600401602060405180830381865afa158015620006bb573d6000803e3d6000fd5b505050506040513d601f19601f82011682018060405250810190620006e19190620033a5565b62001a72565b9350620007658173ffffffffffffffffffffffffffffffffffffffff166325be124e6040518163ffffffff1660e01b8152600401602060405180830381865afa15801562000739573d6000803e3d6000fd5b505050506040513d601f19601f820116820180604052508101906200075f9190620033a5565b62001a72565b925060005b895181101562000b465760046040518061014001604052808c848151811062000798576200079762002f59565b5b602002602001015173ffffffffffffffffffffffffffffffffffffffff1681526020018b8481518110620007d157620007d062002f59565b5b602002602001015181526020018a8481518110620007f457620007f362002f59565b5b6020026020010151815260200189848151811062000817576200081662002f59565b5b602002602001015181526020018884815181106200083a576200083962002f59565b5b6020026020010151151581526020018781526020018681526020016040518060400160405280600381526020017f627579000000000000000000000000000000000000000000000000000000000081525081526020018473ffffffffffffffffffffffffffffffffffffffff1663d21220a76040518163ffffffff1660e01b8152600401602060405180830381865afa158015620008dc573d6000803e3d6000fd5b505050506040513d601f19601f82011682018060405250810190620009029190620033a5565b73ffffffffffffffffffffffffffffffffffffffff1681526020018473ffffffffffffffffffffffffffffffffffffffff166325be124e6040518163ffffffff1660e01b8152600401602060405180830381865afa15801562000969573d6000803e3d6000fd5b505050506040513d601f19601f820116820180604052508101906200098f9190620033a5565b73ffffffffffffffffffffffffffffffffffffffff1681525090806001815401808255809150506001900390600052602060002090600a020160009091909190915060008201518160000160006101000a81548173ffffffffffffffffffffffffffffffffffffffff021916908373ffffffffffffffffffffffffffffffffffffffff16021790555060208201518160010155604082015181600201556060820151816003015560808201518160040160006101000a81548160ff02191690831515021790555060a082015181600501908162000a6d91906200360d565b5060c082015181600601908162000a8591906200360d565b5060e082015181600701908162000a9d91906200360d565b506101008201518160080160006101000a81548173ffffffffffffffffffffffffffffffffffffffff021916908373ffffffffffffffffffffffffffffffffffffffff1602179055506101208201518160090160006101000a81548173ffffffffffffffffffffffffffffffffffffffff021916908373ffffffffffffffffffffffffffffffffffffffff1602179055505050808062000b3d9062002f0c565b9150506200076a565b508073ffffffffffffffffffffffffffffffffffffffff1663949092c26040518163ffffffff1660e01b8152600401600060405180830381865afa15801562000b93573d6000803e3d6000fd5b505050506040513d6000823e3d601f19601f8201168201806040525081019062000bbe91906200323d565b809950819a50829b50839c50849d50505050505060005b895181101562000fb15760046040518061014001604052808c848151811062000c035762000c0262002f59565b5b602002602001015173ffffffffffffffffffffffffffffffffffffffff1681526020018b848151811062000c3c5762000c3b62002f59565b5b602002602001015181526020018a848151811062000c5f5762000c5e62002f59565b5b6020026020010151815260200189848151811062000c825762000c8162002f59565b5b6020026020010151815260200188848151811062000ca55762000ca462002f59565b5b6020026020010151151581526020018781526020018681526020016040518060400160405280600481526020017f73656c6c0000000000000000000000000000000000000000000000000000000081525081526020018473ffffffffffffffffffffffffffffffffffffffff1663d21220a76040518163ffffffff1660e01b8152600401602060405180830381865afa15801562000d47573d6000803e3d6000fd5b505050506040513d601f19601f8201168201806040525081019062000d6d9190620033a5565b73ffffffffffffffffffffffffffffffffffffffff1681526020018473ffffffffffffffffffffffffffffffffffffffff166325be124e6040518163ffffffff1660e01b8152600401602060405180830381865afa15801562000dd4573d6000803e3d6000fd5b505050506040513d601f19601f8201168201806040525081019062000dfa9190620033a5565b73ffffffffffffffffffffffffffffffffffffffff1681525090806001815401808255809150506001900390600052602060002090600a020160009091909190915060008201518160000160006101000a81548173ffffffffffffffffffffffffffffffffffffffff021916908373ffffffffffffffffffffffffffffffffffffffff16021790555060208201518160010155604082015181600201556060820151816003015560808201518160040160006101000a81548160ff02191690831515021790555060a082015181600501908162000ed891906200360d565b5060c082015181600601908162000ef091906200360d565b5060e082015181600701908162000f0891906200360d565b506101008201518160080160006101000a81548173ffffffffffffffffffffffffffffffffffffffff021916908373ffffffffffffffffffffffffffffffffffffffff1602179055506101208201518160090160006101000a81548173ffffffffffffffffffffffffffffffffffffffff021916908373ffffffffffffffffffffffffffffffffffffffff1602179055505050808062000fa89062002f0c565b91505062000bd5565b5050808062000fc09062002f0c565b9150506200050c565b506004805480602002602001604051908101604052809291908181526020016000905b828210156200132a57838290600052602060002090600a0201604051806101400160405290816000820160009054906101000a900473ffffffffffffffffffffffffffffffffffffffff1673ffffffffffffffffffffffffffffffffffffffff1673ffffffffffffffffffffffffffffffffffffffff1681526020016001820154815260200160028201548152602001600382015481526020016004820160009054906101000a900460ff16151515158152602001600582018054620010b29062003406565b80601f0160208091040260200160405190810160405280929190818152602001828054620010e09062003406565b8015620011315780601f10620011055761010080835404028352916020019162001131565b820191906000526020600020905b8154815290600101906020018083116200111357829003601f168201915b505050505081526020016006820180546200114c9062003406565b80601f01602080910402602001604051908101604052809291908181526020018280546200117a9062003406565b8015620011cb5780601f106200119f57610100808354040283529160200191620011cb565b820191906000526020600020905b815481529060010190602001808311620011ad57829003601f168201915b50505050508152602001600782018054620011e69062003406565b80601f0160208091040260200160405190810160405280929190818152602001828054620012149062003406565b8015620012655780601f10620012395761010080835404028352916020019162001265565b820191906000526020600020905b8154815290600101906020018083116200124757829003601f168201915b505050505081526020016008820160009054906101000a900473ffffffffffffffffffffffffffffffffffffffff1673ffffffffffffffffffffffffffffffffffffffff1673ffffffffffffffffffffffffffffffffffffffff1681526020016009820160009054906101000a900473ffffffffffffffffffffffffffffffffffffffff1673ffffffffffffffffffffffffffffffffffffffff1673ffffffffffffffffffffffffffffffffffffffff16815250508152602001906001019062000fec565b5050505097505050505050505090565b3373ffffffffffffffffffffffffffffffffffffffff16600660009054906101000a900473ffffffffffffffffffffffffffffffffffffffff1673ffffffffffffffffffffffffffffffffffffffff1614620013cd576040517f08c379a0000000000000000000000000000000000000000000000000000000008152600401620013c4906200376a565b60405180910390fd5b60008282604051620013df90620023a7565b620013ec9291906200378c565b604051809103906000f08015801562001409573d6000803e3d6000fd5b509050806000808373ffffffffffffffffffffffffffffffffffffffff1673ffffffffffffffffffffffffffffffffffffffff16815260200190815260200160002060006101000a81548173ffffffffffffffffffffffffffffffffffffffff021916908373ffffffffffffffffffffffffffffffffffffffff1602179055506001819080600181540180825580915050600190039060005260206000200160009091909190916101000a81548173ffffffffffffffffffffffffffffffffffffffff021916908373ffffffffffffffffffffffffffffffffffffffff16021790555060026000815480929190620015019062002f0c565b91905055507f28258920a6a347f90c2201ff8bd92b5b7a00bbf5c88c5fce1a1fb42c6546e7108184846040516200153b93929190620037c7565b60405180910390a1505050565b3373ffffffffffffffffffffffffffffffffffffffff16600660009054906101000a900473ffffffffffffffffffffffffffffffffffffffff1673ffffffffffffffffffffffffffffffffffffffff1614620015db576040517f08c379a0000000000000000000000000000000000000000000000000000000008152600401620015d29062003862565b60405180910390fd5b60008060008573ffffffffffffffffffffffffffffffffffffffff1673ffffffffffffffffffffffffffffffffffffffff16815260200190815260200160002060009054906101000a900473ffffffffffffffffffffffffffffffffffffffff1690508073ffffffffffffffffffffffffffffffffffffffff1663a9059cbb84846040518363ffffffff1660e01b81526004016200167b92919062003884565b6020604051808303816000875af11580156200169b573d6000803e3d6000fd5b505050506040513d601f19601f82011682018060405250810190620016c19190620038b1565b507faa8d76b5ad42bc1fee99a7520271a35d2442ee3ff95215fbc2b4856af9616888848484604051620016f793929190620038e3565b60405180910390a150505050565b6000806000808473ffffffffffffffffffffffffffffffffffffffff1673ffffffffffffffffffffffffffffffffffffffff16815260200190815260200160002060009054906101000a900473ffffffffffffffffffffffffffffffffffffffff1690508073ffffffffffffffffffffffffffffffffffffffff166370a08231336040518263ffffffff1660e01b8152600401620017a4919062002bf6565b602060405180830381865afa158015620017c2573d6000803e3d6000fd5b505050506040513d601f19601f82011682018060405250810190620017e8919062003920565b915050919050565b600481815481106200180157600080fd5b90600052602060002090600a02016000915090508060000160009054906101000a900473ffffffffffffffffffffffffffffffffffffffff16908060010154908060020154908060030154908060040160009054906101000a900460ff1690806005018054620018719062003406565b80601f01602080910402602001604051908101604052809291908181526020018280546200189f9062003406565b8015620018f05780601f10620018c457610100808354040283529160200191620018f0565b820191906000526020600020905b815481529060010190602001808311620018d257829003601f168201915b505050505090806006018054620019079062003406565b80601f0160208091040260200160405190810160405280929190818152602001828054620019359062003406565b8015620019865780601f106200195a5761010080835404028352916020019162001986565b820191906000526020600020905b8154815290600101906020018083116200196857829003601f168201915b5050505050908060070180546200199d9062003406565b80601f0160208091040260200160405190810160405280929190818152602001828054620019cb9062003406565b801562001a1c5780601f10620019f05761010080835404028352916020019162001a1c565b820191906000526020600020905b815481529060010190602001808311620019fe57829003601f168201915b5050505050908060080160009054906101000a900473ffffffffffffffffffffffffffffffffffffffff16908060090160009054906101000a900473ffffffffffffffffffffffffffffffffffffffff1690508a565b606060008060008473ffffffffffffffffffffffffffffffffffffffff1673ffffffffffffffffffffffffffffffffffffffff16815260200190815260200160002060009054906101000a900473ffffffffffffffffffffffffffffffffffffffff1690508073ffffffffffffffffffffffffffffffffffffffff166306fdde036040518163ffffffff1660e01b8152600401600060405180830381865afa15801562001b23573d6000803e3d6000fd5b505050506040513d6000823e3d601f19601f8201168201806040525081019062001b4e9190620039d0565b915050919050565b600660009054906101000a900473ffffffffffffffffffffffffffffffffffffffff1681565b6000806000600360009054906101000a900473ffffffffffffffffffffffffffffffffffffffff1673ffffffffffffffffffffffffffffffffffffffff1663b6f3e08786866040518363ffffffff1660e01b815260040162001be092919062003a21565b600060405180830381600087803b15801562001bfb57600080fd5b505af115801562001c10573d6000803e3d6000fd5b505050506000808573ffffffffffffffffffffffffffffffffffffffff168773ffffffffffffffffffffffffffffffffffffffff16111562001c585786915085905062001c5f565b8591508690505b6000828260405160200162001c7692919062002dfd565b6040516020818303038152906040528051906020012090506005819080600181540180825580915050600190039060005260206000200160009091909190915055600360009054906101000a900473ffffffffffffffffffffffffffffffffffffffff1673ffffffffffffffffffffffffffffffffffffffff1663ac572315826040518263ffffffff1660e01b815260040162001d14919062002e48565b602060405180830381865afa15801562001d32573d6000803e3d6000fd5b505050506040513d601f19601f8201168201806040525081019062001d58919062002e7c565b83839550955095505050509250925092565b6060600060025467ffffffffffffffff81111562001d8d5762001d8c620027bf565b5b60405190808252806020026020018201604052801562001dbc5781602001602082028036833780820191505090505b50905060005b60025481101562001f0257600073ffffffffffffffffffffffffffffffffffffffff166001828154811062001dfc5762001dfb62002f59565b5b9060005260206000200160009054906101000a900473ffffffffffffffffffffffffffffffffffffffff1673ffffffffffffffffffffffffffffffffffffffff160362001e5957808062001e509062003a4e565b91505062001eec565b6001818154811062001e705762001e6f62002f59565b5b9060005260206000200160009054906101000a900473ffffffffffffffffffffffffffffffffffffffff1682828151811062001eb15762001eb062002f59565b5b602002602001019073ffffffffffffffffffffffffffffffffffffffff16908173ffffffffffffffffffffffffffffffffffffffff16815250505b808062001ef99062002f0c565b91505062001dc2565b508091505090565b6000808473ffffffffffffffffffffffffffffffffffffffff168773ffffffffffffffffffffffffffffffffffffffff16111562001f4e5786915084905062001f55565b8491508690505b6000828260405160200162001f6c92919062002dfd565b604051602081830303815290604052805190602001209050600073ffffffffffffffffffffffffffffffffffffffff16600360009054906101000a900473ffffffffffffffffffffffffffffffffffffffff1673ffffffffffffffffffffffffffffffffffffffff1663ac572315836040518263ffffffff1660e01b815260040162001ff9919062002e48565b602060405180830381865afa15801562002017573d6000803e3d6000fd5b505050506040513d601f19601f820116820180604052508101906200203d919062002e7c565b73ffffffffffffffffffffffffffffffffffffffff16036200211657600360009054906101000a900473ffffffffffffffffffffffffffffffffffffffff1673ffffffffffffffffffffffffffffffffffffffff1663b6f3e08784846040518363ffffffff1660e01b8152600401620020b892919062003a21565b600060405180830381600087803b158015620020d357600080fd5b505af1158015620020e8573d6000803e3d6000fd5b5050505060058190806001815401808255809150506001900390600052602060002001600090919091909150555b6000600360009054906101000a900473ffffffffffffffffffffffffffffffffffffffff1673ffffffffffffffffffffffffffffffffffffffff1663ac572315836040518263ffffffff1660e01b815260040162002175919062002e48565b602060405180830381865afa15801562002193573d6000803e3d6000fd5b505050506040513d601f19601f82011682018060405250810190620021b9919062002e7c565b90508373ffffffffffffffffffffffffffffffffffffffff168973ffffffffffffffffffffffffffffffffffffffff16036200226a578073ffffffffffffffffffffffffffffffffffffffff16634ea282fc898833896040518563ffffffff1660e01b815260040162002230949392919062003a7c565b600060405180830381600087803b1580156200224b57600080fd5b505af115801562002260573d6000803e3d6000fd5b5050505062002315565b8273ffffffffffffffffffffffffffffffffffffffff168973ffffffffffffffffffffffffffffffffffffffff160362002314578073ffffffffffffffffffffffffffffffffffffffff1663e22f8d75878a33896040518563ffffffff1660e01b8152600401620022df949392919062003a7c565b600060405180830381600087803b158015620022fa57600080fd5b505af11580156200230f573d6000803e3d6000fd5b505050505b5b7feddedc0bf3dc5c30b827ed2d896584c9178961d6ac9b1348586418ee92013b3d338a8a8a8a6040516200234e95949392919062003ac9565b60405180910390a1505050505050505050565b5080546200236f9062003406565b6000825580601f10620023835750620023a4565b601f016020900490600052602060002090810190620023a39190620023b5565b5b50565b611e708062003b2783390190565b5b80821115620023d0576000816000905550600101620023b6565b5090565b6000604051905090565b600080fd5b600080fd5b600073ffffffffffffffffffffffffffffffffffffffff82169050919050565b60006200241582620023e8565b9050919050565b620024278162002408565b81146200243357600080fd5b50565b60008135905062002447816200241c565b92915050565b60008060408385031215620024675762002466620023de565b5b6000620024778582860162002436565b92505060206200248a8582860162002436565b9150509250929050565b6200249f8162002408565b82525050565b6000606082019050620024bc600083018662002494565b620024cb602083018562002494565b620024da604083018462002494565b949350505050565b600081519050919050565b600082825260208201905092915050565b6000819050602082019050919050565b620025198162002408565b82525050565b6000819050919050565b62002534816200251f565b82525050565b60008115159050919050565b62002551816200253a565b82525050565b600081519050919050565b600082825260208201905092915050565b60005b838110156200259357808201518184015260208101905062002576565b60008484015250505050565b6000601f19601f8301169050919050565b6000620025bd8262002557565b620025c9818562002562565b9350620025db81856020860162002573565b620025e6816200259f565b840191505092915050565b6000610140830160008301516200260c60008601826200250e565b50602083015162002621602086018262002529565b50604083015162002636604086018262002529565b5060608301516200264b606086018262002529565b50608083015162002660608086018262002546565b5060a083015184820360a08601526200267a8282620025b0565b91505060c083015184820360c0860152620026968282620025b0565b91505060e083015184820360e0860152620026b28282620025b0565b915050610100830151620026cb6101008601826200250e565b50610120830151620026e26101208601826200250e565b508091505092915050565b6000620026fb8383620025f1565b905092915050565b6000602082019050919050565b60006200271d82620024e2565b620027298185620024ed565b9350836020820285016200273d85620024fe565b8060005b858110156200277f57848403895281516200275d8582620026ed565b94506200276a8362002703565b925060208a0199505060018101905062002741565b50829750879550505050505092915050565b60006020820190508181036000830152620027ad818462002710565b905092915050565b600080fd5b600080fd5b7f4e487b7100000000000000000000000000000000000000000000000000000000600052604160045260246000fd5b620027f9826200259f565b810181811067ffffffffffffffff821117156200281b576200281a620027bf565b5b80604052505050565b600062002830620023d4565b90506200283e8282620027ee565b919050565b600067ffffffffffffffff821115620028615762002860620027bf565b5b6200286c826200259f565b9050602081019050919050565b82818337600083830152505050565b60006200289f620028998462002843565b62002824565b905082815260208101848484011115620028be57620028bd620027ba565b5b620028cb84828562002879565b509392505050565b600082601f830112620028eb57620028ea620027b5565b5b8135620028fd84826020860162002888565b91505092915050565b6000806040838503121562002920576200291f620023de565b5b600083013567ffffffffffffffff811115620029415762002940620023e3565b5b6200294f85828601620028d3565b925050602083013567ffffffffffffffff811115620029735762002972620023e3565b5b6200298185828601620028d3565b9150509250929050565b62002996816200251f565b8114620029a257600080fd5b50565b600081359050620029b6816200298b565b92915050565b600080600060608486031215620029d857620029d7620023de565b5b6000620029e88682870162002436565b9350506020620029fb8682870162002436565b925050604062002a0e86828701620029a5565b9150509250925092565b60006020828403121562002a315762002a30620023de565b5b600062002a418482850162002436565b91505092915050565b62002a55816200251f565b82525050565b600060208201905062002a72600083018462002a4a565b92915050565b60006020828403121562002a915762002a90620023de565b5b600062002aa184828501620029a5565b91505092915050565b62002ab5816200253a565b82525050565b600082825260208201905092915050565b600062002ad98262002557565b62002ae5818562002abb565b935062002af781856020860162002573565b62002b02816200259f565b840191505092915050565b60006101408201905062002b25600083018d62002494565b62002b34602083018c62002a4a565b62002b43604083018b62002a4a565b62002b52606083018a62002a4a565b62002b61608083018962002aaa565b81810360a083015262002b75818862002acc565b905081810360c083015262002b8b818762002acc565b905081810360e083015262002ba1818662002acc565b905062002bb361010083018562002494565b62002bc361012083018462002494565b9b9a5050505050505050505050565b6000602082019050818103600083015262002bee818462002acc565b905092915050565b600060208201905062002c0d600083018462002494565b92915050565b600081519050919050565b600082825260208201905092915050565b6000819050602082019050919050565b600062002c4d83836200250e565b60208301905092915050565b6000602082019050919050565b600062002c738262002c13565b62002c7f818562002c1e565b935062002c8c8362002c2f565b8060005b8381101562002cc357815162002ca7888262002c3f565b975062002cb48362002c59565b92505060018101905062002c90565b5085935050505092915050565b6000602082019050818103600083015262002cec818462002c66565b905092915050565b62002cff816200253a565b811462002d0b57600080fd5b50565b60008135905062002d1f8162002cf4565b92915050565b600080600080600060a0868803121562002d445762002d43620023de565b5b600062002d548882890162002436565b955050602062002d6788828901620029a5565b945050604062002d7a8882890162002436565b935050606062002d8d88828901620029a5565b925050608062002da08882890162002d0e565b9150509295509295909350565b60008160601b9050919050565b600062002dc78262002dad565b9050919050565b600062002ddb8262002dba565b9050919050565b62002df762002df18262002408565b62002dce565b82525050565b600062002e0b828562002de2565b60148201915062002e1d828462002de2565b6014820191508190509392505050565b6000819050919050565b62002e428162002e2d565b82525050565b600060208201905062002e5f600083018462002e37565b92915050565b60008151905062002e76816200241c565b92915050565b60006020828403121562002e955762002e94620023de565b5b600062002ea58482850162002e65565b91505092915050565b7f4e487b7100000000000000000000000000000000000000000000000000000000600052603160045260246000fd5b7f4e487b7100000000000000000000000000000000000000000000000000000000600052601160045260246000fd5b600062002f19826200251f565b91507fffffffffffffffffffffffffffffffffffffffffffffffffffffffffffffffff820362002f4e5762002f4d62002edd565b5b600182019050919050565b7f4e487b7100000000000000000000000000000000000000000000000000000000600052603260045260246000fd5b600067ffffffffffffffff82111562002fa65762002fa5620027bf565b5b602082029050602081019050919050565b600080fd5b600062002fd362002fcd8462002f88565b62002824565b9050808382526020820190506020840283018581111562002ff95762002ff862002fb7565b5b835b8181101562003026578062003011888262002e65565b84526020840193505060208101905062002ffb565b5050509392505050565b600082601f830112620030485762003047620027b5565b5b81516200305a84826020860162002fbc565b91505092915050565b600067ffffffffffffffff821115620030815762003080620027bf565b5b602082029050602081019050919050565b600081519050620030a3816200298b565b92915050565b6000620030c0620030ba8462003063565b62002824565b90508083825260208201905060208402830185811115620030e657620030e562002fb7565b5b835b81811015620031135780620030fe888262003092565b845260208401935050602081019050620030e8565b5050509392505050565b600082601f830112620031355762003134620027b5565b5b815162003147848260208601620030a9565b91505092915050565b600067ffffffffffffffff8211156200316e576200316d620027bf565b5b602082029050602081019050919050565b600081519050620031908162002cf4565b92915050565b6000620031ad620031a78462003150565b62002824565b90508083825260208201905060208402830185811115620031d357620031d262002fb7565b5b835b81811015620032005780620031eb88826200317f565b845260208401935050602081019050620031d5565b5050509392505050565b600082601f830112620032225762003221620027b5565b5b81516200323484826020860162003196565b91505092915050565b600080600080600060a086880312156200325c576200325b620023de565b5b600086015167ffffffffffffffff8111156200327d576200327c620023e3565b5b6200328b8882890162003030565b955050602086015167ffffffffffffffff811115620032af57620032ae620023e3565b5b620032bd888289016200311d565b945050604086015167ffffffffffffffff811115620032e157620032e0620023e3565b5b620032ef888289016200311d565b935050606086015167ffffffffffffffff811115620033135762003312620023e3565b5b62003321888289016200311d565b925050608086015167ffffffffffffffff811115620033455762003344620023e3565b5b62003353888289016200320a565b9150509295509295909350565b60006200336d8262002408565b9050919050565b6200337f8162003360565b81146200338b57600080fd5b50565b6000815190506200339f8162003374565b92915050565b600060208284031215620033be57620033bd620023de565b5b6000620033ce848285016200338e565b91505092915050565b7f4e487b7100000000000000000000000000000000000000000000000000000000600052602260045260246000fd5b600060028204905060018216806200341f57607f821691505b602082108103620034355762003434620033d7565b5b50919050565b60008190508160005260206000209050919050565b60006020601f8301049050919050565b600082821b905092915050565b6000600883026200349f7fffffffffffffffffffffffffffffffffffffffffffffffffffffffffffffffff8262003460565b620034ab868362003460565b95508019841693508086168417925050509392505050565b6000819050919050565b6000620034ee620034e8620034e2846200251f565b620034c3565b6200251f565b9050919050565b6000819050919050565b6200350a83620034cd565b620035226200351982620034f5565b8484546200346d565b825550505050565b600090565b620035396200352a565b62003546818484620034ff565b505050565b5b818110156200356e57620035626000826200352f565b6001810190506200354c565b5050565b601f821115620035bd5762003587816200343b565b620035928462003450565b81016020851015620035a2578190505b620035ba620035b18562003450565b8301826200354b565b50505b505050565b600082821c905092915050565b6000620035e260001984600802620035c2565b1980831691505092915050565b6000620035fd8383620035cf565b9150826002028217905092915050565b620036188262002557565b67ffffffffffffffff811115620036345762003633620027bf565b5b62003640825462003406565b6200364d82828562003572565b600060209050601f83116001811462003685576000841562003670578287015190505b6200367c8582620035ef565b865550620036ec565b601f19841662003695866200343b565b60005b82811015620036bf5784890151825560018201915060208501945060208101905062003698565b86831015620036df5784890151620036db601f891682620035cf565b8355505b6001600288020188555050505b505050505050565b7f4f6e6c7920746865206f776e65722063616e2063726561746520746f6b656e7360008201527f2100000000000000000000000000000000000000000000000000000000000000602082015250565b60006200375260218362002abb565b91506200375f82620036f4565b604082019050919050565b60006020820190508181036000830152620037858162003743565b9050919050565b60006040820190508181036000830152620037a8818562002acc565b90508181036020830152620037be818462002acc565b90509392505050565b6000606082019050620037de600083018662002494565b8181036020830152620037f2818562002acc565b9050818103604083015262003808818462002acc565b9050949350505050565b7f4f6e6c7920746865206f776e65722063616e2073656e6420746f6b656e732100600082015250565b60006200384a601f8362002abb565b9150620038578262003812565b602082019050919050565b600060208201905081810360008301526200387d816200383b565b9050919050565b60006040820190506200389b600083018562002494565b620038aa602083018462002a4a565b9392505050565b600060208284031215620038ca57620038c9620023de565b5b6000620038da848285016200317f565b91505092915050565b6000606082019050620038fa600083018662002494565b62003909602083018562002494565b62003918604083018462002a4a565b949350505050565b600060208284031215620039395762003938620023de565b5b6000620039498482850162003092565b91505092915050565b600062003969620039638462002843565b62002824565b905082815260208101848484011115620039885762003987620027ba565b5b6200399584828562002573565b509392505050565b600082601f830112620039b557620039b4620027b5565b5b8151620039c784826020860162003952565b91505092915050565b600060208284031215620039e957620039e8620023de565b5b600082015167ffffffffffffffff81111562003a0a5762003a09620023e3565b5b62003a18848285016200399d565b91505092915050565b600060408201905062003a38600083018562002494565b62003a47602083018462002494565b9392505050565b600062003a5b826200251f565b91506000820362003a715762003a7062002edd565b5b600182039050919050565b600060808201905062003a93600083018762002a4a565b62003aa2602083018662002a4a565b62003ab1604083018562002494565b62003ac0606083018462002aaa565b95945050505050565b600060a08201905062003ae0600083018862002494565b62003aef602083018762002494565b62003afe604083018662002a4a565b62003b0d606083018562002494565b62003b1c608083018462002a4a565b969550505050505056fe60806040523480156200001157600080fd5b5060405162001e7038038062001e708339818101604052810190620000379190620003d1565b818181600390816200004a9190620006a1565b5080600490816200005c9190620006a1565b50505033600560006101000a81548173ffffffffffffffffffffffffffffffffffffffff021916908373ffffffffffffffffffffffffffffffffffffffff160217905550620000b4336103e8620000bc60201b60201c565b5050620008a3565b600073ffffffffffffffffffffffffffffffffffffffff168273ffffffffffffffffffffffffffffffffffffffff16036200012e576040517f08c379a00000000000000000000000000000000000000000000000000000000081526004016200012590620007e9565b60405180910390fd5b62000142600083836200023460201b60201c565b80600260008282546200015691906200083a565b92505081905550806000808473ffffffffffffffffffffffffffffffffffffffff1673ffffffffffffffffffffffffffffffffffffffff1681526020019081526020016000206000828254620001ad91906200083a565b925050819055508173ffffffffffffffffffffffffffffffffffffffff16600073ffffffffffffffffffffffffffffffffffffffff167fddf252ad1be2c89b69c2b068fc378daa952ba7f163c4a11628f55a4df523b3ef8360405162000214919062000886565b60405180910390a362000230600083836200023960201b60201c565b5050565b505050565b505050565b6000604051905090565b600080fd5b600080fd5b600080fd5b600080fd5b6000601f19601f8301169050919050565b7f4e487b7100000000000000000000000000000000000000000000000000000000600052604160045260246000fd5b620002a7826200025c565b810181811067ffffffffffffffff82111715620002c957620002c86200026d565b5b80604052505050565b6000620002de6200023e565b9050620002ec82826200029c565b919050565b600067ffffffffffffffff8211156200030f576200030e6200026d565b5b6200031a826200025c565b9050602081019050919050565b60005b83811015620003475780820151818401526020810190506200032a565b60008484015250505050565b60006200036a6200036484620002f1565b620002d2565b90508281526020810184848401111562000389576200038862000257565b5b6200039684828562000327565b509392505050565b600082601f830112620003b657620003b562000252565b5b8151620003c884826020860162000353565b91505092915050565b60008060408385031215620003eb57620003ea62000248565b5b600083015167ffffffffffffffff8111156200040c576200040b6200024d565b5b6200041a858286016200039e565b925050602083015167ffffffffffffffff8111156200043e576200043d6200024d565b5b6200044c858286016200039e565b9150509250929050565b600081519050919050565b7f4e487b7100000000000000000000000000000000000000000000000000000000600052602260045260246000fd5b60006002820490506001821680620004a957607f821691505b602082108103620004bf57620004be62000461565b5b50919050565b60008190508160005260206000209050919050565b60006020601f8301049050919050565b600082821b905092915050565b600060088302620005297fffffffffffffffffffffffffffffffffffffffffffffffffffffffffffffffff82620004ea565b620005358683620004ea565b95508019841693508086168417925050509392505050565b6000819050919050565b6000819050919050565b6000620005826200057c62000576846200054d565b62000557565b6200054d565b9050919050565b6000819050919050565b6200059e8362000561565b620005b6620005ad8262000589565b848454620004f7565b825550505050565b600090565b620005cd620005be565b620005da81848462000593565b505050565b5b818110156200060257620005f6600082620005c3565b600181019050620005e0565b5050565b601f82111562000651576200061b81620004c5565b6200062684620004da565b8101602085101562000636578190505b6200064e6200064585620004da565b830182620005df565b50505b505050565b600082821c905092915050565b6000620006766000198460080262000656565b1980831691505092915050565b600062000691838362000663565b9150826002028217905092915050565b620006ac8262000456565b67ffffffffffffffff811115620006c857620006c76200026d565b5b620006d4825462000490565b620006e182828562000606565b600060209050601f83116001811462000719576000841562000704578287015190505b62000710858262000683565b86555062000780565b601f1984166200072986620004c5565b60005b8281101562000753578489015182556001820191506020850194506020810190506200072c565b868310156200077357848901516200076f601f89168262000663565b8355505b6001600288020188555050505b505050505050565b600082825260208201905092915050565b7f45524332303a206d696e7420746f20746865207a65726f206164647265737300600082015250565b6000620007d1601f8362000788565b9150620007de8262000799565b602082019050919050565b600060208201905081810360008301526200080481620007c2565b9050919050565b7f4e487b7100000000000000000000000000000000000000000000000000000000600052601160045260246000fd5b600062000847826200054d565b915062000854836200054d565b92508282019050808211156200086f576200086e6200080b565b5b92915050565b62000880816200054d565b82525050565b60006020820190506200089d600083018462000875565b92915050565b6115bd80620008b36000396000f3fe608060405234801561001057600080fd5b50600436106100cf5760003560e01c806340c10f191161008c578063a457c2d711610066578063a457c2d714610228578063a9059cbb14610258578063dd62ed3e14610288578063f851a440146102b8576100cf565b806340c10f19146101be57806370a08231146101da57806395d89b411461020a576100cf565b806306fdde03146100d4578063095ea7b3146100f257806318160ddd1461012257806323b872dd14610140578063313ce56714610170578063395093511461018e575b600080fd5b6100dc6102d6565b6040516100e99190610d98565b60405180910390f35b61010c60048036038101906101079190610e53565b610368565b6040516101199190610eae565b60405180910390f35b61012a61038b565b6040516101379190610ed8565b60405180910390f35b61015a60048036038101906101559190610ef3565b610395565b6040516101679190610eae565b60405180910390f35b6101786103c4565b6040516101859190610f62565b60405180910390f35b6101a860048036038101906101a39190610e53565b6103cd565b6040516101b59190610eae565b60405180910390f35b6101d860048036038101906101d39190610e53565b610404565b005b6101f460048036038101906101ef9190610f7d565b6104a2565b6040516102019190610ed8565b60405180910390f35b6102126104ea565b60405161021f9190610d98565b60405180910390f35b610242600480360381019061023d9190610e53565b61057c565b60405161024f9190610eae565b60405180910390f35b610272600480360381019061026d9190610e53565b6105f3565b60405161027f9190610eae565b60405180910390f35b6102a2600480360381019061029d9190610faa565b610616565b6040516102af9190610ed8565b60405180910390f35b6102c061069d565b6040516102cd9190610ff9565b60405180910390f35b6060600380546102e590611043565b80601f016020809104026020016040519081016040528092919081815260200182805461031190611043565b801561035e5780601f106103335761010080835404028352916020019161035e565b820191906000526020600020905b81548152906001019060200180831161034157829003601f168201915b5050505050905090565b6000806103736106c3565b90506103808185856106cb565b600191505092915050565b6000600254905090565b6000806103a06106c3565b90506103ad858285610894565b6103b8858585610920565b60019150509392505050565b60006012905090565b6000806103d86106c3565b90506103f98185856103ea8589610616565b6103f491906110a3565b6106cb565b600191505092915050565b600560009054906101000a900473ffffffffffffffffffffffffffffffffffffffff1673ffffffffffffffffffffffffffffffffffffffff163373ffffffffffffffffffffffffffffffffffffffff1614610494576040517f08c379a000000000000000000000000000000000000000000000000000000000815260040161048b90611123565b60405180910390fd5b61049e8282610b9f565b5050565b60008060008373ffffffffffffffffffffffffffffffffffffffff1673ffffffffffffffffffffffffffffffffffffffff168152602001908152602001600020549050919050565b6060600480546104f990611043565b80601f016020809104026020016040519081016040528092919081815260200182805461052590611043565b80156105725780601f1061054757610100808354040283529160200191610572565b820191906000526020600020905b81548152906001019060200180831161055557829003601f168201915b5050505050905090565b6000806105876106c3565b905060006105958286610616565b9050838110156105da576040517f08c379a00000000000000000000000000000000000000000000000000000000081526004016105d1906111b5565b60405180910390fd5b6105e782868684036106cb565b60019250505092915050565b6000806105fe6106c3565b905061060b818585610920565b600191505092915050565b6000600160008473ffffffffffffffffffffffffffffffffffffffff1673ffffffffffffffffffffffffffffffffffffffff16815260200190815260200160002060008373ffffffffffffffffffffffffffffffffffffffff1673ffffffffffffffffffffffffffffffffffffffff16815260200190815260200160002054905092915050565b600560009054906101000a900473ffffffffffffffffffffffffffffffffffffffff1681565b600033905090565b600073ffffffffffffffffffffffffffffffffffffffff168373ffffffffffffffffffffffffffffffffffffffff160361073a576040517f08c379a000000000000000000000000000000000000000000000000000000000815260040161073190611247565b60405180910390fd5b600073ffffffffffffffffffffffffffffffffffffffff168273ffffffffffffffffffffffffffffffffffffffff16036107a9576040517f08c379a00000000000000000000000000000000000000000000000000000000081526004016107a0906112d9565b60405180910390fd5b80600160008573ffffffffffffffffffffffffffffffffffffffff1673ffffffffffffffffffffffffffffffffffffffff16815260200190815260200160002060008473ffffffffffffffffffffffffffffffffffffffff1673ffffffffffffffffffffffffffffffffffffffff168152602001908152602001600020819055508173ffffffffffffffffffffffffffffffffffffffff168373ffffffffffffffffffffffffffffffffffffffff167f8c5be1e5ebec7d5bd14f71427d1e84f3dd0314c0f7b2291e5b200ac8c7c3b925836040516108879190610ed8565b60405180910390a3505050565b60006108a08484610616565b90507fffffffffffffffffffffffffffffffffffffffffffffffffffffffffffffffff811461091a578181101561090c576040517f08c379a000000000000000000000000000000000000000000000000000000000815260040161090390611345565b60405180910390fd5b61091984848484036106cb565b5b50505050565b600073ffffffffffffffffffffffffffffffffffffffff168373ffffffffffffffffffffffffffffffffffffffff160361098f576040517f08c379a0000000000000000000000000000000000000000000000000000000008152600401610986906113d7565b60405180910390fd5b600073ffffffffffffffffffffffffffffffffffffffff168273ffffffffffffffffffffffffffffffffffffffff16036109fe576040517f08c379a00000000000000000000000000000000000000000000000000000000081526004016109f590611469565b60405180910390fd5b610a09838383610cfe565b60008060008573ffffffffffffffffffffffffffffffffffffffff1673ffffffffffffffffffffffffffffffffffffffff16815260200190815260200160002054905081811015610a8f576040517f08c379a0000000000000000000000000000000000000000000000000000000008152600401610a86906114fb565b60405180910390fd5b8181036000808673ffffffffffffffffffffffffffffffffffffffff1673ffffffffffffffffffffffffffffffffffffffff16815260200190815260200160002081905550816000808573ffffffffffffffffffffffffffffffffffffffff1673ffffffffffffffffffffffffffffffffffffffff1681526020019081526020016000206000828254610b2291906110a3565b925050819055508273ffffffffffffffffffffffffffffffffffffffff168473ffffffffffffffffffffffffffffffffffffffff167fddf252ad1be2c89b69c2b068fc378daa952ba7f163c4a11628f55a4df523b3ef84604051610b869190610ed8565b60405180910390a3610b99848484610d03565b50505050565b600073ffffffffffffffffffffffffffffffffffffffff168273ffffffffffffffffffffffffffffffffffffffff1603610c0e576040517f08c379a0000000000000000000000000000000000000000000000000000000008152600401610c0590611567565b60405180910390fd5b610c1a60008383610cfe565b8060026000828254610c2c91906110a3565b92505081905550806000808473ffffffffffffffffffffffffffffffffffffffff1673ffffffffffffffffffffffffffffffffffffffff1681526020019081526020016000206000828254610c8191906110a3565b925050819055508173ffffffffffffffffffffffffffffffffffffffff16600073ffffffffffffffffffffffffffffffffffffffff167fddf252ad1be2c89b69c2b068fc378daa952ba7f163c4a11628f55a4df523b3ef83604051610ce69190610ed8565b60405180910390a3610cfa60008383610d03565b5050565b505050565b505050565b600081519050919050565b600082825260208201905092915050565b60005b83811015610d42578082015181840152602081019050610d27565b60008484015250505050565b6000601f19601f8301169050919050565b6000610d6a82610d08565b610d748185610d13565b9350610d84818560208601610d24565b610d8d81610d4e565b840191505092915050565b60006020820190508181036000830152610db28184610d5f565b905092915050565b600080fd5b600073ffffffffffffffffffffffffffffffffffffffff82169050919050565b6000610dea82610dbf565b9050919050565b610dfa81610ddf565b8114610e0557600080fd5b50565b600081359050610e1781610df1565b92915050565b6000819050919050565b610e3081610e1d565b8114610e3b57600080fd5b50565b600081359050610e4d81610e27565b92915050565b60008060408385031215610e6a57610e69610dba565b5b6000610e7885828601610e08565b9250506020610e8985828601610e3e565b9150509250929050565b60008115159050919050565b610ea881610e93565b82525050565b6000602082019050610ec36000830184610e9f565b92915050565b610ed281610e1d565b82525050565b6000602082019050610eed6000830184610ec9565b92915050565b600080600060608486031215610f0c57610f0b610dba565b5b6000610f1a86828701610e08565b9350506020610f2b86828701610e08565b9250506040610f3c86828701610e3e565b9150509250925092565b600060ff82169050919050565b610f5c81610f46565b82525050565b6000602082019050610f776000830184610f53565b92915050565b600060208284031215610f9357610f92610dba565b5b6000610fa184828501610e08565b91505092915050565b60008060408385031215610fc157610fc0610dba565b5b6000610fcf85828601610e08565b9250506020610fe085828601610e08565b9150509250929050565b610ff381610ddf565b82525050565b600060208201905061100e6000830184610fea565b92915050565b7f4e487b7100000000000000000000000000000000000000000000000000000000600052602260045260246000fd5b6000600282049050600182168061105b57607f821691505b60208210810361106e5761106d611014565b5b50919050565b7f4e487b7100000000000000000000000000000000000000000000000000000000600052601160045260246000fd5b60006110ae82610e1d565b91506110b983610e1d565b92508282019050808211156110d1576110d0611074565b5b92915050565b7f4f6e6c792061646d696e2063616e206d696e7400000000000000000000000000600082015250565b600061110d601383610d13565b9150611118826110d7565b602082019050919050565b6000602082019050818103600083015261113c81611100565b9050919050565b7f45524332303a2064656372656173656420616c6c6f77616e63652062656c6f7760008201527f207a65726f000000000000000000000000000000000000000000000000000000602082015250565b600061119f602583610d13565b91506111aa82611143565b604082019050919050565b600060208201905081810360008301526111ce81611192565b9050919050565b7f45524332303a20617070726f76652066726f6d20746865207a65726f2061646460008201527f7265737300000000000000000000000000000000000000000000000000000000602082015250565b6000611231602483610d13565b915061123c826111d5565b604082019050919050565b6000602082019050818103600083015261126081611224565b9050919050565b7f45524332303a20617070726f766520746f20746865207a65726f20616464726560008201527f7373000000000000000000000000000000000000000000000000000000000000602082015250565b60006112c3602283610d13565b91506112ce82611267565b604082019050919050565b600060208201905081810360008301526112f2816112b6565b9050919050565b7f45524332303a20696e73756666696369656e7420616c6c6f77616e6365000000600082015250565b600061132f601d83610d13565b915061133a826112f9565b602082019050919050565b6000602082019050818103600083015261135e81611322565b9050919050565b7f45524332303a207472616e736665722066726f6d20746865207a65726f20616460008201527f6472657373000000000000000000000000000000000000000000000000000000602082015250565b60006113c1602583610d13565b91506113cc82611365565b604082019050919050565b600060208201905081810360008301526113f0816113b4565b9050919050565b7f45524332303a207472616e7366657220746f20746865207a65726f206164647260008201527f6573730000000000000000000000000000000000000000000000000000000000602082015250565b6000611453602383610d13565b915061145e826113f7565b604082019050919050565b6000602082019050818103600083015261148281611446565b9050919050565b7f45524332303a207472616e7366657220616d6f756e742065786365656473206260008201527f616c616e63650000000000000000000000000000000000000000000000000000602082015250565b60006114e5602683610d13565b91506114f082611489565b604082019050919050565b60006020820190508181036000830152611514816114d8565b9050919050565b7f45524332303a206d696e7420746f20746865207a65726f206164647265737300600082015250565b6000611551601f83610d13565b915061155c8261151b565b602082019050919050565b6000602082019050818103600083015261158081611544565b905091905056fea2646970667358221220faaa92a670ee058140ea96445fe39c6b823318806ee72c8640ba479cc47eaf2b64736f6c63430008110033a26469706673582212201b04e78a991b4168b3fff4770afc15fba63ed4294eceb6585dac75f9f83b4f3164736f6c63430008110033608060405234801561001057600080fd5b5061444a806100206000396000f3fe608060405234801561001057600080fd5b50600436106100415760003560e01c806370f402f614610046578063ac57231514610064578063b6f3e08714610094575b600080fd5b61004e6100b0565b60405161005b9190610395565b60405180910390f35b61007e600480360381019061007991906103eb565b6100b6565b60405161008b9190610459565b60405180910390f35b6100ae60048036038101906100a991906104a0565b6100e9565b005b60005481565b60016020528060005260406000206000915054906101000a900473ffffffffffffffffffffffffffffffffffffffff1681565b8073ffffffffffffffffffffffffffffffffffffffff168273ffffffffffffffffffffffffffffffffffffffff1603610157576040517f08c379a000000000000000000000000000000000000000000000000000000000815260040161014e9061053d565b60405180910390fd5b6000808273ffffffffffffffffffffffffffffffffffffffff168473ffffffffffffffffffffffffffffffffffffffff161115610199578391508290506101a0565b8291508390505b600082826040516020016101b59291906105a5565b604051602081830303815290604052805190602001209050600073ffffffffffffffffffffffffffffffffffffffff166001600083815260200190815260200160002060009054906101000a900473ffffffffffffffffffffffffffffffffffffffff1673ffffffffffffffffffffffffffffffffffffffff161461026f576040517f08c379a00000000000000000000000000000000000000000000000000000000081526004016102669061061d565b60405180910390fd5b828260405161027d9061036e565b61028892919061063d565b604051809103906000f0801580156102a4573d6000803e3d6000fd5b506001600083815260200190815260200160002060006101000a81548173ffffffffffffffffffffffffffffffffffffffff021916908373ffffffffffffffffffffffffffffffffffffffff16021790555060008081548092919061030890610695565b91905055508173ffffffffffffffffffffffffffffffffffffffff168373ffffffffffffffffffffffffffffffffffffffff167fbc9687dc21b69bf8e01370b9f0ae1625f6bf5244fc230fa3ad4c06350deb634d60405160405180910390a35050505050565b613d3780620006de83390190565b6000819050919050565b61038f8161037c565b82525050565b60006020820190506103aa6000830184610386565b92915050565b600080fd5b6000819050919050565b6103c8816103b5565b81146103d357600080fd5b50565b6000813590506103e5816103bf565b92915050565b600060208284031215610401576104006103b0565b5b600061040f848285016103d6565b91505092915050565b600073ffffffffffffffffffffffffffffffffffffffff82169050919050565b600061044382610418565b9050919050565b61045381610438565b82525050565b600060208201905061046e600083018461044a565b92915050565b61047d81610438565b811461048857600080fd5b50565b60008135905061049a81610474565b92915050565b600080604083850312156104b7576104b66103b0565b5b60006104c58582860161048b565b92505060206104d68582860161048b565b9150509250929050565b600082825260208201905092915050565b7f546f6b656e73206d75737420626520646966666572656e740000000000000000600082015250565b60006105276018836104e0565b9150610532826104f1565b602082019050919050565b600060208201905081810360008301526105568161051a565b9050919050565b60008160601b9050919050565b60006105758261055d565b9050919050565b60006105878261056a565b9050919050565b61059f61059a82610438565b61057c565b82525050565b60006105b1828561058e565b6014820191506105c1828461058e565b6014820191508190509392505050565b7f546f6b656e207061697220616c72656164792065786973747300000000000000600082015250565b60006106076019836104e0565b9150610612826105d1565b602082019050919050565b60006020820190508181036000830152610636816105fa565b9050919050565b6000604082019050610652600083018561044a565b61065f602083018461044a565b9392505050565b7f4e487b7100000000000000000000000000000000000000000000000000000000600052601160045260246000fd5b60006106a08261037c565b91507fffffffffffffffffffffffffffffffffffffffffffffffffffffffffffffffff82036106d2576106d1610666565b5b60018201905091905056fe60806040523480156200001157600080fd5b5060405162003d3738038062003d3783398181016040528101906200003791906200022a565b816000806101000a81548173ffffffffffffffffffffffffffffffffffffffff021916908373ffffffffffffffffffffffffffffffffffffffff16021790555080600160006101000a81548173ffffffffffffffffffffffffffffffffffffffff021916908373ffffffffffffffffffffffffffffffffffffffff160217905550600160036000600173ffffffffffffffffffffffffffffffffffffffff1673ffffffffffffffffffffffffffffffffffffffff16815260200190815260200160002060006101000a81548173ffffffffffffffffffffffffffffffffffffffff021916908373ffffffffffffffffffffffffffffffffffffffff160217905550600160066000600173ffffffffffffffffffffffffffffffffffffffff1673ffffffffffffffffffffffffffffffffffffffff16815260200190815260200160002060006101000a81548173ffffffffffffffffffffffffffffffffffffffff021916908373ffffffffffffffffffffffffffffffffffffffff160217905550505062000271565b600080fd5b600073ffffffffffffffffffffffffffffffffffffffff82169050919050565b6000620001f282620001c5565b9050919050565b6200020481620001e5565b81146200021057600080fd5b50565b6000815190506200022481620001f9565b92915050565b60008060408385031215620002445762000243620001c0565b5b6000620002548582860162000213565b9250506020620002678582860162000213565b9150509250929050565b613ab680620002816000396000f3fe608060405234801561001057600080fd5b50600436106100a95760003560e01c80637f008a0a116100715780637f008a0a14610146578063949092c214610150578063ca70307514610172578063d21220a714610190578063e22f8d75146101ae578063fecd817c146101ca576100a9565b80630c6b6737146100ae5780630e07df0b146100cc57806325be124e146100ee5780634ea282fc1461010c5780637b3cee6014610128575b600080fd5b6100b66101d4565b6040516100c3919061302a565b60405180910390f35b6100d46101da565b6040516100e59594939291906132bd565b60405180910390f35b6100f66105a5565b6040516101039190613392565b60405180910390f35b61012660048036038101906101219190613436565b6105cb565b005b610130610b9a565b60405161013d919061302a565b60405180910390f35b61014e610d15565b005b6101586110a3565b6040516101699594939291906132bd565b60405180910390f35b61017a61146e565b604051610187919061302a565b60405180910390f35b610198611474565b6040516101a59190613392565b60405180910390f35b6101c860048036038101906101c39190613436565b611498565b005b6101d2611a70565b005b60075481565b6060806060806060600060045467ffffffffffffffff811115610200576101ff61349d565b5b60405190808252806020026020018201604052801561022e5781602001602082028036833780820191505090505b509050600060045467ffffffffffffffff81111561024f5761024e61349d565b5b60405190808252806020026020018201604052801561027d5781602001602082028036833780820191505090505b509050600060045467ffffffffffffffff81111561029e5761029d61349d565b5b6040519080825280602002602001820160405280156102cc5781602001602082028036833780820191505090505b509050600060045467ffffffffffffffff8111156102ed576102ec61349d565b5b60405190808252806020026020018201604052801561031b5781602001602082028036833780820191505090505b509050600060045467ffffffffffffffff81111561033c5761033b61349d565b5b60405190808252806020026020018201604052801561036a5781602001602082028036833780820191505090505b509050600060036000600173ffffffffffffffffffffffffffffffffffffffff1673ffffffffffffffffffffffffffffffffffffffff16815260200190815260200160002060009054906101000a900473ffffffffffffffffffffffffffffffffffffffff16905060005b865181101561058857818782815181106103f2576103f16134cc565b5b602002602001019073ffffffffffffffffffffffffffffffffffffffff16908173ffffffffffffffffffffffffffffffffffffffff16815250506000600260008473ffffffffffffffffffffffffffffffffffffffff1673ffffffffffffffffffffffffffffffffffffffff16815260200190815260200160002090508060000154878381518110610487576104866134cc565b5b60200260200101818152505080600101548683815181106104ab576104aa6134cc565b5b60200260200101818152505080600201548583815181106104cf576104ce6134cc565b5b6020026020010181815250508060040160009054906101000a900460ff16848381518110610500576104ff6134cc565b5b602002602001019015159081151581525050600360008473ffffffffffffffffffffffffffffffffffffffff1673ffffffffffffffffffffffffffffffffffffffff16815260200190815260200160002060009054906101000a900473ffffffffffffffffffffffffffffffffffffffff1692505080806105809061352a565b9150506103d5565b5085858585859a509a509a509a509a505050505050509091929394565b600160009054906101000a900473ffffffffffffffffffffffffffffffffffffffff1681565b6000600560008473ffffffffffffffffffffffffffffffffffffffff1673ffffffffffffffffffffffffffffffffffffffff1681526020019081526020016000206002015414610650576040517f08c379a0000000000000000000000000000000000000000000000000000000008152600401610647906135cf565b60405180910390fd5b6000600260008473ffffffffffffffffffffffffffffffffffffffff1673ffffffffffffffffffffffffffffffffffffffff16815260200190815260200160002060020154146106d5576040517f08c379a00000000000000000000000000000000000000000000000000000000081526004016106cc90613661565b60405180910390fd5b600084141580156106e7575060008314155b610726576040517f08c379a000000000000000000000000000000000000000000000000000000000815260040161071d906136f3565b60405180910390fd5b6040518060a00160405280858152602001848152602001428152602001848661074f9190613742565b8152602001821515815250600560008473ffffffffffffffffffffffffffffffffffffffff1673ffffffffffffffffffffffffffffffffffffffff1681526020019081526020016000206000820151816000015560208201518160010155604082015181600201556060820151816003015560808201518160040160006101000a81548160ff02191690831515021790555090505060006107ef85611dfc565b90506000600660008373ffffffffffffffffffffffffffffffffffffffff1673ffffffffffffffffffffffffffffffffffffffff16815260200190815260200160002060009054906101000a900473ffffffffffffffffffffffffffffffffffffffff16905083600660008473ffffffffffffffffffffffffffffffffffffffff1673ffffffffffffffffffffffffffffffffffffffff16815260200190815260200160002060006101000a81548173ffffffffffffffffffffffffffffffffffffffff021916908373ffffffffffffffffffffffffffffffffffffffff16021790555080600660008673ffffffffffffffffffffffffffffffffffffffff1673ffffffffffffffffffffffffffffffffffffffff16815260200190815260200160002060006101000a81548173ffffffffffffffffffffffffffffffffffffffff021916908373ffffffffffffffffffffffffffffffffffffffff160217905550600760008154809291906109649061352a565b9190505550600160009054906101000a900473ffffffffffffffffffffffffffffffffffffffff1673ffffffffffffffffffffffffffffffffffffffff166323b872dd8530886040518463ffffffff1660e01b81526004016109c893929190613782565b6020604051808303816000875af11580156109e7573d6000803e3d6000fd5b505050506040513d601f19601f82011682018060405250810190610a0b91906137ce565b508373ffffffffffffffffffffffffffffffffffffffff168587610a2f9190613742565b7f415e371b8594ab74b619283a8063dd3d79117adc0a323c43248267399325d44d8888604051610a609291906137fb565b60405180910390a360006004541115610b9257600060036000600173ffffffffffffffffffffffffffffffffffffffff1673ffffffffffffffffffffffffffffffffffffffff16815260200190815260200160002060009054906101000a900473ffffffffffffffffffffffffffffffffffffffff1690506000610ae682876001611ef1565b905060048114610b8f57610b81828783600260008773ffffffffffffffffffffffffffffffffffffffff1673ffffffffffffffffffffffffffffffffffffffff16815260200190815260200160002060000154600260008873ffffffffffffffffffffffffffffffffffffffff1673ffffffffffffffffffffffffffffffffffffffff168152602001908152602001600020600101546121f6565b610b8e8287838b8b6126ad565b5b50505b505050505050565b6000806005600060066000600173ffffffffffffffffffffffffffffffffffffffff1673ffffffffffffffffffffffffffffffffffffffff16815260200190815260200160002060009054906101000a900473ffffffffffffffffffffffffffffffffffffffff1673ffffffffffffffffffffffffffffffffffffffff1673ffffffffffffffffffffffffffffffffffffffff16815260200190815260200160002060000154905060006002600060036000600173ffffffffffffffffffffffffffffffffffffffff1673ffffffffffffffffffffffffffffffffffffffff16815260200190815260200160002060009054906101000a900473ffffffffffffffffffffffffffffffffffffffff1673ffffffffffffffffffffffffffffffffffffffff1673ffffffffffffffffffffffffffffffffffffffff168152602001908152602001600020600001549050818111610d01578082610cfc9190613824565b610d0e565b8181610d0d9190613824565b5b9250505090565b6000600560003373ffffffffffffffffffffffffffffffffffffffff1673ffffffffffffffffffffffffffffffffffffffff1681526020019081526020016000206002015403610d9a576040517f08c379a0000000000000000000000000000000000000000000000000000000008152600401610d91906138a4565b60405180910390fd5b6000600560003373ffffffffffffffffffffffffffffffffffffffff1673ffffffffffffffffffffffffffffffffffffffff1681526020019081526020016000206001015490506000610dec33612b60565b9050600660003373ffffffffffffffffffffffffffffffffffffffff1673ffffffffffffffffffffffffffffffffffffffff16815260200190815260200160002060009054906101000a900473ffffffffffffffffffffffffffffffffffffffff16600660008373ffffffffffffffffffffffffffffffffffffffff1673ffffffffffffffffffffffffffffffffffffffff16815260200190815260200160002060006101000a81548173ffffffffffffffffffffffffffffffffffffffff021916908373ffffffffffffffffffffffffffffffffffffffff160217905550600660003373ffffffffffffffffffffffffffffffffffffffff1673ffffffffffffffffffffffffffffffffffffffff16815260200190815260200160002060006101000a81549073ffffffffffffffffffffffffffffffffffffffff0219169055600560003373ffffffffffffffffffffffffffffffffffffffff1673ffffffffffffffffffffffffffffffffffffffff1681526020019081526020016000206000808201600090556001820160009055600282016000905560038201600090556004820160006101000a81549060ff0219169055505060076000815480929190610fb6906138c4565b9190505550600160009054906101000a900473ffffffffffffffffffffffffffffffffffffffff1673ffffffffffffffffffffffffffffffffffffffff1663a9059cbb33846040518363ffffffff1660e01b81526004016110189291906138ed565b6020604051808303816000875af1158015611037573d6000803e3d6000fd5b505050506040513d601f19601f8201168201806040525081019061105b91906137ce565b503373ffffffffffffffffffffffffffffffffffffffff167fd72fd04c1f0f3dd2839fa078c4beeaabe5ef0b99fa16e668873e262e2ba475a260405160405180910390a25050565b6060806060806060600060075467ffffffffffffffff8111156110c9576110c861349d565b5b6040519080825280602002602001820160405280156110f75781602001602082028036833780820191505090505b509050600060075467ffffffffffffffff8111156111185761111761349d565b5b6040519080825280602002602001820160405280156111465781602001602082028036833780820191505090505b509050600060075467ffffffffffffffff8111156111675761116661349d565b5b6040519080825280602002602001820160405280156111955781602001602082028036833780820191505090505b509050600060075467ffffffffffffffff8111156111b6576111b561349d565b5b6040519080825280602002602001820160405280156111e45781602001602082028036833780820191505090505b509050600060075467ffffffffffffffff8111156112055761120461349d565b5b6040519080825280602002602001820160405280156112335781602001602082028036833780820191505090505b509050600060066000600173ffffffffffffffffffffffffffffffffffffffff1673ffffffffffffffffffffffffffffffffffffffff16815260200190815260200160002060009054906101000a900473ffffffffffffffffffffffffffffffffffffffff16905060005b865181101561145157818782815181106112bb576112ba6134cc565b5b602002602001019073ffffffffffffffffffffffffffffffffffffffff16908173ffffffffffffffffffffffffffffffffffffffff16815250506000600560008473ffffffffffffffffffffffffffffffffffffffff1673ffffffffffffffffffffffffffffffffffffffff168152602001908152602001600020905080600001548783815181106113505761134f6134cc565b5b6020026020010181815250508060010154868381518110611374576113736134cc565b5b6020026020010181815250508060020154858381518110611398576113976134cc565b5b6020026020010181815250508060040160009054906101000a900460ff168483815181106113c9576113c86134cc565b5b602002602001019015159081151581525050600660008473ffffffffffffffffffffffffffffffffffffffff1673ffffffffffffffffffffffffffffffffffffffff16815260200190815260200160002060009054906101000a900473ffffffffffffffffffffffffffffffffffffffff1692505080806114499061352a565b91505061129e565b5085858585859a509a509a509a509a505050505050509091929394565b60045481565b60008054906101000a900473ffffffffffffffffffffffffffffffffffffffff1681565b6000600260008473ffffffffffffffffffffffffffffffffffffffff1673ffffffffffffffffffffffffffffffffffffffff168152602001908152602001600020600201541461151d576040517f08c379a000000000000000000000000000000000000000000000000000000000815260040161151490613962565b60405180910390fd5b6000600560008473ffffffffffffffffffffffffffffffffffffffff1673ffffffffffffffffffffffffffffffffffffffff16815260200190815260200160002060020154146115a2576040517f08c379a0000000000000000000000000000000000000000000000000000000008152600401611599906139f4565b60405180910390fd5b600084141580156115b4575060008314155b6115f3576040517f08c379a00000000000000000000000000000000000000000000000000000000081526004016115ea906136f3565b60405180910390fd5b6040518060a00160405280858152602001848152602001428152602001848661161c9190613742565b8152602001821515815250600260008473ffffffffffffffffffffffffffffffffffffffff1673ffffffffffffffffffffffffffffffffffffffff1681526020019081526020016000206000820151816000015560208201518160010155604082015181600201556060820151816003015560808201518160040160006101000a81548160ff02191690831515021790555090505060006116c784866116c29190613742565b612d04565b90506000600360008373ffffffffffffffffffffffffffffffffffffffff1673ffffffffffffffffffffffffffffffffffffffff16815260200190815260200160002060009054906101000a900473ffffffffffffffffffffffffffffffffffffffff16905083600360008473ffffffffffffffffffffffffffffffffffffffff1673ffffffffffffffffffffffffffffffffffffffff16815260200190815260200160002060006101000a81548173ffffffffffffffffffffffffffffffffffffffff021916908373ffffffffffffffffffffffffffffffffffffffff16021790555080600360008673ffffffffffffffffffffffffffffffffffffffff1673ffffffffffffffffffffffffffffffffffffffff16815260200190815260200160002060006101000a81548173ffffffffffffffffffffffffffffffffffffffff021916908373ffffffffffffffffffffffffffffffffffffffff1602179055506004600081548092919061183c9061352a565b919050555060008054906101000a900473ffffffffffffffffffffffffffffffffffffffff1673ffffffffffffffffffffffffffffffffffffffff166323b872dd8530896040518463ffffffff1660e01b815260040161189e93929190613782565b6020604051808303816000875af11580156118bd573d6000803e3d6000fd5b505050506040513d601f19601f820116820180604052508101906118e191906137ce565b508373ffffffffffffffffffffffffffffffffffffffff1685876119059190613742565b7fbde30b7e17ea0c4c30ae7712e520d37bbbbff36c1e9d4c3698f7c841c02bead188886040516119369291906137fb565b60405180910390a360006007541115611a6857600060066000600173ffffffffffffffffffffffffffffffffffffffff1673ffffffffffffffffffffffffffffffffffffffff16815260200190815260200160002060009054906101000a900473ffffffffffffffffffffffffffffffffffffffff16905060006119bc86836001611ef1565b905060048114611a6557611a57868383600560008773ffffffffffffffffffffffffffffffffffffffff1673ffffffffffffffffffffffffffffffffffffffff16815260200190815260200160002060000154600560008873ffffffffffffffffffffffffffffffffffffffff1673ffffffffffffffffffffffffffffffffffffffff168152602001908152602001600020600101546126ad565b611a648683838b8b6121f6565b5b50505b505050505050565b6000600260003373ffffffffffffffffffffffffffffffffffffffff1673ffffffffffffffffffffffffffffffffffffffff1681526020019081526020016000206002015403611af5576040517f08c379a0000000000000000000000000000000000000000000000000000000008152600401611aec90613a60565b60405180910390fd5b6000600260003373ffffffffffffffffffffffffffffffffffffffff1673ffffffffffffffffffffffffffffffffffffffff1681526020019081526020016000206000015490506000611b4733612b60565b9050600360003373ffffffffffffffffffffffffffffffffffffffff1673ffffffffffffffffffffffffffffffffffffffff16815260200190815260200160002060009054906101000a900473ffffffffffffffffffffffffffffffffffffffff16600360008373ffffffffffffffffffffffffffffffffffffffff1673ffffffffffffffffffffffffffffffffffffffff16815260200190815260200160002060006101000a81548173ffffffffffffffffffffffffffffffffffffffff021916908373ffffffffffffffffffffffffffffffffffffffff160217905550600360003373ffffffffffffffffffffffffffffffffffffffff1673ffffffffffffffffffffffffffffffffffffffff16815260200190815260200160002060006101000a81549073ffffffffffffffffffffffffffffffffffffffff0219169055600260003373ffffffffffffffffffffffffffffffffffffffff1673ffffffffffffffffffffffffffffffffffffffff1681526020019081526020016000206000808201600090556001820160009055600282016000905560038201600090556004820160006101000a81549060ff0219169055505060046000815480929190611d11906138c4565b919050555060008054906101000a900473ffffffffffffffffffffffffffffffffffffffff1673ffffffffffffffffffffffffffffffffffffffff1663a9059cbb33846040518363ffffffff1660e01b8152600401611d719291906138ed565b6020604051808303816000875af1158015611d90573d6000803e3d6000fd5b505050506040513d601f19601f82011682018060405250810190611db491906137ce565b503373ffffffffffffffffffffffffffffffffffffffff167f40a722cc05fdeaf68cfdd1182ed21c908bd55248a30fb25c43d3bca5f9eb66f560405160405180910390a25050565b600080600190505b600115611eea57611e758184600660008573ffffffffffffffffffffffffffffffffffffffff1673ffffffffffffffffffffffffffffffffffffffff16815260200190815260200160002060009054906101000a900473ffffffffffffffffffffffffffffffffffffffff16612df9565b15611e835780915050611eec565b600660008273ffffffffffffffffffffffffffffffffffffffff1673ffffffffffffffffffffffffffffffffffffffff16815260200190815260200160002060009054906101000a900473ffffffffffffffffffffffffffffffffffffffff169050611e04565b505b919050565b6000818015611f845750600560008473ffffffffffffffffffffffffffffffffffffffff1673ffffffffffffffffffffffffffffffffffffffff16815260200190815260200160002060030154600260008673ffffffffffffffffffffffffffffffffffffffff1673ffffffffffffffffffffffffffffffffffffffff1681526020019081526020016000206003015410155b8061201d57508115801561201c5750600260008573ffffffffffffffffffffffffffffffffffffffff1673ffffffffffffffffffffffffffffffffffffffff16815260200190815260200160002060030154600560008573ffffffffffffffffffffffffffffffffffffffff1673ffffffffffffffffffffffffffffffffffffffff1681526020019081526020016000206003015411155b5b156121e557600560008473ffffffffffffffffffffffffffffffffffffffff1673ffffffffffffffffffffffffffffffffffffffff16815260200190815260200160002060000154600260008673ffffffffffffffffffffffffffffffffffffffff1673ffffffffffffffffffffffffffffffffffffffff16815260200190815260200160002060010154036120b657600190506121ef565b600560008473ffffffffffffffffffffffffffffffffffffffff1673ffffffffffffffffffffffffffffffffffffffff16815260200190815260200160002060000154600260008673ffffffffffffffffffffffffffffffffffffffff1673ffffffffffffffffffffffffffffffffffffffff16815260200190815260200160002060010154101561214b57600290506121ef565b600560008473ffffffffffffffffffffffffffffffffffffffff1673ffffffffffffffffffffffffffffffffffffffff16815260200190815260200160002060000154600260008673ffffffffffffffffffffffffffffffffffffffff1673ffffffffffffffffffffffffffffffffffffffff1681526020019081526020016000206001015411156121e057600390506121ef565b6121ee565b600490506121ef565b5b9392505050565b6000600560008673ffffffffffffffffffffffffffffffffffffffff1673ffffffffffffffffffffffffffffffffffffffff168152602001908152602001600020600101549050600184148061224c5750600384145b156124d257600061225c86612b60565b9050600660008773ffffffffffffffffffffffffffffffffffffffff1673ffffffffffffffffffffffffffffffffffffffff16815260200190815260200160002060009054906101000a900473ffffffffffffffffffffffffffffffffffffffff16600660008373ffffffffffffffffffffffffffffffffffffffff1673ffffffffffffffffffffffffffffffffffffffff16815260200190815260200160002060006101000a81548173ffffffffffffffffffffffffffffffffffffffff021916908373ffffffffffffffffffffffffffffffffffffffff160217905550600660008773ffffffffffffffffffffffffffffffffffffffff1673ffffffffffffffffffffffffffffffffffffffff16815260200190815260200160002060006101000a81549073ffffffffffffffffffffffffffffffffffffffff0219169055600560008773ffffffffffffffffffffffffffffffffffffffff1673ffffffffffffffffffffffffffffffffffffffff1681526020019081526020016000206000808201600090556001820160009055600282016000905560038201600090556004820160006101000a81549060ff0219169055505060076000815480929190612426906138c4565b9190505550600160009054906101000a900473ffffffffffffffffffffffffffffffffffffffff1673ffffffffffffffffffffffffffffffffffffffff1663a9059cbb88846040518363ffffffff1660e01b81526004016124889291906138ed565b6020604051808303816000875af11580156124a7573d6000803e3d6000fd5b505050506040513d601f19601f820116820180604052508101906124cb91906137ce565b50506126a5565b600284036126a45781600560008773ffffffffffffffffffffffffffffffffffffffff1673ffffffffffffffffffffffffffffffffffffffff168152602001908152602001600020600101546125289190613824565b600560008773ffffffffffffffffffffffffffffffffffffffff1673ffffffffffffffffffffffffffffffffffffffff1681526020019081526020016000206001018190555082600560008773ffffffffffffffffffffffffffffffffffffffff1673ffffffffffffffffffffffffffffffffffffffff168152602001908152602001600020600001546125bc9190613824565b600560008773ffffffffffffffffffffffffffffffffffffffff1673ffffffffffffffffffffffffffffffffffffffff16815260200190815260200160002060000181905550600160009054906101000a900473ffffffffffffffffffffffffffffffffffffffff1673ffffffffffffffffffffffffffffffffffffffff1663a9059cbb87846040518363ffffffff1660e01b815260040161265f9291906138ed565b6020604051808303816000875af115801561267e573d6000803e3d6000fd5b505050506040513d601f19601f820116820180604052508101906126a291906137ce565b505b5b505050505050565b6000600260008773ffffffffffffffffffffffffffffffffffffffff1673ffffffffffffffffffffffffffffffffffffffff16815260200190815260200160002060000154905060018414806127035750600284145b1561298757600061271387612b60565b9050600360008873ffffffffffffffffffffffffffffffffffffffff1673ffffffffffffffffffffffffffffffffffffffff16815260200190815260200160002060009054906101000a900473ffffffffffffffffffffffffffffffffffffffff16600360008373ffffffffffffffffffffffffffffffffffffffff1673ffffffffffffffffffffffffffffffffffffffff16815260200190815260200160002060006101000a81548173ffffffffffffffffffffffffffffffffffffffff021916908373ffffffffffffffffffffffffffffffffffffffff160217905550600360008873ffffffffffffffffffffffffffffffffffffffff1673ffffffffffffffffffffffffffffffffffffffff16815260200190815260200160002060006101000a81549073ffffffffffffffffffffffffffffffffffffffff0219169055600260008873ffffffffffffffffffffffffffffffffffffffff1673ffffffffffffffffffffffffffffffffffffffff1681526020019081526020016000206000808201600090556001820160009055600282016000905560038201600090556004820160006101000a81549060ff02191690555050600460008154809291906128dd906138c4565b919050555060008054906101000a900473ffffffffffffffffffffffffffffffffffffffff1673ffffffffffffffffffffffffffffffffffffffff1663a9059cbb87846040518363ffffffff1660e01b815260040161293d9291906138ed565b6020604051808303816000875af115801561295c573d6000803e3d6000fd5b505050506040513d601f19601f8201168201806040525081019061298091906137ce565b5050612b58565b60038403612b575782600260008873ffffffffffffffffffffffffffffffffffffffff1673ffffffffffffffffffffffffffffffffffffffff168152602001908152602001600020600001546129dd9190613824565b600260008873ffffffffffffffffffffffffffffffffffffffff1673ffffffffffffffffffffffffffffffffffffffff1681526020019081526020016000206000018190555081600260008873ffffffffffffffffffffffffffffffffffffffff1673ffffffffffffffffffffffffffffffffffffffff16815260200190815260200160002060010154612a719190613824565b600260008873ffffffffffffffffffffffffffffffffffffffff1673ffffffffffffffffffffffffffffffffffffffff1681526020019081526020016000206001018190555060008054906101000a900473ffffffffffffffffffffffffffffffffffffffff1673ffffffffffffffffffffffffffffffffffffffff1663a9059cbb86856040518363ffffffff1660e01b8152600401612b129291906138ed565b6020604051808303816000875af1158015612b31573d6000803e3d6000fd5b505050506040513d601f19601f82011682018060405250810190612b5591906137ce565b505b5b505050505050565b600080600190505b600173ffffffffffffffffffffffffffffffffffffffff16600360008373ffffffffffffffffffffffffffffffffffffffff1673ffffffffffffffffffffffffffffffffffffffff16815260200190815260200160002060009054906101000a900473ffffffffffffffffffffffffffffffffffffffff1673ffffffffffffffffffffffffffffffffffffffff1614612cfd578273ffffffffffffffffffffffffffffffffffffffff16600360008373ffffffffffffffffffffffffffffffffffffffff1673ffffffffffffffffffffffffffffffffffffffff16815260200190815260200160002060009054906101000a900473ffffffffffffffffffffffffffffffffffffffff1673ffffffffffffffffffffffffffffffffffffffff1603612c965780915050612cff565b600360008273ffffffffffffffffffffffffffffffffffffffff1673ffffffffffffffffffffffffffffffffffffffff16815260200190815260200160002060009054906101000a900473ffffffffffffffffffffffffffffffffffffffff169050612b68565b505b919050565b600080600190505b600115612df257612d7d8184600360008573ffffffffffffffffffffffffffffffffffffffff1673ffffffffffffffffffffffffffffffffffffffff16815260200190815260200160002060009054906101000a900473ffffffffffffffffffffffffffffffffffffffff16612f05565b15612d8b5780915050612df4565b600360008273ffffffffffffffffffffffffffffffffffffffff1673ffffffffffffffffffffffffffffffffffffffff16815260200190815260200160002060009054906101000a900473ffffffffffffffffffffffffffffffffffffffff169050612d0c565b505b919050565b6000600173ffffffffffffffffffffffffffffffffffffffff168473ffffffffffffffffffffffffffffffffffffffff161480612e785750600560008573ffffffffffffffffffffffffffffffffffffffff1673ffffffffffffffffffffffffffffffffffffffff168152602001908152602001600020600301548310155b8015612efc5750600173ffffffffffffffffffffffffffffffffffffffff168273ffffffffffffffffffffffffffffffffffffffff161480612efb5750600560008373ffffffffffffffffffffffffffffffffffffffff1673ffffffffffffffffffffffffffffffffffffffff1681526020019081526020016000206003015483105b5b90509392505050565b6000600173ffffffffffffffffffffffffffffffffffffffff168473ffffffffffffffffffffffffffffffffffffffff161480612f845750600260008573ffffffffffffffffffffffffffffffffffffffff1673ffffffffffffffffffffffffffffffffffffffff168152602001908152602001600020600301548311155b80156130085750600173ffffffffffffffffffffffffffffffffffffffff168273ffffffffffffffffffffffffffffffffffffffff1614806130075750600260008373ffffffffffffffffffffffffffffffffffffffff1673ffffffffffffffffffffffffffffffffffffffff1681526020019081526020016000206003015483115b5b90509392505050565b6000819050919050565b61302481613011565b82525050565b600060208201905061303f600083018461301b565b92915050565b600081519050919050565b600082825260208201905092915050565b6000819050602082019050919050565b600073ffffffffffffffffffffffffffffffffffffffff82169050919050565b600061309c82613071565b9050919050565b6130ac81613091565b82525050565b60006130be83836130a3565b60208301905092915050565b6000602082019050919050565b60006130e282613045565b6130ec8185613050565b93506130f783613061565b8060005b8381101561312857815161310f88826130b2565b975061311a836130ca565b9250506001810190506130fb565b5085935050505092915050565b600081519050919050565b600082825260208201905092915050565b6000819050602082019050919050565b61316a81613011565b82525050565b600061317c8383613161565b60208301905092915050565b6000602082019050919050565b60006131a082613135565b6131aa8185613140565b93506131b583613151565b8060005b838110156131e65781516131cd8882613170565b97506131d883613188565b9250506001810190506131b9565b5085935050505092915050565b600081519050919050565b600082825260208201905092915050565b6000819050602082019050919050565b60008115159050919050565b6132348161321f565b82525050565b6000613246838361322b565b60208301905092915050565b6000602082019050919050565b600061326a826131f3565b61327481856131fe565b935061327f8361320f565b8060005b838110156132b0578151613297888261323a565b97506132a283613252565b925050600181019050613283565b5085935050505092915050565b600060a08201905081810360008301526132d781886130d7565b905081810360208301526132eb8187613195565b905081810360408301526132ff8186613195565b905081810360608301526133138185613195565b90508181036080830152613327818461325f565b90509695505050505050565b6000819050919050565b600061335861335361334e84613071565b613333565b613071565b9050919050565b600061336a8261333d565b9050919050565b600061337c8261335f565b9050919050565b61338c81613371565b82525050565b60006020820190506133a76000830184613383565b92915050565b600080fd5b6133bb81613011565b81146133c657600080fd5b50565b6000813590506133d8816133b2565b92915050565b6133e781613091565b81146133f257600080fd5b50565b600081359050613404816133de565b92915050565b6134138161321f565b811461341e57600080fd5b50565b6000813590506134308161340a565b92915050565b600080600080608085870312156134505761344f6133ad565b5b600061345e878288016133c9565b945050602061346f878288016133c9565b9350506040613480878288016133f5565b925050606061349187828801613421565b91505092959194509250565b7f4e487b7100000000000000000000000000000000000000000000000000000000600052604160045260246000fd5b7f4e487b7100000000000000000000000000000000000000000000000000000000600052603260045260246000fd5b7f4e487b7100000000000000000000000000000000000000000000000000000000600052601160045260246000fd5b600061353582613011565b91507fffffffffffffffffffffffffffffffffffffffffffffffffffffffffffffffff8203613567576135666134fb565b5b600182019050919050565b600082825260208201905092915050565b7f46697273742064656c657465206578697374696e672073656c6c206f72646572600082015250565b60006135b9602083613572565b91506135c482613583565b602082019050919050565b600060208201905081810360008301526135e8816135ac565b9050919050565b7f43616e6e6f7420706c6163652073656c6c206f7264657220666f7220746f6b6560008201527f6e207468617420796f752061726520627579696e670000000000000000000000602082015250565b600061364b603583613572565b9150613656826135ef565b604082019050919050565b6000602082019050818103600083015261367a8161363e565b9050919050565b7f4d7573742068617665206e6f6e7a65726f20707269636520616e64207175616e60008201527f7469747900000000000000000000000000000000000000000000000000000000602082015250565b60006136dd602483613572565b91506136e882613681565b604082019050919050565b6000602082019050818103600083015261370c816136d0565b9050919050565b7f4e487b7100000000000000000000000000000000000000000000000000000000600052601260045260246000fd5b600061374d82613011565b915061375883613011565b92508261376857613767613713565b5b828204905092915050565b61377c81613091565b82525050565b60006060820190506137976000830186613773565b6137a46020830185613773565b6137b1604083018461301b565b949350505050565b6000815190506137c88161340a565b92915050565b6000602082840312156137e4576137e36133ad565b5b60006137f2848285016137b9565b91505092915050565b6000604082019050613810600083018561301b565b61381d602083018461301b565b9392505050565b600061382f82613011565b915061383a83613011565b9250828203905081811115613852576138516134fb565b5b92915050565b7f53656c6c206f72646572206d75737420616c7265616479206578697374000000600082015250565b600061388e601d83613572565b915061389982613858565b602082019050919050565b600060208201905081810360008301526138bd81613881565b9050919050565b60006138cf82613011565b9150600082036138e2576138e16134fb565b5b600182039050919050565b60006040820190506139026000830185613773565b61390f602083018461301b565b9392505050565b7f46697273742064656c657465206578697374696e6720627579206f7264657200600082015250565b600061394c601f83613572565b915061395782613916565b602082019050919050565b6000602082019050818103600083015261397b8161393f565b9050919050565b7f43616e6e6f7420706c61636520627579206f7264657220666f7220746f6b656e60008201527f207468617420796f75206172652073656c6c696e670000000000000000000000602082015250565b60006139de603583613572565b91506139e982613982565b604082019050919050565b60006020820190508181036000830152613a0d816139d1565b9050919050565b7f427579206f72646572206d75737420616c726561647920657869737400000000600082015250565b6000613a4a601c83613572565b9150613a5582613a14565b602082019050919050565b60006020820190508181036000830152613a7981613a3d565b905091905056fea2646970667358221220006c6815e3a19db4f580df449b78adda43a03528e9975476ada673b1333b573e64736f6c63430008110033a264697066735822122035de4b40546c7db1bafef905a799de8c138fcb16b2767deaf15406a08b57ac3e64736f6c63430008110033",
  "immutableReferences": {},
  "source": "pragma solidity ^0.8.17;\r\n\r\nimport \"../node_modules/@openzeppelin/contracts/token/ERC20/ERC20.sol\";\r\n\r\ncontract Token is ERC20 {\r\n    address public admin;\r\n\r\n    constructor(string memory _name, string memory _symbol) ERC20(_name, _symbol) {\r\n        admin = msg.sender;\r\n        _mint(msg.sender, 1000);\r\n    }\r\n\r\n    function mint(address _to, uint256 _amount) external {\r\n        require(msg.sender == admin, \"Only admin can mint\");\r\n        _mint(_to, _amount);\r\n    }\r\n}\r\n\r\ncontract Dex {\r\n    mapping (address => ERC20) private availableTokens;\r\n    address[] private tokenAddresses;\r\n    uint256 private numTokens;\r\n    OrderbookFactory private books = new OrderbookFactory();\r\n    Order[] public _orders;\r\n    bytes32[] private identifiers;\r\n\r\n    address public owner;\r\n    event LogTokenSent(address token, address receipient, uint256 amount);\r\n    event LogTokenCreated(address tokenAddress, string tokenName, string tokenSymbol);\r\n    event LogBuyOrderPlaced(address buyer, address buyToken, uint256 buyAmt, address payToken, uint256 payAmt);\r\n\r\n    // Order struct containing price, quantity, and tokens being transacted\r\n    struct Order {\r\n        address orderedBy; // address of buyer/seller\r\n        uint256 price;\r\n        uint256 quantity;\r\n        uint256 date;\r\n        bool isTimed;\r\n        string token1;\r\n        string token2;\r\n        string orderType; // buy or sell\r\n        address token1Addr;\r\n        address token2Addr;\r\n    }\r\n\r\n    constructor () {\r\n        owner = msg.sender;\r\n        numTokens = 0;\r\n    }\r\n\r\n\r\n    // Allows admin to create new token, and new token will be added into availableTokens dict.\r\n    function createToken(string memory _name, string memory _symbol) public {\r\n        // only allow owner to create tokens\r\n        require(owner == msg.sender, \"Only the owner can create tokens!\");\r\n\r\n        //mapping address of new Token created\r\n        address newTokenAddress = address(new Token(_name, _symbol));\r\n        availableTokens[newTokenAddress] = ERC20(newTokenAddress);\r\n        tokenAddresses.push(newTokenAddress);\r\n        numTokens++;\r\n\r\n        // log token creation event\r\n        emit LogTokenCreated(newTokenAddress, _name, _symbol);\r\n    }\r\n\r\n    // Allows admin to send token\r\n    function sendToken(address _token, address _receipient, uint256 _amount) public {\r\n        // only allow owner to create tokens\r\n        require(owner == msg.sender, \"Only the owner can send tokens!\");\r\n        ERC20 ERC20TOKEN = availableTokens[_token];\r\n        ERC20TOKEN.transfer(_receipient, _amount);\r\n\r\n        // log token sent event\r\n        emit LogTokenSent(_token, _receipient, _amount);\r\n    }\r\n\r\n    // Returns an array of available tokens\r\n    function getAvailableTokens() public view returns(address[] memory) {\r\n        address[] memory addressTemp = new address[](numTokens);\r\n\r\n        //loop through the available tokens\r\n        for (uint256 i=0; i < numTokens; i++) {\r\n            if(tokenAddresses[i] == address(0)){\r\n                i--; //so that i does not increase\r\n                continue;\r\n            }\r\n            addressTemp[i] = tokenAddresses[i];\r\n        }\r\n        return addressTemp;\r\n    }\r\n\r\n    function getTokenName(address _token) public view returns(string memory) {\r\n        ERC20 ERC20TOKEN = availableTokens[_token];\r\n        return ERC20TOKEN.name();\r\n    }\r\n\r\n    function getTokenBalance(address _token) public view returns(uint256) {\r\n        ERC20 ERC20TOKEN = availableTokens[_token];\r\n        return ERC20TOKEN.balanceOf(msg.sender);\r\n    }\r\n\r\n    // the logic for this buy is a little weird, because the orderbook assumes the token to be bought/sold.\r\n    // for example in orderbook for tokenA and tokenB. orderbook always assumes tokenA is the one being sold, \r\n    // tokenB is the one being bought. because of this, when we want to buy tokenA, we have to place a sell order for token B.\r\n    function buy(address _buyToken, uint256 _buyAmt, address _payToken, uint256 _payAmt, bool _isTimedOrder) public {\r\n        // first check whether there is an existing orderboook for this pair of tokens\r\n        address token1;\r\n        address token2;\r\n        if (uint160(_buyToken) > uint160(_payToken)) {\r\n            token1 = _buyToken;\r\n            token2 = _payToken;\r\n        } else {\r\n            token1 = _payToken;\r\n            token2 = _buyToken;\r\n        }\r\n        bytes32 identifier = keccak256(abi.encodePacked(token1, token2));\r\n        // if no existing orderbook for this pair of tokens then create it\r\n        if(books.orderbooks(identifier) == address(0)){\r\n            books.addPair(token1, token2);\r\n            identifiers.push(identifier);\r\n        }\r\n        Orderbook book = Orderbook(books.orderbooks(identifier));\r\n        // in orderbook token 1 acts as cash, token 2 acts as commodity.\r\n        // so, by comparing _buyToken with token1, we will know if _buyToken here is cash or commodity.\r\n        // if _buyToken is cash, means we need to place sell order, if is commodity, means we need to place buy order\r\n        if(_buyToken == token1){\r\n            //place sell order\r\n            book.placeSell(_buyAmt, _payAmt, msg.sender, _isTimedOrder);\r\n        }else if(_buyToken == token2){\r\n            //place buy order\r\n            book.placeBuy(_payAmt, _buyAmt, msg.sender, _isTimedOrder);\r\n        }\r\n\r\n        emit LogBuyOrderPlaced(msg.sender, _buyToken, _buyAmt, _payToken, _payAmt);\r\n    }\r\n\r\n    // will need this to retrieve address of orderbook, and address of token1 and token2 so we know which is getting bought/sold\r\n    function getOrderbookAddress(address _token1, address _token2) view external returns (address, address, address) {\r\n        address token1;\r\n        address token2;\r\n        if (uint160(_token1) > uint160(_token2)) {\r\n            token1 = _token1;\r\n            token2 = _token2;\r\n        } else {\r\n            token1 = _token2;\r\n            token2 = _token1;\r\n        }\r\n        bytes32 identifier = keccak256(abi.encodePacked(token1, token2));\r\n        return (books.orderbooks(identifier), token1, token2);\r\n    }\r\n\r\n    // create orderbook for the token pair and return the address\r\n    function addTokenPair(address _token1, address _token2) external returns (address, address, address) {\r\n        books.addPair(_token1, _token2);\r\n        address token1;\r\n        address token2;\r\n        if (uint160(_token1) > uint160(_token2)) {\r\n            token1 = _token1;\r\n            token2 = _token2;\r\n        } else {\r\n            token1 = _token2;\r\n            token2 = _token1;\r\n        }\r\n        bytes32 identifier = keccak256(abi.encodePacked(token1, token2));\r\n        identifiers.push(identifier);\r\n        return (books.orderbooks(identifier), token1, token2);\r\n    }\r\n\r\n    function getOrders() external returns (Order[] memory){\r\n        address[] memory addressTemp;\r\n        uint256[] memory priceTemp;\r\n        uint256[] memory quantityTemp;\r\n        uint256[] memory dateTemp;\r\n        bool[] memory isTimedTemp;\r\n\r\n        string memory _token1;\r\n        string memory _token2;\r\n        for(uint256 i=0; i < _orders.length; i++) {\r\n            _orders.pop();\r\n        }\r\n\r\n        //loop through the available tokens\r\n        for(uint256 i=0; i < identifiers.length; i++) {\r\n            Orderbook book = Orderbook(books.orderbooks(identifiers[i]));\r\n            (addressTemp, priceTemp, quantityTemp, dateTemp, isTimedTemp) = book.getBuySide();\r\n            _token1 = getTokenName(address(book.token1()));\r\n            _token2 = getTokenName(address(book.token2()));\r\n            \r\n            for(uint256 j=0; j < addressTemp.length; j++){\r\n                _orders.push(Order(addressTemp[j], priceTemp[j], quantityTemp[j], dateTemp[j], isTimedTemp[j],_token1, _token2, \"buy\", address(book.token1()), address(book.token2())));\r\n            }\r\n\r\n            (addressTemp, priceTemp, quantityTemp, dateTemp, isTimedTemp) = book.getSellSide();\r\n            for(uint256 j=0; j < addressTemp.length; j++){\r\n                _orders.push(Order(addressTemp[j], priceTemp[j], quantityTemp[j], dateTemp[j], isTimedTemp[j],_token1, _token2, \"sell\", address(book.token1()), address(book.token2())));\r\n            }\r\n        }\r\n        // still missing names of token being bought/sold.\r\n        // buyPriceTemp holds the amount of token1 being paid, buyQuantityTemp holds the amount of token2 being bought\r\n        // buyAddressTemp holds wallet addresses of those who placed the buy orders\r\n        // \r\n        return _orders;\r\n    }\r\n\r\n\r\n}\r\n\r\n\r\n/* This contract represents a factory to create an arbitrary number of orderbooks\r\n * for unique trading pairs. If an orderbook for the trading pair already exists\r\n * then contract execution will revert.\r\n */\r\ncontract OrderbookFactory {\r\n    // number of pairs supported\r\n    uint256 public pairsSupported;\r\n\r\n    // mapping of existing orderbooks\r\n    mapping(bytes32 => address) public orderbooks;\r\n\r\n    // event emitted every time a new token pair is added\r\n    event NewPair(address indexed token1, address indexed token2);\r\n\r\n    // Creates a new orderbook contract instance for the token pair\r\n    function addPair(address _token1, address _token2) external {\r\n        require(_token1 != _token2, \"Tokens must be different\");\r\n\r\n        address token1;\r\n        address token2;\r\n\r\n        /* This ensures that token addresses are order correctly, this way if\r\n         * the same pair is entered but in different order, a new orderbook will\r\n         * NOT be created!\r\n         */\r\n        if (uint160(_token1) > uint160(_token2)) {\r\n            token1 = _token1;\r\n            token2 = _token2;\r\n        } else {\r\n            token1 = _token2;\r\n            token2 = _token1;\r\n        }\r\n\r\n        // mapping identifier is computed from the hash of the ordered addresses\r\n        bytes32 identifier = keccak256(abi.encodePacked(token1, token2));\r\n        require(\r\n            orderbooks[identifier] == address(0),\r\n            \"Token pair already exists\"\r\n        );\r\n\r\n        /* create the new orderbook contract for the pair and store its address\r\n         * in the orderbooks mapping\r\n         */\r\n        orderbooks[identifier] = address(new Orderbook(token1, token2));\r\n        pairsSupported++;\r\n\r\n        emit NewPair(token1, token2);\r\n    }\r\n}\r\n\r\n/* This contract represents an orderbook with a buy side and sell side of the\r\n * book. This contract maintains an ordered list of both the buy side and the\r\n * sell side of the book and allows any user to remove his or her order. There\r\n * is also functionality to return both the buy and sell side of the book. Please\r\n * see the README for further assumptions.\r\n */\r\ncontract Orderbook {\r\n    IERC20 public token1;\r\n    IERC20 public token2;\r\n\r\n    // Order struct containing price, quantity, and date created\r\n    struct Order {\r\n        uint256 price;\r\n        uint256 quantity;\r\n        uint256 date;\r\n        uint256 unitPrice;\r\n        bool isTimeOrder; // whether it is a time conditional order\r\n    }\r\n\r\n    // mapping of buyer address to buy order\r\n    mapping(address => Order) buyOrders;\r\n\r\n    // mapping used to preserve order based on buy price\r\n    mapping(address => address) nextBuy;\r\n\r\n    // overall buy order count\r\n    uint256 public buyCount;\r\n\r\n    // mapping of seller address to sell order\r\n    mapping(address => Order) sellOrders;\r\n\r\n    // mapping used to preserve order based on sell price\r\n    mapping(address => address) nextSell;\r\n\r\n    // overall sell order count\r\n    uint256 public sellCount;\r\n\r\n    // BUFFER used to signal beginning and end of order mappings\r\n    address constant BUFFER = address(1);\r\n\r\n    // event emitted whenever a buy order is placed\r\n    event BuyOrderPlaced(\r\n        uint256 indexed unitPrice,\r\n        uint256 price,\r\n        uint256 quantity,\r\n        address indexed buyer\r\n    );\r\n\r\n    // event emitted whenever a buy order is cancelled\r\n    event CancelBuyOrder(address indexed buyer);\r\n\r\n    // event emitted whenever a sell order is placed\r\n    event SellOrderPlaced(\r\n        uint256 indexed unitPrice,\r\n        uint256 price,\r\n        uint256 quantity,\r\n        address indexed seller\r\n    );\r\n\r\n    // event emitted whenever a sell order is cancelled\r\n    event CancelSellOrder(address indexed seller);\r\n\r\n    // initialize token1 and token2 of the pair\r\n    constructor(address _token1, address _token2) {\r\n        token1 = IERC20(_token1);\r\n        token2 = IERC20(_token2);\r\n\r\n        // initialize order mappings\r\n        nextBuy[BUFFER] = BUFFER;\r\n        nextSell[BUFFER] = BUFFER;\r\n    }\r\n\r\n    /* Helper function used to verify the correct insertion position of a\r\n     * buy order when it is added to the buy side. Returns true if the order is\r\n     * at least as expensive as the previous buy order in the list and definitely\r\n     * more expensive than the next order in the list (for descending order)\r\n     */\r\n    function _verifyIndexBuy(\r\n        address prev,\r\n        uint256 unitPrice,\r\n        address next\r\n    ) internal view returns (bool) {\r\n        return ((prev == BUFFER || unitPrice <= buyOrders[prev].unitPrice) &&\r\n            (next == BUFFER || unitPrice > buyOrders[next].unitPrice));\r\n    }\r\n\r\n    /* Helper function used to verify the correct insertion position of a\r\n     * sell order when it is added to the sell side. Returns true if the order is\r\n     * at least as cheap as the previous sell order in the list and definitely\r\n     * less expensive than the next order in the list (for ascending order)\r\n     */\r\n    function _verifyIndexSell(\r\n        address prev,\r\n        uint256 unitPrice,\r\n        address next\r\n    ) internal view returns (bool) {\r\n        return ((prev == BUFFER || unitPrice >= sellOrders[prev].unitPrice) &&\r\n            (next == BUFFER || unitPrice < sellOrders[next].unitPrice));\r\n    }\r\n\r\n    /* Helper function that finds the previous buy order address for the new buy\r\n     * order to add to the list based on the new buy order price.\r\n     */\r\n    function _findPrevBuy(uint256 unitPrice) internal view returns (address) {\r\n        address prev = BUFFER;\r\n        while (true) {\r\n            if (_verifyIndexBuy(prev, unitPrice, nextBuy[prev])) {\r\n                return prev;\r\n            }\r\n            prev = nextBuy[prev];\r\n        }\r\n    }\r\n\r\n    /* Helper function that finds the previous sell order address for the new\r\n     * sell order to add to the list based on the new sell order price.\r\n     */\r\n    function _findPrevSell(uint256 unitPrice) internal view returns (address) {\r\n        address prev = BUFFER;\r\n        while (true) {\r\n            if (_verifyIndexSell(prev, unitPrice, nextSell[prev])) {\r\n                return prev;\r\n            }\r\n            prev = nextSell[prev];\r\n        }\r\n    }\r\n\r\n    /* Finds the previous address of the target address in the order mapping of\r\n     * either buy or sell order addresses. Used for removing buy or sell orders.\r\n     */\r\n    function _getPrevious(address target) internal view returns (address) {\r\n        address current = BUFFER;\r\n        while (nextBuy[current] != BUFFER) {\r\n            if (nextBuy[current] == target) {\r\n                return current;\r\n            }\r\n            current = nextBuy[current];\r\n        }\r\n    }\r\n\r\n    // Places a buy order and locks associated collateral\r\n    function placeBuy(uint256 _price, uint256 _quantity, address _buyer, bool _isTimedOrder) external {\r\n        // Only one buy order per address\r\n        require(\r\n            buyOrders[_buyer].date == 0,\r\n            \"First delete existing buy order\"\r\n        );\r\n        require(\r\n            sellOrders[_buyer].date == 0,\r\n            \"Cannot place buy order for token that you are selling\"\r\n        );\r\n        require(\r\n            _price != 0 && _quantity != 0,\r\n            \"Must have nonzero price and quantity\"\r\n        );\r\n\r\n        // Create a new order in the buy order mapping for _buyer\r\n        buyOrders[_buyer] = Order(_price, _quantity, block.timestamp, _price/_quantity, _isTimedOrder);\r\n\r\n        /* Add _buyer into the appropriate position in the ordering mapping.\r\n         * This is similar to linked list insertion\r\n         */\r\n        address prev = _findPrevBuy(_price/_quantity);\r\n        address temp = nextBuy[prev];\r\n        nextBuy[prev] = _buyer;\r\n        nextBuy[_buyer] = temp;\r\n\r\n        // Increment the overall buy count\r\n        buyCount++;\r\n\r\n        /* Transfer the buy order quantity of token1 from the buyer to the\r\n         * orderbook contract. This locks the associated collateral\r\n         */\r\n        token1.transferFrom(_buyer, address(this), _price);\r\n\r\n        // Emit buy order placed event\r\n        emit BuyOrderPlaced(_price/_quantity,_price, _quantity, _buyer);\r\n\r\n        if(sellCount > 0){\r\n            address _seller = nextSell[BUFFER];\r\n            uint256 k = matchOrders(_buyer, _seller, true);\r\n            if (k!=4){\r\n                completeBuyOrder(_buyer,_seller,k, sellOrders[_seller].price, sellOrders[_seller].quantity);\r\n                completeSellOrder(_buyer,_seller,k, _price, _quantity);\r\n            }\r\n        }\r\n    }\r\n\r\n    // Cancels the buy order associated with _buyer if it exists\r\n    function cancelBuy() external {\r\n        require(\r\n            buyOrders[msg.sender].date != 0,\r\n            \"Buy order must already exist\"\r\n        );\r\n\r\n        // Store quantity of buy order to refund msg.sender with correct amount\r\n        uint256 price = buyOrders[msg.sender].price;\r\n\r\n        // Find the previous address of the msg.sender in the ordering mapping\r\n        address prev = _getPrevious(msg.sender);\r\n\r\n        // Delete msg.sender from ordering mapping. Similar to linked list deletion\r\n        nextBuy[prev] = nextBuy[msg.sender];\r\n\r\n        // Delete buy order from buy order mapping and ordering mapping\r\n        delete nextBuy[msg.sender];\r\n        delete buyOrders[msg.sender];\r\n\r\n        // Decrement the buy count\r\n        buyCount--;\r\n\r\n        // approve corresponding wallet to dr\r\n        // uint256 allowance = token1.allowance(address(this), msg.sender);\r\n        // Unlock associated collateral and send it back to msg.sender\r\n        token1.transfer(msg.sender, price);\r\n\r\n        // Emit a cancel buy order event\r\n        emit CancelBuyOrder(msg.sender);\r\n    }\r\n\r\n    function completeBuyOrder(address buyAddress, address sellAddress, uint256 k, uint256 sellPrice, uint256 sellQuantity) internal { // Cancels the buy order associated with msg.sender if it exists\r\n        \r\n        uint256 price = buyOrders[buyAddress].price; // Store quantity of buy order to refund msg.sender with correct amount\r\n        \r\n\r\n        // Delete buy order from buy order mapping and ordering mapping\r\n        if (k==1 || k==2){\r\n            address prev = _getPrevious(buyAddress); // Find the previous address of the msg.sender in the ordering mapping\r\n            nextBuy[prev] = nextBuy[buyAddress]; // Delete msg.sender from ordering mapping. Similar to linked list deletion\r\n            delete nextBuy[buyAddress];\r\n            delete buyOrders[buyAddress];\r\n            buyCount--; // Decrement the buy count\r\n            token1.transfer(sellAddress, price); // Unlock associated collateral and send it back to msg.sender\r\n            // emit CancelBuyOrder(buyAddress); // Emit a cancel buy order event\r\n        } \r\n        else if (k==3){\r\n            // Buy Order partially fulfilled\r\n            //buy 5b (quantity) for 5a(price)\r\n            //sell 10a(price) for 10b (quantity)\r\n            buyOrders[buyAddress].price = buyOrders[buyAddress].price - sellPrice;\r\n\r\n            buyOrders[buyAddress].quantity = buyOrders[buyAddress].quantity - sellQuantity;\r\n            token1.transfer(sellAddress, sellPrice); // Unlock associated collateral and send it back to msg.sender\r\n            \r\n        }\r\n    }\r\n\r\n    // Places a sell order and locks associated collateral\r\n    function placeSell(uint256 _price, uint256 _quantity, address _seller, bool _isTimedOrder) external {\r\n        // Only one sell order per address\r\n        require(\r\n            sellOrders[_seller].date == 0,\r\n            \"First delete existing sell order\"\r\n        );\r\n        require(\r\n            buyOrders[_seller].date == 0,\r\n            \"Cannot place sell order for token that you are buying\"\r\n        );\r\n        require(\r\n            _price != 0 && _quantity != 0,\r\n            \"Must have nonzero price and quantity\"\r\n        );\r\n\r\n        // Create a new order in the sell order mapping for _seller\r\n        sellOrders[_seller] = Order(_price, _quantity, block.timestamp, _price/_quantity, _isTimedOrder);\r\n\r\n        /* Add _seller into the appropriate position in the ordering mapping.\r\n         * This is similar to linked list insertion\r\n         */\r\n        address prev = _findPrevSell(_price);\r\n        address temp = nextSell[prev];\r\n        nextSell[prev] = _seller;\r\n        nextSell[_seller] = temp;\r\n\r\n        // Increment the sell count\r\n        sellCount++;\r\n\r\n        /* Transfer the sell order quantity of token2 from the seller to the\r\n         * orderbook contract. This locks the associated collateral\r\n         */\r\n        token2.transferFrom(_seller, address(this), _quantity);\r\n\r\n        // Emit a sell order placed event\r\n        emit SellOrderPlaced(_price/_quantity, _price, _quantity, _seller);\r\n\r\n        if(buyCount > 0){\r\n            address _buyer = nextBuy[BUFFER];\r\n            uint256 k = matchOrders(_buyer, _seller, true);\r\n            if (k!=4){\r\n                completeSellOrder(_buyer,_seller,k, buyOrders[_buyer].price, buyOrders[_buyer].quantity);\r\n                completeBuyOrder(_buyer,_seller,k, _price, _quantity);\r\n            }\r\n        }\r\n    }\r\n\r\n    // Cancels the sell order associated with msg.sender if it exists\r\n    function cancelSell() external {\r\n        require(\r\n            sellOrders[msg.sender].date != 0,\r\n            \"Sell order must already exist\"\r\n        );\r\n\r\n        // Store quantity of sell order to refund msg.sender with correct amount\r\n        uint256 quantity = sellOrders[msg.sender].quantity;\r\n\r\n        // Find the previous address of the msg.sender in the ordering mapping\r\n        address prev = _getPrevious(msg.sender);\r\n\r\n        // Delete msg.sender from ordering mapping. Similar to linked list deletion\r\n        nextSell[prev] = nextSell[msg.sender];\r\n\r\n        // Delete sell order from sell order mapping and ordering mapping\r\n        delete nextSell[msg.sender];\r\n        delete sellOrders[msg.sender];\r\n\r\n        // Decrement sell count\r\n        sellCount--;\r\n\r\n        // console.log(token2.allowance(address(this), msg.sender));\r\n        // Unlock associated collateral and send it back to msg.sender\r\n        token2.transfer(msg.sender, quantity);\r\n\r\n        // Emit a cencel sell order event\r\n        emit CancelSellOrder(msg.sender);\r\n    }\r\n\r\n    function completeSellOrder(address buyAddress, address sellAddress, uint256 k, uint256 buyPrice, uint256 buyQuantity) internal { // Cancels the buy order associated with msg.sender if it exists\r\n        \r\n        uint256 quantity = sellOrders[sellAddress].quantity; // Store quantity of buy order to refund msg.sender with correct amount\r\n        \r\n\r\n        if (k==1 || k==3){\r\n            address prev = _getPrevious(sellAddress); // Find the previous address of the msg.sender in the ordering mapping\r\n            nextSell[prev] = nextSell[sellAddress]; // Delete msg.sender from ordering mapping. Similar to linked list deletion\r\n            // Delete buy order from buy order mapping and ordering mapping\r\n            delete nextSell[sellAddress];\r\n            delete sellOrders[sellAddress];\r\n            sellCount--; // Decrement the buy count\r\n            token2.transfer(buyAddress, quantity); // Unlock associated collateral and send it back to msg.sender\r\n            // emit CancelSellOrder(sellAddress); // Emit a cancel buy order event\r\n        }\r\n        else if (k==2){\r\n            // sell Order partially fulfilled\r\n            sellOrders[sellAddress].quantity = sellOrders[sellAddress].quantity - buyQuantity;\r\n            sellOrders[sellAddress].price = sellOrders[sellAddress].price - buyPrice;\r\n            token2.transfer(buyAddress, buyQuantity);\r\n            \r\n            // emit CancelSellOrder(sellAddress);\r\n            \r\n        }\r\n    }\r\n\r\n    /* Returns the buy side of the orderbook in three separate arrays. The first\r\n     * array contains all the addresses with active buy orders, and the second\r\n     * and third arrays contain the associated prices and quantities of these\r\n     * buy orders respectively. Arrays are returned in descending order\r\n     */\r\n    function getBuySide()\r\n        external\r\n        view\r\n        returns (\r\n            address[] memory,\r\n            uint256[] memory,\r\n            uint256[] memory,\r\n            uint256[] memory,\r\n            bool[] memory\r\n        )\r\n    {\r\n        // Instantiate three arrays equal in length to the total buy count\r\n        address[] memory addressTemp = new address[](buyCount);\r\n        uint256[] memory priceTemp = new uint256[](buyCount);\r\n        uint256[] memory quantityTemp = new uint256[](buyCount);\r\n        uint256[] memory dateTemp = new uint256[](buyCount);\r\n        bool[] memory isTimedTemp = new bool[](buyCount);\r\n\r\n\r\n        // Set current address equal to the first buy order address\r\n        address current = nextBuy[BUFFER];\r\n\r\n        // Iterate through each array and store the corresponding values\r\n        for (uint256 i = 0; i < addressTemp.length; i++) {\r\n            addressTemp[i] = current;\r\n            Order storage order = buyOrders[current];\r\n\r\n            priceTemp[i] = order.price;\r\n            quantityTemp[i] = order.quantity;\r\n            dateTemp[i] = order.date;\r\n            isTimedTemp[i] = order.isTimeOrder;\r\n\r\n            current = nextBuy[current];\r\n        }\r\n\r\n        // Return the three arrays\r\n        return (addressTemp, priceTemp, quantityTemp, dateTemp, isTimedTemp);\r\n    }\r\n\r\n    /* Returns the sell side of the orderbook in three separate arrays. The first\r\n     * array contains all the addresses with active sell orders, and the second\r\n     * and third arrays contain the associated prices and quantities of these\r\n     * sell orders respectively. Arrays are returned in ascending order\r\n     */\r\n    function getSellSide()\r\n        external\r\n        view\r\n        returns (\r\n            address[] memory,\r\n            uint256[] memory,\r\n            uint256[] memory,\r\n            uint256[] memory,\r\n            bool[] memory\r\n        )\r\n    {\r\n        // Instantiate three arrays equal in length to the total sell count\r\n        address[] memory addressTemp = new address[](sellCount);\r\n        uint256[] memory priceTemp = new uint256[](sellCount);\r\n        uint256[] memory quantityTemp = new uint256[](sellCount);\r\n        uint256[] memory dateTemp = new uint256[](sellCount);\r\n        bool[] memory isTimedTemp = new bool[](sellCount);\r\n\r\n\r\n        // Set current address equal to the first sell order address\r\n        address current = nextSell[BUFFER];\r\n\r\n        // Iterate through each array and store the corresponding values\r\n        for (uint256 i = 0; i < addressTemp.length; i++) {\r\n            addressTemp[i] = current;\r\n            Order storage order = sellOrders[current];\r\n\r\n            priceTemp[i] = order.price;\r\n            quantityTemp[i] = order.quantity;\r\n            dateTemp[i] = order.date;\r\n            isTimedTemp[i] = order.isTimeOrder;\r\n\r\n            current = nextSell[current];\r\n        }\r\n\r\n        // Return the three arrays\r\n        return (addressTemp, priceTemp, quantityTemp, dateTemp, isTimedTemp);\r\n    }\r\n\r\n    /* Returns the spread of the orderbook defined as the absolute value of the\r\n     * difference between the highest buy price and the lowest sell price.\r\n     */\r\n    function getSpread() external view returns (uint256) {\r\n        uint256 bestSell = sellOrders[nextSell[BUFFER]].price;\r\n        uint256 bestBuy = buyOrders[nextBuy[BUFFER]].price;\r\n\r\n        // Return the spread as a positive number (uint must be positive)\r\n        return bestBuy > bestSell ? bestBuy - bestSell : bestSell - bestBuy;\r\n    }\r\n    /* \r\n    */\r\n    function matchOrders(address buyAddress, address sellAddress, bool isBuy) internal view returns (uint256) {\r\n        //If this function is called inside placeBuy AND the new Buy Order matches the Sell Order\r\n        if (isBuy && buyOrders[buyAddress].unitPrice >= sellOrders[sellAddress].unitPrice \r\n            || !isBuy && sellOrders[sellAddress].unitPrice <= buyOrders[buyAddress].unitPrice){\r\n            // If matched Orders have equal quantities\r\n            if (buyOrders[buyAddress].quantity == sellOrders[sellAddress].price){\r\n                return 1;\r\n            }\r\n            // Sell Partial Order\r\n            else if (buyOrders[buyAddress].quantity < sellOrders[sellAddress].price){\r\n                return 2;\r\n            }\r\n            // Buy Partial Order\r\n            else if (buyOrders[buyAddress].quantity > sellOrders[sellAddress].price) {\r\n                return 3;\r\n            }\r\n        }\r\n        else {\r\n            return 4;\r\n        }\r\n\r\n    }\r\n}\r\n",
  "sourcePath": "C:\\Users\\Yu_Hao\\Desktop\\Y3S1\\CZ4153\\Project\\CZ4153-DEX\\frontend\\contracts\\Dex.sol",
  "compiler": {
    "name": "solc",
    "version": "0.8.17+commit.8df45f5f.Emscripten.clang"
  },
  "schemaVersion": "3.4.10",
  "updatedAt": "2022-11-05T14:16:30.772Z",
  "networkType": "ethereum",
  "devdoc": {
    "kind": "dev",
    "methods": {},
    "version": 1
  },
  "userdoc": {
    "kind": "user",
    "methods": {},
    "version": 1
  }
}